{
  "transactions": [
    {
      "hash": "0x53c1730be2c1d04b1da8401a325b8c00bf3d8fc6b046518bd206cd525b007e39",
      "transactionType": "CREATE",
      "contractName": "World",
      "contractAddress": "0x63bbee5017da94018e768f983d3f954a201f8cfa",
      "function": null,
      "arguments": null,
      "transaction": {
        "from": "0xa3327d90d087cdddfb99e598e50b5bdee7fc55bd",
        "to": null,
        "gas": "0x229ac0",
        "value": "0x0",
        "input": "0x6080806040523460de5760017f9b779b17422d0df92223018b32b4d1fa46e071723d6817e2486d003becc55f0055331560cb57600180546001600160a01b03199081169091555f805433928116831782557f2ff4f36f7bcd5d4c260c49696c9d2b7c01d486e2d5ef32b48da03461a743dfe893602093909290916001600160a01b0316907f8be0079c531659141344cd1fd0a4f28419497f9722a3daafe3b4186f6b6457e09080a36d6e657875732e776f726c642e763160901b8152a160405161126590816100e38239f35b631e4fbdf760e01b5f525f60045260245ffd5b5f80fdfe60806040526004361015610011575f80fd5b5f3560e01c806301b9b47c146101545780631a6aae401461014f57806323e8492c1461014a57806334be086f146101455780633ae7af0814610140578063505a181d1461013b57806364260f6914610136578063715018a61461013157806379ba50971461012c5780637da0a8771461012757806388eea6f1146101225780638da5cb5b1461011d5780638e50f019146101185780638f1ac17514610113578063cc49db7e1461010e578063da74222814610109578063e06c193914610104578063e06f8741146100ff578063e30c3978146100fa5763f2fde38b146100f5575f80fd5b610bd1565b610ba9565b610b28565b610a80565b6109cf565b61093a565b6108c6565b610888565b610861565b6107e4565b6107bc565b610737565b6106d4565b6106a5565b610570565b6103f0565b610298565b610236565b6101b0565b34610180575f366003190112610180576040516d6e657875732e776f726c642e763160901b8152602090f35b5f80fd5b602435906001600160a01b038216820361018057565b600435906001600160a01b038216820361018057565b34610180576040366003190112610180576004356101cc610184565b6101d4611198565b6001600160a01b0316908115610227575f81815260036020526040812080546001600160a01b031916841790557fabe1e2e80b5aa04850ff2ee6b99521af71175d49133ecbf7c9e790f6c92c980a9080a3005b6319c0958960e01b5f5260045ffd5b34610180576020366003190112610180576004355f526003602052602060018060a01b0360405f205416604051908152f35b9181601f84011215610180578235916001600160401b038311610180576020808501948460051b01011161018057565b34610180576080366003190112610180576004356024356044356064356001600160401b038111610180576102d1903690600401610268565b92906102db611198565b845f52600260205260ff60405f205416610378577f27b93ae2f1d204f7d28eaeab23952d8f33aedaa7b17dfbbe85ac96286df3be15936103739161036760405161032481610c57565b60018152856020820152866040820152885f52600260205260405f209060406002918051151560ff80198654169116178455602081015160018501550151910155565b60405194859485610cb8565b0390a2005b84631779e62d60e01b5f5260045260245ffd5b9181601f84011215610180578235916001600160401b038311610180576020838186019501011161018057565b805180835260209291819084018484015e5f828201840152601f01601f1916010190565b9060206103ed9281815201906103b8565b90565b34610180576040366003190112610180576004356024356001600160401b0381116101805761042390369060040161038b565b60027f9b779b17422d0df92223018b32b4d1fa46e071723d6817e2486d003becc55f00939293541461052e5760027f9b779b17422d0df92223018b32b4d1fa46e071723d6817e2486d003becc55f00555f828152600360205260409020546001600160a01b031691821561051c575f80848682866104c56104a26111ab565b916104b7604051938492602084019788610d57565b03601f198101835282610c77565b51925af16104d1610d7a565b9015610514576105109061050460017f9b779b17422d0df92223018b32b4d1fa46e071723d6817e2486d003becc55f0055565b604051918291826103dc565b0390f35b602081519101fd5b63c6c0143760e01b5f5260045260245ffd5b633ee5aeb560e01b5f5260045ffd5b9060406003198301126101805760043591602435906001600160401b0382116101805761056c91600401610268565b9091565b346101805761057e3661053d565b906105a261059e610597855f52600260205260405f2090565b5460ff1690565b1590565b610691576105d361059e6105976105c1865f52600860205260405f2090565b335f9081526020919091526040902090565b61067957908161066a61066061060a847f0e1f72f429eb97e64878619984a91e687ae91610348b9ff4216782cc96e49d07966111f1565b610635610630826106238a5f52600460205260405f2090565b905f5260205260405f2090565b610e06565b61064e610630826106238a5f52600560205260405f2090565b610623875f52600660205260405f2090565b805460ff19169055565b61037360405192839283610e8a565b6324a2ac1960e01b5f5260048390523360245260445ffd5b632fa7919d60e01b5f52600483905260245ffd5b34610180576020366003190112610180576004355f526002602052602060ff60405f2054166040519015158152f35b34610180575f366003190112610180576106ec611198565b600180546001600160a01b03199081169091555f80549182168155906001600160a01b03167f8be0079c531659141344cd1fd0a4f28419497f9722a3daafe3b4186f6b6457e08280a3005b34610180575f36600319011261018057600154336001600160a01b03909116036107a957600180546001600160a01b03199081169091555f805433928116831782556001600160a01b0316907f8be0079c531659141344cd1fd0a4f28419497f9722a3daafe3b4186f6b6457e09080a3005b63118cdaa760e01b5f523360045260245ffd5b34610180575f366003190112610180576007546040516001600160a01b039091168152602090f35b3461018057604036600319011261018057600435610800610184565b610808611198565b5f8281526008602090815260408083206001600160a01b03851684529091529020805460ff191690556001600160a01b0316907fb8e0d7351489acd9da4456b5acdd3672b9d3f8d48155f59b3763284be3c60f1b5f80a3005b34610180575f366003190112610180575f546040516001600160a01b039091168152602090f35b34610180576108ad6108993661053d565b9092915f52600660205260405f20926111f1565b5f52602052602060ff60405f2054166040519015158152f35b3461018057604036600319011261018057602060ff6109096004356108e9610184565b905f526008845260405f209060018060a01b03165f5260205260405f2090565b54166040519015158152f35b909161092c6103ed936040845260408401906103b8565b9160208184039101526103b8565b34610180576109483661053d565b90825f52600260205260ff60405f205416156109bc576109a06109716109ac936109a6936111f1565b845f52600460205260405f20815f5260205260405f20945f52600560205260405f20905f5260205260405f2090565b92610e9b565b91610e9b565b9061051060405192839283610915565b82632fa7919d60e01b5f5260045260245ffd5b34610180576020366003190112610180576109e861019a565b6109f0611198565b600754906001600160a01b038216610a43576001600160a01b03166001600160a01b03199190911681176007557f5c8f05824c40a2cedd1ec7245f574909327c72a46448be0e4c12bcb4f5bf42c05f80a2005b60405162461bcd60e51b8152602060048201526015602482015274199bdc9dd85c99195c88185b1c9958591e481cd95d605a1b6044820152606490fd5b3461018057604036600319011261018057600435610a9c610184565b610aa4611198565b815f52600260205260ff60405f20541615610b15575f8281526008602090815260408083206001600160a01b03851684529091529020805460ff191660011790556001600160a01b0316907f87675c9926489679e8472a7ecfddd7f514ac1c6a0134118dcab3db14f581f11a5f80a3005b50632fa7919d60e01b5f5260045260245ffd5b34610180576080366003190112610180576004356024356001600160401b03811161018057610b5b903690600401610268565b916044356001600160401b03811161018057610b7b90369060040161038b565b90606435946001600160401b03861161018057610b9f610ba796369060040161038b565b95909461107e565b005b34610180575f366003190112610180576001546040516001600160a01b039091168152602090f35b3461018057602036600319011261018057610bea61019a565b610bf2611198565b60018060a01b0316806bffffffffffffffffffffffff60a01b600154161760015560018060a01b035f54167f38d16b8cac22d99fc7c124b9cd0de2d3fa1faef420bfe791d8c362d765e227005f80a3005b634e487b7160e01b5f52604160045260245ffd5b606081019081106001600160401b03821117610c7257604052565b610c43565b90601f801991011681019081106001600160401b03821117610c7257604052565b908060209392818452848401375f828201840152601f01601f1916010190565b93919082916060860191865260208601526060604086015252608083019060808160051b85010193835f91601e1982360301905b848410610cfd575050505050505090565b90919293949596607f1982820301875287358381121561018057840190602082359201916001600160401b03811161018057803603831361018057610d486020928392600195610c98565b99019701959401929190610cec565b826014949392823701906bffffffffffffffffffffffff199060601b1681520190565b3d15610db3573d906001600160401b038211610c725760405191610da8601f8201601f191660200184610c77565b82523d5f602084013e565b606090565b90600182811c92168015610de6575b6020831014610dd257565b634e487b7160e01b5f52602260045260245ffd5b91607f1691610dc7565b818110610dfb575050565b5f8155600101610df0565b610e108154610db8565b9081610e1a575050565b81601f5f9311600114610e2c5750555b565b81835260208320610e4891601f0160051c810190600101610df0565b808252602082209081548360011b9084198560031b1c191617905555565b81835290916001600160fb1b0383116101805760209260051b809284830137010190565b9160206103ed938181520191610e66565b9060405191825f825492610eae84610db8565b8084529360018116908115610f175750600114610ed3575b50610e2a92500383610c77565b90505f9291925260205f20905f915b818310610efb575050906020610e2a928201015f610ec6565b6020919350806001915483858901015201910190918492610ee2565b905060209250610e2a94915060ff191682840152151560051b8201015f610ec6565b9190601f8111610f4857505050565b610e2a925f5260205f20906020601f840160051c83019310610f72575b601f0160051c0190610df0565b9091508190610f65565b9092916001600160401b038111610c7257610fa181610f9b8454610db8565b84610f39565b5f601f8211600114610fdf578190610fd09394955f92610fd4575b50508160011b915f199060031b1c19161790565b9055565b013590505f80610fbc565b601f19821694610ff2845f5260205f2090565b915f5b87811061102c575083600195969710611013575b505050811b019055565b01355f19600384901b60f8161c191690555f8080611009565b90926020600181928686013581550194019101610ff5565b949290936110626103ed979561107094606089526060890191610e66565b918683036020880152610c98565b926040818503910152610c98565b959294919493909360ff61109a885f52600260205260405f2090565b541615611185576110c160ff6110bb6105c18a5f52600860205260405f2090565b54161590565b61116d579183916111689361115c61114f61062361113d8a998761112a8f7f4152a3ff4b6805e40a4f8c241bcc539b19cfde7c8e2ab2c23b79b83ad875d7879f9e8f61110c916111f1565b958161112f8c8c61112a8b61062381985f52600460205260405f2090565b610f7c565b5f52600560205260405f2090565b6106238c5f52600660205260405f2090565b805460ff19166001179055565b60405196879687611044565b0390a2565b6324a2ac1960e01b5f5260048790523360245260445ffd5b86632fa7919d60e01b5f5260045260245ffd5b5f546001600160a01b031633036107a957565b60018060a01b036007541680331490816111e7575b50806111dc575b156111d85736601319013560601c90565b3390565b5060143610156111c7565b905015155f6111c0565b604051602081019290916001600160fb1b03821161018057826020916112299360051b8091873781010301601f198101835282610c77565b5190209056fea26469706673582212207f8afcb0dc18b75bda9250afe9ee4f304455396b4e8314e48e39f0f803656c2664736f6c634300081b0033",
        "nonce": "0x6f",
        "chainId": "0x138b"
      },
      "additionalContracts": [],
      "isFixedGasLimit": false
    },
    {
      "hash": "0xe39017229ecc38f1946d8896f54e21d8c4796ecff5ad30a953a31d4ff8a582a1",
      "transactionType": "CREATE",
      "contractName": "NexusDelegationManager",
      "contractAddress": "0xbfb096b2343b15e1c2d222445864f19e3a28b179",
      "function": null,
      "arguments": null,
      "transaction": {
        "from": "0xa3327d90d087cdddfb99e598e50b5bdee7fc55bd",
        "to": null,
        "gas": "0x1c7074",
        "value": "0x0",
        "input": "0x6080806040523460395760017f9b779b17422d0df92223018b32b4d1fa46e071723d6817e2486d003becc55f0055610f52908161003e8239f35b5f80fdfe60806040526004361015610011575f80fd5b5f3560e01c806320a99259146100845780633ab351411461007f578063c66f57751461007a578063cef6d20914610075578063e7a324dc14610070578063f698da251461006b5763f6a0d60e14610066575f80fd5b6106a5565b61068b565b610651565b610177565b61010d565b6100e4565b346100ad5760206100a56100a03661009b366100b1565b6108ab565b610a45565b604051908152f35b5f80fd5b60206003198201126100ad57600435906001600160401b0382116100ad5760e09082900360031901126100ad5760040190565b346100ad5760206100a56100fe6100a03661009b366100b1565b610bce565b5f9103126100ad57565b346100ad575f3660031901126100ad5760206040517f0ac12fd0d048a93db567c251b7987a4a005aa4fb208af047aa3e7ef45fbde44a8152f35b9181601f840112156100ad578235916001600160401b0383116100ad576020808501948460051b0101116100ad57565b346100ad5760603660031901126100ad576004356001600160401b0381116100ad576101a7903690600401610147565b906024356001600160401b0381116100ad576101c7903690600401610147565b926044356001600160401b0381116100ad576101e7903690600401610147565b92909160027f9b779b17422d0df92223018b32b4d1fa46e071723d6817e2486d003becc55f0054146106425760027f9b779b17422d0df92223018b32b4d1fa46e071723d6817e2486d003becc55f0055858114801590610638575b610629575f5b81811061027a5761027860017f9b779b17422d0df92223018b32b4d1fa46e071723d6817e2486d003becc55f0055565b005b610285818388610957565b9088831015610624578260051b850135906102af6102a4858a8a610957565b929094810190610c01565b9060408201518061061357506102c482610a45565b926102ce84610bce565b6020840180519094916102f9916102f591906001600160a01b03169060c085015191610da0565b1590565b6106045780516001600160a01b031680151581816105f9575b506105da575060a081018051156105cb57610334865f525f60205260405f2090565b54905111156105b757606090610351865f525f60205260405f2090565b61035b8154610c29565b90550194855151915f5b83811061051957506103778483610e21565b9091809a939a61050a5788516040515f94859460208301936103b79284926103a9926001600160a01b03169187610d03565b03601f198101835282610702565b51918c5af16103c4610d26565b90156104ec57505f5b8481106104375750509351600197969594506001600160a01b039350831691506103f49050565b6040516001600160a01b039490941684523393911691907fe9722854338cd73cea002385d9c62274a72c2b221ec88de41046ffbcb808041190602090a401610248565b610442818351610c4b565b5180519091906104689061045c906001600160a01b031681565b6001600160a01b031690565b602083015160409093015189516001600160a01b03169391803b156100ad57865f89936104b38f968e9984986040519b8c998a98899763d3eddcc560e01b8952339660048a01610c83565b03925af19182156104e7576001926104cd575b50016103cd565b806104db5f6104e193610702565b80610103565b5f6104c6565b610cf8565b8051156104fb57602081519101fd5b632b3f6d1160e21b5f5260045ffd5b63ce3f0ecf60e01b5f5260045ffd5b610524818951610c4b565b51805190919061053e9061045c906001600160a01b031681565b602083015160409093015188516001600160a01b03169391803b156100ad57855f889361058982968f998e9a6040519b8c998a9889976350a2c19560e11b8952339660048a01610c83565b03925af19182156104e7576001926105a3575b5001610365565b806104db5f6105b193610702565b5f61059c565b639963a38560e01b5f52600485905260245ffd5b630119741f60e71b5f5260045ffd5b6377eecd4b60e01b5f526001600160a01b03166004523360245260445ffd5b90503314155f610312565b63dc176d7560e01b5f5260045ffd5b6259164d60e21b5f5260045260245ffd5b610943565b6305f8ded760e21b5f5260045ffd5b5083861415610242565b633ee5aeb560e01b5f5260045ffd5b346100ad575f3660031901126100ad5760206040517f39441c1b080a193e9695c122526cd6d53a221f04a4a0989b105a37477b4f9d138152f35b346100ad575f3660031901126100ad5760206100a5610998565b346100ad5760203660031901126100ad576004355f525f602052602060405f2054604051908152f35b634e487b7160e01b5f52604160045260245ffd5b606081019081106001600160401b038211176106fd57604052565b6106ce565b90601f801991011681019081106001600160401b038211176106fd57604052565b6040519061073260e083610702565b565b35906001600160a01b03821682036100ad57565b6001600160401b0381116106fd5760051b60200190565b6001600160401b0381116106fd57601f01601f191660200190565b81601f820112156100ad578035906107918261075f565b9261079f6040519485610702565b828452602083830101116100ad57815f926020809301838601378301015290565b9080601f830112156100ad578135916107d883610748565b926107e66040519485610702565b80845260208085019160051b830101918383116100ad5760208101915b83831061081257505050505090565b82356001600160401b0381116100ad578201906060828703601f1901126100ad5760405190610840826106e2565b61084c60208401610734565b825260408301356001600160401b0381116100ad578760206108709286010161077a565b60208301526060830135916001600160401b0383116100ad5761089b8860208096958196010161077a565b6040820152815201920191610803565b91909160e0818403126100ad576108c0610723565b926108ca82610734565b84526108d860208301610734565b60208501526040820135604085015260608201356001600160401b0381116100ad57816109069184016107c0565b60608501526080820135608085015260a082013560a085015260c08201356001600160401b0381116100ad5761093c920161077a565b60c0830152565b634e487b7160e01b5f52603260045260245ffd5b91908110156106245760051b81013590601e19813603018212156100ad5701908135916001600160401b0383116100ad5760200182360381136100ad579190565b60406015602082516109aa8482610702565b82815201742732bc3ab99023b0b6b2902232b632b3b0ba34b7b760591b815220610a3f6001602084516109dd8682610702565b828152603160f81b91019081522083517f8b73c3c69bb8fe3d512ecc4cf759cc79239f7b179b0ffacaa9a75d522b39400f60208083019182526040830195909552948101909301524660808301523060a080840191909152825260c082610702565b51902090565b805160208201516040830151606084015180519095909390926001600160a01b03918216929116610a7585610748565b94610a836040519687610702565b808652610a92601f1991610748565b013660208701375f5b8751811015610b325780610ab16001928a610c4b565b51828060a01b03815116906040602082015160208151910120910151602081519101206040519160208301937f0ac12fd0d048a93db567c251b7987a4a005aa4fb208af047aa3e7ef45fbde44a855260408401526060830152608082015260808152610b1e60a082610702565b519020610b2b8289610c4b565b5201610a9b565b509194610a3f9396506103a99194604051610b55816103a9602082018095610d55565b5190209060a060808201519101519160405196879560208701998a9260c094919796959260e08501987f39441c1b080a193e9695c122526cd6d53a221f04a4a0989b105a37477b4f9d13865260018060a01b0316602086015260018060a01b031660408501526060840152608083015260a08201520152565b610bd6610998565b9060405190602082019261190160f01b84526022830152604282015260428152610a3f606282610702565b906020828203126100ad5781356001600160401b0381116100ad57610c2692016108ab565b90565b9060018201809211610c3757565b634e487b7160e01b5f52601160045260245ffd5b80518210156106245760209160051b010190565b805180835260209291819084018484015e5f828201840152601f01601f1916010190565b96939460c096999895610cb360209594610ca6849560e08d5260e08d0190610c5f565b908b8203888d0152610c5f565b9360408a015288840360608a0152818452848401375f838284010152601f8019910116010195608085015260018060a01b031660a084015260018060a01b0316910152565b6040513d5f823e3d90fd5b826014949392823701906bffffffffffffffffffffffff199060601b1681520190565b3d15610d50573d90610d378261075f565b91610d456040519384610702565b82523d5f602084013e565b606090565b80516020909101905f5b818110610d6c5750505090565b8251845260209384019390920191600101610d5f565b60041115610d8c57565b634e487b7160e01b5f52602160045260245ffd5b9190823b610ddb5790610db291610e60565b50610dbc81610d82565b159182610dc857505090565b6001600160a01b03918216911614919050565b916020926064835f94519060405193630b135d3f60e11b855260048501526040602485015286820190604485015e01915afa630b135d3f60e11b5f5114601f3d11161690565b9060348110610e5157806014116100ad57813560601c92816034116100ad57601483013592603401916033190190565b6304bc946d60e21b5f5260045ffd5b8151919060418303610e9057610e899250602082015190606060408401519301515f1a90610e9a565b9192909190565b50505f9160029190565b91907f7fffffffffffffffffffffffffffffff5d576e7357a4501ddfe92f46681b20a08411610f11579160209360809260ff5f9560405194855216868401526040830152606082015282805260015afa156104e7575f516001600160a01b03811615610f0757905f905f90565b505f906001905f90565b5050505f916003919056fea264697066735822122013ece42ecb0221325271cd09666392336f473bfd3c3e3a1102456ec3a563be8064736f6c634300081b0033",
        "nonce": "0x70",
        "chainId": "0x138b"
      },
      "additionalContracts": [],
      "isFixedGasLimit": false
    },
    {
      "hash": "0xee900c3a2ea591dd349b0d5bda74f9788a9e1a17f3f066219dc0a70e116778ee",
      "transactionType": "CREATE",
      "contractName": "TurnManager",
      "contractAddress": "0x43574743107d13fea812d02dbc77cbf354275425",
      "function": null,
      "arguments": [
        "0xA3327d90d087cdddfB99E598E50B5Bdee7fC55bD"
      ],
      "transaction": {
        "from": "0xa3327d90d087cdddfb99e598e50b5bdee7fc55bd",
        "to": null,
        "gas": "0x170238",
        "value": "0x0",
        "input": "0x608034608657601f610c4f38819003918201601f19168301916001600160401b03831184841017608a57808492602094604052833981010312608657516001600160a01b03811690819003608657600180546001600160a01b031916821781555f9182526002602052604091829020805460ff1916909117905551610bb0908161009f8239f35b5f80fd5b634e487b7160e01b5f52604160045260245ffdfe60806040526004361015610011575f80fd5b5f3560e01c806308148f7a146108865780632d1fb389146107ff5780634e0f5cc81461078a578063592139fa1461040857806371d6ddd6146103585780637fafd198146102785780639acda3bb14610251578063b55991c0146101f6578063b9181611146101b9578063bdc0b893146100fe578063ddc2a251146100c95763f851a4401461009d575f80fd5b346100c5575f3660031901126100c5576001546040516001600160a01b039091168152602090f35b5f80fd5b346100c55760203660031901126100c5576004355f526003602052602060018060a01b0360405f205460081c16604051908152f35b346100c55760403660031901126100c557600435602435805f0b908181036100c557335f52600260205260ff60405f205416156101aa57825f52600360205260405f209160ff835416156101975761018e6020927f8585ca6c14a7521ff67de5b6d318798eea1e29d834a7a0c90a6d9e644fc0cb48949081549060e81b60ff60e81b169060ff60e81b1916179055565b604051908152a2005b83635ef804d360e11b5f5260045260245ffd5b638744ddab60e01b5f5260045ffd5b346100c55760203660031901126100c5576001600160a01b036101da610941565b165f526002602052602060ff60405f2054166040519015158152f35b346100c55760203660031901126100c5576004355f526003602052608060405f20546040519060018060a01b038160081c1682526001600160401b038160a81c1660208301528060e81c5f0b604083015260f01c6060820152f35b346100c5575f3660031901126100c5575f546040516001600160a01b039091168152602090f35b346100c55760203660031901126100c5576004355f52600460205260405f2060405190816020825491828152019081925f5260205f20905f5b81811061033957505050829003601f01601f191682016001600160401b038111838210176103255760408181526020808352845190830181905291928392918301915f5b818110610303575050500390f35b82516001600160a01b03168452859450602093840193909201916001016102f5565b634e487b7160e01b5f52604160045260245ffd5b82546001600160a01b03168452602090930192600192830192016102b1565b346100c55760203660031901126100c557600435335f52600260205260ff60405f205416156101aa57805f52600360205260405f2060ff815416156103f5576060816103c57f60e5eb7454f554532b1c1395d15c4ccfc8a63ac174b76ad8fe87a78e8e813e4c9385610a42565b546001600160401b036040519160018060a01b038160081c1683528060f01c602084015260a81c166040820152a2005b50635ef804d360e11b5f5260045260245ffd5b346100c55760603660031901126100c5576004356024356001600160401b0381116100c557366023820112156100c5578060040135906001600160401b0382116100c5576024810190602436918460051b0101116100c5576044356001600160401b038116908181036100c557335f52600260205260ff60405f205416156101aa57831561077b57845f52600360205260ff60405f20541661076857845f52600460205260405f208054905f81558161074a575b50505f5b84811061069257506104db906001600160401b0343166109a4565b906104e58361097b565b60405160c08101908082106001600160401b038311176103255761060761ffff896105e76001600160401b03966001966040528686526020860190878060a01b031681526105ca8880604089019c169b8c81526105a260608a01948b865260808b01975f895260a08c019e8f525f52600360205261057660405f209b5115158c9060ff801983541691151516179055565b518a54610100600160a81b03191660a08d901b8d90039190911660081b610100600160a81b0316178a55565b51885467ffffffffffffffff60a81b1916911660a81b67ffffffffffffffff60a81b16178755565b51855460e89190911b60ff60e81b1660ff60e81b19909116178555565b5183546001600160f01b0316911660f01b6001600160f01b031916178255565b019151166001600160401b031982541617905560405192806040850160408652526060840192905f905b80821061066857867fa4663596238e958f20b25cc69bc3648d070a6628c207d1a233185cbd3c280ef18780888860208301520390a2005b90919384359060018060a01b0382168092036100c557602081600193829352019501920190610631565b855f52600460205260405f206106b16106ac838888610957565b61097b565b90805468010000000000000000811015610325576106d49160018201815561098f565b81546001600160a01b0393841660039290921b91821b9390911b1916919091179055600181019081811161073657600191875f52600560205260405f2061071f6106ac848a8a610957565b848060a01b03165f5260205260405f2055016104c0565b634e487b7160e01b5f52601160045260245ffd5b5f5260205f20908101905b818110156104bc575f8155600101610755565b846355dd109360e01b5f5260045260245ffd5b630ceba8cf60e01b5f5260045ffd5b346100c55760203660031901126100c5576107a3610941565b6001546001600160a01b031633036107f0575f54906001600160a01b0382166107e1576001600160a01b03166001600160a01b031991909116175f55005b63eff465d760e01b5f5260045ffd5b632ca0794560e01b5f5260045ffd5b346100c55760403660031901126100c557610818610941565b60243590811515908183036100c5576001546001600160a01b031633036107f0577ff8b32f4ee3245ed08b1112f5d0f235cd6703b644bbbc9d3d5885adabd99447bd9161018e60209260018060a01b031694855f526002845260405f209060ff801983541691151516179055565b346100c55760203660031901126100c557600435805f52600360205260405f2080549060ff82161561092e576001600160401b038260a81c1643111561091b577f51647d6db4db87608227623c4a03f901d89237aad859c019d7afdc5bacd658d9916040916108fd6108f66109c4565b9186610a42565b825160089290921c6001600160a01b039081168352166020820152a2005b82638bc1d3ab60e01b5f5260045260245ffd5b82635ef804d360e11b5f5260045260245ffd5b600435906001600160a01b03821682036100c557565b91908110156109675760051b0190565b634e487b7160e01b5f52603260045260245ffd5b356001600160a01b03811681036100c55790565b8054821015610967575f5260205f2001905f90565b906001600160401b03809116911601906001600160401b03821161073657565b5f546001600160a01b0316338114908180610a1b575b6109e45750503390565b81610a11575b5080610a06575b15610a025736601319013560601c90565b3390565b5060143610156109f1565b905015155f6109ea565b508015156109da565b8115610a2e570690565b634e487b7160e01b5f52601260045260245ffd5b5f9081526004602090815260408083208054600584528285208654600881901c6001600160a01b031687529452919093205490915f19820190828211610736575f60e89190911c810b12610b51575091610aa2610aa892610ad094610a24565b9061098f565b90548354610100600160a81b03191660039290921b1c60081b610100600160a81b0316178255565b6001815460f01c019061ffff82116107365780546001600160f01b031660f09290921b6001600160f01b031916919091178155610b4f90610b276001600160401b036001830154166001600160401b0343166109a4565b815467ffffffffffffffff60a81b191660a89190911b67ffffffffffffffff60a81b16179055565b565b9082015f190192908310610736575f19830192831161073657610aa2610aa892610ad094610a2456fea2646970667358221220f03e0b065f1f4f9742ba7e0876bad76735d57ef19079f0f5f3c20428b325a0de64736f6c634300081b0033000000000000000000000000a3327d90d087cdddfb99e598e50b5bdee7fc55bd",
        "nonce": "0x71",
        "chainId": "0x138b"
      },
      "additionalContracts": [],
      "isFixedGasLimit": false
    },
    {
      "hash": "0x97badc0df88bdd315e727b64a2e7502e6fd8cad116f84bb32202e287e942d05e",
      "transactionType": "CREATE",
      "contractName": "RandomnessCoordinator",
      "contractAddress": "0x3baf8f092c38841ea69e17b6249deb20e62de906",
      "function": null,
      "arguments": null,
      "transaction": {
        "from": "0xa3327d90d087cdddfb99e598e50b5bdee7fc55bd",
        "to": null,
        "gas": "0xd98e2",
        "value": "0x0",
        "input": "0x608080604052346019576001805561069a908161001e8239f35b5f80fdfe6080806040526004361015610012575f80fd5b5f3560e01c908163181b1fe8146105e3575080634036778f1461045357806349ce8997146103f35780635b0a789b146103625780636a84a98514610345578063b0caa742146102245763c8820a1614610069575f80fd5b346102205760603660031901126102205760043560243560ff81168091036102205760443560ff811680910361022057811591828015610218575b610209576100b18261064c565b936100bf604051958661061c565b8285526100cb8361064c565b93806020870195601f19013687376101bc57825f190619915f5b858110610133578688604051918291602083019060208452518091526040830191905f5b818110610117575050500390f35b825160ff16845285945060209384019390920191600101610109565b60405160208101908382528260408201526040815261015360608261061c565b5190205f5b858210156101d05750836101bc5785900690600182018092116101a85788518110156101945760ff6001921660208260051b8b010152016100e5565b634e487b7160e01b5f52603260045260245ffd5b634e487b7160e01b5f52601160045260245ffd5b634e487b7160e01b5f52601260045260245ffd5b6101da915061063e565b60405160208101908482528360408201528260608201526060815261020060808261061c565b51902090610158565b633c02373360e21b5f5260045ffd5b5081156100a4565b5f80fd5b34610220576020366003190112610220576004356001546102448161063e565b60015567ffffffffffffffff43169160405192608084019380851067ffffffffffffffff8611176103315760209460405233815284810183815267ffffffffffffffff6002604084019385855260608101935f8552885f525f8a5260405f209160018060a01b039051166bffffffffffffffffffffffff60a01b8354161782555160018201550192511667ffffffffffffffff1983541617825551151560ff60401b82549160401b169060ff60401b191617905560405191825283820152817f19148ed9f7c7e50a85fd5271b12ef4372fb3c27ace4a7ac8de87f32709d0f72d60403393a3604051908152f35b634e487b7160e01b5f52604160045260245ffd5b34610220575f366003190112610220576020600154604051908152f35b34610220575f36600319011261022057335f526002602052602060405f2080549061038c8261063e565b9055604051828101904482524260408201523360601b6060820152826074820152607481526103bc60948261061c565b519020906040518281527fd8cc16a65d72177b2867ad1a15bb6b21d0e93220fdd47e8e67c3690de5f6502f843392a3604051908152f35b34610220576020366003190112610220576004355f525f602052608060405f2060ff60018060a01b03825416916002600182015491015490604051938452602084015267ffffffffffffffff8116604084015260401c1615156060820152f35b34610220576040366003190112610220576004355f81815260208190526040902080549091906001600160a01b038116906024359082156105d0573383036105b957600285019081549567ffffffffffffffff871690814311156105a65760ff8860401c166105935760016040516020810190878252602081526104d860408261061c565b51902091015403610580574091821561056d576801000000000000000060209760ff60401b19161790556040519186830193845260408301526bffffffffffffffffffffffff199060601b1660608201526054815261053860748261061c565b519020917ff87397f8ccf18c41bfee81144299ad64e11085c5a27b280fde98beeefd3e71bd84604051858152a3604051908152f35b8563196aecc160e01b5f5260045260245ffd5b85635af7396b60e01b5f5260045260245ffd5b8663c3f90a6b60e01b5f5260045260245ffd5b86631cbf788b60e21b5f5260045260245ffd5b83631a75e40360e31b5f526004523360245260445ffd5b83630347736d60e51b5f5260045260245ffd5b34610220576020366003190112610220576004356001600160a01b0381169190829003610220576020915f526002825260405f20548152f35b90601f8019910116810190811067ffffffffffffffff82111761033157604052565b5f1981146101a85760010190565b67ffffffffffffffff81116103315760051b6020019056fea2646970667358221220b33c81df97dbee5833e9e48ec808068401919fcc3b5e372fd160cb8b82d7a4e464736f6c634300081b0033",
        "nonce": "0x72",
        "chainId": "0x138b"
      },
      "additionalContracts": [],
      "isFixedGasLimit": false
    },
    {
      "hash": "0xd5e52743dfa7caf743dc1e3888e0b2ddf5ffec67805f0bfeb7c205b95979b6b8",
      "transactionType": "CREATE",
      "contractName": "MonopolyGameSystem",
      "contractAddress": "0x6f11780ae493449c354e313c7d8fc3dff581b19b",
      "function": null,
      "arguments": [
        "0x43574743107d13fEa812D02Dbc77Cbf354275425",
        "0x3bAf8f092c38841eA69e17B6249dEb20E62dE906"
      ],
      "transaction": {
        "from": "0xa3327d90d087cdddfb99e598e50b5bdee7fc55bd",
        "to": null,
        "gas": "0x242a0e",
        "value": "0x0",
        "input": "0x60c0346100aa57601f6114a938819003918201601f19168301916001600160401b038311848410176100ae5780849260409485528339810103126100aa57610052602061004b836100c2565b92016100c2565b60809190915260a052600180546001600160a01b031916331790556040516113d290816100d782396080518181816105160152818161067501528181610a590152610bc9015260a0518181816106f001526109e00152f35b5f80fd5b634e487b7160e01b5f52604160045260245ffd5b51906001600160a01b03821682036100aa5756fe60806040526004361015610011575f80fd5b5f5f3560e01c806319638ad214610c7257806326da39cb14610b795780632e4851b314610a0f57806336013189146109ca57806344e8e192146106215780634cb1575c146105ad5780634e0f5cc81461054557806355ed6e7b146105005780636e8153ca146104705780637d40576f146104335780637d9230891461036a578063882a56e11461034b5780639acda3bb14610324578063cc76b77414610305578063d9dad80d146102c9578063dc4a3e95146102ad578063e614898414610218578063efaa55a014610180578063f851a440146101575763fbe237aa146100f6575f80fd5b34610154576060366003190112610154576044356001600160a01b0381168103610152576001600160a01b0361012a611099565b1633036101435761014090602435600435610dd6565b80f35b637f0cf12160e01b8252600482fd5b505b80fd5b50346101545780600319360112610154576001546040516001600160a01b039091168152602090f35b5034610154576020366003190112610154576004356001600160a01b036101a5611099565b163303610143576101b46110ae565b906101d96040516101c481610cf7565b8481526304c4b400602082015283833361114c565b6040516304c4b40081526001600160a01b03909216917fb99231a130f290766d8dde4d8b081a82b0d2aff2bcad1092326e77fe21a03e3690602090a380f35b50346101545761022736610cc5565b909493919291906001600160a01b0361023e611099565b16330361029e5761024d6110ae565b6001546001600160a01b0390811691160361028f5761014094956040519461027486610d27565b6001600160a01b03168552602085015260408401523361120a565b630f6485f760e11b8552600485fd5b637f0cf12160e01b8552600485fd5b5034610154578060031936011261015457602060405160288152f35b503461015457604036600319011261015457546020906001600160a01b03906102fb9060243590600435908416611262565b5116604051908152f35b503461015457806003193601126101545760206040516304c4b4008152f35b5034610154578060031936011261015457546040516001600160a01b039091168152602090f35b5034610154578060031936011261015457602060405163039387008152f35b50346101545761037936610cc5565b9392916001600160a01b0361038c611099565b1633036104245761039b6110ae565b6001546001600160a01b0390811691160361041557916040916104077f805ea796b295800e1e413ee7b4d13f2a465f6619340de3854557ad715aa8fc50948451906103e582610d27565b6001600160a01b0316808252602082018490528582019890985283873361120a565b82519182526020820152a380f35b630f6485f760e11b8652600486fd5b637f0cf12160e01b8652600486fd5b503461015457604036600319011261015457610467602091610453610caf565b9054600435906001600160a01b0316610fca565b51604051908152f35b50346101545760403660031901126101545761048a610caf565b6001600160a01b0361049a611099565b163303610143576104a96110ae565b6001546001600160a01b039081169116036104f1576001600160a01b03166004357fb02a57faf700eca7e0085706296b73978da5f0725a7d81bfde26aca4f815424c8380a380f35b630f6485f760e11b8252600482fd5b50346101545780600319360112610154576040517f00000000000000000000000000000000000000000000000000000000000000006001600160a01b03168152602090f35b5034610154576020366003190112610154576004356001600160a01b03811690819003610152576001546001600160a01b031633036104f15781546001600160a01b03811661059e576001600160a01b03191617815580f35b63eff465d760e01b8352600483fd5b5034610154576080366003190112610154576105c7610caf565b6001600160a01b036105d7611099565b163303610143576105e66110ae565b6001546001600160a01b039081169116036104f1576040516101409161060b82610cf7565b606435825260443560208301526004353361114c565b503461015457602036600319011261015457600435906001600160a01b03610647611099565b1633036109bb576106566110ae565b60405163ddc2a25160e01b8152600481018490529092906020816024817f00000000000000000000000000000000000000000000000000000000000000006001600160a01b03165afa9081156109b0578391610981575b506001600160a01b038481169116819003610972576106cd848333610fca565b90602082019283511580610969575b61095d575b604051635b0a789b60e01b81527f00000000000000000000000000000000000000000000000000000000000000006001600160a01b03169590602081600481858b5af190811561095257908291829161091d575b50606460405180998193636441050b60e11b8352600483015260066024830152600260448301525afa958615610910578196610844575b5060ff6107848161077c89610d84565b511697610da5565b51169380519761079d610797878a610db5565b8a610db5565b9260288085101594069784898552610814575b5050977fe69b25f6b4867bdb9021d3d7dc5293dfc21811d3a648fce879fdd74fe2f5d61d926107e560a09360609b873361114c565b604051918983528760208401526040830152878a8301526080820152a360405192835260208301526040820152f35b80519163039387008301809311610830575052826107e56107b0565b634e487b7160e01b81526011600452602490fd5b9095503d8087833e6108568183610d43565b8101906020818303126109085780519067ffffffffffffffff821161090c570181601f820112156109085780519167ffffffffffffffff83116108f4578260051b9160208301936108aa6040519586610d43565b84526020808501938201019182116108f057602001915b8183106108d257505050945f61076c565b825160ff811681036108ec578152602092830192016108c1565b8980fd5b8880fd5b634e487b7160e01b88526041600452602488fd5b8680fd5b8780fd5b50604051903d90823e3d90fd5b9150506020813d60201161094a575b8161093960209383610d43565b81010312610152578190515f610735565b3d915061092c565b6040513d84823e3d90fd5b6304c4b40084526106e1565b508251156106dc565b6390dadd7b60e01b8352600483fd5b6109a3915060203d6020116109a9575b61099b8183610d43565b810190610d65565b5f6106ad565b503d610991565b6040513d85823e3d90fd5b637f0cf12160e01b8152600490fd5b50346101545780600319360112610154576040517f00000000000000000000000000000000000000000000000000000000000000006001600160a01b03168152602090f35b5034610b36576020366003190112610b36576004356001600160a01b03610a34611099565b163303610b6a57610a436110ae565b60405163ddc2a25160e01b8152600481018390527f00000000000000000000000000000000000000000000000000000000000000006001600160a01b03169291602082602481875afa918215610b2b575f92610b49575b506001600160a01b039081169116819003610b3a57604051905f82525f6020830152827f45a372086059f3a68a7eba3e81f41fa660780ca16d648dec879c347708b2f930604062195b9960ea1b94a4813b15610b36575f916024839260405194859384926338eb6eeb60e11b845260048401525af18015610b2b57610b1d575080f35b610b2991505f90610d43565b005b6040513d5f823e3d90fd5b5f80fd5b6390dadd7b60e01b5f5260045ffd5b610b6391925060203d6020116109a95761099b8183610d43565b905f610a9a565b637f0cf12160e01b5f5260045ffd5b34610b36576080366003190112610b36576004356001600160a01b03610b9d611099565b163303610b6a57610bac6110ae565b60405163ddc2a25160e01b815260048101839052906020826024817f00000000000000000000000000000000000000000000000000000000000000006001600160a01b03165afa918215610b2b575f92610c51575b506001600160a01b039081169116819003610b3a5760405191604435835260643560208401527f45a372086059f3a68a7eba3e81f41fa660780ca16d648dec879c347708b2f930604060243594a4005b610c6b91925060203d6020116109a95761099b8183610d43565b9083610c01565b34610b36576040366003190112610b3657602080610ca5610c91610caf565b5f54600435906001600160a01b0316610fca565b0151604051908152f35b602435906001600160a01b0382168203610b3657565b60a0906003190112610b365760043590602435906044356001600160a01b0381168103610b3657906064359060843590565b6040810190811067ffffffffffffffff821117610d1357604052565b634e487b7160e01b5f52604160045260245ffd5b6060810190811067ffffffffffffffff821117610d1357604052565b90601f8019910116810190811067ffffffffffffffff821117610d1357604052565b90816020910312610b3657516001600160a01b0381168103610b365790565b805115610d915760200190565b634e487b7160e01b5f52603260045260245ffd5b805160011015610d915760400190565b91908201809211610dc257565b634e487b7160e01b5f52601160045260245ffd5b610dde6110ae565b6001546001600160a01b03908116911603610e7357610dfe828233611262565b80516001600160a01b0316939084158015610e61575b610e5a57604090810151815194855260208501526001600160a01b03909116927f071d66219154a81aa7da0f5c9381d40322e26abdabed422e72683917f03dafd09190a4565b5050505050565b506001600160a01b0382168514610e14565b630f6485f760e11b5f5260045ffd5b602081519101519060208110610e96575090565b5f199060200360031b1b1690565b610ede604051613a3160f11b60208201525f602282015265283630bcb2b960d11b603082015260208152610ed9604082610d43565b610e82565b90565b81601f82011215610b365780519067ffffffffffffffff8211610d135760405192610f16601f8401601f191660200185610d43565b82845260208383010111610b3657815f9260208093018386015e8301015290565b919091604081840312610b3657805167ffffffffffffffff8111610b365783610f61918301610ee1565b92602082015167ffffffffffffffff8111610b3657610ede9201610ee1565b90602080835192838152019201905f5b818110610f9d5750505090565b8251845260209384019390920191600101610f90565b604090610ede939281528160208201520190610f80565b611018915f91949394610ffa604051610fe281610cf7565b84815284602082015296610ff4610ea4565b9361132e565b604051636624edbf60e11b8152948593849283929160048401610fb3565b03916001600160a01b03165afa908115610b2b575f91611076575b5080511561105b57604081805181010312610b36576040602082015191015160208401528252565b50905060405161106a81610cf7565b5f81525f602082015290565b61109291503d805f833e61108a8183610d43565b810190610f37565b505f611033565b5f546001600160a01b031680610ede57503390565b60018060a01b035f541680331490816110e9575b50806110de575b156110da5736601319013560601c90565b3390565b5060143610156110c9565b905015155f6110c2565b916111106020916040959385526080838601526080850190610f80565b9183830385850152805191829182855201602084015e5f60208284010152601f8019910116019060606020828403019101525f60208201520190565b61118a909391929360208351930151604051936020850152604084015260408352611178606084610d43565b6001600160a01b031693610ff4610ea4565b92803b15610b36576111b6935f80946040519687958694859363e06f874160e01b8552600485016110f3565b03925af18015610b2b576111c75750565b5f6111d191610d43565b565b610ede604051613a3160f11b60208201525f60228201526750726f706572747960c01b603082015260208152610ed9604082610d43565b61118a909391929382519260406020820151910151906040519460018060a01b03166020860152604085015260608401526060835261124a608084610d43565b6001600160a01b03169361125c6111d3565b9361136c565b611292915f91949394610ffa60405161127a81610d27565b8481528460208201528460408201529661125c6111d3565b03916001600160a01b03165afa908115610b2b575f91611313575b508051156112f257606081805181010312610b365760208101516001600160a01b0381169190829003610b365760606040820151910151604085015260208401528252565b50905060405161130181610d27565b5f81525f60208201525f604082015290565b61132791503d805f833e61108a8183610d43565b505f6112ad565b919061136960405191611342606084610d43565b600283526040366020850137829461135984610d84565b526001600160a01b031691610da5565b52565b919061136960405161137f606082610d43565b600281526040366020830137809461139682610d84565b52610da556fea2646970667358221220c0b557f25c77c3850754ce053e564bfe69e2bd54f719fb6452c4b12c389764ac64736f6c634300081b003300000000000000000000000043574743107d13fea812d02dbc77cbf3542754250000000000000000000000003baf8f092c38841ea69e17b6249deb20e62de906",
        "nonce": "0x73",
        "chainId": "0x138b"
      },
      "additionalContracts": [],
      "isFixedGasLimit": false
    },
    {
      "hash": "0x747a6d0fed37a4736d815739e9771a3d75f318f68f3ee84a83636eddf396fde2",
      "transactionType": "CALL",
      "contractName": "World",
      "contractAddress": "0x63bbee5017da94018e768f983d3f954a201f8cfa",
      "function": "registerTable(bytes32,bytes32,bytes32,string[])",
      "arguments": [
        "0x74620000000000000000000000000000506c6179657200000000000000000000",
        "0x0000000000000000000000000000000000000000000000000000000000000002",
        "0x0000000000000000000000000000000000000000000000000000000000000002",
        "[position, cash]"
      ],
      "transaction": {
        "from": "0xa3327d90d087cdddfb99e598e50b5bdee7fc55bd",
        "to": "0x63bbee5017da94018e768f983d3f954a201f8cfa",
        "gas": "0xca0a",
        "value": "0x0",
        "input": "0x34be086f74620000000000000000000000000000506c61796572000000000000000000000000000000000000000000000000000000000000000000000000000000000002000000000000000000000000000000000000000000000000000000000000000200000000000000000000000000000000000000000000000000000000000000800000000000000000000000000000000000000000000000000000000000000002000000000000000000000000000000000000000000000000000000000000004000000000000000000000000000000000000000000000000000000000000000800000000000000000000000000000000000000000000000000000000000000008706f736974696f6e00000000000000000000000000000000000000000000000000000000000000000000000000000000000000000000000000000000000000046361736800000000000000000000000000000000000000000000000000000000",
        "nonce": "0x74",
        "chainId": "0x138b"
      },
      "additionalContracts": [],
      "isFixedGasLimit": false
    },
    {
      "hash": "0x9b299359fb7c72ce0f242ea38042b43df604bba960dcc940d0dc30a0c3cb71bf",
      "transactionType": "CALL",
      "contractName": "World",
      "contractAddress": "0x63bbee5017da94018e768f983d3f954a201f8cfa",
      "function": "registerTable(bytes32,bytes32,bytes32,string[])",
      "arguments": [
        "0x7462000000000000000000000000000050726f70657274790000000000000000",
        "0x0000000000000000000000000000000000000000000000000000000000000002",
        "0x0000000000000000000000000000000000000000000000000000000000000003",
        "[owner, price, rent]"
      ],
      "transaction": {
        "from": "0xa3327d90d087cdddfb99e598e50b5bdee7fc55bd",
        "to": "0x63bbee5017da94018e768f983d3f954a201f8cfa",
        "gas": "0xd2f8",
        "value": "0x0",
        "input": "0x34be086f7462000000000000000000000000000050726f706572747900000000000000000000000000000000000000000000000000000000000000000000000000000002000000000000000000000000000000000000000000000000000000000000000300000000000000000000000000000000000000000000000000000000000000800000000000000000000000000000000000000000000000000000000000000003000000000000000000000000000000000000000000000000000000000000006000000000000000000000000000000000000000000000000000000000000000a000000000000000000000000000000000000000000000000000000000000000e000000000000000000000000000000000000000000000000000000000000000056f776e657200000000000000000000000000000000000000000000000000000000000000000000000000000000000000000000000000000000000000000000057072696365000000000000000000000000000000000000000000000000000000000000000000000000000000000000000000000000000000000000000000000472656e7400000000000000000000000000000000000000000000000000000000",
        "nonce": "0x75",
        "chainId": "0x138b"
      },
      "additionalContracts": [],
      "isFixedGasLimit": false
    },
    {
      "hash": "0xeb84ecf0de2675443d9dc5916238409d9e1e617b0eb34498b6af88bc5001d33d",
      "transactionType": "CALL",
      "contractName": "World",
      "contractAddress": "0x63bbee5017da94018e768f983d3f954a201f8cfa",
      "function": "registerSystem(bytes32,address)",
      "arguments": [
        "0x4d6f6e6f706f6c79000000000000000000000000000000000000000000000000",
        "0x6f11780aE493449C354e313C7D8Fc3dFF581B19B"
      ],
      "transaction": {
        "from": "0xa3327d90d087cdddfb99e598e50b5bdee7fc55bd",
        "to": "0x63bbee5017da94018e768f983d3f954a201f8cfa",
        "gas": "0xb380",
        "value": "0x0",
        "input": "0x1a6aae404d6f6e6f706f6c790000000000000000000000000000000000000000000000000000000000000000000000006f11780ae493449c354e313c7d8fc3dff581b19b",
        "nonce": "0x76",
        "chainId": "0x138b"
      },
      "additionalContracts": [],
      "isFixedGasLimit": false
    },
    {
      "hash": "0xb224d2cbd610a939711e1a5d049ca4dec8e7ee65a5000b342d25695397aeb2f3",
      "transactionType": "CALL",
      "contractName": "World",
      "contractAddress": "0x63bbee5017da94018e768f983d3f954a201f8cfa",
      "function": "registerSystem(bytes32,address)",
      "arguments": [
        "0xc5a3bfafbfff9a5398c0d6f759a03d359832b849cd8ab54e458e2e0edca42ed8",
        "0x6f11780aE493449C354e313C7D8Fc3dFF581B19B"
      ],
      "transaction": {
        "from": "0xa3327d90d087cdddfb99e598e50b5bdee7fc55bd",
        "to": "0x63bbee5017da94018e768f983d3f954a201f8cfa",
        "gas": "0xb922",
        "value": "0x0",
        "input": "0x1a6aae40c5a3bfafbfff9a5398c0d6f759a03d359832b849cd8ab54e458e2e0edca42ed80000000000000000000000006f11780ae493449c354e313c7d8fc3dff581b19b",
        "nonce": "0x77",
        "chainId": "0x138b"
      },
      "additionalContracts": [],
      "isFixedGasLimit": false
    },
    {
      "hash": "0xca34b8f9c26962f2d2b345e3719c72c3c39f097c51afc81f00f2897375c6c893",
      "transactionType": "CALL",
      "contractName": "World",
      "contractAddress": "0x63bbee5017da94018e768f983d3f954a201f8cfa",
      "function": "grantWriteAccess(bytes32,address)",
      "arguments": [
        "0x74620000000000000000000000000000506c6179657200000000000000000000",
        "0x6f11780aE493449C354e313C7D8Fc3dFF581B19B"
      ],
      "transaction": {
        "from": "0xa3327d90d087cdddfb99e598e50b5bdee7fc55bd",
        "to": "0x63bbee5017da94018e768f983d3f954a201f8cfa",
        "gas": "0xb380",
        "value": "0x0",
        "input": "0xe06c193974620000000000000000000000000000506c61796572000000000000000000000000000000000000000000006f11780ae493449c354e313c7d8fc3dff581b19b",
        "nonce": "0x78",
        "chainId": "0x138b"
      },
      "additionalContracts": [],
      "isFixedGasLimit": false
    },
    {
      "hash": "0x631fe4a543ab86e874261af1dbd1907c578aec157334462def40b47479fab4e8",
      "transactionType": "CALL",
      "contractName": "World",
      "contractAddress": "0x63bbee5017da94018e768f983d3f954a201f8cfa",
      "function": "grantWriteAccess(bytes32,address)",
      "arguments": [
        "0x7462000000000000000000000000000050726f70657274790000000000000000",
        "0x6f11780aE493449C354e313C7D8Fc3dFF581B19B"
      ],
      "transaction": {
        "from": "0xa3327d90d087cdddfb99e598e50b5bdee7fc55bd",
        "to": "0x63bbee5017da94018e768f983d3f954a201f8cfa",
        "gas": "0xb3f8",
        "value": "0x0",
        "input": "0xe06c19397462000000000000000000000000000050726f706572747900000000000000000000000000000000000000006f11780ae493449c354e313c7d8fc3dff581b19b",
        "nonce": "0x79",
        "chainId": "0x138b"
      },
      "additionalContracts": [],
      "isFixedGasLimit": false
    },
    {
      "hash": "0xc1fce83f45c8cce05d372cdecc339b001487855f2c2a0f8215e36a99575a1064",
      "transactionType": "CALL",
      "contractName": "World",
      "contractAddress": "0x63bbee5017da94018e768f983d3f954a201f8cfa",
      "function": "setTrustedForwarder(address)",
      "arguments": [
        "0xbFB096B2343B15E1c2D222445864f19e3A28B179"
      ],
      "transaction": {
        "from": "0xa3327d90d087cdddfb99e598e50b5bdee7fc55bd",
        "to": "0x63bbee5017da94018e768f983d3f954a201f8cfa",
        "gas": "0xaf1c",
        "value": "0x0",
        "input": "0xda742228000000000000000000000000bfb096b2343b15e1c2d222445864f19e3a28b179",
        "nonce": "0x7a",
        "chainId": "0x138b"
      },
      "additionalContracts": [],
      "isFixedGasLimit": false
    },
    {
      "hash": "0xa6893ded1adfe258dc71a88ecdd8abecdfc3c95c654b9582a67b689a18e37cc4",
      "transactionType": "CALL",
      "contractName": "MonopolyGameSystem",
      "contractAddress": "0x6f11780ae493449c354e313c7d8fc3dff581b19b",
      "function": "setTrustedRouter(address)",
      "arguments": [
        "0x63bbEe5017da94018e768f983D3f954A201f8cfA"
      ],
      "transaction": {
        "from": "0xa3327d90d087cdddfb99e598e50b5bdee7fc55bd",
        "to": "0x6f11780ae493449c354e313c7d8fc3dff581b19b",
        "gas": "0xaf1c",
        "value": "0x0",
        "input": "0x4e0f5cc800000000000000000000000063bbee5017da94018e768f983d3f954a201f8cfa",
        "nonce": "0x7b",
        "chainId": "0x138b"
      },
      "additionalContracts": [],
      "isFixedGasLimit": false
    },
    {
      "hash": "0xe140ac4ef87f27d8cf9095848bbb1d95f554ab8eca356851dd8870b79075c1ab",
      "transactionType": "CALL",
      "contractName": "TurnManager",
      "contractAddress": "0x43574743107d13fea812d02dbc77cbf354275425",
      "function": "authorize(address,bool)",
      "arguments": [
        "0x6f11780aE493449C354e313C7D8Fc3dFF581B19B",
        "true"
      ],
      "transaction": {
        "from": "0xa3327d90d087cdddfb99e598e50b5bdee7fc55bd",
        "to": "0x43574743107d13fea812d02dbc77cbf354275425",
        "gas": "0xb1da",
        "value": "0x0",
        "input": "0x2d1fb3890000000000000000000000006f11780ae493449c354e313c7d8fc3dff581b19b0000000000000000000000000000000000000000000000000000000000000001",
        "nonce": "0x7c",
        "chainId": "0x138b"
      },
      "additionalContracts": [],
      "isFixedGasLimit": false
    },
    {
      "hash": "0x9e1c5d2aefb1f0cba3824f4512b0650166102a8e4b831ebf2b43e8af6ccea818",
      "transactionType": "CALL",
      "contractName": "TurnManager",
      "contractAddress": "0x43574743107d13fea812d02dbc77cbf354275425",
      "function": "authorize(address,bool)",
      "arguments": [
        "0xA3327d90d087cdddfB99E598E50B5Bdee7fC55bD",
        "true"
      ],
      "transaction": {
        "from": "0xa3327d90d087cdddfb99e598e50b5bdee7fc55bd",
        "to": "0x43574743107d13fea812d02dbc77cbf354275425",
        "gas": "0xb1da",
        "value": "0x0",
        "input": "0x2d1fb389000000000000000000000000a3327d90d087cdddfb99e598e50b5bdee7fc55bd0000000000000000000000000000000000000000000000000000000000000001",
        "nonce": "0x7d",
        "chainId": "0x138b"
      },
      "additionalContracts": [],
      "isFixedGasLimit": false
    },
    {
      "hash": "0xa85c4caeddcb3d9342142cf620bcbeda22c7fe89d1dfa4645bd5e427a189e96b",
      "transactionType": "CALL",
      "contractName": "TurnManager",
      "contractAddress": "0x43574743107d13fea812d02dbc77cbf354275425",
      "function": "setTrustedRouter(address)",
      "arguments": [
        "0x63bbEe5017da94018e768f983D3f954A201f8cfA"
      ],
      "transaction": {
        "from": "0xa3327d90d087cdddfb99e598e50b5bdee7fc55bd",
        "to": "0x43574743107d13fea812d02dbc77cbf354275425",
        "gas": "0xaf1c",
        "value": "0x0",
        "input": "0x4e0f5cc800000000000000000000000063bbee5017da94018e768f983d3f954a201f8cfa",
        "nonce": "0x7e",
        "chainId": "0x138b"
      },
      "additionalContracts": [],
      "isFixedGasLimit": false
    },
    {
      "hash": "0x529dc2e3a9da621d395d075d18a928c723a2c6a11a70ee722dd820f5ecd29cbb",
      "transactionType": "CALL",
      "contractName": "TurnManager",
      "contractAddress": "0x43574743107d13fea812d02dbc77cbf354275425",
      "function": "startTurns(uint256,address[],uint64)",
      "arguments": [
        "1",
        "[0x70997970C51812dc3A010C7d01b50e0d17dc79C8]",
        "50000"
      ],
      "transaction": {
        "from": "0xa3327d90d087cdddfb99e598e50b5bdee7fc55bd",
        "to": "0x43574743107d13fea812d02dbc77cbf354275425",
        "gas": "0xba4e",
        "value": "0x0",
        "input": "0x592139fa00000000000000000000000000000000000000000000000000000000000000010000000000000000000000000000000000000000000000000000000000000060000000000000000000000000000000000000000000000000000000000000c350000000000000000000000000000000000000000000000000000000000000000100000000000000000000000070997970c51812dc3a010c7d01b50e0d17dc79c8",
        "nonce": "0x7f",
        "chainId": "0x138b"
      },
      "additionalContracts": [],
      "isFixedGasLimit": false
    },
    {
      "hash": "0x385cd6ed2383c0207e0d820bc37d5d18077f44840995a7c5b78e435d2818286c",
      "transactionType": "CREATE",
      "contractName": "TurnBoundEnforcer",
      "contractAddress": "0xfe5e70d1f86e4cf949966c8a5aaddf2b4fef4aa0",
      "function": null,
      "arguments": null,
      "transaction": {
        "from": "0xa3327d90d087cdddfb99e598e50b5bdee7fc55bd",
        "to": null,
        "gas": "0x59b9a",
        "value": "0x0",
        "input": "0x60808060405234601557610250908161001a8239f35b5f80fdfe6080806040526004361015610012575f80fd5b5f3560e01c908163a145832a14610046575063d3eddcc514610032575f80fd5b346100425761004036610174565b005b5f80fd5b3461004257604061005636610174565b509896945050505050838092500103126100425780356001600160a01b03811691908290036100425760248460209384829463ddc2a25160e01b8452013560048301525afa91821561013b575f926100cd575b506001600160a01b039081169116036100be57005b631cc191eb60e31b5f5260045ffd5b90915060203d602011610134575b601f8101601f1916820167ffffffffffffffff8111838210176101205760209183916040528101031261004257516001600160a01b03811681036100425790826100a9565b634e487b7160e01b5f52604160045260245ffd5b503d6100db565b6040513d5f823e3d90fd5b9181601f840112156100425782359167ffffffffffffffff8311610042576020838186019501011161004257565b9060e06003198301126100425760043567ffffffffffffffff811161004257826101a091600401610146565b9290929160243567ffffffffffffffff811161004257826101c391600401610146565b92909291604435916064359067ffffffffffffffff8211610042576101ea91600401610146565b90916084359060a4356001600160a01b0381168103610042579060c4356001600160a01b0381168103610042579056fea26469706673582212200fcdba30f8568c1f0ce9fe197169ca2c081d5ba5a66b2a50cbc31bc474fc440f64736f6c634300081b0033",
        "nonce": "0x80",
        "chainId": "0x138b"
      },
      "additionalContracts": [],
      "isFixedGasLimit": false
    },
    {
      "hash": "0xab471cb6681006f770115ab376215c0a158662a14d8859c657efcd1a0ac3b193",
      "transactionType": "CREATE",
      "contractName": "SystemAllowlistEnforcer",
      "contractAddress": "0xe12547f23c3c4a07a83d3bc00fb08a13b8469285",
      "function": null,
      "arguments": null,
      "transaction": {
        "from": "0xa3327d90d087cdddfb99e598e50b5bdee7fc55bd",
        "to": null,
        "gas": "0x69c90",
        "value": "0x0",
        "input": "0x608080604052346015576102e7908161001a8239f35b5f80fdfe6080806040526004361015610012575f80fd5b5f3560e01c908163a145832a14610046575063d3eddcc514610032575f80fd5b3461004257610040366101d8565b005b5f80fd5b3461004257610054366101d8565b505050935095949391505082016040838203126100425782356001600160a01b03811693908490036100425760208101359067ffffffffffffffff8211610042570181601f820112156100425780359067ffffffffffffffff8211610196578160051b91601f19603f840116870187811067ffffffffffffffff82111761019657604052865260208087019282010192831161004257602001905b828210610186575050506034811061017757806014116100425780603411610042576033190190833560601c0361016857602481106101685780600411610042576318a30a1f60e31b60348401356001600160e01b03191601610168576024116100425760386101619201359061027e565b1561016857005b63e2b8d77d60e01b5f5260045ffd5b6304bc946d60e21b5f5260045ffd5b81358152602091820191016100ef565b634e487b7160e01b5f52604160045260245ffd5b9181601f840112156100425782359167ffffffffffffffff8311610042576020838186019501011161004257565b9060e06003198301126100425760043567ffffffffffffffff81116100425782610204916004016101aa565b9290929160243567ffffffffffffffff81116100425782610227916004016101aa565b92909291604435916064359067ffffffffffffffff82116100425761024e916004016101aa565b90916084359060a4356001600160a01b0381168103610042579060c4356001600160a01b03811681036100425790565b905f5b82518110156102aa578160208260051b85010151146102a257600101610281565b505050600190565b5050505f9056fea2646970667358221220efc58d6567d8e8cda8e6c3699c6a855bdac51780323fa8ae0df78f759f8f3c9164736f6c634300081b0033",
        "nonce": "0x81",
        "chainId": "0x138b"
      },
      "additionalContracts": [],
      "isFixedGasLimit": false
    },
    {
      "hash": "0xf4c2e5664344ab36124f2157a44329cbf0e82f59d5fde469cc4dc8c9b3670cf6",
      "transactionType": "CREATE",
      "contractName": "TimestampEnforcer",
      "contractAddress": "0xf1ca2cf4aec67c658a021d60ea5cd4b7d53afc6d",
      "function": null,
      "arguments": null,
      "transaction": {
        "from": "0xa3327d90d087cdddfb99e598e50b5bdee7fc55bd",
        "to": null,
        "gas": "0x4485c",
        "value": "0x0",
        "input": "0x6080806040523460155761018e908161001a8239f35b5f80fdfe60806040526004361015610011575f80fd5b5f3560e01c8063a145832a146100435763d3eddcc51461002f575f80fd5b3461003f5761003d366100b2565b005b5f80fd5b3461003f576020610053366100b2565b5050505050505050908092918101031261003f576103e8903504421161007557005b6330d3ba0760e01b5f5260045ffd5b9181601f8401121561003f5782359167ffffffffffffffff831161003f576020838186019501011161003f57565b9060e060031983011261003f5760043567ffffffffffffffff811161003f57826100de91600401610084565b9290929160243567ffffffffffffffff811161003f578261010191600401610084565b92909291604435916064359067ffffffffffffffff821161003f5761012891600401610084565b90916084359060a4356001600160a01b038116810361003f579060c4356001600160a01b038116810361003f579056fea264697066735822122009ae9ea39841b8f247b0fbbc331a6e75361d0279fa23bd827fac02445feb146864736f6c634300081b0033",
        "nonce": "0x82",
        "chainId": "0x138b"
      },
      "additionalContracts": [],
      "isFixedGasLimit": false
    },
    {
      "hash": "0x9d7d92b7183f7cb20ae6be094340dc5a74b7edd290af8e4c23357f21d9fa0e70",
      "transactionType": "CREATE",
      "contractName": "LimitedCallsEnforcer",
      "contractAddress": "0x4969fd85897ebb2030a3355a5ac7a60f410c9f0f",
      "function": null,
      "arguments": null,
      "transaction": {
        "from": "0xa3327d90d087cdddfb99e598e50b5bdee7fc55bd",
        "to": null,
        "gas": "0x505ba",
        "value": "0x0",
        "input": "0x608080604052346015576101f8908161001a8239f35b5f80fdfe60806040526004361015610011575f80fd5b5f3560e01c8063a145832a14610077578063d3eddcc5146100675763d88a792c1461003a575f80fd5b34610063576020366003190112610063576004355f525f602052602060405f2054604051908152f35b5f80fd5b34610063576100753661011c565b005b346100635760206100873661011c565b505096979593505050508480925001031261006357805f525f60205260405f205491358210156100df57600182018092116100cb575f525f60205260405f20555f80f35b634e487b7160e01b5f52601160045260245ffd5b6330def6b560e01b5f5260045ffd5b9181601f840112156100635782359167ffffffffffffffff8311610063576020838186019501011161006357565b9060e06003198301126100635760043567ffffffffffffffff81116100635782610148916004016100ee565b9290929160243567ffffffffffffffff8111610063578261016b916004016100ee565b92909291604435916064359067ffffffffffffffff821161006357610192916004016100ee565b90916084359060a4356001600160a01b0381168103610063579060c4356001600160a01b0381168103610063579056fea264697066735822122023bdb9ea9cd8f16ad84fb5594317d8991a073b85b5316e7323f026c3fb978d3d64736f6c634300081b0033",
        "nonce": "0x83",
        "chainId": "0x138b"
      },
      "additionalContracts": [],
      "isFixedGasLimit": false
    },
    {
      "hash": "0xcc4fe776e76b56b862d5c5d0031202a5ec422c980cb6b9b984fab0441db4d71c",
      "transactionType": "CREATE",
      "contractName": "PerActionCapEnforcer",
      "contractAddress": "0x748d2c6c98a932abe515653f97260ea4ae666b1c",
      "function": null,
      "arguments": null,
      "transaction": {
        "from": "0xa3327d90d087cdddfb99e598e50b5bdee7fc55bd",
        "to": null,
        "gas": "0x5af72",
        "value": "0x0",
        "input": "0x6080806040523460155761025c908161001a8239f35b5f80fdfe60806040526004361015610011575f80fd5b5f3560e01c8063a145832a146100435763d3eddcc51461002f575f80fd5b3461003f5761003d36610180565b005b5f80fd5b3461003f57604061005336610180565b505050949150948096935080925001031261003f5782356001600160a01b0381169081900361003f5760348210610143578160141161003f578160341161003f57601483013591603319019161013457823560601c036100fc57600481106100fc578060041161003f5760348201356001600160e01b03191663a9059cbb60e01b810361010b5750604481106100fc5760441161003f5760586020910135915b0135106100fc57005b63068562c960e11b5f5260045ffd5b6323b872dd60e01b036100fc57606481106100fc5760641161003f5760786020910135916100f3565b63ce3f0ecf60e01b5f5260045ffd5b6304bc946d60e21b5f5260045ffd5b9181601f8401121561003f5782359167ffffffffffffffff831161003f576020838186019501011161003f57565b9060e060031983011261003f5760043567ffffffffffffffff811161003f57826101ac91600401610152565b9290929160243567ffffffffffffffff811161003f57826101cf91600401610152565b92909291604435916064359067ffffffffffffffff821161003f576101f691600401610152565b90916084359060a4356001600160a01b038116810361003f579060c4356001600160a01b038116810361003f579056fea2646970667358221220feb0d8515ff2081ef929966627ac6c978fd55a92f40aa9166d0dbc19f237364464736f6c634300081b0033",
        "nonce": "0x84",
        "chainId": "0x138b"
      },
      "additionalContracts": [],
      "isFixedGasLimit": false
    },
    {
      "hash": "0x902ac5c2395933ff0a7734c883c035f8166fdf0cfdee5da27de8f22d77b8ac75",
      "transactionType": "CREATE",
      "contractName": "ERC20TransferAmountEnforcer",
      "contractAddress": "0x8e65bd7c637b024dffc34a4d4bd68cb7d56f60c0",
      "function": null,
      "arguments": null,
      "transaction": {
        "from": "0xa3327d90d087cdddfb99e598e50b5bdee7fc55bd",
        "to": null,
        "gas": "0x65f40",
        "value": "0x0",
        "input": "0x608080604052346015576102c3908161001a8239f35b5f80fdfe60806040526004361015610011575f80fd5b5f3560e01c8063a145832a14610077578063d3eddcc5146100675763d8acc5481461003a575f80fd5b34610063576020366003190112610063576004355f525f602052602060405f2054604051908152f35b5f80fd5b3461006357610075366101e7565b005b34610063576040610087366101e7565b505096979350935093868092500103126100635783356001600160a01b0381169081900361006357603482106101aa5781601411610063578160341161006357601483013591603319019161019b57823560601c03610152576004811061015257806004116100635760348201356001600160e01b03191663a9059cbb60e01b8103610175575060448110610152576044116100635760580135915b815f525f60205260405f205492830180931161016157602001358211610152575f525f60205260405f20555f80f35b6376e0dfc160e11b5f5260045ffd5b634e487b7160e01b5f52601160045260245ffd5b6323b872dd60e01b03610152576064811061015257606411610063576078013591610123565b63ce3f0ecf60e01b5f5260045ffd5b6304bc946d60e21b5f5260045ffd5b9181601f840112156100635782359167ffffffffffffffff8311610063576020838186019501011161006357565b9060e06003198301126100635760043567ffffffffffffffff81116100635782610213916004016101b9565b9290929160243567ffffffffffffffff81116100635782610236916004016101b9565b92909291604435916064359067ffffffffffffffff82116100635761025d916004016101b9565b90916084359060a4356001600160a01b0381168103610063579060c4356001600160a01b0381168103610063579056fea2646970667358221220f39790b3789cb74363ead57009f687ca7f7e52b20f941b2f6ca8640eebe3a90064736f6c634300081b0033",
        "nonce": "0x85",
        "chainId": "0x138b"
      },
      "additionalContracts": [],
      "isFixedGasLimit": false
    },
    {
      "hash": "0x9fb0f8fe22d14cb187105463e34226bccbe8f6e93e9a7b5b3a12c4a3162f3755",
      "transactionType": "CREATE",
      "contractName": "AllowedRecipientsEnforcer",
      "contractAddress": "0x36350e396f5593459a4ab950f5b381f42cf346cb",
      "function": null,
      "arguments": null,
      "transaction": {
        "from": "0xa3327d90d087cdddfb99e598e50b5bdee7fc55bd",
        "to": null,
        "gas": "0x7504a",
        "value": "0x0",
        "input": "0x60808060405234601557610351908161001a8239f35b5f80fdfe60806040526004361015610011575f80fd5b5f3560e01c8063a145832a146100435763d3eddcc51461002f575f80fd5b3461003f5761003d36610091565b005b5f80fd5b3461003f5761003d61005436610091565b50505095925093925050610137565b9181601f8401121561003f5782359167ffffffffffffffff831161003f576020838186019501011161003f57565b9060e060031983011261003f5760043567ffffffffffffffff811161003f57826100bd91600401610063565b9290929160243567ffffffffffffffff811161003f57826100e091600401610063565b92909291604435916064359067ffffffffffffffff821161003f5761010791600401610063565b90916084359060a4356001600160a01b038116810361003f579060c4356001600160a01b038116810361003f5790565b929083019260408185031261003f5780356001600160a01b038116919082900361003f5760208101359067ffffffffffffffff821161003f570184601f8201121561003f5780359467ffffffffffffffff8611610307578560051b9160405196601f19603f850116880188811067ffffffffffffffff82111761030757604052875260208088019382010191821161003f57602001915b8183106102e757505050603482106102d8578160141161003f578160341161003f5760148301359160331901916102c957823560601c0361028c576004811061028c578060041161003f5760348201356001600160e01b03191663a9059cbb60e01b810361029b57506044811061028c5760241161003f57603801356001600160a01b03165b8151915f5b8381101561028c57600581901b8201602001516001600160a01b0384811691161461028657600101610259565b50505050565b63133307bb60e21b5f5260045ffd5b6323b872dd60e01b0361028c576064811061028c5760441161003f57605801356001600160a01b0316610254565b63ce3f0ecf60e01b5f5260045ffd5b6304bc946d60e21b5f5260045ffd5b82356001600160a01b038116810361003f578152602092830192016101ce565b634e487b7160e01b5f52604160045260245ffdfea264697066735822122016ed21093718aecd2a23625153752225318531026396964eb40af52f309a03da64736f6c634300081b0033",
        "nonce": "0x86",
        "chainId": "0x138b"
      },
      "additionalContracts": [],
      "isFixedGasLimit": false
    },
    {
      "hash": "0x6c57f8900538372a2a37a434e08943416579fee90ce709fec2aed6db87834da9",
      "transactionType": "CREATE",
      "contractName": "MonopolyPot",
      "contractAddress": "0xb712f885dd574297ae3e9b4ee2016fbe9a6002e7",
      "function": null,
      "arguments": [
        "0x189BdF9e9e4FfE4AC0e8eD0479b158843Bcd0cde",
        "0xA3327d90d087cdddfB99E598E50B5Bdee7fC55bD",
        "0xA3327d90d087cdddfB99E598E50B5Bdee7fC55bD",
        "0"
      ],
      "transaction": {
        "from": "0xa3327d90d087cdddfb99e598e50b5bdee7fc55bd",
        "to": null,
        "gas": "0x10f6b4",
        "value": "0x0",
        "input": "0x6101003461012e57601f6109e438819003918201601f19168301916001600160401b038311848410176101325780849260809460405283398101031261012e578051906001600160a01b038216820361012e5761005e60208201610146565b606061006c60408401610146565b9201519261ffff841680850361012e576127109060017f9b779b17422d0df92223018b32b4d1fa46e071723d6817e2486d003becc55f00551161011f5760805260a05260c05260e052604051610889908161015b82396080518181816101ba0152818161022a0152818161058f01526105df015260a05181818160aa0152818161045d0152818161064f01526106d2015260c05181818161037d01526105be015260e0518181816104df01526106980152f35b63442ed3b160e01b5f5260045ffd5b5f80fd5b634e487b7160e01b5f52604160045260245ffd5b51906001600160a01b038216820361012e5756fe60806040526004361015610011575f80fd5b5f3560e01c806301958e16146106bc57806321c9c44a1461067e57806389c1521e1461063a578063962d193814610436578063a2383106146103f2578063c3c3df4f146103ac578063d13ac21c14610368578063e2bbb158146101e9578063fc0c546a146101a55763fcc0776e14610087575f80fd5b346101a15760603660031901126101a1576004356100a3610780565b60443591907f00000000000000000000000000000000000000000000000000000000000000006001600160a01b0316330361019257815f525f60205260405f20805460ff81161561017f5760081c60ff1661016c577f84d9a926797cdc1036fb9ffa7983de7d739fdf7cb5c5e5c6ca38d67b30ef79119160016020920161012b868254610796565b90555f8481526001835260408082206001600160a01b0384168352845290208054610157908790610796565b90556040519485526001600160a01b031693a3005b826369755d2d60e01b5f5260045260245ffd5b83636a1d9c2360e01b5f5260045260245ffd5b63869a1abb60e01b5f5260045ffd5b5f80fd5b346101a1575f3660031901126101a1576040517f00000000000000000000000000000000000000000000000000000000000000006001600160a01b03168152602090f35b346101a15760403660031901126101a1576024356004356102086107a3565b805f525f60205260405f20805460ff8116156103555760081c60ff16610342577f00000000000000000000000000000000000000000000000000000000000000006040516323b872dd60e01b5f5233600452306024528460445260205f60648180865af19060015f5114821615610321575b6040525f606052156103015750600101610295838254610796565b9055805f52600160205260405f2060018060a01b0333165f5260205260405f206102c0838254610796565b90556040519182527f84d9a926797cdc1036fb9ffa7983de7d739fdf7cb5c5e5c6ca38d67b30ef791160203393a360015f5160206108345f395f51905f5255005b635274afe760e01b5f9081526001600160a01b0391909116600452602490fd5b90600181151661033957823b15153d1516169061027a565b503d5f823e3d90fd5b506369755d2d60e01b5f5260045260245ffd5b82636a1d9c2360e01b5f5260045260245ffd5b346101a1575f3660031901126101a1576040517f00000000000000000000000000000000000000000000000000000000000000006001600160a01b03168152602090f35b346101a15760203660031901126101a1576004355f525f602052606060405f206001815491015460ff604051928181161515845260081c16151560208301526040820152f35b346101a15760403660031901126101a15761040b610780565b6004355f52600160205260405f209060018060a01b03165f52602052602060405f2054604051908152f35b346101a15760403660031901126101a157600435610452610780565b9061045b6107a3565b7f00000000000000000000000000000000000000000000000000000000000000006001600160a01b0316330361019257805f525f60205260405f209182549060ff8216156103555760ff8260081c1661016c57825f52600160205260405f2060018060a01b0382165f5260205260405f20541561061c57600184019081549461ffff7f0000000000000000000000000000000000000000000000000000000000000000168087029087820414871517156106085761271090049081870396808811610608575f60409584936101007ffc48e6813640737c52c5002f74e1449348d3b8bb4789b85dedcf8298328f83299961ffff191617905555816105b8575b03610588575b825195865260208601526001600160a01b031693a360015f5160206108345f395f51905f5255005b6105b386837f00000000000000000000000000000000000000000000000000000000000000006107db565b610560565b610603827f00000000000000000000000000000000000000000000000000000000000000007f00000000000000000000000000000000000000000000000000000000000000006107db565b61055a565b634e487b7160e01b5f52601160045260245ffd5b8263a6465ad960e01b5f5260045260018060a01b031660245260445ffd5b346101a1575f3660031901126101a1576040517f00000000000000000000000000000000000000000000000000000000000000006001600160a01b03168152602090f35b346101a1575f3660031901126101a157602060405161ffff7f0000000000000000000000000000000000000000000000000000000000000000168152f35b346101a15760203660031901126101a1576004357f00000000000000000000000000000000000000000000000000000000000000006001600160a01b0316330361019257805f525f60205260ff60405f2054168015610768575b61075657805f525f60205260405f20600160ff198254161790557f5228a6eed1a56d039ff842870c6ab181a6da4225004b1cbdfd326dd7294cacfe5f80a2005b630a67919160e11b5f5260045260245ffd5b50805f525f60205260ff60405f205460081c16610716565b602435906001600160a01b03821682036101a157565b9190820180921161060857565b60025f5160206108345f395f51905f5254146107cc5760025f5160206108345f395f51905f5255565b633ee5aeb560e01b5f5260045ffd5b916040519163a9059cbb60e01b5f5260018060a01b031660045260245260205f60448180865af19060015f511482161561081b575b604052156103015750565b90600181151661033957823b15153d1516169061081056fe9b779b17422d0df92223018b32b4d1fa46e071723d6817e2486d003becc55f00a26469706673582212206c0583444fd8a977c2264ecce32be4f9e85b33cc38f7d918f7039e5f573a9c8564736f6c634300081b0033000000000000000000000000189bdf9e9e4ffe4ac0e8ed0479b158843bcd0cde000000000000000000000000a3327d90d087cdddfb99e598e50b5bdee7fc55bd000000000000000000000000a3327d90d087cdddfb99e598e50b5bdee7fc55bd0000000000000000000000000000000000000000000000000000000000000000",
        "nonce": "0x87",
        "chainId": "0x138b"
      },
      "additionalContracts": [],
      "isFixedGasLimit": false
    }
  ],
  "receipts": [
    {
      "type": "0x0",
      "status": "0x1",
      "cumulativeGasUsed": "0x13c5c9",
      "logs": [
        {
          "address": "0x63bbee5017da94018e768f983d3f954a201f8cfa",
          "topics": [
            "0x8be0079c531659141344cd1fd0a4f28419497f9722a3daafe3b4186f6b6457e0",
            "0x0000000000000000000000000000000000000000000000000000000000000000",
            "0x000000000000000000000000a3327d90d087cdddfb99e598e50b5bdee7fc55bd"
          ],
          "data": "0x",
          "blockHash": "0xf00040e7bb107f7e3337f9f8aa0f01a6a8953f39536241f436506e3868a8c21d",
          "blockNumber": "0x2621c0b",
          "blockTimestamp": "0x6a2fbaf7",
          "transactionHash": "0x53c1730be2c1d04b1da8401a325b8c00bf3d8fc6b046518bd206cd525b007e39",
          "transactionIndex": "0x3",
          "logIndex": "0x9",
          "removed": false
        },
        {
          "address": "0x63bbee5017da94018e768f983d3f954a201f8cfa",
          "topics": [
            "0x2ff4f36f7bcd5d4c260c49696c9d2b7c01d486e2d5ef32b48da03461a743dfe8"
          ],
          "data": "0x6e657875732e776f726c642e7631000000000000000000000000000000000000",
          "blockHash": "0xf00040e7bb107f7e3337f9f8aa0f01a6a8953f39536241f436506e3868a8c21d",
          "blockNumber": "0x2621c0b",
          "blockTimestamp": "0x6a2fbaf7",
          "transactionHash": "0x53c1730be2c1d04b1da8401a325b8c00bf3d8fc6b046518bd206cd525b007e39",
          "transactionIndex": "0x3",
          "logIndex": "0xa",
          "removed": false
        }
      ],
      "logsBloom": "0x00000000000000000000000000000000001000000000000000800000000010000000000000000000000001000000000000000000000000000000000000000000000000000000000000000000000000000001000000000000000000000000800000800000020000000000000000000808000000000000000000000000000000400000000000000000000000000000000000000000000000400000000000000000000000000000000000000000000000000000000000000000000000000000000000000000000000000000000000000000000000000000000000000000000020000000000000000000000000000000000000000010000040000000000000000000",
      "transactionHash": "0x53c1730be2c1d04b1da8401a325b8c00bf3d8fc6b046518bd206cd525b007e39",
      "transactionIndex": "0x3",
      "blockHash": "0xf00040e7bb107f7e3337f9f8aa0f01a6a8953f39536241f436506e3868a8c21d",
      "blockNumber": "0x2621c0b",
      "gasUsed": "0x1125f9",
      "effectiveGasPrice": "0xba43cfaa0",
      "blobGasUsed": "0x124ad0",
      "from": "0xa3327d90d087cdddfb99e598e50b5bdee7fc55bd",
      "to": null,
      "contractAddress": "0x63bbee5017da94018e768f983d3f954a201f8cfa"
    },
    {
      "type": "0x0",
      "status": "0x1",
      "cumulativeGasUsed": "0xecbd9",
      "logs": [],
      "logsBloom": "0x00000000000000000000000000000000000000000000000000000000000000000000000000000000000000000000000000000000000000000000000000000000000000000000000000000000000000000000000000000000000000000000000000000000000000000000000000000000000000000000000000000000000000000000000000000000000000000000000000000000000000000000000000000000000000000000000000000000000000000000000000000000000000000000000000000000000000000000000000000000000000000000000000000000000000000000000000000000000000000000000000000000000000000000000000000000",
      "transactionHash": "0xe39017229ecc38f1946d8896f54e21d8c4796ecff5ad30a953a31d4ff8a582a1",
      "transactionIndex": "0x1",
      "blockHash": "0x69f7eeb1d903891c35b4bfe5846cdd2b0cbf241a32930c9704b121bcb529c175",
      "blockNumber": "0x2621c0e",
      "gasUsed": "0xe170a",
      "effectiveGasPrice": "0xba43cfaa0",
      "blobGasUsed": "0xf8250",
      "from": "0xa3327d90d087cdddfb99e598e50b5bdee7fc55bd",
      "to": null,
      "contractAddress": "0xbfb096b2343b15e1c2d222445864f19e3a28b179"
    },
    {
      "type": "0x0",
      "status": "0x1",
      "cumulativeGasUsed": "0xc1a34",
      "logs": [],
      "logsBloom": "0x00000000000000000000000000000000000000000000000000000000000000000000000000000000000000000000000000000000000000000000000000000000000000000000000000000000000000000000000000000000000000000000000000000000000000000000000000000000000000000000000000000000000000000000000000000000000000000000000000000000000000000000000000000000000000000000000000000000000000000000000000000000000000000000000000000000000000000000000000000000000000000000000000000000000000000000000000000000000000000000000000000000000000000000000000000000",
      "transactionHash": "0xee900c3a2ea591dd349b0d5bda74f9788a9e1a17f3f066219dc0a70e116778ee",
      "transactionIndex": "0x1",
      "blockHash": "0x26ad60ccf0ce53f612e293f83beee986964369a0c4d50bd93d860a30c928ee1f",
      "blockNumber": "0x2621c11",
      "gasUsed": "0xb6565",
      "effectiveGasPrice": "0xba43cfaa0",
      "blobGasUsed": "0xc2560",
      "from": "0xa3327d90d087cdddfb99e598e50b5bdee7fc55bd",
      "to": null,
      "contractAddress": "0x43574743107d13fea812d02dbc77cbf354275425"
    },
    {
      "type": "0x0",
      "status": "0x1",
      "cumulativeGasUsed": "0x76f06",
      "logs": [],
      "logsBloom": "0x00000000000000000000000000000000000000000000000000000000000000000000000000000000000000000000000000000000000000000000000000000000000000000000000000000000000000000000000000000000000000000000000000000000000000000000000000000000000000000000000000000000000000000000000000000000000000000000000000000000000000000000000000000000000000000000000000000000000000000000000000000000000000000000000000000000000000000000000000000000000000000000000000000000000000000000000000000000000000000000000000000000000000000000000000000000",
      "transactionHash": "0x97badc0df88bdd315e727b64a2e7502e6fd8cad116f84bb32202e287e942d05e",
      "transactionIndex": "0x1",
      "blockHash": "0x2efcd18f4c30b8ec079f70d23148621ac8368818a8f63ad8dce08f5dcbf745c2",
      "blockNumber": "0x2621c14",
      "gasUsed": "0x6ba37",
      "effectiveGasPrice": "0xba43cfaa0",
      "blobGasUsed": "0x71610",
      "from": "0xa3327d90d087cdddfb99e598e50b5bdee7fc55bd",
      "to": null,
      "contractAddress": "0x3baf8f092c38841ea69e17b6249deb20e62de906"
    },
    {
      "type": "0x0",
      "status": "0x1",
      "cumulativeGasUsed": "0x13625f",
      "logs": [],
      "logsBloom": "0x00000000000000000000000000000000000000000000000000000000000000000000000000000000000000000000000000000000000000000000000000000000000000000000000000000000000000000000000000000000000000000000000000000000000000000000000000000000000000000000000000000000000000000000000000000000000000000000000000000000000000000000000000000000000000000000000000000000000000000000000000000000000000000000000000000000000000000000000000000000000000000000000000000000000000000000000000000000000000000000000000000000000000000000000000000000",
      "transactionHash": "0xd5e52743dfa7caf743dc1e3888e0b2ddf5ffec67805f0bfeb7c205b95979b6b8",
      "transactionIndex": "0x2",
      "blockHash": "0x8a0ad608cf53e0c74a5df27a8498fe10ac4635994735fcc416844759f391fb8e",
      "blockNumber": "0x2621c17",
      "gasUsed": "0x11ec0e",
      "effectiveGasPrice": "0xba43cfaa0",
      "blobGasUsed": "0x12e8a0",
      "from": "0xa3327d90d087cdddfb99e598e50b5bdee7fc55bd",
      "to": null,
      "contractAddress": "0x6f11780ae493449c354e313c7d8fc3dff581b19b"
    },
    {
      "type": "0x0",
      "status": "0x1",
      "cumulativeGasUsed": "0x22f10",
      "logs": [
        {
          "address": "0x63bbee5017da94018e768f983d3f954a201f8cfa",
          "topics": [
            "0x27b93ae2f1d204f7d28eaeab23952d8f33aedaa7b17dfbbe85ac96286df3be15",
            "0x74620000000000000000000000000000506c6179657200000000000000000000"
          ],
          "data": "0x0000000000000000000000000000000000000000000000000000000000000002000000000000000000000000000000000000000000000000000000000000000200000000000000000000000000000000000000000000000000000000000000600000000000000000000000000000000000000000000000000000000000000002000000000000000000000000000000000000000000000000000000000000004000000000000000000000000000000000000000000000000000000000000000800000000000000000000000000000000000000000000000000000000000000008706f736974696f6e00000000000000000000000000000000000000000000000000000000000000000000000000000000000000000000000000000000000000046361736800000000000000000000000000000000000000000000000000000000",
          "blockHash": "0x5d67b4418651fd74fb00421c56b210167539d57f22edff33c05cb708bc199bd5",
          "blockNumber": "0x2621c19",
          "blockTimestamp": "0x6a2fbb13",
          "transactionHash": "0x747a6d0fed37a4736d815739e9771a3d75f318f68f3ee84a83636eddf396fde2",
          "transactionIndex": "0x1",
          "logIndex": "0x0",
          "removed": false
        }
      ],
      "logsBloom": "0x00000000000000000000000000000000000000000000000000000000000010000000000000000000000000000004000000000000000000000000000001000000000000000000000000000000000000000000000000800000000000000000800000000000000000000000801000000000000000000000000000000000000000000000000000000000000000000000000000000000000000000000000000000000000000000000000000000000000000000000000000000000000000000000000000000000000000000000000000000000000000000000000000000000000000000000000000000000000000000000000000000000000040200000000000000000",
      "transactionHash": "0x747a6d0fed37a4736d815739e9771a3d75f318f68f3ee84a83636eddf396fde2",
      "transactionIndex": "0x1",
      "blockHash": "0x5d67b4418651fd74fb00421c56b210167539d57f22edff33c05cb708bc199bd5",
      "blockNumber": "0x2621c19",
      "gasUsed": "0x17a41",
      "effectiveGasPrice": "0xba43cfaa0",
      "blobGasUsed": "0xb540",
      "from": "0xa3327d90d087cdddfb99e598e50b5bdee7fc55bd",
      "to": "0x63bbee5017da94018e768f983d3f954a201f8cfa",
      "contractAddress": null
    },
    {
      "type": "0x0",
      "status": "0x1",
      "cumulativeGasUsed": "0x23543",
      "logs": [
        {
          "address": "0x63bbee5017da94018e768f983d3f954a201f8cfa",
          "topics": [
            "0x27b93ae2f1d204f7d28eaeab23952d8f33aedaa7b17dfbbe85ac96286df3be15",
            "0x7462000000000000000000000000000050726f70657274790000000000000000"
          ],
          "data": "0x0000000000000000000000000000000000000000000000000000000000000002000000000000000000000000000000000000000000000000000000000000000300000000000000000000000000000000000000000000000000000000000000600000000000000000000000000000000000000000000000000000000000000003000000000000000000000000000000000000000000000000000000000000006000000000000000000000000000000000000000000000000000000000000000a000000000000000000000000000000000000000000000000000000000000000e000000000000000000000000000000000000000000000000000000000000000056f776e657200000000000000000000000000000000000000000000000000000000000000000000000000000000000000000000000000000000000000000000057072696365000000000000000000000000000000000000000000000000000000000000000000000000000000000000000000000000000000000000000000000472656e7400000000000000000000000000000000000000000000000000000000",
          "blockHash": "0xf9e8a007e9566af4a768db1b65496bedc3de8f555a0f0491914e92c68c6b10b5",
          "blockNumber": "0x2621c22",
          "blockTimestamp": "0x6a2fbb25",
          "transactionHash": "0x9b299359fb7c72ce0f242ea38042b43df604bba960dcc940d0dc30a0c3cb71bf",
          "transactionIndex": "0x1",
          "logIndex": "0x0",
          "removed": false
        }
      ],
      "logsBloom": "0x00000000000000000000000000000000000000000000000000000000000010000000000000000000000000000000000000000000000000000000000001000000000000000000001000000000000000000000000000000000000000000000800000000000000000008000001000000000400000000000000000000000000000000000000000000000000000000000000000000000000000000000000000000000000000000000000000000000000000000000000000000000000000000000000000000000000000000000000000000000000000000000000000000000000000000000000000000000000000000000000000000000000040200000000000000000",
      "transactionHash": "0x9b299359fb7c72ce0f242ea38042b43df604bba960dcc940d0dc30a0c3cb71bf",
      "transactionIndex": "0x1",
      "blockHash": "0xf9e8a007e9566af4a768db1b65496bedc3de8f555a0f0491914e92c68c6b10b5",
      "blockNumber": "0x2621c22",
      "gasUsed": "0x18074",
      "effectiveGasPrice": "0xba43cfaa0",
      "blobGasUsed": "0xdc50",
      "from": "0xa3327d90d087cdddfb99e598e50b5bdee7fc55bd",
      "to": "0x63bbee5017da94018e768f983d3f954a201f8cfa",
      "contractAddress": null
    },
    {
      "type": "0x0",
      "status": "0x1",
      "cumulativeGasUsed": "0x16f8a",
      "logs": [
        {
          "address": "0x63bbee5017da94018e768f983d3f954a201f8cfa",
          "topics": [
            "0xabe1e2e80b5aa04850ff2ee6b99521af71175d49133ecbf7c9e790f6c92c980a",
            "0x4d6f6e6f706f6c79000000000000000000000000000000000000000000000000",
            "0x0000000000000000000000006f11780ae493449c354e313c7d8fc3dff581b19b"
          ],
          "data": "0x",
          "blockHash": "0xb05a557327acc8b69ba29537fcb7e3ad5ca5205755a47d92eff9dfbe13a98500",
          "blockNumber": "0x2621c25",
          "blockTimestamp": "0x6a2fbb2b",
          "transactionHash": "0xeb84ecf0de2675443d9dc5916238409d9e1e617b0eb34498b6af88bc5001d33d",
          "transactionIndex": "0x1",
          "logIndex": "0x0",
          "removed": false
        }
      ],
      "logsBloom": "0x00000000000000000000000000000000000000000000000000000000000010000000000000000000000000000400000000000000000000000000000000000000000000000000000100008000000000000000000000000000000000000000800000000000000000000000010000000000000000000000000800000000000000000000000000000000000000000000000000000000000000000000000000000000000000000000000000000000000000000000000000000000000000000000000000000000010000000000000000000000000000000000000000000000000000000000002000000000000000000000200000000000000040004000000000000000",
      "transactionHash": "0xeb84ecf0de2675443d9dc5916238409d9e1e617b0eb34498b6af88bc5001d33d",
      "transactionIndex": "0x1",
      "blockHash": "0xb05a557327acc8b69ba29537fcb7e3ad5ca5205755a47d92eff9dfbe13a98500",
      "blockNumber": "0x2621c25",
      "gasUsed": "0xbabb",
      "effectiveGasPrice": "0xba43cfaa0",
      "blobGasUsed": "0x9c40",
      "from": "0xa3327d90d087cdddfb99e598e50b5bdee7fc55bd",
      "to": "0x63bbee5017da94018e768f983d3f954a201f8cfa",
      "contractAddress": null
    },
    {
      "type": "0x0",
      "status": "0x1",
      "cumulativeGasUsed": "0x170aa",
      "logs": [
        {
          "address": "0x63bbee5017da94018e768f983d3f954a201f8cfa",
          "topics": [
            "0xabe1e2e80b5aa04850ff2ee6b99521af71175d49133ecbf7c9e790f6c92c980a",
            "0xc5a3bfafbfff9a5398c0d6f759a03d359832b849cd8ab54e458e2e0edca42ed8",
            "0x0000000000000000000000006f11780ae493449c354e313c7d8fc3dff581b19b"
          ],
          "data": "0x",
          "blockHash": "0xbdd433b23c5b78fcd39be5e8304337139208d053b16d53cf7028da4782ddf9e9",
          "blockNumber": "0x2621c2e",
          "blockTimestamp": "0x6a2fbb3d",
          "transactionHash": "0xb224d2cbd610a939711e1a5d049ca4dec8e7ee65a5000b342d25695397aeb2f3",
          "transactionIndex": "0x1",
          "logIndex": "0x0",
          "removed": false
        }
      ],
      "logsBloom": "0x00000000000000000000000000000000000000000000000000000000000010000000000000000000000000000000000000000000400000000000000000000000000000000000000100000000000000000000000000000000000000000000800000000000000000000000010000000000000000000000000800000000000000000000000000000000000000008000000000000000000000000000000000000000000000000000000000000000000000000000000000000000000000000000000000000000010000000000000000000000000000000000000000000000000000000000002000000008000000000000200000000000000040000000000000000000",
      "transactionHash": "0xb224d2cbd610a939711e1a5d049ca4dec8e7ee65a5000b342d25695397aeb2f3",
      "transactionIndex": "0x1",
      "blockHash": "0xbdd433b23c5b78fcd39be5e8304337139208d053b16d53cf7028da4782ddf9e9",
      "blockNumber": "0x2621c2e",
      "gasUsed": "0xbbdb",
      "effectiveGasPrice": "0xba43cfaa0",
      "blobGasUsed": "0x9dd0",
      "from": "0xa3327d90d087cdddfb99e598e50b5bdee7fc55bd",
      "to": "0x63bbee5017da94018e768f983d3f954a201f8cfa",
      "contractAddress": null
    },
    {
      "type": "0x0",
      "status": "0x1",
      "cumulativeGasUsed": "0x2c4ff",
      "logs": [
        {
          "address": "0x63bbee5017da94018e768f983d3f954a201f8cfa",
          "topics": [
            "0x87675c9926489679e8472a7ecfddd7f514ac1c6a0134118dcab3db14f581f11a",
            "0x74620000000000000000000000000000506c6179657200000000000000000000",
            "0x0000000000000000000000006f11780ae493449c354e313c7d8fc3dff581b19b"
          ],
          "data": "0x",
          "blockHash": "0xc0e1e9ce777aa4ecd5a64300515f366b88bc021b22616b97c7c2ea1ad8bc445a",
          "blockNumber": "0x2621c32",
          "blockTimestamp": "0x6a2fbb45",
          "transactionHash": "0xca34b8f9c26962f2d2b345e3719c72c3c39f097c51afc81f00f2897375c6c893",
          "transactionIndex": "0x2",
          "logIndex": "0x9",
          "removed": false
        }
      ],
      "logsBloom": "0x00000000000000000000000000000000000000000000000000000000000010000000000000000000000000000004000000000000000000000000000000000000000000000000000100000000000000000000000000800000000000000000800000000000000000000000800000000000000000000000000000000000000000000000000000000000000000000000000000000000000004000000000000000000000000000000000000000000000000000000000000000000000000000000000000000000010000000000000000001000000000000000000000000000000000000000002000000000000000000002000000000000000040000000000000000000",
      "transactionHash": "0xca34b8f9c26962f2d2b345e3719c72c3c39f097c51afc81f00f2897375c6c893",
      "transactionIndex": "0x2",
      "blockHash": "0xc0e1e9ce777aa4ecd5a64300515f366b88bc021b22616b97c7c2ea1ad8bc445a",
      "blockNumber": "0x2621c32",
      "gasUsed": "0xc4c9",
      "effectiveGasPrice": "0xba43cfaa0",
      "blobGasUsed": "0x9c40",
      "from": "0xa3327d90d087cdddfb99e598e50b5bdee7fc55bd",
      "to": "0x63bbee5017da94018e768f983d3f954a201f8cfa",
      "contractAddress": null
    },
    {
      "type": "0x0",
      "status": "0x1",
      "cumulativeGasUsed": "0x23b32",
      "logs": [
        {
          "address": "0x63bbee5017da94018e768f983d3f954a201f8cfa",
          "topics": [
            "0x87675c9926489679e8472a7ecfddd7f514ac1c6a0134118dcab3db14f581f11a",
            "0x7462000000000000000000000000000050726f70657274790000000000000000",
            "0x0000000000000000000000006f11780ae493449c354e313c7d8fc3dff581b19b"
          ],
          "data": "0x",
          "blockHash": "0xb962279c3168d1b231aa5b7f6bbb380b2a895579799131be93f7bb3720030d46",
          "blockNumber": "0x2621c35",
          "blockTimestamp": "0x6a2fbb4b",
          "transactionHash": "0x631fe4a543ab86e874261af1dbd1907c578aec157334462def40b47479fab4e8",
          "transactionIndex": "0x2",
          "logIndex": "0x1",
          "removed": false
        }
      ],
      "logsBloom": "0x00000000000000000000000000000000000000000000000000000000000010000000000000000000000000000000000000000000000000000000000000000000000000000000001100000000000000000000000000000000000000000000800000000000000000008000000000000000400000000000000000000000000000000000000000000000000000000000000000000000000004000000000000000000000000000000000000000000000000000000000000000000000000000000000000000000010000000000000000001000000000000000000000000000000000000000002000000000000000000002000000000000000040000000000000000000",
      "transactionHash": "0x631fe4a543ab86e874261af1dbd1907c578aec157334462def40b47479fab4e8",
      "transactionIndex": "0x2",
      "blockHash": "0xb962279c3168d1b231aa5b7f6bbb380b2a895579799131be93f7bb3720030d46",
      "blockNumber": "0x2621c35",
      "gasUsed": "0xc4e1",
      "effectiveGasPrice": "0xba43cfaa0",
      "blobGasUsed": "0x9c40",
      "from": "0xa3327d90d087cdddfb99e598e50b5bdee7fc55bd",
      "to": "0x63bbee5017da94018e768f983d3f954a201f8cfa",
      "contractAddress": null
    },
    {
      "type": "0x0",
      "status": "0x1",
      "cumulativeGasUsed": "0x16e34",
      "logs": [
        {
          "address": "0x63bbee5017da94018e768f983d3f954a201f8cfa",
          "topics": [
            "0x5c8f05824c40a2cedd1ec7245f574909327c72a46448be0e4c12bcb4f5bf42c0",
            "0x000000000000000000000000bfb096b2343b15e1c2d222445864f19e3a28b179"
          ],
          "data": "0x",
          "blockHash": "0x105cb537b562e7d80514e68f16057b140f841af47319128936a3516494540766",
          "blockNumber": "0x2621c4e",
          "blockTimestamp": "0x6a2fbb7d",
          "transactionHash": "0xc1fce83f45c8cce05d372cdecc339b001487855f2c2a0f8215e36a99575a1064",
          "transactionIndex": "0x1",
          "logIndex": "0x0",
          "removed": false
        }
      ],
      "logsBloom": "0x00000000000000000000000000000000200000000000000000000000000010000000000000000000000000000000000000000000000000000000000000000000000000000000000000000000000000000000000000000000000000000000800000000000000000000000000000000000000000000000000000000000000000000000000000000000020000000000004000000000000000000000000000000000004000000000000000000000000000000000000000000000400000000200000000000000000000000000000000000000000000000000000000000000000000000000000000000000000000000000000000000000000040000000000000000000",
      "transactionHash": "0xc1fce83f45c8cce05d372cdecc339b001487855f2c2a0f8215e36a99575a1064",
      "transactionIndex": "0x1",
      "blockHash": "0x105cb537b562e7d80514e68f16057b140f841af47319128936a3516494540766",
      "blockNumber": "0x2621c4e",
      "gasUsed": "0xb965",
      "effectiveGasPrice": "0xba43cfaa0",
      "blobGasUsed": "0x9c40",
      "from": "0xa3327d90d087cdddfb99e598e50b5bdee7fc55bd",
      "to": "0x63bbee5017da94018e768f983d3f954a201f8cfa",
      "contractAddress": null
    },
    {
      "type": "0x0",
      "status": "0x1",
      "cumulativeGasUsed": "0x168af",
      "logs": [],
      "logsBloom": "0x00000000000000000000000000000000000000000000000000000000000000000000000000000000000000000000000000000000000000000000000000000000000000000000000000000000000000000000000000000000000000000000000000000000000000000000000000000000000000000000000000000000000000000000000000000000000000000000000000000000000000000000000000000000000000000000000000000000000000000000000000000000000000000000000000000000000000000000000000000000000000000000000000000000000000000000000000000000000000000000000000000000000000000000000000000000",
      "transactionHash": "0xa6893ded1adfe258dc71a88ecdd8abecdfc3c95c654b9582a67b689a18e37cc4",
      "transactionIndex": "0x1",
      "blockHash": "0xd2bbc66d325f54d45279ea523f5a0fdf46eaa8ca51c13fbfb9690deace867ac4",
      "blockNumber": "0x2621c56",
      "gasUsed": "0xb3e0",
      "effectiveGasPrice": "0xba43cfaa0",
      "blobGasUsed": "0x9c40",
      "from": "0xa3327d90d087cdddfb99e598e50b5bdee7fc55bd",
      "to": "0x6f11780ae493449c354e313c7d8fc3dff581b19b",
      "contractAddress": null
    },
    {
      "type": "0x0",
      "status": "0x1",
      "cumulativeGasUsed": "0x1fa15",
      "logs": [
        {
          "address": "0x43574743107d13fea812d02dbc77cbf354275425",
          "topics": [
            "0xf8b32f4ee3245ed08b1112f5d0f235cd6703b644bbbc9d3d5885adabd99447bd",
            "0x0000000000000000000000006f11780ae493449c354e313c7d8fc3dff581b19b"
          ],
          "data": "0x0000000000000000000000000000000000000000000000000000000000000001",
          "blockHash": "0x0e529abd637646281f039585970b2b345cbb5ba747baa13e3669a650c222a791",
          "blockNumber": "0x2621c62",
          "blockTimestamp": "0x6a2fbba5",
          "transactionHash": "0xe140ac4ef87f27d8cf9095848bbb1d95f554ab8eca356851dd8870b79075c1ab",
          "transactionIndex": "0x2",
          "logIndex": "0x1",
          "removed": false
        }
      ],
      "logsBloom": "0x00000000000000000000000000000000000000000000000000000000000000000000000000000000000000000000000000000000000000000000000000000000000000000000000100000000000000000000000000000000000000000000004000000000000000000000000000000000000000001000080000000000000000000000000000000000000000000000000000020000080000000000000000000000000000000000000000000000000000000000000000000000000000000000000000000000010000000000000000000000000000000000000000000000000000000000002000000000000000000000001000000000000000000000000000000000",
      "transactionHash": "0xe140ac4ef87f27d8cf9095848bbb1d95f554ab8eca356851dd8870b79075c1ab",
      "transactionIndex": "0x2",
      "blockHash": "0x0e529abd637646281f039585970b2b345cbb5ba747baa13e3669a650c222a791",
      "blockNumber": "0x2621c62",
      "gasUsed": "0xba02",
      "effectiveGasPrice": "0xba43cfaa0",
      "blobGasUsed": "0x9c40",
      "from": "0xa3327d90d087cdddfb99e598e50b5bdee7fc55bd",
      "to": "0x43574743107d13fea812d02dbc77cbf354275425",
      "contractAddress": null
    },
    {
      "type": "0x0",
      "status": "0x1",
      "cumulativeGasUsed": "0x12109",
      "logs": [
        {
          "address": "0x43574743107d13fea812d02dbc77cbf354275425",
          "topics": [
            "0xf8b32f4ee3245ed08b1112f5d0f235cd6703b644bbbc9d3d5885adabd99447bd",
            "0x000000000000000000000000a3327d90d087cdddfb99e598e50b5bdee7fc55bd"
          ],
          "data": "0x0000000000000000000000000000000000000000000000000000000000000001",
          "blockHash": "0xcf353656ae7fc9a6ede52d74dea99e8197ad411939202e19ae3586558c6bdace",
          "blockNumber": "0x2621c6a",
          "blockTimestamp": "0x6a2fbbb5",
          "transactionHash": "0x9e1c5d2aefb1f0cba3824f4512b0650166102a8e4b831ebf2b43e8af6ccea818",
          "transactionIndex": "0x1",
          "logIndex": "0x0",
          "removed": false
        }
      ],
      "logsBloom": "0x00000000000000000000000000000000000000000000000000000000000000000000000000000000000000000000000000000000000000000000000000000000000000000000000000000000000000000000000000000000000000000000004000800000000000000000000000000000000000001000080000000000000000000000000000000000000000000000000000020000080000400000000000000000000000000000000000000000000000000000000000000000000000000000000000000000000000000000000000000000000000000000000000000000000000000000000000000000000000000000001000000010000000000000000000000000",
      "transactionHash": "0x9e1c5d2aefb1f0cba3824f4512b0650166102a8e4b831ebf2b43e8af6ccea818",
      "transactionIndex": "0x1",
      "blockHash": "0xcf353656ae7fc9a6ede52d74dea99e8197ad411939202e19ae3586558c6bdace",
      "blockNumber": "0x2621c6a",
      "gasUsed": "0x6c46",
      "effectiveGasPrice": "0xba43cfaa0",
      "blobGasUsed": "0x9c40",
      "from": "0xa3327d90d087cdddfb99e598e50b5bdee7fc55bd",
      "to": "0x43574743107d13fea812d02dbc77cbf354275425",
      "contractAddress": null
    },
    {
      "type": "0x0",
      "status": "0x1",
      "cumulativeGasUsed": "0x2c511",
      "logs": [],
      "logsBloom": "0x00000000000000000000000000000000000000000000000000000000000000000000000000000000000000000000000000000000000000000000000000000000000000000000000000000000000000000000000000000000000000000000000000000000000000000000000000000000000000000000000000000000000000000000000000000000000000000000000000000000000000000000000000000000000000000000000000000000000000000000000000000000000000000000000000000000000000000000000000000000000000000000000000000000000000000000000000000000000000000000000000000000000000000000000000000000",
      "transactionHash": "0xa85c4caeddcb3d9342142cf620bcbeda22c7fe89d1dfa4645bd5e427a189e96b",
      "transactionIndex": "0x2",
      "blockHash": "0x2247c7d6099cb47ca3a81dd4aeb69718c4b35b5ff423e9d8941d2747f1ce6672",
      "blockNumber": "0x2621c73",
      "gasUsed": "0xb3b2",
      "effectiveGasPrice": "0xba43cfaa0",
      "blobGasUsed": "0x9c40",
      "from": "0xa3327d90d087cdddfb99e598e50b5bdee7fc55bd",
      "to": "0x43574743107d13fea812d02dbc77cbf354275425",
      "contractAddress": null
    },
    {
      "type": "0x0",
      "status": "0x1",
      "cumulativeGasUsed": "0x30605",
      "logs": [
        {
          "address": "0x43574743107d13fea812d02dbc77cbf354275425",
          "topics": [
            "0xa4663596238e958f20b25cc69bc3648d070a6628c207d1a233185cbd3c280ef1",
            "0x0000000000000000000000000000000000000000000000000000000000000001"
          ],
          "data": "0x0000000000000000000000000000000000000000000000000000000000000040000000000000000000000000000000000000000000000000000000000262dfc5000000000000000000000000000000000000000000000000000000000000000100000000000000000000000070997970c51812dc3a010c7d01b50e0d17dc79c8",
          "blockHash": "0x3191f01095542df5689bf6f426d587581164e95b8ef5eab2013d3d9450fc089e",
          "blockNumber": "0x2621c75",
          "blockTimestamp": "0x6a2fbbcb",
          "transactionHash": "0x529dc2e3a9da621d395d075d18a928c723a2c6a11a70ee722dd820f5ecd29cbb",
          "transactionIndex": "0x1",
          "logIndex": "0x0",
          "removed": false
        }
      ],
      "logsBloom": "0x00000000000000000000000000000000000000000000000000000000000000000000000000000000000000000000000000000000000000000000000000040000000000000004000000000000000000000000000000040000000000000000004000000000000400000000000000000000000000001000000000000000000000000000000000000000000000000000000000000000000000000000000000000000000000000000000000000000000000000000000000000000000000000000000000000000000000000000000000000000000000000000000000400000000040000000000000000000000000000000001000000000000000000000000000000000",
      "transactionHash": "0x529dc2e3a9da621d395d075d18a928c723a2c6a11a70ee722dd820f5ecd29cbb",
      "transactionIndex": "0x1",
      "blockHash": "0x3191f01095542df5689bf6f426d587581164e95b8ef5eab2013d3d9450fc089e",
      "blockNumber": "0x2621c75",
      "gasUsed": "0x22582",
      "effectiveGasPrice": "0xba43cfaa0",
      "blobGasUsed": "0x9c40",
      "from": "0xa3327d90d087cdddfb99e598e50b5bdee7fc55bd",
      "to": "0x43574743107d13fea812d02dbc77cbf354275425",
      "contractAddress": null
    },
    {
      "type": "0x0",
      "status": "0x1",
      "cumulativeGasUsed": "0x3a423",
      "logs": [],
      "logsBloom": "0x00000000000000000000000000000000000000000000000000000000000000000000000000000000000000000000000000000000000000000000000000000000000000000000000000000000000000000000000000000000000000000000000000000000000000000000000000000000000000000000000000000000000000000000000000000000000000000000000000000000000000000000000000000000000000000000000000000000000000000000000000000000000000000000000000000000000000000000000000000000000000000000000000000000000000000000000000000000000000000000000000000000000000000000000000000000",
      "transactionHash": "0x385cd6ed2383c0207e0d820bc37d5d18077f44840995a7c5b78e435d2818286c",
      "transactionIndex": "0x1",
      "blockHash": "0xfb54d96f70d6958e2810af8d5bdc276e712f405b716867aaf90e696f01de6407",
      "blockNumber": "0x2621c7b",
      "gasUsed": "0x2c3a0",
      "effectiveGasPrice": "0xba43cfaa0",
      "blobGasUsed": "0x2cec0",
      "from": "0xa3327d90d087cdddfb99e598e50b5bdee7fc55bd",
      "to": null,
      "contractAddress": "0xfe5e70d1f86e4cf949966c8a5aaddf2b4fef4aa0"
    },
    {
      "type": "0x0",
      "status": "0x1",
      "cumulativeGasUsed": "0x3f7db",
      "logs": [],
      "logsBloom": "0x00000000000000000000000000000000000000000000000000000000000000000000000000000000000000000000000000000000000000000000000000000000000000000000000000000000000000000000000000000000000000000000000000000000000000000000000000000000000000000000000000000000000000000000000000000000000000000000000000000000000000000000000000000000000000000000000000000000000000000000000000000000000000000000000000000000000000000000000000000000000000000000000000000000000000000000000000000000000000000000000000000000000000000000000000000000",
      "transactionHash": "0xab471cb6681006f770115ab376215c0a158662a14d8859c657efcd1a0ac3b193",
      "transactionIndex": "0x1",
      "blockHash": "0x25ccafe5ea4aba36c1d74c2011f3f28bd45f6234552e75ca2d2fd3578fcdb637",
      "blockNumber": "0x2621c85",
      "gasUsed": "0x34318",
      "effectiveGasPrice": "0xba43cfaa0",
      "blobGasUsed": "0x356b0",
      "from": "0xa3327d90d087cdddfb99e598e50b5bdee7fc55bd",
      "to": null,
      "contractAddress": "0xe12547f23c3c4a07a83d3bc00fb08a13b8469285"
    },
    {
      "type": "0x0",
      "status": "0x1",
      "cumulativeGasUsed": "0x2d48e",
      "logs": [],
      "logsBloom": "0x00000000000000000000000000000000000000000000000000000000000000000000000000000000000000000000000000000000000000000000000000000000000000000000000000000000000000000000000000000000000000000000000000000000000000000000000000000000000000000000000000000000000000000000000000000000000000000000000000000000000000000000000000000000000000000000000000000000000000000000000000000000000000000000000000000000000000000000000000000000000000000000000000000000000000000000000000000000000000000000000000000000000000000000000000000000",
      "transactionHash": "0xf4c2e5664344ab36124f2157a44329cbf0e82f59d5fde469cc4dc8c9b3670cf6",
      "transactionIndex": "0x1",
      "blockHash": "0x4ba3ab968dacc0408ef2a9579f151ef9b51f9f04033ca956294be541cc8617c9",
      "blockNumber": "0x2621c88",
      "gasUsed": "0x21fbf",
      "effectiveGasPrice": "0xba43cfaa0",
      "blobGasUsed": "0x1f590",
      "from": "0xa3327d90d087cdddfb99e598e50b5bdee7fc55bd",
      "to": null,
      "contractAddress": "0xf1ca2cf4aec67c658a021d60ea5cd4b7d53afc6d"
    },
    {
      "type": "0x0",
      "status": "0x1",
      "cumulativeGasUsed": "0x32e16",
      "logs": [],
      "logsBloom": "0x00000000000000000000000000000000000000000000000000000000000000000000000000000000000000000000000000000000000000000000000000000000000000000000000000000000000000000000000000000000000000000000000000000000000000000000000000000000000000000000000000000000000000000000000000000000000000000000000000000000000000000000000000000000000000000000000000000000000000000000000000000000000000000000000000000000000000000000000000000000000000000000000000000000000000000000000000000000000000000000000000000000000000000000000000000000",
      "transactionHash": "0x9d7d92b7183f7cb20ae6be094340dc5a74b7edd290af8e4c23357f21d9fa0e70",
      "transactionIndex": "0x1",
      "blockHash": "0x895cbd8a48cb16d7f903832fa3f5897a76183e389a206edc743f285a356da853",
      "blockNumber": "0x2621c8c",
      "gasUsed": "0x27947",
      "effectiveGasPrice": "0xba43cfaa0",
      "blobGasUsed": "0x25fd0",
      "from": "0xa3327d90d087cdddfb99e598e50b5bdee7fc55bd",
      "to": null,
      "contractAddress": "0x4969fd85897ebb2030a3355a5ac7a60f410c9f0f"
    },
    {
      "type": "0x0",
      "status": "0x1",
      "cumulativeGasUsed": "0x38247",
      "logs": [],
      "logsBloom": "0x00000000000000000000000000000000000000000000000000000000000000000000000000000000000000000000000000000000000000000000000000000000000000000000000000000000000000000000000000000000000000000000000000000000000000000000000000000000000000000000000000000000000000000000000000000000000000000000000000000000000000000000000000000000000000000000000000000000000000000000000000000000000000000000000000000000000000000000000000000000000000000000000000000000000000000000000000000000000000000000000000000000000000000000000000000000",
      "transactionHash": "0xcc4fe776e76b56b862d5c5d0031202a5ec422c980cb6b9b984fab0441db4d71c",
      "transactionIndex": "0x1",
      "blockHash": "0x4416301e7f7d09dcf319949862bfaae76a3c5c7d2b0786a04881b4ffe780b89b",
      "blockNumber": "0x2621c91",
      "gasUsed": "0x2cd78",
      "effectiveGasPrice": "0xba43cfaa0",
      "blobGasUsed": "0x2c0b0",
      "from": "0xa3327d90d087cdddfb99e598e50b5bdee7fc55bd",
      "to": null,
      "contractAddress": "0x748d2c6c98a932abe515653f97260ea4ae666b1c"
    },
    {
      "type": "0x0",
      "status": "0x1",
      "cumulativeGasUsed": "0x49069",
      "logs": [],
      "logsBloom": "0x00000000000000000000000000000000000000000000000000000000000000000000000000000000000000000000000000000000000000000000000000000000000000000000000000000000000000000000000000000000000000000000000000000000000000000000000000000000000000000000000000000000000000000000000000000000000000000000000000000000000000000000000000000000000000000000000000000000000000000000000000000000000000000000000000000000000000000000000000000000000000000000000000000000000000000000000000000000000000000000000000000000000000000000000000000000",
      "transactionHash": "0x902ac5c2395933ff0a7734c883c035f8166fdf0cfdee5da27de8f22d77b8ac75",
      "transactionIndex": "0x2",
      "blockHash": "0x88eacbcc66c89b90db763a8538c3fec290c720c917f5dc7d16741a8fb310b297",
      "blockNumber": "0x2621c99",
      "gasUsed": "0x324ae",
      "effectiveGasPrice": "0xba43cfaa0",
      "blobGasUsed": "0x33450",
      "from": "0xa3327d90d087cdddfb99e598e50b5bdee7fc55bd",
      "to": null,
      "contractAddress": "0x8e65bd7c637b024dffc34a4d4bd68cb7d56f60c0"
    },
    {
      "type": "0x0",
      "status": "0x1",
      "cumulativeGasUsed": "0x4510f",
      "logs": [],
      "logsBloom": "0x00000000000000000000000000000000000000000000000000000000000000000000000000000000000000000000000000000000000000000000000000000000000000000000000000000000000000000000000000000000000000000000000000000000000000000000000000000000000000000000000000000000000000000000000000000000000000000000000000000000000000000000000000000000000000000000000000000000000000000000000000000000000000000000000000000000000000000000000000000000000000000000000000000000000000000000000000000000000000000000000000000000000000000000000000000000",
      "transactionHash": "0x9fb0f8fe22d14cb187105463e34226bccbe8f6e93e9a7b5b3a12c4a3162f3755",
      "transactionIndex": "0x1",
      "blockHash": "0x5e0ae75fab7e1b5ec52252906ba9d65d6f29dd0c83e579fd7cabfc9a91b67a80",
      "blockNumber": "0x2621cbe",
      "gasUsed": "0x39c40",
      "effectiveGasPrice": "0xba43cfaa0",
      "blobGasUsed": "0x3afc0",
      "from": "0xa3327d90d087cdddfb99e598e50b5bdee7fc55bd",
      "to": null,
      "contractAddress": "0x36350e396f5593459a4ab950f5b381f42cf346cb"
    },
    {
      "type": "0x0",
      "status": "0x1",
      "cumulativeGasUsed": "0xa9015",
      "logs": [],
      "logsBloom": "0x00000000000000000000000000000000000000000000000000000000000000000000000000000000000000000000000000000000000000000000000000000000000000000000000000000000000000000000000000000000000000000000000000000000000000000000000000000000000000000000000000000000000000000000000000000000000000000000000000000000000000000000000000000000000000000000000000000000000000000000000000000000000000000000000000000000000000000000000000000000000000000000000000000000000000000000000000000000000000000000000000000000000000000000000000000000",
      "transactionHash": "0x6c57f8900538372a2a37a434e08943416579fee90ce709fec2aed6db87834da9",
      "transactionIndex": "0x2",
      "blockHash": "0x8eeff85ae1f798428929ff01920b9000232cf94880192ac3b937bd00685f2ffc",
      "blockNumber": "0x2621cc1",
      "gasUsed": "0x865bb",
      "effectiveGasPrice": "0xba43cfaa0",
      "blobGasUsed": "0x85e30",
      "from": "0xa3327d90d087cdddfb99e598e50b5bdee7fc55bd",
      "to": null,
      "contractAddress": "0xb712f885dd574297ae3e9b4ee2016fbe9a6002e7"
    }
  ],
  "libraries": [],
  "pending": [],
  "returns": {},
  "timestamp": 1781513315879,
  "chain": 5003,
  "commit": "98a0236"
}