{
  "transactions": [
    {
      "hash": "0x75ff7fe54621601989d9d2486b4b98b807f73e1df8952a9eeb5e7c6fe9ea64e2",
      "transactionType": "CREATE",
      "contractName": "World",
      "contractAddress": "0x5fbdb2315678afecb367f032d93f642f64180aa3",
      "function": null,
      "arguments": null,
      "transaction": {
        "from": "0xf39fd6e51aad88f6f4ce6ab8827279cfffb92266",
        "to": null,
        "value": "0x0",
        "input": "0x6080806040523460885760017f9b779b17422d0df92223018b32b4d1fa46e071723d6817e2486d003becc55f0055600680546001600160a01b031916331790556d6e657875732e776f726c642e763160901b81527f2ff4f36f7bcd5d4c260c49696c9d2b7c01d486e2d5ef32b48da03461a743dfe890602090a1604051611092908161008d8239f35b5f80fdfe60806040526004361015610011575f80fd5b5f3560e01c806301b9b47c1461012457806323e8492c1461011f5780633350b6a91461011a57806334be086f146101155780633ae7af0814610110578063505a181d1461010b57806364260f69146101065780637da0a8771461010157806388eea6f1146100fc5780638da5cb5b146100f75780638e50f019146100f25780638f1ac175146100ed578063cc49db7e146100e8578063da742228146100e3578063e06c1939146100de578063e06f8741146100d95763f2fde38b146100d4575f80fd5b610a15565b610994565b61090e565b6108c1565b61082d565b6107b9565b61077b565b610753565b6106f7565b6106cf565b6106a1565b61056b565b6103ef565b6102af565b6101b2565b610154565b34610150575f366003190112610150576040516d6e657875732e776f726c642e763160901b8152602090f35b5f80fd5b34610150576020366003190112610150576004355f526001602052602060018060a01b0360405f205416604051908152f35b602435906001600160a01b038216820361015057565b600435906001600160a01b038216820361015057565b34610150576060366003190112610150576004356101ce610186565b906044359182151592838103610150576006546001600160a01b03163303610270575f83815260016020908152604090912080546001600160a01b0319166001600160a01b0385161790557f7c9f81c9a3f04de893a3dcdfd6cd67d32142e525052ee9b3c16f0ba1ca23b2e892909161025d90855f526002845260405f209060ff801983541691151516179055565b6040519485526001600160a01b031693a3005b633f4107ed60e21b5f5260045ffd5b9181601f84011215610150578235916001600160401b038311610150576020808501948460051b01011161015057565b34610150576080366003190112610150576004356024356044356064356001600160401b038111610150576102e890369060040161027f565b600654909391906001600160a01b0316330361027057845f525f60205260ff60405f205416610377577f27b93ae2f1d204f7d28eaeab23952d8f33aedaa7b17dfbbe85ac96286df3be15936103729161036660405161034681610a72565b60018152856020820152866040820152885f525f60205260405f20610ab3565b60405194859485610b03565b0390a2005b84631779e62d60e01b5f5260045260245ffd5b9181601f84011215610150578235916001600160401b038311610150576020838186019501011161015057565b805180835260209291819084018484015e5f828201840152601f01601f1916010190565b9060206103ec9281815201906103b7565b90565b6040366003190112610150576004356024356001600160401b0381116101505761041d90369060040161038a565b60027f9b779b17422d0df92223018b32b4d1fa46e071723d6817e2486d003becc55f0093929354146105295760027f9b779b17422d0df92223018b32b4d1fa46e071723d6817e2486d003becc55f00555f828152600160205260409020546001600160a01b0316918215610517575f808486856104be61049b610fd8565b916104b0604051938492602084019687610ba2565b03601f198101835282610a92565b519134905af16104cc610bc5565b901561050f5761050b906104ff60017f9b779b17422d0df92223018b32b4d1fa46e071723d6817e2486d003becc55f0055565b604051918291826103db565b0390f35b602081519101fd5b63c6c0143760e01b5f5260045260245ffd5b633ee5aeb560e01b5f5260045ffd5b9060406003198301126101505760043591602435906001600160401b038211610150576105679160040161027f565b9091565b346101505761057936610538565b90825f525f60205261059761059360405f2060ff90541690565b1590565b61068d576105cf6105936105c86105b6865f52600860205260405f2090565b335f9081526020919091526040902090565b5460ff1690565b61067557908161066661065c610606847f0e1f72f429eb97e64878619984a91e687ae91610348b9ff4216782cc96e49d079661101e565b61063161062c8261061f8a5f52600360205260405f2090565b905f5260205260405f2090565b610c51565b61064a61062c8261061f8a5f52600460205260405f2090565b61061f875f52600560205260405f2090565b805460ff19169055565b61037260405192839283610cd5565b6324a2ac1960e01b5f5260048390523360245260445ffd5b632fa7919d60e01b5f52600483905260245ffd5b34610150576020366003190112610150576004355f525f602052602060ff60405f2054166040519015158152f35b34610150575f366003190112610150576007546040516001600160a01b039091168152602090f35b3461015057604036600319011261015057600435610713610186565b6006546001600160a01b0316330361027057610749915f52600860205260405f209060018060a01b03165f5260205260405f2090565b805460ff19169055005b34610150575f366003190112610150576006546040516001600160a01b039091168152602090f35b34610150576107a061078c36610538565b9092915f52600560205260405f209261101e565b5f52602052602060ff60405f2054166040519015158152f35b3461015057604036600319011261015057602060ff6107fc6004356107dc610186565b905f526008845260405f209060018060a01b03165f5260205260405f2090565b54166040519015158152f35b909161081f6103ec936040845260408401906103b7565b9160208184039101526103b7565b346101505761083b36610538565b90825f525f60205260ff60405f205416156108ae5761089261086361089e936108989361101e565b845f52600360205260405f20815f5260205260405f20945f52600460205260405f20905f5260205260405f2090565b92610ce6565b91610ce6565b9061050b60405192839283610808565b82632fa7919d60e01b5f5260045260245ffd5b34610150576020366003190112610150576108da61019c565b6006546001600160a01b0316330361027057600780546001600160a01b0319166001600160a01b0392909216919091179055005b346101505760403660031901126101505760043561092a610186565b6006546001600160a01b0316330361027057815f525f60205260ff60405f2054161561098157610974915f52600860205260405f209060018060a01b03165f5260205260405f2090565b805460ff19166001179055005b50632fa7919d60e01b5f5260045260245ffd5b34610150576080366003190112610150576004356024356001600160401b038111610150576109c790369060040161027f565b916044356001600160401b038111610150576109e790369060040161038a565b90606435946001600160401b03861161015057610a0b610a1396369060040161038a565b959094610ec9565b005b3461015057602036600319011261015057610a2e61019c565b600654906001600160a01b0382163303610270576001600160a01b03166001600160a01b03199190911617600655005b634e487b7160e01b5f52604160045260245ffd5b606081019081106001600160401b03821117610a8d57604052565b610a5e565b90601f801991011681019081106001600160401b03821117610a8d57604052565b906040600291610ad281511515859060ff801983541691151516179055565b602081015160018501550151910155565b908060209392818452848401375f828201840152601f01601f1916010190565b93919082916060860191865260208601526060604086015252608083019060808160051b85010193835f91601e1982360301905b848410610b48575050505050505090565b90919293949596607f1982820301875287358381121561015057840190602082359201916001600160401b03811161015057803603831361015057610b936020928392600195610ae3565b99019701959401929190610b37565b826014949392823701906bffffffffffffffffffffffff199060601b1681520190565b3d15610bfe573d906001600160401b038211610a8d5760405191610bf3601f8201601f191660200184610a92565b82523d5f602084013e565b606090565b90600182811c92168015610c31575b6020831014610c1d57565b634e487b7160e01b5f52602260045260245ffd5b91607f1691610c12565b818110610c46575050565b5f8155600101610c3b565b610c5b8154610c03565b9081610c65575050565b81601f5f9311600114610c775750555b565b81835260208320610c9391601f0160051c810190600101610c3b565b808252602082209081548360011b9084198560031b1c191617905555565b81835290916001600160fb1b0383116101505760209260051b809284830137010190565b9160206103ec938181520191610cb1565b9060405191825f825492610cf984610c03565b8084529360018116908115610d625750600114610d1e575b50610c7592500383610a92565b90505f9291925260205f20905f915b818310610d46575050906020610c75928201015f610d11565b6020919350806001915483858901015201910190918492610d2d565b905060209250610c7594915060ff191682840152151560051b8201015f610d11565b9190601f8111610d9357505050565b610c75925f5260205f20906020601f840160051c83019310610dbd575b601f0160051c0190610c3b565b9091508190610db0565b9092916001600160401b038111610a8d57610dec81610de68454610c03565b84610d84565b5f601f8211600114610e2a578190610e1b9394955f92610e1f575b50508160011b915f199060031b1c19161790565b9055565b013590505f80610e07565b601f19821694610e3d845f5260205f2090565b915f5b878110610e77575083600195969710610e5e575b505050811b019055565b01355f19600384901b60f8161c191690555f8080610e54565b90926020600181928686013581550194019101610e40565b94929093610ead6103ec9795610ebb94606089526060890191610cb1565b918683036020880152610ae3565b926040818503910152610ae3565b9592949194939093865f525f60205260ff60405f20541615610fc457610f006105936105c86105b68a5f52600860205260405f2090565b610fac57918391610fa793610f9b610f8e61061f610f7c8a9987610f698f7f4152a3ff4b6805e40a4f8c241bcc539b19cfde7c8e2ab2c23b79b83ad875d7879f9e8f610f4b9161101e565b9581610f6e8c8c610f698b61061f81985f52600360205260405f2090565b610dc7565b5f52600460205260405f2090565b61061f8c5f52600560205260405f2090565b805460ff19166001179055565b60405196879687610e8f565b0390a2565b6324a2ac1960e01b5f5260048790523360245260445ffd5b632fa7919d60e01b5f52600487905260245ffd5b60018060a01b03600754168033149081611014575b5080611009575b156110055736601319013560601c90565b3390565b506014361015610ff4565b905015155f610fed565b604051602081019290916001600160fb1b03821161015057826020916110569360051b8091873781010301601f198101835282610a92565b5190209056fea2646970667358221220bd019133da24f433aaf5f023b24dd626abc2a7f881cdfde314a51d40fd76245c64736f6c634300081b0033",
        "nonce": "0x0",
        "chainId": "0x7a69"
      },
      "additionalContracts": [],
      "isFixedGasLimit": false
    },
    {
      "hash": "0xeeffbfc8f7f5dc10717449ab36bfffd8d096bb426a333d3f44a831f733aa7c83",
      "transactionType": "CREATE",
      "contractName": "NexusDelegationManager",
      "contractAddress": "0xe7f1725e7734ce288f8367e1bb143e90bb3f0512",
      "function": null,
      "arguments": null,
      "transaction": {
        "from": "0xf39fd6e51aad88f6f4ce6ab8827279cfffb92266",
        "to": null,
        "value": "0x0",
        "input": "0x6080806040523460395760017f9b779b17422d0df92223018b32b4d1fa46e071723d6817e2486d003becc55f0055610e15908161003e8239f35b5f80fdfe60806040526004361015610011575f80fd5b5f3560e01c806366134607146100a45780636b71b00d1461006f578063c66f57751461006a578063cef6d20914610065578063e7a324dc146100605763f698da251461005b575f80fd5b6105f7565b6105bd565b61015e565b6100f4565b346100a057602061009861009361008e36610089366100b7565b6107df565b61096f565b610ab8565b604051908152f35b5f80fd5b346100a057602061009861008e36610089365b60206003198201126100a057600435906001600160401b0382116100a05760c09082900360031901126100a05760040190565b5f9103126100a057565b346100a0575f3660031901126100a05760206040517f0ac12fd0d048a93db567c251b7987a4a005aa4fb208af047aa3e7ef45fbde44a8152f35b9181601f840112156100a0578235916001600160401b0383116100a0576020808501948460051b0101116100a057565b346100a05760603660031901126100a0576004356001600160401b0381116100a05761018e90369060040161012e565b906024356001600160401b0381116100a0576101ae90369060040161012e565b926044356001600160401b0381116100a0576101ce90369060040161012e565b92909160027f9b779b17422d0df92223018b32b4d1fa46e071723d6817e2486d003becc55f0054146105ae5760027f9b779b17422d0df92223018b32b4d1fa46e071723d6817e2486d003becc55f00558581148015906105a4575b610595575f5b8181106102615761025f60017f9b779b17422d0df92223018b32b4d1fa46e071723d6817e2486d003becc55f0055565b005b61026c818388610881565b9088831015610590578260051b8501359061029661028b858a8a610881565b929094810190610aeb565b906102a08261096f565b926102b86102ad85610ab8565b60a085015190610c34565b602084018051909491906102dc906001600160a01b03165b6001600160a01b031690565b6001600160a01b03909116036105815780516001600160a01b03168015158181610576575b50610557575060600194855151915f5b8381106104b957506103238483610c4a565b9091809a939a6104aa5788516040515f9485946020830193610363928492610355926001600160a01b03169187610bcb565b03601f198101835282610645565b51918c5af1610370610bee565b901561048c57505f5b8481106103e35750509351600197969594506001600160a01b039350831691506103a09050565b6040516001600160a01b039490941684523393911691907fe9722854338cd73cea002385d9c62274a72c2b221ec88de41046ffbcb808041190602090a40161022f565b6103ee818351610b13565b518051909190610408906102d0906001600160a01b031681565b602083015160409093015189516001600160a01b03169391803b156100a057865f89936104538f968e9984986040519b8c998a98899763d3eddcc560e01b8952339660048a01610b4b565b03925af19182156104875760019261046d575b5001610379565b8061047b5f61048193610645565b806100ea565b5f610466565b610bc0565b80511561049b57602081519101fd5b632b3f6d1160e21b5f5260045ffd5b63ce3f0ecf60e01b5f5260045ffd5b6104c4818951610b13565b5180519091906104de906102d0906001600160a01b031681565b602083015160409093015188516001600160a01b03169391803b156100a057855f889361052982968f998e9a6040519b8c998a9889976350a2c19560e11b8952339660048a01610b4b565b03925af191821561048757600192610543575b5001610311565b8061047b5f61055193610645565b5f61053c565b6377eecd4b60e01b5f526001600160a01b03166004523360245260445ffd5b90503314155f610301565b63dc176d7560e01b5f5260045ffd5b61086d565b6305f8ded760e21b5f5260045ffd5b5083861415610229565b633ee5aeb560e01b5f5260045ffd5b346100a0575f3660031901126100a05760206040517fd72ae0ff2e28538c161addc73b2fc22cc83fba8ca82bf43f3616477e9f307fad8152f35b346100a0575f3660031901126100a05760206100986108c2565b634e487b7160e01b5f52604160045260245ffd5b606081019081106001600160401b0382111761064057604052565b610611565b90601f801991011681019081106001600160401b0382111761064057604052565b6040519061067560c083610645565b565b35906001600160a01b03821682036100a057565b6001600160401b03811161064057601f01601f191660200190565b81601f820112156100a0578035906106bd8261068b565b926106cb6040519485610645565b828452602083830101116100a057815f926020809301838601378301015290565b9080601f830112156100a0578135916001600160401b038311610640578260051b6040519361071e6020830186610645565b8452602080850191830101918383116100a05760208101915b83831061074657505050505090565b82356001600160401b0381116100a0578201906060828703601f1901126100a0576040519061077482610625565b61078060208401610677565b825260408301356001600160401b0381116100a0578760206107a4928601016106a6565b60208301526060830135916001600160401b0383116100a0576107cf886020809695819601016106a6565b6040820152815201920191610737565b91909160c0818403126100a0576107f4610666565b926107fe82610677565b845261080c60208301610677565b60208501526040820135604085015260608201356001600160401b0381116100a0578161083a9184016106ec565b60608501526080820135608085015260a08201356001600160401b0381116100a05761086692016106a6565b60a0830152565b634e487b7160e01b5f52603260045260245ffd5b91908110156105905760051b81013590601e19813603018212156100a05701908135916001600160401b0383116100a05760200182360381136100a0579190565b60406015602082516108d48482610645565b82815201742732bc3ab99023b0b6b2902232b632b3b0ba34b7b760591b8152206109696001602084516109078682610645565b828152603160f81b91019081522083517f8b73c3c69bb8fe3d512ecc4cf759cc79239f7b179b0ffacaa9a75d522b39400f60208083019182526040830195909552948101909301524660808301523060a080840191909152825260c082610645565b51902090565b805160208201516040830151606080850151955f9490936001600160a01b0391821693929116905b8751861015610a3b57600190610a336109b0888b610b13565b51838060a01b03815116906040602082015160208151910120910151602081519101206040519160208301937f0ac12fd0d048a93db567c251b7987a4a005aa4fb208af047aa3e7ef45fbde44a855260408401526060830152608082015260808152610a1d60a082610645565b5190209161035560405193849260208401610c1d565b950194610997565b8051602091820120608097880151604080517fd72ae0ff2e28538c161addc73b2fc22cc83fba8ca82bf43f3616477e9f307fad9481019485526001600160a01b03978816918101919091529590931660608601529684019290925260a083019590955260c082019490945290935090506109698160e08101610355565b610ac06108c2565b9060405190602082019261190160f01b84526022830152604282015260428152610969606282610645565b906020828203126100a05781356001600160401b0381116100a057610b1092016107df565b90565b80518210156105905760209160051b010190565b805180835260209291819084018484015e5f828201840152601f01601f1916010190565b96939460c096999895610b7b60209594610b6e849560e08d5260e08d0190610b27565b908b8203888d0152610b27565b9360408a015288840360608a0152818452848401375f838284010152601f8019910116010195608085015260018060a01b031660a084015260018060a01b0316910152565b6040513d5f823e3d90fd5b826014949392823701906bffffffffffffffffffffffff199060601b1681520190565b3d15610c18573d90610bff8261068b565b91610c0d6040519384610645565b82523d5f602084013e565b606090565b60209291908391805192839101825e019081520190565b610b1091610c4191610c89565b90929192610ce1565b9060348110610c7a57806014116100a057813560601c92816034116100a057601483013592603401916033190190565b6304bc946d60e21b5f5260045ffd5b8151919060418303610cb957610cb29250602082015190606060408401519301515f1a90610d5d565b9192909190565b50505f9160029190565b60041115610ccd57565b634e487b7160e01b5f52602160045260245ffd5b610cea81610cc3565b80610cf3575050565b610cfc81610cc3565b60018103610d135763f645eedf60e01b5f5260045ffd5b610d1c81610cc3565b60028103610d37575063fce698f760e01b5f5260045260245ffd5b80610d43600392610cc3565b14610d4b5750565b6335e2f38360e21b5f5260045260245ffd5b91907f7fffffffffffffffffffffffffffffff5d576e7357a4501ddfe92f46681b20a08411610dd4579160209360809260ff5f9560405194855216868401526040830152606082015282805260015afa15610487575f516001600160a01b03811615610dca57905f905f90565b505f906001905f90565b5050505f916003919056fea264697066735822122060c43e70d5e08d7fa85e6c8f0b827517b7cbed8ee3a9542331cdabf28b1c638f64736f6c634300081b0033",
        "nonce": "0x1",
        "chainId": "0x7a69"
      },
      "additionalContracts": [],
      "isFixedGasLimit": false
    },
    {
      "hash": "0x7cc4db39a753025343bcb038ac5704884f2c5de790c2d2bbdf83bc63dc41db65",
      "transactionType": "CREATE",
      "contractName": "TurnManager",
      "contractAddress": "0x9fe46736679d2d9a65f0992f2272de9f3c7fa6e0",
      "function": null,
      "arguments": ["0xf39Fd6e51aad88F6F4ce6aB8827279cffFb92266"],
      "transaction": {
        "from": "0xf39fd6e51aad88f6f4ce6ab8827279cfffb92266",
        "to": null,
        "value": "0x0",
        "input": "0x608034608657601f610d6638819003918201601f19168301916001600160401b03831184841017608a57808492602094604052833981010312608657516001600160a01b03811690819003608657600180546001600160a01b031916821781555f9182526002602052604091829020805460ff1916909117905551610cc7908161009f8239f35b5f80fd5b634e487b7160e01b5f52604160045260245ffdfe60806040526004361015610011575f80fd5b5f3560e01c806308148f7a146108f85780632a09de1e146108a65780632d1fb389146108475780634e0f5cc8146107d2578063592139fa1461045057806371d6ddd6146103a05780637fafd198146102c057806397e57d06146102a45780639acda3bb1461027d578063b55991c014610222578063b9181611146101e5578063bdc0b89314610157578063ddc2a25114610122578063f851a440146100fa5763fc7e286d146100be575f80fd5b346100f65760203660031901126100f6576001600160a01b036100df610a4c565b165f526006602052602060405f2054604051908152f35b5f80fd5b346100f6575f3660031901126100f6576001546040516001600160a01b039091168152602090f35b346100f65760203660031901126100f6576004355f526003602052602060018060a01b0360405f205460081c16604051908152f35b346100f65760403660031901126100f657600435602435805f0b81036100f657335f52600260205260ff60405f205416156101d657815f52600360205260405f2060ff815416156101c3576101c192509081549060e81b60ff60e81b169060ff60e81b1916179055565b005b82635ef804d360e11b5f5260045260245ffd5b638744ddab60e01b5f5260045ffd5b346100f65760203660031901126100f6576001600160a01b03610206610a4c565b165f526002602052602060ff60405f2054166040519015158152f35b346100f65760203660031901126100f6576004355f526003602052608060405f20546040519060018060a01b038160081c1682526001600160401b038160a81c1660208301528060e81c5f0b604083015260f01c6060820152f35b346100f6575f3660031901126100f6575f546040516001600160a01b039091168152602090f35b346100f6575f3660031901126100f65760206040516103e88152f35b346100f65760203660031901126100f6576004355f52600460205260405f2060405190816020825491828152019081925f5260205f20905f5b81811061038157505050829003601f01601f191682016001600160401b0381118382101761036d5760408181526020808352845190830181905291928392918301915f5b81811061034b575050500390f35b82516001600160a01b031684528594506020938401939092019160010161033d565b634e487b7160e01b5f52604160045260245ffd5b82546001600160a01b03168452602090930192600192830192016102f9565b346100f65760203660031901126100f657600435335f52600260205260ff60405f205416156101d657805f52600360205260405f2060ff8154161561043d5760608161040d7f60e5eb7454f554532b1c1395d15c4ccfc8a63ac174b76ad8fe87a78e8e813e4c9385610b5a565b546001600160401b036040519160018060a01b038160081c1683528060f01c602084015260a81c166040820152a2005b50635ef804d360e11b5f5260045260245ffd5b346100f65760603660031901126100f6576004356024356001600160401b0381116100f657366023820112156100f6578060040135906001600160401b0382116100f6576024810190602436918460051b0101116100f6576044356001600160401b038116908181036100f657335f52600260205260ff60405f205416156101d65783156107c357845f52600360205260ff60405f2054166107b057845f52600460205260405f208054905f815581610792575b50505f5b8481106106da5750610523906001600160401b034316610abc565b9061052d83610a93565b60405160c08101908082106001600160401b0383111761036d5761064f61ffff8961062f6001600160401b03966001966040528686526020860190878060a01b031681526106128880604089019c169b8c81526105ea60608a01948b865260808b01975f895260a08c019e8f525f5260036020526105be60405f209b5115158c9060ff801983541691151516179055565b518a54610100600160a81b03191660a08d901b8d90039190911660081b610100600160a81b0316178a55565b51885467ffffffffffffffff60a81b1916911660a81b67ffffffffffffffff60a81b16178755565b51855460e89190911b60ff60e81b1660ff60e81b19909116178555565b5183546001600160f01b0316911660f01b6001600160f01b031916178255565b019151166001600160401b031982541617905560405192806040850160408652526060840192905f905b8082106106b057867fa4663596238e958f20b25cc69bc3648d070a6628c207d1a233185cbd3c280ef18780888860208301520390a2005b90919384359060018060a01b0382168092036100f657602081600193829352019501920190610679565b855f52600460205260405f206106f96106f4838888610a6f565b610a93565b9080546801000000000000000081101561036d5761071c91600182018155610aa7565b81546001600160a01b0393841660039290921b91821b9390911b1916919091179055600181019081811161077e57600191875f52600560205260405f206107676106f4848a8a610a6f565b848060a01b03165f5260205260405f205501610508565b634e487b7160e01b5f52601160045260245ffd5b5f5260205f20908101905b81811015610504575f815560010161079d565b846355dd109360e01b5f5260045260245ffd5b630ceba8cf60e01b5f5260045ffd5b346100f65760203660031901126100f6576107eb610a4c565b6001546001600160a01b03163303610838575f54906001600160a01b038216610829576001600160a01b03166001600160a01b031991909116175f55005b63eff465d760e01b5f5260045ffd5b632ca0794560e01b5f5260045ffd5b346100f65760403660031901126100f657610860610a4c565b60243580151581036100f6576001546001600160a01b03163303610838576101c19160018060a01b03165f52600260205260405f209060ff801983541691151516179055565b346100f65760403660031901126100f6576108bf610a4c565b335f52600260205260ff60405f205416156101d65760018060a01b03165f52600660205260405f206108f46024358254610a62565b9055005b346100f65760203660031901126100f657600435805f52600360205260405f20805460ff8116156101c3576001600160401b038160a81c16431115610a395760081c6001600160a01b03165f818152600660205260409020546103e8808202908215838304909114171561077e57612710900492610974610adc565b91846109ca575b5092606092916109ac7fc96db3eb766a30eb42f49d3a520b579fc4f5b6e1a157c1e6dbb5d23655aed0e49587610b5a565b604080519384526001600160a01b03919091166020840152820152a2005b9390929181850394851161077e576109ac6060947fc96db3eb766a30eb42f49d3a520b579fc4f5b6e1a157c1e6dbb5d23655aed0e496855f52600660205260405f205560018060a01b0383165f52600660205260405f20610a2c858254610a62565b905592955050919261097b565b82638bc1d3ab60e01b5f5260045260245ffd5b600435906001600160a01b03821682036100f657565b9190820180921161077e57565b9190811015610a7f5760051b0190565b634e487b7160e01b5f52603260045260245ffd5b356001600160a01b03811681036100f65790565b8054821015610a7f575f5260205f2001905f90565b906001600160401b03809116911601906001600160401b03821161077e57565b5f546001600160a01b0316338114908180610b33575b610afc5750503390565b81610b29575b5080610b1e575b15610b1a5736601319013560601c90565b3390565b506014361015610b09565b905015155f610b02565b50801515610af2565b8115610b46570690565b634e487b7160e01b5f52601260045260245ffd5b5f9081526004602090815260408083208054600584528285208654600881901c6001600160a01b031687529452919093205490915f1982019082821161077e575f60e89190911c810b12610c69575091610bba610bc092610be894610b3c565b90610aa7565b90548354610100600160a81b03191660039290921b1c60081b610100600160a81b0316178255565b6001815460f01c019061ffff821161077e5780546001600160f01b031660f09290921b6001600160f01b031916919091178155610c6790610c3f6001600160401b036001830154166001600160401b034316610abc565b815467ffffffffffffffff60a81b191660a89190911b67ffffffffffffffff60a81b16179055565b565b610c7591508290610a62565b5f1981019290831161077e57610bba610bc092610be894610b3c56fea2646970667358221220525401bdcaec1e35b50280ed71acee2c3e47e114589293c9b64f30492585bd2264736f6c634300081b0033000000000000000000000000f39fd6e51aad88f6f4ce6ab8827279cfffb92266",
        "nonce": "0x2",
        "chainId": "0x7a69"
      },
      "additionalContracts": [],
      "isFixedGasLimit": false
    },
    {
      "hash": "0xc2af3f7ffeb89fbc2583377a48c1a78e81eeddf3f3c2b519771566ab52d89ed2",
      "transactionType": "CREATE",
      "contractName": "CounterGameSystem",
      "contractAddress": "0xcf7ed3acca5a467e9e704c703e8d87f634fb0fc9",
      "function": null,
      "arguments": ["0x9fE46736679d2D9a65F0992F2272dE9f3c7fa6e0"],
      "transaction": {
        "from": "0xf39fd6e51aad88f6f4ce6ab8827279cfffb92266",
        "to": null,
        "value": "0x0",
        "input": "0x60a034607f57601f61080638819003918201601f19168301916001600160401b03831184841017608357808492602094604052833981010312607f57516001600160a01b0381168103607f57608052600180546001600160a01b0319163317905560405161076e90816100988239608051818181610121015261025a0152f35b5f80fd5b634e487b7160e01b5f52604160045260245ffdfe60806040526004361015610011575f80fd5b5f3560e01c80634e0f5cc81461015057806355ed6e7b1461010c578063924ba506146100a35780639acda3bb1461007c5763f851a44014610050575f80fd5b34610078575f366003190112610078576001546040516001600160a01b039091168152602090f35b5f80fd5b34610078575f366003190112610078575f546040516001600160a01b039091168152602090f35b34610078576040366003190112610078575f546001600160a01b0316806101075750335b6001600160a01b031633036100f85760206100e6602435600435610217565b6040516001600160a01b039091168152f35b637f0cf12160e01b5f5260045ffd5b6100c7565b34610078575f366003190112610078576040517f00000000000000000000000000000000000000000000000000000000000000006001600160a01b03168152602090f35b34610078576020366003190112610078576004356001600160a01b03811690819003610078576001546001600160a01b031633036101b6575f546001600160a01b0381166101a7576001600160a01b031916175f55005b63eff465d760e01b5f5260045ffd5b63224c20bb60e01b5f5260045ffd5b6040810190811067ffffffffffffffff8211176101e157604052565b634e487b7160e01b5f52604160045260245ffd5b90601f8019910116810190811067ffffffffffffffff8211176101e157604052565b905f9160018060a01b035f541680331490816104ed575b50806104e2575b156104dc5736601319013560601c5b60405163ddc2a25160e01b8152600481018390527f00000000000000000000000000000000000000000000000000000000000000006001600160a01b031693602082602481885afa91821561045b575f92610498575b506001600160a01b038381169216829003610489576102b984336105d3565b818151101561047a578051600181018091116104665780825283602083015260405160208101918252846040820152604081526102f76060826101f5565b6102ff6104f7565b610308886106fd565b92333b15610078575f9260209161033e60405196879563e06f874160e01b875260048701526080602487015260848601906105a0565b916003198584030160448601525180918184528484015e84838284010152601f8019910116018382808584030192600319840160648701520152018183335af1801561045b57610446575b5082857fd28d5bbc013bfd0b2247837323abd27c33fe4a7c8c2136b73e52d6e8a4e66c6f60208451604051908152a351101561041c575050813b156104185782916024839260405194859384926338eb6eeb60e11b845260048401525af1801561040d579082916103f957505090565b81610403916101f5565b61040a5790565b80fd5b6040513d84823e3d90fd5b8280fd5b925092807f2908efbe7d7a75447e2621588314d1d34c2583820d66d20cfbb8272bae44cc4e91a390565b6104539197505f906101f5565b5f955f610389565b6040513d5f823e3d90fd5b634e487b7160e01b5f52601160045260245ffd5b637de2757960e11b5f5260045ffd5b630131cc4b60e31b5f5260045ffd5b9091506020813d6020116104d4575b816104b4602093836101f5565b8101031261007857516001600160a01b038116810361007857905f61029a565b3d91506104a7565b33610244565b506014361015610235565b905015155f61022e565b60408051613a3160f11b60208083019182525f60228401526621b7bab73a32b960c91b603084015282529161052c90826101f5565b519051906020811061053c575090565b5f199060200360031b1b1690565b81601f820112156100785780519067ffffffffffffffff82116101e1576040519261057f601f8401601f1916602001856101f5565b8284526020838301011161007857815f9260208093018386015e8301015290565b90602080835192838152019201905f5b8181106105bd5750505090565b82518452602093840193909201916001016105b0565b91905f61062b916040516105e6816101c5565b828152826020820152946106016105fb6104f7565b926106fd565b91604051809581948293636624edbf60e11b845260048401526040602484015260448301906105a0565b03916001600160a01b03165afa90811561045b575f9161069c575b50805115610681576040818051810103126100785760208101516040909101516001600160a01b038116908190036100785760208401528252565b509050604051610690816101c5565b5f81525f602082015290565b90503d805f833e6106ad81836101f5565b81019060408183031261007857805167ffffffffffffffff811161007857826106d791830161054a565b91602082015167ffffffffffffffff8111610078576106f6920161054a565b505f610646565b906040519161070d6040846101f5565b600183526020808401903682378351156107245752565b634e487b7160e01b5f52603260045260245ffdfea264697066735822122020b49a89c8a585f023b39b667cbd2c7bcf61d4a5762b273d645d06fd5bbe886d64736f6c634300081b00330000000000000000000000009fe46736679d2d9a65f0992f2272de9f3c7fa6e0",
        "nonce": "0x3",
        "chainId": "0x7a69"
      },
      "additionalContracts": [],
      "isFixedGasLimit": false
    },
    {
      "hash": "0x1604c79cc0c65374dbde814e4f2f5a142184849315666fd0fa2e7d6828345a98",
      "transactionType": "CALL",
      "contractName": "World",
      "contractAddress": "0x5fbdb2315678afecb367f032d93f642f64180aa3",
      "function": "registerTable(bytes32,bytes32,bytes32,string[])",
      "arguments": [
        "0x74620000000000000000000000000000436f756e746572000000000000000000",
        "0x0000000000000000000000000000000000000000000000000000000000000001",
        "0x0000000000000000000000000000000000000000000000000000000000000002",
        "[value, lastMover]"
      ],
      "transaction": {
        "from": "0xf39fd6e51aad88f6f4ce6ab8827279cfffb92266",
        "to": "0x5fbdb2315678afecb367f032d93f642f64180aa3",
        "value": "0x0",
        "input": "0x34be086f74620000000000000000000000000000436f756e746572000000000000000000000000000000000000000000000000000000000000000000000000000000000100000000000000000000000000000000000000000000000000000000000000020000000000000000000000000000000000000000000000000000000000000080000000000000000000000000000000000000000000000000000000000000000200000000000000000000000000000000000000000000000000000000000000400000000000000000000000000000000000000000000000000000000000000080000000000000000000000000000000000000000000000000000000000000000576616c756500000000000000000000000000000000000000000000000000000000000000000000000000000000000000000000000000000000000000000000096c6173744d6f7665720000000000000000000000000000000000000000000000",
        "nonce": "0x4",
        "chainId": "0x7a69"
      },
      "additionalContracts": [],
      "isFixedGasLimit": false
    },
    {
      "hash": "0x623be373000ddb9cac3ba02c55e6480fa8ffa09248e8e81259c11303f82825a3",
      "transactionType": "CALL",
      "contractName": "World",
      "contractAddress": "0x5fbdb2315678afecb367f032d93f642f64180aa3",
      "function": "registerSystem(bytes32,address,bool)",
      "arguments": [
        "0x436f756e74657247616d65000000000000000000000000000000000000000000",
        "0xCf7Ed3AccA5a467e9e704C703E8D87F634fB0Fc9",
        "false"
      ],
      "transaction": {
        "from": "0xf39fd6e51aad88f6f4ce6ab8827279cfffb92266",
        "to": "0x5fbdb2315678afecb367f032d93f642f64180aa3",
        "value": "0x0",
        "input": "0x3350b6a9436f756e74657247616d65000000000000000000000000000000000000000000000000000000000000000000cf7ed3acca5a467e9e704c703e8d87f634fb0fc90000000000000000000000000000000000000000000000000000000000000000",
        "nonce": "0x5",
        "chainId": "0x7a69"
      },
      "additionalContracts": [],
      "isFixedGasLimit": false
    },
    {
      "hash": "0x4843fb3ed54dd17ac5ea68cc416f622e1e49de40dd9b9a6a7a376f6674b8c184",
      "transactionType": "CALL",
      "contractName": "World",
      "contractAddress": "0x5fbdb2315678afecb367f032d93f642f64180aa3",
      "function": "grantWriteAccess(bytes32,address)",
      "arguments": [
        "0x74620000000000000000000000000000436f756e746572000000000000000000",
        "0xCf7Ed3AccA5a467e9e704C703E8D87F634fB0Fc9"
      ],
      "transaction": {
        "from": "0xf39fd6e51aad88f6f4ce6ab8827279cfffb92266",
        "to": "0x5fbdb2315678afecb367f032d93f642f64180aa3",
        "value": "0x0",
        "input": "0xe06c193974620000000000000000000000000000436f756e746572000000000000000000000000000000000000000000cf7ed3acca5a467e9e704c703e8d87f634fb0fc9",
        "nonce": "0x6",
        "chainId": "0x7a69"
      },
      "additionalContracts": [],
      "isFixedGasLimit": false
    },
    {
      "hash": "0x7dbee35fe264565a332e07dc0c58514bfb30123bc2eb34c2c5155ddc7538ca67",
      "transactionType": "CALL",
      "contractName": "World",
      "contractAddress": "0x5fbdb2315678afecb367f032d93f642f64180aa3",
      "function": "setTrustedForwarder(address)",
      "arguments": ["0xe7f1725E7734CE288F8367e1Bb143E90bb3F0512"],
      "transaction": {
        "from": "0xf39fd6e51aad88f6f4ce6ab8827279cfffb92266",
        "to": "0x5fbdb2315678afecb367f032d93f642f64180aa3",
        "value": "0x0",
        "input": "0xda742228000000000000000000000000e7f1725e7734ce288f8367e1bb143e90bb3f0512",
        "nonce": "0x7",
        "chainId": "0x7a69"
      },
      "additionalContracts": [],
      "isFixedGasLimit": false
    },
    {
      "hash": "0x16efa5cc83a4f569f5a1c21d8c1fb42dd4f2096c8ab5b2c75d1374001f1ed2af",
      "transactionType": "CALL",
      "contractName": "CounterGameSystem",
      "contractAddress": "0xcf7ed3acca5a467e9e704c703e8d87f634fb0fc9",
      "function": "setTrustedRouter(address)",
      "arguments": ["0x5FbDB2315678afecb367f032d93F642f64180aa3"],
      "transaction": {
        "from": "0xf39fd6e51aad88f6f4ce6ab8827279cfffb92266",
        "to": "0xcf7ed3acca5a467e9e704c703e8d87f634fb0fc9",
        "value": "0x0",
        "input": "0x4e0f5cc80000000000000000000000005fbdb2315678afecb367f032d93f642f64180aa3",
        "nonce": "0x8",
        "chainId": "0x7a69"
      },
      "additionalContracts": [],
      "isFixedGasLimit": false
    },
    {
      "hash": "0xa9022756de1e3f655530edbfb4aa8489830f323dc37bd3cfbc9f8a39d868de9e",
      "transactionType": "CALL",
      "contractName": "TurnManager",
      "contractAddress": "0x9fe46736679d2d9a65f0992f2272de9f3c7fa6e0",
      "function": "authorize(address,bool)",
      "arguments": ["0xCf7Ed3AccA5a467e9e704C703E8D87F634fB0Fc9", "true"],
      "transaction": {
        "from": "0xf39fd6e51aad88f6f4ce6ab8827279cfffb92266",
        "to": "0x9fe46736679d2d9a65f0992f2272de9f3c7fa6e0",
        "value": "0x0",
        "input": "0x2d1fb389000000000000000000000000cf7ed3acca5a467e9e704c703e8d87f634fb0fc90000000000000000000000000000000000000000000000000000000000000001",
        "nonce": "0x9",
        "chainId": "0x7a69"
      },
      "additionalContracts": [],
      "isFixedGasLimit": false
    },
    {
      "hash": "0x31f0ca778c2aaedb624cad0e9e3a8fdf426c81ac0b9be37e9af6c9f20740a1b2",
      "transactionType": "CALL",
      "contractName": "TurnManager",
      "contractAddress": "0x9fe46736679d2d9a65f0992f2272de9f3c7fa6e0",
      "function": "authorize(address,bool)",
      "arguments": ["0xf39Fd6e51aad88F6F4ce6aB8827279cffFb92266", "true"],
      "transaction": {
        "from": "0xf39fd6e51aad88f6f4ce6ab8827279cfffb92266",
        "to": "0x9fe46736679d2d9a65f0992f2272de9f3c7fa6e0",
        "value": "0x0",
        "input": "0x2d1fb389000000000000000000000000f39fd6e51aad88f6f4ce6ab8827279cfffb922660000000000000000000000000000000000000000000000000000000000000001",
        "nonce": "0xa",
        "chainId": "0x7a69"
      },
      "additionalContracts": [],
      "isFixedGasLimit": false
    },
    {
      "hash": "0xa43618b64be93e54aabc17ec42d5550e831c3d2757ccfbc4d462fe5bd37f9b0b",
      "transactionType": "CALL",
      "contractName": "TurnManager",
      "contractAddress": "0x9fe46736679d2d9a65f0992f2272de9f3c7fa6e0",
      "function": "setTrustedRouter(address)",
      "arguments": ["0x5FbDB2315678afecb367f032d93F642f64180aa3"],
      "transaction": {
        "from": "0xf39fd6e51aad88f6f4ce6ab8827279cfffb92266",
        "to": "0x9fe46736679d2d9a65f0992f2272de9f3c7fa6e0",
        "value": "0x0",
        "input": "0x4e0f5cc80000000000000000000000005fbdb2315678afecb367f032d93f642f64180aa3",
        "nonce": "0xb",
        "chainId": "0x7a69"
      },
      "additionalContracts": [],
      "isFixedGasLimit": false
    },
    {
      "hash": "0xe0cc6ea5bf627c0fa6cf349a183ce9f6b9720f102c587190f003cf0980c09ca2",
      "transactionType": "CALL",
      "contractName": "TurnManager",
      "contractAddress": "0x9fe46736679d2d9a65f0992f2272de9f3c7fa6e0",
      "function": "startTurns(uint256,address[],uint64)",
      "arguments": [
        "1",
        "[0x70997970C51812dc3A010C7d01b50e0d17dc79C8, 0x3C44CdDdB6a900fa2b585dd299e03d12FA4293BC]",
        "5000"
      ],
      "transaction": {
        "from": "0xf39fd6e51aad88f6f4ce6ab8827279cfffb92266",
        "to": "0x9fe46736679d2d9a65f0992f2272de9f3c7fa6e0",
        "value": "0x0",
        "input": "0x592139fa000000000000000000000000000000000000000000000000000000000000000100000000000000000000000000000000000000000000000000000000000000600000000000000000000000000000000000000000000000000000000000001388000000000000000000000000000000000000000000000000000000000000000200000000000000000000000070997970c51812dc3a010c7d01b50e0d17dc79c80000000000000000000000003c44cdddb6a900fa2b585dd299e03d12fa4293bc",
        "nonce": "0xc",
        "chainId": "0x7a69"
      },
      "additionalContracts": [],
      "isFixedGasLimit": false
    },
    {
      "hash": "0xcfae93a931c22e52d106db012ba3bf57e428f6bf091dbd4915b5e09aeefdd9c5",
      "transactionType": "CREATE",
      "contractName": "TurnBoundEnforcer",
      "contractAddress": "0x0dcd1bf9a1b36ce34237eeafef220932846bcd82",
      "function": null,
      "arguments": null,
      "transaction": {
        "from": "0xf39fd6e51aad88f6f4ce6ab8827279cfffb92266",
        "to": null,
        "value": "0x0",
        "input": "0x60808060405234601557610250908161001a8239f35b5f80fdfe6080806040526004361015610012575f80fd5b5f3560e01c908163a145832a14610046575063d3eddcc514610032575f80fd5b346100425761004036610174565b005b5f80fd5b3461004257604061005636610174565b509896945050505050838092500103126100425780356001600160a01b03811691908290036100425760248460209384829463ddc2a25160e01b8452013560048301525afa91821561013b575f926100cd575b506001600160a01b039081169116036100be57005b631cc191eb60e31b5f5260045ffd5b90915060203d602011610134575b601f8101601f1916820167ffffffffffffffff8111838210176101205760209183916040528101031261004257516001600160a01b03811681036100425790826100a9565b634e487b7160e01b5f52604160045260245ffd5b503d6100db565b6040513d5f823e3d90fd5b9181601f840112156100425782359167ffffffffffffffff8311610042576020838186019501011161004257565b9060e06003198301126100425760043567ffffffffffffffff811161004257826101a091600401610146565b9290929160243567ffffffffffffffff811161004257826101c391600401610146565b92909291604435916064359067ffffffffffffffff8211610042576101ea91600401610146565b90916084359060a4356001600160a01b0381168103610042579060c4356001600160a01b0381168103610042579056fea2646970667358221220f5eb6763c09ed9b24d2b3505714f44084264cfb110dc4a47df521fffcffc99ec64736f6c634300081b0033",
        "nonce": "0xd",
        "chainId": "0x7a69"
      },
      "additionalContracts": [],
      "isFixedGasLimit": false
    },
    {
      "hash": "0xf56c9452d8f84c89500f808ccfd6f88c3c58caeee91796cbb517b0b985ad1af9",
      "transactionType": "CREATE",
      "contractName": "SystemAllowlistEnforcer",
      "contractAddress": "0x9a676e781a523b5d0c0e43731313a708cb607508",
      "function": null,
      "arguments": null,
      "transaction": {
        "from": "0xf39fd6e51aad88f6f4ce6ab8827279cfffb92266",
        "to": null,
        "value": "0x0",
        "input": "0x608080604052346015576102e7908161001a8239f35b5f80fdfe6080806040526004361015610012575f80fd5b5f3560e01c908163a145832a14610046575063d3eddcc514610032575f80fd5b3461004257610040366101d8565b005b5f80fd5b3461004257610054366101d8565b505050935095949391505082016040838203126100425782356001600160a01b03811693908490036100425760208101359067ffffffffffffffff8211610042570181601f820112156100425780359067ffffffffffffffff8211610196578160051b91601f19603f840116870187811067ffffffffffffffff82111761019657604052865260208087019282010192831161004257602001905b828210610186575050506034811061017757806014116100425780603411610042576033190190833560601c0361016857602481106101685780600411610042576318a30a1f60e31b60348401356001600160e01b03191601610168576024116100425760386101619201359061027e565b1561016857005b63e2b8d77d60e01b5f5260045ffd5b6304bc946d60e21b5f5260045ffd5b81358152602091820191016100ef565b634e487b7160e01b5f52604160045260245ffd5b9181601f840112156100425782359167ffffffffffffffff8311610042576020838186019501011161004257565b9060e06003198301126100425760043567ffffffffffffffff81116100425782610204916004016101aa565b9290929160243567ffffffffffffffff81116100425782610227916004016101aa565b92909291604435916064359067ffffffffffffffff82116100425761024e916004016101aa565b90916084359060a4356001600160a01b0381168103610042579060c4356001600160a01b03811681036100425790565b905f5b82518110156102aa578160208260051b85010151146102a257600101610281565b505050600190565b5050505f9056fea2646970667358221220e19aa1aaf7bcdd6459c5c85b26e76482940eb2cbec1156dbeb32cff83572703d64736f6c634300081b0033",
        "nonce": "0xe",
        "chainId": "0x7a69"
      },
      "additionalContracts": [],
      "isFixedGasLimit": false
    },
    {
      "hash": "0x8279186f8c9c5110d8527d476c3c140b2d09ad99860c22591e76ad67acf2fa99",
      "transactionType": "CREATE",
      "contractName": "TimestampEnforcer",
      "contractAddress": "0x0b306bf915c4d645ff596e518faf3f9669b97016",
      "function": null,
      "arguments": null,
      "transaction": {
        "from": "0xf39fd6e51aad88f6f4ce6ab8827279cfffb92266",
        "to": null,
        "value": "0x0",
        "input": "0x6080806040523460155761018e908161001a8239f35b5f80fdfe60806040526004361015610011575f80fd5b5f3560e01c8063a145832a146100435763d3eddcc51461002f575f80fd5b3461003f5761003d366100b2565b005b5f80fd5b3461003f576020610053366100b2565b5050505050505050908092918101031261003f576103e8903504421161007557005b6330d3ba0760e01b5f5260045ffd5b9181601f8401121561003f5782359167ffffffffffffffff831161003f576020838186019501011161003f57565b9060e060031983011261003f5760043567ffffffffffffffff811161003f57826100de91600401610084565b9290929160243567ffffffffffffffff811161003f578261010191600401610084565b92909291604435916064359067ffffffffffffffff821161003f5761012891600401610084565b90916084359060a4356001600160a01b038116810361003f579060c4356001600160a01b038116810361003f579056fea264697066735822122022ccea052ba223ec41c4c686a53b482dc67ef03cbe6d9010378db449f58c236a64736f6c634300081b0033",
        "nonce": "0xf",
        "chainId": "0x7a69"
      },
      "additionalContracts": [],
      "isFixedGasLimit": false
    },
    {
      "hash": "0x9afc13bca99664b01718b0903822b48d385706a1c520cd17539ccab36c752bf8",
      "transactionType": "CREATE",
      "contractName": "LimitedCallsEnforcer",
      "contractAddress": "0x959922be3caee4b8cd9a407cc3ac1c251c2007b1",
      "function": null,
      "arguments": null,
      "transaction": {
        "from": "0xf39fd6e51aad88f6f4ce6ab8827279cfffb92266",
        "to": null,
        "value": "0x0",
        "input": "0x608080604052346015576101f8908161001a8239f35b5f80fdfe60806040526004361015610011575f80fd5b5f3560e01c8063a145832a14610077578063d3eddcc5146100675763d88a792c1461003a575f80fd5b34610063576020366003190112610063576004355f525f602052602060405f2054604051908152f35b5f80fd5b34610063576100753661011c565b005b346100635760206100873661011c565b505096979593505050508480925001031261006357805f525f60205260405f205491358210156100df57600182018092116100cb575f525f60205260405f20555f80f35b634e487b7160e01b5f52601160045260245ffd5b6330def6b560e01b5f5260045ffd5b9181601f840112156100635782359167ffffffffffffffff8311610063576020838186019501011161006357565b9060e06003198301126100635760043567ffffffffffffffff81116100635782610148916004016100ee565b9290929160243567ffffffffffffffff8111610063578261016b916004016100ee565b92909291604435916064359067ffffffffffffffff821161006357610192916004016100ee565b90916084359060a4356001600160a01b0381168103610063579060c4356001600160a01b0381168103610063579056fea26469706673582212202d8be335bb611882c481b7ddfae398752af19e2a15568c4426f3f98d2d0001be64736f6c634300081b0033",
        "nonce": "0x10",
        "chainId": "0x7a69"
      },
      "additionalContracts": [],
      "isFixedGasLimit": false
    },
    {
      "hash": "0xd8c2c365f5b73d4dcea41670ad29d30f0efcde52f86b180f7646b755cde9446d",
      "transactionType": "CREATE",
      "contractName": "PerActionCapEnforcer",
      "contractAddress": "0x9a9f2ccfde556a7e9ff0848998aa4a0cfd8863ae",
      "function": null,
      "arguments": null,
      "transaction": {
        "from": "0xf39fd6e51aad88f6f4ce6ab8827279cfffb92266",
        "to": null,
        "value": "0x0",
        "input": "0x60808060405234601557610244908161001a8239f35b5f80fdfe60806040526004361015610011575f80fd5b5f3560e01c8063a145832a146100435763d3eddcc51461002f575f80fd5b3461003f5761003d36610168565b005b5f80fd5b3461003f57604061005336610168565b505050949150948096935080925001031261003f5782356001600160a01b038116919082900361003f576034811061012b578060141161003f578060341161003f576033190190823560601c036100f357600481106100f3578060041161003f5760348201356001600160e01b03191663a9059cbb60e01b81036101025750604481106100f35760441161003f5760586020910135915b0135106100f357005b63068562c960e11b5f5260045ffd5b6323b872dd60e01b036100f357606481106100f35760641161003f5760786020910135916100ea565b6304bc946d60e21b5f5260045ffd5b9181601f8401121561003f5782359167ffffffffffffffff831161003f576020838186019501011161003f57565b9060e060031983011261003f5760043567ffffffffffffffff811161003f57826101949160040161013a565b9290929160243567ffffffffffffffff811161003f57826101b79160040161013a565b92909291604435916064359067ffffffffffffffff821161003f576101de9160040161013a565b90916084359060a4356001600160a01b038116810361003f579060c4356001600160a01b038116810361003f579056fea2646970667358221220c91276757b59a010df6c4f40fa19fd1b0415e084b390cac078c4e1c055646b6964736f6c634300081b0033",
        "nonce": "0x11",
        "chainId": "0x7a69"
      },
      "additionalContracts": [],
      "isFixedGasLimit": false
    }
  ],
  "receipts": [
    {
      "type": "0x2",
      "status": "0x1",
      "cumulativeGasUsed": "0xf8719",
      "logs": [
        {
          "address": "0x5fbdb2315678afecb367f032d93f642f64180aa3",
          "topics": ["0x2ff4f36f7bcd5d4c260c49696c9d2b7c01d486e2d5ef32b48da03461a743dfe8"],
          "data": "0x6e657875732e776f726c642e7631000000000000000000000000000000000000",
          "blockHash": "0xe34acf36b86b381f1680a9f494c4af627af184c70bceed72d572c9b4bed3f086",
          "blockNumber": "0x1",
          "blockTimestamp": "0x6a2daf95",
          "transactionHash": "0x75ff7fe54621601989d9d2486b4b98b807f73e1df8952a9eeb5e7c6fe9ea64e2",
          "transactionIndex": "0x0",
          "logIndex": "0x0",
          "removed": false
        }
      ],
      "logsBloom": "0x00000000000000000000000000000000001000000000000000000000000000000000000000000000000001000000000000000000000000000000000000000000000000000000000000000000000000000000000000000000000000000000000000000040000000000000000000000008000000000000000000000000000000000000000000000000000000000000000000000000000000000000000200000000000000000000000000000000000000000000000000000000000000000000000000000040000000000000000000000000000000000000000000000000000000000000000000000000000000000000000000000000000000000000000000000000",
      "transactionHash": "0x75ff7fe54621601989d9d2486b4b98b807f73e1df8952a9eeb5e7c6fe9ea64e2",
      "transactionIndex": "0x0",
      "blockHash": "0xe34acf36b86b381f1680a9f494c4af627af184c70bceed72d572c9b4bed3f086",
      "blockNumber": "0x1",
      "gasUsed": "0xf8719",
      "effectiveGasPrice": "0x3b9aca01",
      "blobGasPrice": "0x1",
      "from": "0xf39fd6e51aad88f6f4ce6ab8827279cfffb92266",
      "to": null,
      "contractAddress": "0x5fbdb2315678afecb367f032d93f642f64180aa3"
    },
    {
      "type": "0x2",
      "status": "0x1",
      "cumulativeGasUsed": "0xd0b61",
      "logs": [],
      "logsBloom": "0x00000000000000000000000000000000000000000000000000000000000000000000000000000000000000000000000000000000000000000000000000000000000000000000000000000000000000000000000000000000000000000000000000000000000000000000000000000000000000000000000000000000000000000000000000000000000000000000000000000000000000000000000000000000000000000000000000000000000000000000000000000000000000000000000000000000000000000000000000000000000000000000000000000000000000000000000000000000000000000000000000000000000000000000000000000000",
      "transactionHash": "0xeeffbfc8f7f5dc10717449ab36bfffd8d096bb426a333d3f44a831f733aa7c83",
      "transactionIndex": "0x0",
      "blockHash": "0xd0280176c15bbfd95e6e2639a11acfb2701b4a0da7c6c51af10193eab520d009",
      "blockNumber": "0x2",
      "gasUsed": "0xd0b61",
      "effectiveGasPrice": "0x34a8d692",
      "blobGasPrice": "0x1",
      "from": "0xf39fd6e51aad88f6f4ce6ab8827279cfffb92266",
      "to": null,
      "contractAddress": "0xe7f1725e7734ce288f8367e1bb143e90bb3f0512"
    },
    {
      "type": "0x2",
      "status": "0x1",
      "cumulativeGasUsed": "0xc50c4",
      "logs": [],
      "logsBloom": "0x00000000000000000000000000000000000000000000000000000000000000000000000000000000000000000000000000000000000000000000000000000000000000000000000000000000000000000000000000000000000000000000000000000000000000000000000000000000000000000000000000000000000000000000000000000000000000000000000000000000000000000000000000000000000000000000000000000000000000000000000000000000000000000000000000000000000000000000000000000000000000000000000000000000000000000000000000000000000000000000000000000000000000000000000000000000",
      "transactionHash": "0x7cc4db39a753025343bcb038ac5704884f2c5de790c2d2bbdf83bc63dc41db65",
      "transactionIndex": "0x0",
      "blockHash": "0x17b8e09b7d6e3dfddb5adebf36d6c4c9525c6771e7943c1f7d84f9485fbe27ec",
      "blockNumber": "0x3",
      "gasUsed": "0xc50c4",
      "effectiveGasPrice": "0x2e73c561",
      "blobGasPrice": "0x1",
      "from": "0xf39fd6e51aad88f6f4ce6ab8827279cfffb92266",
      "to": null,
      "contractAddress": "0x9fe46736679d2d9a65f0992f2272de9f3c7fa6e0"
    },
    {
      "type": "0x2",
      "status": "0x1",
      "cumulativeGasUsed": "0x773d2",
      "logs": [],
      "logsBloom": "0x00000000000000000000000000000000000000000000000000000000000000000000000000000000000000000000000000000000000000000000000000000000000000000000000000000000000000000000000000000000000000000000000000000000000000000000000000000000000000000000000000000000000000000000000000000000000000000000000000000000000000000000000000000000000000000000000000000000000000000000000000000000000000000000000000000000000000000000000000000000000000000000000000000000000000000000000000000000000000000000000000000000000000000000000000000000",
      "transactionHash": "0xc2af3f7ffeb89fbc2583377a48c1a78e81eeddf3f3c2b519771566ab52d89ed2",
      "transactionIndex": "0x0",
      "blockHash": "0xeedb50f82e251a8a27afb3c56a34284494e979d57c022827219c2a253ec45749",
      "blockNumber": "0x4",
      "gasUsed": "0x773d2",
      "effectiveGasPrice": "0x28f54852",
      "blobGasPrice": "0x1",
      "from": "0xf39fd6e51aad88f6f4ce6ab8827279cfffb92266",
      "to": null,
      "contractAddress": "0xcf7ed3acca5a467e9e704c703e8d87f634fb0fc9"
    },
    {
      "type": "0x2",
      "status": "0x1",
      "cumulativeGasUsed": "0x17a76",
      "logs": [
        {
          "address": "0x5fbdb2315678afecb367f032d93f642f64180aa3",
          "topics": [
            "0x27b93ae2f1d204f7d28eaeab23952d8f33aedaa7b17dfbbe85ac96286df3be15",
            "0x74620000000000000000000000000000436f756e746572000000000000000000"
          ],
          "data": "0x000000000000000000000000000000000000000000000000000000000000000100000000000000000000000000000000000000000000000000000000000000020000000000000000000000000000000000000000000000000000000000000060000000000000000000000000000000000000000000000000000000000000000200000000000000000000000000000000000000000000000000000000000000400000000000000000000000000000000000000000000000000000000000000080000000000000000000000000000000000000000000000000000000000000000576616c756500000000000000000000000000000000000000000000000000000000000000000000000000000000000000000000000000000000000000000000096c6173744d6f7665720000000000000000000000000000000000000000000000",
          "blockHash": "0x2670dcbc84a7ca80388a8666a2a5efdb7bfe52a6005f464a565f3bcedffe5a94",
          "blockNumber": "0x5",
          "blockTimestamp": "0x6a2daf95",
          "transactionHash": "0x1604c79cc0c65374dbde814e4f2f5a142184849315666fd0fa2e7d6828345a98",
          "transactionIndex": "0x0",
          "logIndex": "0x0",
          "removed": false
        }
      ],
      "logsBloom": "0x00000000000000000000000000000000000000000000000000000000000000000000000000000000000000000004000000000000000000000000000001000000000000000000000000000000000000000000000000000000000000000000000000000040000000000000001000000000000000000000000000000000000000000000000000000000000000000000000000000000000000000000000200000000000000000000000000000000000000000000000000000000000000000000000000000040000000000000000000000000000000000000000000000000002000000000000000000000000000000000000000000000000000200000000100000000",
      "transactionHash": "0x1604c79cc0c65374dbde814e4f2f5a142184849315666fd0fa2e7d6828345a98",
      "transactionIndex": "0x0",
      "blockHash": "0x2670dcbc84a7ca80388a8666a2a5efdb7bfe52a6005f464a565f3bcedffe5a94",
      "blockNumber": "0x5",
      "gasUsed": "0x17a76",
      "effectiveGasPrice": "0x24014c27",
      "blobGasPrice": "0x1",
      "from": "0xf39fd6e51aad88f6f4ce6ab8827279cfffb92266",
      "to": "0x5fbdb2315678afecb367f032d93f642f64180aa3",
      "contractAddress": null
    },
    {
      "type": "0x2",
      "status": "0x1",
      "cumulativeGasUsed": "0xc5b7",
      "logs": [
        {
          "address": "0x5fbdb2315678afecb367f032d93f642f64180aa3",
          "topics": [
            "0x7c9f81c9a3f04de893a3dcdfd6cd67d32142e525052ee9b3c16f0ba1ca23b2e8",
            "0x436f756e74657247616d65000000000000000000000000000000000000000000",
            "0x000000000000000000000000cf7ed3acca5a467e9e704c703e8d87f634fb0fc9"
          ],
          "data": "0x0000000000000000000000000000000000000000000000000000000000000000",
          "blockHash": "0x8349ef6bbfe196fc805733bb5ff902b376beb05c000d503fe574abb40395f4ad",
          "blockNumber": "0x6",
          "blockTimestamp": "0x6a2daf95",
          "transactionHash": "0x623be373000ddb9cac3ba02c55e6480fa8ffa09248e8e81259c11303f82825a3",
          "transactionIndex": "0x0",
          "logIndex": "0x0",
          "removed": false
        }
      ],
      "logsBloom": "0x00000000000000000000000000000000000000000000000000000000000000000000000000000080000000000000000000000000000000000000000000000000000000000000000000000000040000000000000000000000000000000000000000000040000000000000000001000000000000000000000000000000000000000000000000000000000000000000000000000000000000000000000200000000100000001000000000000000000000000000000000000000000000000000000000000040000000000000000000000000000000000000000000000000800000010000000000000100008000000000000000000000000000000000000000000000",
      "transactionHash": "0x623be373000ddb9cac3ba02c55e6480fa8ffa09248e8e81259c11303f82825a3",
      "transactionIndex": "0x0",
      "blockHash": "0x8349ef6bbfe196fc805733bb5ff902b376beb05c000d503fe574abb40395f4ad",
      "blockNumber": "0x6",
      "gasUsed": "0xc5b7",
      "effectiveGasPrice": "0x1f8893c3",
      "blobGasPrice": "0x1",
      "from": "0xf39fd6e51aad88f6f4ce6ab8827279cfffb92266",
      "to": "0x5fbdb2315678afecb367f032d93f642f64180aa3",
      "contractAddress": null
    },
    {
      "type": "0x2",
      "status": "0x1",
      "cumulativeGasUsed": "0xbe98",
      "logs": [],
      "logsBloom": "0x00000000000000000000000000000000000000000000000000000000000000000000000000000000000000000000000000000000000000000000000000000000000000000000000000000000000000000000000000000000000000000000000000000000000000000000000000000000000000000000000000000000000000000000000000000000000000000000000000000000000000000000000000000000000000000000000000000000000000000000000000000000000000000000000000000000000000000000000000000000000000000000000000000000000000000000000000000000000000000000000000000000000000000000000000000000",
      "transactionHash": "0x4843fb3ed54dd17ac5ea68cc416f622e1e49de40dd9b9a6a7a376f6674b8c184",
      "transactionIndex": "0x0",
      "blockHash": "0x1afe56aeb3d47dfffc1bf0c21cf10fe020c3f131174bd67402332e428fc8ab74",
      "blockNumber": "0x7",
      "gasUsed": "0xbe98",
      "effectiveGasPrice": "0x1b9ae8f6",
      "blobGasPrice": "0x1",
      "from": "0xf39fd6e51aad88f6f4ce6ab8827279cfffb92266",
      "to": "0x5fbdb2315678afecb367f032d93f642f64180aa3",
      "contractAddress": null
    },
    {
      "type": "0x2",
      "status": "0x1",
      "cumulativeGasUsed": "0xb499",
      "logs": [],
      "logsBloom": "0x00000000000000000000000000000000000000000000000000000000000000000000000000000000000000000000000000000000000000000000000000000000000000000000000000000000000000000000000000000000000000000000000000000000000000000000000000000000000000000000000000000000000000000000000000000000000000000000000000000000000000000000000000000000000000000000000000000000000000000000000000000000000000000000000000000000000000000000000000000000000000000000000000000000000000000000000000000000000000000000000000000000000000000000000000000000",
      "transactionHash": "0x7dbee35fe264565a332e07dc0c58514bfb30123bc2eb34c2c5155ddc7538ca67",
      "transactionIndex": "0x0",
      "blockHash": "0x378ca48d743ce41c273ebebce57b75ce24fb7926d45e10151201f739066ffea3",
      "blockNumber": "0x8",
      "gasUsed": "0xb499",
      "effectiveGasPrice": "0x182a6b6f",
      "blobGasPrice": "0x1",
      "from": "0xf39fd6e51aad88f6f4ce6ab8827279cfffb92266",
      "to": "0x5fbdb2315678afecb367f032d93f642f64180aa3",
      "contractAddress": null
    },
    {
      "type": "0x2",
      "status": "0x1",
      "cumulativeGasUsed": "0xb353",
      "logs": [],
      "logsBloom": "0x00000000000000000000000000000000000000000000000000000000000000000000000000000000000000000000000000000000000000000000000000000000000000000000000000000000000000000000000000000000000000000000000000000000000000000000000000000000000000000000000000000000000000000000000000000000000000000000000000000000000000000000000000000000000000000000000000000000000000000000000000000000000000000000000000000000000000000000000000000000000000000000000000000000000000000000000000000000000000000000000000000000000000000000000000000000",
      "transactionHash": "0x16efa5cc83a4f569f5a1c21d8c1fb42dd4f2096c8ab5b2c75d1374001f1ed2af",
      "transactionIndex": "0x0",
      "blockHash": "0x88830b8a649e62234ab6be368ba2836d80726812e0dd1020e99c3c9a15d65eea",
      "blockNumber": "0x9",
      "gasUsed": "0xb353",
      "effectiveGasPrice": "0x1527802d",
      "blobGasPrice": "0x1",
      "from": "0xf39fd6e51aad88f6f4ce6ab8827279cfffb92266",
      "to": "0xcf7ed3acca5a467e9e704c703e8d87f634fb0fc9",
      "contractAddress": null
    },
    {
      "type": "0x2",
      "status": "0x1",
      "cumulativeGasUsed": "0xb486",
      "logs": [],
      "logsBloom": "0x00000000000000000000000000000000000000000000000000000000000000000000000000000000000000000000000000000000000000000000000000000000000000000000000000000000000000000000000000000000000000000000000000000000000000000000000000000000000000000000000000000000000000000000000000000000000000000000000000000000000000000000000000000000000000000000000000000000000000000000000000000000000000000000000000000000000000000000000000000000000000000000000000000000000000000000000000000000000000000000000000000000000000000000000000000000",
      "transactionHash": "0xa9022756de1e3f655530edbfb4aa8489830f323dc37bd3cfbc9f8a39d868de9e",
      "transactionIndex": "0x0",
      "blockHash": "0xb661c9aa9326eb493be858ffdb7e81ffcf313e865de6255317746cf8dc30129b",
      "blockNumber": "0xa",
      "gasUsed": "0xb486",
      "effectiveGasPrice": "0x1284a286",
      "blobGasPrice": "0x1",
      "from": "0xf39fd6e51aad88f6f4ce6ab8827279cfffb92266",
      "to": "0x9fe46736679d2d9a65f0992f2272de9f3c7fa6e0",
      "contractAddress": null
    },
    {
      "type": "0x2",
      "status": "0x1",
      "cumulativeGasUsed": "0x66ca",
      "logs": [],
      "logsBloom": "0x00000000000000000000000000000000000000000000000000000000000000000000000000000000000000000000000000000000000000000000000000000000000000000000000000000000000000000000000000000000000000000000000000000000000000000000000000000000000000000000000000000000000000000000000000000000000000000000000000000000000000000000000000000000000000000000000000000000000000000000000000000000000000000000000000000000000000000000000000000000000000000000000000000000000000000000000000000000000000000000000000000000000000000000000000000000",
      "transactionHash": "0x31f0ca778c2aaedb624cad0e9e3a8fdf426c81ac0b9be37e9af6c9f20740a1b2",
      "transactionIndex": "0x0",
      "blockHash": "0xbfb86b84c52cd00a7758eee8b86b25fe74f53c3cd1300c2f7bbe6be240043a40",
      "blockNumber": "0xb",
      "gasUsed": "0x66ca",
      "effectiveGasPrice": "0x1035e197",
      "blobGasPrice": "0x1",
      "from": "0xf39fd6e51aad88f6f4ce6ab8827279cfffb92266",
      "to": "0x9fe46736679d2d9a65f0992f2272de9f3c7fa6e0",
      "contractAddress": null
    },
    {
      "type": "0x2",
      "status": "0x1",
      "cumulativeGasUsed": "0xb3c8",
      "logs": [],
      "logsBloom": "0x00000000000000000000000000000000000000000000000000000000000000000000000000000000000000000000000000000000000000000000000000000000000000000000000000000000000000000000000000000000000000000000000000000000000000000000000000000000000000000000000000000000000000000000000000000000000000000000000000000000000000000000000000000000000000000000000000000000000000000000000000000000000000000000000000000000000000000000000000000000000000000000000000000000000000000000000000000000000000000000000000000000000000000000000000000000",
      "transactionHash": "0xa43618b64be93e54aabc17ec42d5550e831c3d2757ccfbc4d462fe5bd37f9b0b",
      "transactionIndex": "0x0",
      "blockHash": "0xd94d82b1b9dedb5ed8a8b33dcdbed8026a28dba097e5a564217373ca0ec04563",
      "blockNumber": "0xc",
      "gasUsed": "0xb3c8",
      "effectiveGasPrice": "0xe300e5a",
      "blobGasPrice": "0x1",
      "from": "0xf39fd6e51aad88f6f4ce6ab8827279cfffb92266",
      "to": "0x9fe46736679d2d9a65f0992f2272de9f3c7fa6e0",
      "contractAddress": null
    },
    {
      "type": "0x2",
      "status": "0x1",
      "cumulativeGasUsed": "0x2d97e",
      "logs": [
        {
          "address": "0x9fe46736679d2d9a65f0992f2272de9f3c7fa6e0",
          "topics": [
            "0xa4663596238e958f20b25cc69bc3648d070a6628c207d1a233185cbd3c280ef1",
            "0x0000000000000000000000000000000000000000000000000000000000000001"
          ],
          "data": "0x00000000000000000000000000000000000000000000000000000000000000400000000000000000000000000000000000000000000000000000000000001395000000000000000000000000000000000000000000000000000000000000000200000000000000000000000070997970c51812dc3a010c7d01b50e0d17dc79c80000000000000000000000003c44cdddb6a900fa2b585dd299e03d12fa4293bc",
          "blockHash": "0x93ef4abab1fd176eb733d2c02791503d0466803f6e8bfa05130f43c420e811e2",
          "blockNumber": "0xd",
          "blockTimestamp": "0x6a2daf95",
          "transactionHash": "0xe0cc6ea5bf627c0fa6cf349a183ce9f6b9720f102c587190f003cf0980c09ca2",
          "transactionIndex": "0x0",
          "logIndex": "0x0",
          "removed": false
        }
      ],
      "logsBloom": "0x00000000000000000000000000000000000000000000000000000000000000000000000000000000000000000000000000000000000040200000000000040000000000000004000000000000000000000000000000040000000000000000000000000000000400000000000000000000000000000000000000000000000000000000000000000000000000000000000000000000000000000000000000000000000000000000000000000000000000000000000000000000000000000000000000000000000000000000000000000000000000000000000000400000000040000000000000000000000000000000000000000000000000400000000000000000",
      "transactionHash": "0xe0cc6ea5bf627c0fa6cf349a183ce9f6b9720f102c587190f003cf0980c09ca2",
      "transactionIndex": "0x0",
      "blockHash": "0x93ef4abab1fd176eb733d2c02791503d0466803f6e8bfa05130f43c420e811e2",
      "blockNumber": "0xd",
      "gasUsed": "0x2d97e",
      "effectiveGasPrice": "0xc6b712c",
      "blobGasPrice": "0x1",
      "from": "0xf39fd6e51aad88f6f4ce6ab8827279cfffb92266",
      "to": "0x9fe46736679d2d9a65f0992f2272de9f3c7fa6e0",
      "contractAddress": null
    },
    {
      "type": "0x2",
      "status": "0x1",
      "cumulativeGasUsed": "0x2c3a0",
      "logs": [],
      "logsBloom": "0x00000000000000000000000000000000000000000000000000000000000000000000000000000000000000000000000000000000000000000000000000000000000000000000000000000000000000000000000000000000000000000000000000000000000000000000000000000000000000000000000000000000000000000000000000000000000000000000000000000000000000000000000000000000000000000000000000000000000000000000000000000000000000000000000000000000000000000000000000000000000000000000000000000000000000000000000000000000000000000000000000000000000000000000000000000000",
      "transactionHash": "0xcfae93a931c22e52d106db012ba3bf57e428f6bf091dbd4915b5e09aeefdd9c5",
      "transactionIndex": "0x0",
      "blockHash": "0x9d99550c23c7f3c66b169a4795e210c707c8a916197996e238513e9a700b1f67",
      "blockNumber": "0xe",
      "gasUsed": "0x2c3a0",
      "effectiveGasPrice": "0xae2f5b8",
      "blobGasPrice": "0x1",
      "from": "0xf39fd6e51aad88f6f4ce6ab8827279cfffb92266",
      "to": null,
      "contractAddress": "0x0dcd1bf9a1b36ce34237eeafef220932846bcd82"
    },
    {
      "type": "0x2",
      "status": "0x1",
      "cumulativeGasUsed": "0x34318",
      "logs": [],
      "logsBloom": "0x00000000000000000000000000000000000000000000000000000000000000000000000000000000000000000000000000000000000000000000000000000000000000000000000000000000000000000000000000000000000000000000000000000000000000000000000000000000000000000000000000000000000000000000000000000000000000000000000000000000000000000000000000000000000000000000000000000000000000000000000000000000000000000000000000000000000000000000000000000000000000000000000000000000000000000000000000000000000000000000000000000000000000000000000000000000",
      "transactionHash": "0xf56c9452d8f84c89500f808ccfd6f88c3c58caeee91796cbb517b0b985ad1af9",
      "transactionIndex": "0x0",
      "blockHash": "0x3fd9ebda8cc79771b70e7f72871af7d57c8c8be174a745429d7a9f72709f476e",
      "blockNumber": "0xf",
      "gasUsed": "0x34318",
      "effectiveGasPrice": "0x98acc0c",
      "blobGasPrice": "0x1",
      "from": "0xf39fd6e51aad88f6f4ce6ab8827279cfffb92266",
      "to": null,
      "contractAddress": "0x9a676e781a523b5d0c0e43731313a708cb607508"
    },
    {
      "type": "0x2",
      "status": "0x1",
      "cumulativeGasUsed": "0x21fbf",
      "logs": [],
      "logsBloom": "0x00000000000000000000000000000000000000000000000000000000000000000000000000000000000000000000000000000000000000000000000000000000000000000000000000000000000000000000000000000000000000000000000000000000000000000000000000000000000000000000000000000000000000000000000000000000000000000000000000000000000000000000000000000000000000000000000000000000000000000000000000000000000000000000000000000000000000000000000000000000000000000000000000000000000000000000000000000000000000000000000000000000000000000000000000000000",
      "transactionHash": "0x8279186f8c9c5110d8527d476c3c140b2d09ad99860c22591e76ad67acf2fa99",
      "transactionIndex": "0x0",
      "blockHash": "0xfba24a21d73719ee4e681d8fcdf383cda05463b8977b28df36ff3cc82ec2be04",
      "blockNumber": "0x10",
      "gasUsed": "0x21fbf",
      "effectiveGasPrice": "0x85dcca3",
      "blobGasPrice": "0x1",
      "from": "0xf39fd6e51aad88f6f4ce6ab8827279cfffb92266",
      "to": null,
      "contractAddress": "0x0b306bf915c4d645ff596e518faf3f9669b97016"
    },
    {
      "type": "0x2",
      "status": "0x1",
      "cumulativeGasUsed": "0x2793b",
      "logs": [],
      "logsBloom": "0x00000000000000000000000000000000000000000000000000000000000000000000000000000000000000000000000000000000000000000000000000000000000000000000000000000000000000000000000000000000000000000000000000000000000000000000000000000000000000000000000000000000000000000000000000000000000000000000000000000000000000000000000000000000000000000000000000000000000000000000000000000000000000000000000000000000000000000000000000000000000000000000000000000000000000000000000000000000000000000000000000000000000000000000000000000000",
      "transactionHash": "0x9afc13bca99664b01718b0903822b48d385706a1c520cd17539ccab36c752bf8",
      "transactionIndex": "0x0",
      "blockHash": "0x42c07c739181d07d2d60ba5ad56b996fc4c45af32be18ce7088ad811154d09a6",
      "blockNumber": "0x11",
      "gasUsed": "0x2793b",
      "effectiveGasPrice": "0x7548f15",
      "blobGasPrice": "0x1",
      "from": "0xf39fd6e51aad88f6f4ce6ab8827279cfffb92266",
      "to": null,
      "contractAddress": "0x959922be3caee4b8cd9a407cc3ac1c251c2007b1"
    },
    {
      "type": "0x2",
      "status": "0x1",
      "cumulativeGasUsed": "0x2b936",
      "logs": [],
      "logsBloom": "0x00000000000000000000000000000000000000000000000000000000000000000000000000000000000000000000000000000000000000000000000000000000000000000000000000000000000000000000000000000000000000000000000000000000000000000000000000000000000000000000000000000000000000000000000000000000000000000000000000000000000000000000000000000000000000000000000000000000000000000000000000000000000000000000000000000000000000000000000000000000000000000000000000000000000000000000000000000000000000000000000000000000000000000000000000000000",
      "transactionHash": "0xd8c2c365f5b73d4dcea41670ad29d30f0efcde52f86b180f7646b755cde9446d",
      "transactionIndex": "0x0",
      "blockHash": "0xf2a56c463702acca90efe4a241bb4f813d4dd572b4549aedeb654e7cc6df4999",
      "blockNumber": "0x12",
      "gasUsed": "0x2b936",
      "effectiveGasPrice": "0x66c862b",
      "blobGasPrice": "0x1",
      "from": "0xf39fd6e51aad88f6f4ce6ab8827279cfffb92266",
      "to": null,
      "contractAddress": "0x9a9f2ccfde556a7e9ff0848998aa4a0cfd8863ae"
    }
  ],
  "libraries": [],
  "pending": [],
  "returns": {},
  "timestamp": 1781378965915,
  "chain": 31337,
  "commit": "ceba50e"
}
