{
  "transactions": [
    {
      "hash": "0x75ff7fe54621601989d9d2486b4b98b807f73e1df8952a9eeb5e7c6fe9ea64e2",
      "transactionType": "CREATE",
      "contractName": "World",
      "contractAddress": "0x5fbdb2315678afecb367f032d93f642f64180aa3",
      "function": null,
      "arguments": null,
      "transaction": {
        "from": "0xf39fd6e51aad88f6f4ce6ab8827279cfffb92266",
        "to": null,
        "value": "0x0",
        "input": "0x6080806040523460885760017f9b779b17422d0df92223018b32b4d1fa46e071723d6817e2486d003becc55f0055600680546001600160a01b031916331790556d6e657875732e776f726c642e763160901b81527f2ff4f36f7bcd5d4c260c49696c9d2b7c01d486e2d5ef32b48da03461a743dfe890602090a1604051611092908161008d8239f35b5f80fdfe60806040526004361015610011575f80fd5b5f3560e01c806301b9b47c1461012457806323e8492c1461011f5780633350b6a91461011a57806334be086f146101155780633ae7af0814610110578063505a181d1461010b57806364260f69146101065780637da0a8771461010157806388eea6f1146100fc5780638da5cb5b146100f75780638e50f019146100f25780638f1ac175146100ed578063cc49db7e146100e8578063da742228146100e3578063e06c1939146100de578063e06f8741146100d95763f2fde38b146100d4575f80fd5b610a15565b610994565b61090e565b6108c1565b61082d565b6107b9565b61077b565b610753565b6106f7565b6106cf565b6106a1565b61056b565b6103ef565b6102af565b6101b2565b610154565b34610150575f366003190112610150576040516d6e657875732e776f726c642e763160901b8152602090f35b5f80fd5b34610150576020366003190112610150576004355f526001602052602060018060a01b0360405f205416604051908152f35b602435906001600160a01b038216820361015057565b600435906001600160a01b038216820361015057565b34610150576060366003190112610150576004356101ce610186565b906044359182151592838103610150576006546001600160a01b03163303610270575f83815260016020908152604090912080546001600160a01b0319166001600160a01b0385161790557f7c9f81c9a3f04de893a3dcdfd6cd67d32142e525052ee9b3c16f0ba1ca23b2e892909161025d90855f526002845260405f209060ff801983541691151516179055565b6040519485526001600160a01b031693a3005b633f4107ed60e21b5f5260045ffd5b9181601f84011215610150578235916001600160401b038311610150576020808501948460051b01011161015057565b34610150576080366003190112610150576004356024356044356064356001600160401b038111610150576102e890369060040161027f565b600654909391906001600160a01b0316330361027057845f525f60205260ff60405f205416610377577f27b93ae2f1d204f7d28eaeab23952d8f33aedaa7b17dfbbe85ac96286df3be15936103729161036660405161034681610a72565b60018152856020820152866040820152885f525f60205260405f20610ab3565b60405194859485610b03565b0390a2005b84631779e62d60e01b5f5260045260245ffd5b9181601f84011215610150578235916001600160401b038311610150576020838186019501011161015057565b805180835260209291819084018484015e5f828201840152601f01601f1916010190565b9060206103ec9281815201906103b7565b90565b6040366003190112610150576004356024356001600160401b0381116101505761041d90369060040161038a565b60027f9b779b17422d0df92223018b32b4d1fa46e071723d6817e2486d003becc55f0093929354146105295760027f9b779b17422d0df92223018b32b4d1fa46e071723d6817e2486d003becc55f00555f828152600160205260409020546001600160a01b0316918215610517575f808486856104be61049b610fd8565b916104b0604051938492602084019687610ba2565b03601f198101835282610a92565b519134905af16104cc610bc5565b901561050f5761050b906104ff60017f9b779b17422d0df92223018b32b4d1fa46e071723d6817e2486d003becc55f0055565b604051918291826103db565b0390f35b602081519101fd5b63c6c0143760e01b5f5260045260245ffd5b633ee5aeb560e01b5f5260045ffd5b9060406003198301126101505760043591602435906001600160401b038211610150576105679160040161027f565b9091565b346101505761057936610538565b90825f525f60205261059761059360405f2060ff90541690565b1590565b61068d576105cf6105936105c86105b6865f52600860205260405f2090565b335f9081526020919091526040902090565b5460ff1690565b61067557908161066661065c610606847f0e1f72f429eb97e64878619984a91e687ae91610348b9ff4216782cc96e49d079661101e565b61063161062c8261061f8a5f52600360205260405f2090565b905f5260205260405f2090565b610c51565b61064a61062c8261061f8a5f52600460205260405f2090565b61061f875f52600560205260405f2090565b805460ff19169055565b61037260405192839283610cd5565b6324a2ac1960e01b5f5260048390523360245260445ffd5b632fa7919d60e01b5f52600483905260245ffd5b34610150576020366003190112610150576004355f525f602052602060ff60405f2054166040519015158152f35b34610150575f366003190112610150576007546040516001600160a01b039091168152602090f35b3461015057604036600319011261015057600435610713610186565b6006546001600160a01b0316330361027057610749915f52600860205260405f209060018060a01b03165f5260205260405f2090565b805460ff19169055005b34610150575f366003190112610150576006546040516001600160a01b039091168152602090f35b34610150576107a061078c36610538565b9092915f52600560205260405f209261101e565b5f52602052602060ff60405f2054166040519015158152f35b3461015057604036600319011261015057602060ff6107fc6004356107dc610186565b905f526008845260405f209060018060a01b03165f5260205260405f2090565b54166040519015158152f35b909161081f6103ec936040845260408401906103b7565b9160208184039101526103b7565b346101505761083b36610538565b90825f525f60205260ff60405f205416156108ae5761089261086361089e936108989361101e565b845f52600360205260405f20815f5260205260405f20945f52600460205260405f20905f5260205260405f2090565b92610ce6565b91610ce6565b9061050b60405192839283610808565b82632fa7919d60e01b5f5260045260245ffd5b34610150576020366003190112610150576108da61019c565b6006546001600160a01b0316330361027057600780546001600160a01b0319166001600160a01b0392909216919091179055005b346101505760403660031901126101505760043561092a610186565b6006546001600160a01b0316330361027057815f525f60205260ff60405f2054161561098157610974915f52600860205260405f209060018060a01b03165f5260205260405f2090565b805460ff19166001179055005b50632fa7919d60e01b5f5260045260245ffd5b34610150576080366003190112610150576004356024356001600160401b038111610150576109c790369060040161027f565b916044356001600160401b038111610150576109e790369060040161038a565b90606435946001600160401b03861161015057610a0b610a1396369060040161038a565b959094610ec9565b005b3461015057602036600319011261015057610a2e61019c565b600654906001600160a01b0382163303610270576001600160a01b03166001600160a01b03199190911617600655005b634e487b7160e01b5f52604160045260245ffd5b606081019081106001600160401b03821117610a8d57604052565b610a5e565b90601f801991011681019081106001600160401b03821117610a8d57604052565b906040600291610ad281511515859060ff801983541691151516179055565b602081015160018501550151910155565b908060209392818452848401375f828201840152601f01601f1916010190565b93919082916060860191865260208601526060604086015252608083019060808160051b85010193835f91601e1982360301905b848410610b48575050505050505090565b90919293949596607f1982820301875287358381121561015057840190602082359201916001600160401b03811161015057803603831361015057610b936020928392600195610ae3565b99019701959401929190610b37565b826014949392823701906bffffffffffffffffffffffff199060601b1681520190565b3d15610bfe573d906001600160401b038211610a8d5760405191610bf3601f8201601f191660200184610a92565b82523d5f602084013e565b606090565b90600182811c92168015610c31575b6020831014610c1d57565b634e487b7160e01b5f52602260045260245ffd5b91607f1691610c12565b818110610c46575050565b5f8155600101610c3b565b610c5b8154610c03565b9081610c65575050565b81601f5f9311600114610c775750555b565b81835260208320610c9391601f0160051c810190600101610c3b565b808252602082209081548360011b9084198560031b1c191617905555565b81835290916001600160fb1b0383116101505760209260051b809284830137010190565b9160206103ec938181520191610cb1565b9060405191825f825492610cf984610c03565b8084529360018116908115610d625750600114610d1e575b50610c7592500383610a92565b90505f9291925260205f20905f915b818310610d46575050906020610c75928201015f610d11565b6020919350806001915483858901015201910190918492610d2d565b905060209250610c7594915060ff191682840152151560051b8201015f610d11565b9190601f8111610d9357505050565b610c75925f5260205f20906020601f840160051c83019310610dbd575b601f0160051c0190610c3b565b9091508190610db0565b9092916001600160401b038111610a8d57610dec81610de68454610c03565b84610d84565b5f601f8211600114610e2a578190610e1b9394955f92610e1f575b50508160011b915f199060031b1c19161790565b9055565b013590505f80610e07565b601f19821694610e3d845f5260205f2090565b915f5b878110610e77575083600195969710610e5e575b505050811b019055565b01355f19600384901b60f8161c191690555f8080610e54565b90926020600181928686013581550194019101610e40565b94929093610ead6103ec9795610ebb94606089526060890191610cb1565b918683036020880152610ae3565b926040818503910152610ae3565b9592949194939093865f525f60205260ff60405f20541615610fc457610f006105936105c86105b68a5f52600860205260405f2090565b610fac57918391610fa793610f9b610f8e61061f610f7c8a9987610f698f7f4152a3ff4b6805e40a4f8c241bcc539b19cfde7c8e2ab2c23b79b83ad875d7879f9e8f610f4b9161101e565b9581610f6e8c8c610f698b61061f81985f52600360205260405f2090565b610dc7565b5f52600460205260405f2090565b61061f8c5f52600560205260405f2090565b805460ff19166001179055565b60405196879687610e8f565b0390a2565b6324a2ac1960e01b5f5260048790523360245260445ffd5b632fa7919d60e01b5f52600487905260245ffd5b60018060a01b03600754168033149081611014575b5080611009575b156110055736601319013560601c90565b3390565b506014361015610ff4565b905015155f610fed565b604051602081019290916001600160fb1b03821161015057826020916110569360051b8091873781010301601f198101835282610a92565b5190209056fea2646970667358221220bd019133da24f433aaf5f023b24dd626abc2a7f881cdfde314a51d40fd76245c64736f6c634300081b0033",
        "nonce": "0x0",
        "chainId": "0x7a69"
      },
      "additionalContracts": [],
      "isFixedGasLimit": false
    },
    {
      "hash": "0x061a239fb679ea0a418f79af237a9f32ebdf91f197c2e1e1b17c64e7d1873ca9",
      "transactionType": "CREATE",
      "contractName": "NexusDelegationManager",
      "contractAddress": "0xe7f1725e7734ce288f8367e1bb143e90bb3f0512",
      "function": null,
      "arguments": null,
      "transaction": {
        "from": "0xf39fd6e51aad88f6f4ce6ab8827279cfffb92266",
        "to": null,
        "value": "0x0",
        "input": "0x60808060405234601557610d69908161001a8239f35b5f80fdfe60806040526004361015610011575f80fd5b5f3560e01c806366134607146100a45780636b71b00d1461006f578063c66f57751461006a578063cef6d20914610065578063e7a324dc146100605763f698da251461005b575f80fd5b610562565b610528565b61015e565b6100f4565b346100a057602061009861009361008e36610089366100b7565b61074a565b6108da565b610a23565b604051908152f35b5f80fd5b346100a057602061009861008e36610089365b60206003198201126100a057600435906001600160401b0382116100a05760c09082900360031901126100a05760040190565b5f9103126100a057565b346100a0575f3660031901126100a05760206040517f0ac12fd0d048a93db567c251b7987a4a005aa4fb208af047aa3e7ef45fbde44a8152f35b9181601f840112156100a0578235916001600160401b0383116100a0576020808501948460051b0101116100a057565b346100a05760603660031901126100a0576004356001600160401b0381116100a05761018e90369060040161012e565b6024356001600160401b0381116100a0576101ad90369060040161012e565b9290916044356001600160401b0381116100a0576101cf90369060040161012e565b93909185811480159061051e575b61050f575f5b8181106101ec57005b6101f78183876107ec565b908883101561050a578260051b85013590610221610216858b8a6107ec565b929094810190610a56565b9161022b836108da565b9361024361023886610a23565b60a086015190610b9f565b60208501805190959190610267906001600160a01b03165b6001600160a01b031690565b6001600160a01b03909116036104fb5780516001600160a01b031680151581816104f0575b506104d1575060600191825151925f5b84811061043357509082915f6102b787829a99989796610bb5565b8a51939c936102ec906001600160a01b0316916102de604051938492602084019687610b36565b03601f1981018352826105b0565b51918c5af16102f9610b59565b901561041557505f5b84811061036c5750509351600197969594506001600160a01b039350831691506103299050565b6040516001600160a01b039490941684523393911691907fe9722854338cd73cea002385d9c62274a72c2b221ec88de41046ffbcb808041190602090a4016101e3565b610377818351610a7e565b5180519091906103919061025b906001600160a01b031681565b602083015160409093015189516001600160a01b03169391803b156100a057865f89936103dc8f968e9984986040519b8c998a98899763d3eddcc560e01b8952339660048a01610ab6565b03925af1918215610410576001926103f6575b5001610302565b806104045f61040a936105b0565b806100ea565b5f6103ef565b610b2b565b80511561042457602081519101fd5b632b3f6d1160e21b5f5260045ffd5b61043e818351610a7e565b5180519091906104589061025b906001600160a01b031681565b602083015160409093015189516001600160a01b03169391803b156100a057865f89936104a38f968e9984986040519b8c998a9889976350a2c19560e11b8952339660048a01610ab6565b03925af1918215610410576001926104bd575b500161029c565b806104045f6104cb936105b0565b5f6104b6565b6377eecd4b60e01b5f526001600160a01b03166004523360245260445ffd5b90503314155f61028c565b63dc176d7560e01b5f5260045ffd5b6107d8565b6305f8ded760e21b5f5260045ffd5b50848614156101dd565b346100a0575f3660031901126100a05760206040517fd72ae0ff2e28538c161addc73b2fc22cc83fba8ca82bf43f3616477e9f307fad8152f35b346100a0575f3660031901126100a057602061009861082d565b634e487b7160e01b5f52604160045260245ffd5b606081019081106001600160401b038211176105ab57604052565b61057c565b90601f801991011681019081106001600160401b038211176105ab57604052565b604051906105e060c0836105b0565b565b35906001600160a01b03821682036100a057565b6001600160401b0381116105ab57601f01601f191660200190565b81601f820112156100a057803590610628826105f6565b9261063660405194856105b0565b828452602083830101116100a057815f926020809301838601378301015290565b9080601f830112156100a0578135916001600160401b0383116105ab578260051b6040519361068960208301866105b0565b8452602080850191830101918383116100a05760208101915b8383106106b157505050505090565b82356001600160401b0381116100a0578201906060828703601f1901126100a057604051906106df82610590565b6106eb602084016105e2565b825260408301356001600160401b0381116100a05787602061070f92860101610611565b60208301526060830135916001600160401b0383116100a05761073a88602080969581960101610611565b60408201528152019201916106a2565b91909160c0818403126100a05761075f6105d1565b92610769826105e2565b8452610777602083016105e2565b60208501526040820135604085015260608201356001600160401b0381116100a057816107a5918401610657565b60608501526080820135608085015260a08201356001600160401b0381116100a0576107d19201610611565b60a0830152565b634e487b7160e01b5f52603260045260245ffd5b919081101561050a5760051b81013590601e19813603018212156100a05701908135916001600160401b0383116100a05760200182360381136100a0579190565b604060156020825161083f84826105b0565b82815201742732bc3ab99023b0b6b2902232b632b3b0ba34b7b760591b8152206108d460016020845161087286826105b0565b828152603160f81b91019081522083517f8b73c3c69bb8fe3d512ecc4cf759cc79239f7b179b0ffacaa9a75d522b39400f60208083019182526040830195909552948101909301524660808301523060a080840191909152825260c0826105b0565b51902090565b805160208201516040830151606080850151955f9490936001600160a01b0391821693929116905b87518610156109a65760019061099e61091b888b610a7e565b51838060a01b03815116906040602082015160208151910120910151602081519101206040519160208301937f0ac12fd0d048a93db567c251b7987a4a005aa4fb208af047aa3e7ef45fbde44a85526040840152606083015260808201526080815261098860a0826105b0565b519020916102de60405193849260208401610b88565b950194610902565b8051602091820120608097880151604080517fd72ae0ff2e28538c161addc73b2fc22cc83fba8ca82bf43f3616477e9f307fad9481019485526001600160a01b03978816918101919091529590931660608601529684019290925260a083019590955260c082019490945290935090506108d48160e081016102de565b610a2b61082d565b9060405190602082019261190160f01b845260228301526042820152604281526108d46062826105b0565b906020828203126100a05781356001600160401b0381116100a057610a7b920161074a565b90565b805182101561050a5760209160051b010190565b805180835260209291819084018484015e5f828201840152601f01601f1916010190565b96939460c096999895610ae660209594610ad9849560e08d5260e08d0190610a92565b908b8203888d0152610a92565b9360408a015288840360608a0152818452848401375f838284010152601f8019910116010195608085015260018060a01b031660a084015260018060a01b0316910152565b6040513d5f823e3d90fd5b826014949392823701906bffffffffffffffffffffffff199060601b1681520190565b3d15610b83573d90610b6a826105f6565b91610b7860405193846105b0565b82523d5f602084013e565b606090565b60209291908391805192839101825e019081520190565b610a7b91610bac91610bdd565b90929192610c35565b90806014116100a057813560601c92816034116100a057601483013592603401916033190190565b8151919060418303610c0d57610c069250602082015190606060408401519301515f1a90610cb1565b9192909190565b50505f9160029190565b60041115610c2157565b634e487b7160e01b5f52602160045260245ffd5b610c3e81610c17565b80610c47575050565b610c5081610c17565b60018103610c675763f645eedf60e01b5f5260045ffd5b610c7081610c17565b60028103610c8b575063fce698f760e01b5f5260045260245ffd5b80610c97600392610c17565b14610c9f5750565b6335e2f38360e21b5f5260045260245ffd5b91907f7fffffffffffffffffffffffffffffff5d576e7357a4501ddfe92f46681b20a08411610d28579160209360809260ff5f9560405194855216868401526040830152606082015282805260015afa15610410575f516001600160a01b03811615610d1e57905f905f90565b505f906001905f90565b5050505f916003919056fea2646970667358221220baf4beb234aad1c7ae72e27f7a452ee0cdc859ea2bb3576553fa6992077b16df64736f6c634300081b0033",
        "nonce": "0x1",
        "chainId": "0x7a69"
      },
      "additionalContracts": [],
      "isFixedGasLimit": false
    },
    {
      "hash": "0xe0491126e3c88f0b4300d4e6015826e5c6dc74d628d766c75b1a60904dbc5c17",
      "transactionType": "CREATE",
      "contractName": "TurnManager",
      "contractAddress": "0x9fe46736679d2d9a65f0992f2272de9f3c7fa6e0",
      "function": null,
      "arguments": ["0xf39Fd6e51aad88F6F4ce6aB8827279cffFb92266"],
      "transaction": {
        "from": "0xf39fd6e51aad88f6f4ce6ab8827279cfffb92266",
        "to": null,
        "value": "0x0",
        "input": "0x608034608457601f610d2938819003918201601f19168301916001600160401b03831184841017608857808492602094604052833981010312608457516001600160a01b038116908190036084575f80546001600160a01b031916821781559081526002602052604090819020805460ff1916600117905551610c8c908161009d8239f35b5f80fd5b634e487b7160e01b5f52604160045260245ffdfe60806040526004361015610011575f80fd5b5f3560e01c806308148f7a146108dd5780632a09de1e1461088b5780632d1fb3891461082d5780634e0f5cc8146107d2578063592139fa1461045057806371d6ddd6146103a05780637fafd198146102c057806397e57d06146102a45780639acda3bb1461027c578063b55991c014610221578063b9181611146101e4578063bdc0b89314610156578063ddc2a25114610121578063f851a440146100fa5763fc7e286d146100be575f80fd5b346100f65760203660031901126100f6576001600160a01b036100df610a31565b165f526006602052602060405f2054604051908152f35b5f80fd5b346100f6575f3660031901126100f6575f546040516001600160a01b039091168152602090f35b346100f65760203660031901126100f6576004355f526003602052602060018060a01b0360405f205460081c16604051908152f35b346100f65760403660031901126100f657600435602435805f0b81036100f657335f52600260205260ff60405f205416156101d557815f52600360205260405f2060ff815416156101c2576101c092509081549060e81b60ff60e81b169060ff60e81b1916179055565b005b82635ef804d360e11b5f5260045260245ffd5b638744ddab60e01b5f5260045ffd5b346100f65760203660031901126100f6576001600160a01b03610205610a31565b165f526002602052602060ff60405f2054166040519015158152f35b346100f65760203660031901126100f6576004355f526003602052608060405f20546040519060018060a01b038160081c1682526001600160401b038160a81c1660208301528060e81c5f0b604083015260f01c6060820152f35b346100f6575f3660031901126100f6576001546040516001600160a01b039091168152602090f35b346100f6575f3660031901126100f65760206040516103e88152f35b346100f65760203660031901126100f6576004355f52600460205260405f2060405190816020825491828152019081925f5260205f20905f5b81811061038157505050829003601f01601f191682016001600160401b0381118382101761036d5760408181526020808352845190830181905291928392918301915f5b81811061034b575050500390f35b82516001600160a01b031684528594506020938401939092019160010161033d565b634e487b7160e01b5f52604160045260245ffd5b82546001600160a01b03168452602090930192600192830192016102f9565b346100f65760203660031901126100f657600435335f52600260205260ff60405f205416156101d557805f52600360205260405f2060ff8154161561043d5760608161040d7f60e5eb7454f554532b1c1395d15c4ccfc8a63ac174b76ad8fe87a78e8e813e4c9385610b1f565b546001600160401b036040519160018060a01b038160081c1683528060f01c602084015260a81c166040820152a2005b50635ef804d360e11b5f5260045260245ffd5b346100f65760603660031901126100f6576004356024356001600160401b0381116100f657366023820112156100f6578060040135906001600160401b0382116100f6576024810190602436918460051b0101116100f6576044356001600160401b038116908181036100f657335f52600260205260ff60405f205416156101d55783156107c357845f52600360205260ff60405f2054166107b057845f52600460205260405f208054905f815581610792575b50505f5b8481106106da5750610523906001600160401b034316610aa1565b9061052d83610a78565b60405160c08101908082106001600160401b0383111761036d5761064f61ffff8961062f6001600160401b03966001966040528686526020860190878060a01b031681526106128880604089019c169b8c81526105ea60608a01948b865260808b01975f895260a08c019e8f525f5260036020526105be60405f209b5115158c9060ff801983541691151516179055565b518a54610100600160a81b03191660a08d901b8d90039190911660081b610100600160a81b0316178a55565b51885467ffffffffffffffff60a81b1916911660a81b67ffffffffffffffff60a81b16178755565b51855460e89190911b60ff60e81b1660ff60e81b19909116178555565b5183546001600160f01b0316911660f01b6001600160f01b031916178255565b019151166001600160401b031982541617905560405192806040850160408652526060840192905f905b8082106106b057867fa4663596238e958f20b25cc69bc3648d070a6628c207d1a233185cbd3c280ef18780888860208301520390a2005b90919384359060018060a01b0382168092036100f657602081600193829352019501920190610679565b855f52600460205260405f206106f96106f4838888610a54565b610a78565b9080546801000000000000000081101561036d5761071c91600182018155610a8c565b81546001600160a01b0393841660039290921b91821b9390911b1916919091179055600181019081811161077e57600191875f52600560205260405f206107676106f4848a8a610a54565b848060a01b03165f5260205260405f205501610508565b634e487b7160e01b5f52601160045260245ffd5b5f5260205f20908101905b81811015610504575f815560010161079d565b846355dd109360e01b5f5260045260245ffd5b630ceba8cf60e01b5f5260045ffd5b346100f65760203660031901126100f6576107eb610a31565b5f546001600160a01b0316330361081e57600180546001600160a01b0319166001600160a01b0392909216919091179055005b632ca0794560e01b5f5260045ffd5b346100f65760403660031901126100f657610846610a31565b60243580151581036100f6575f546001600160a01b0316330361081e576101c09160018060a01b03165f52600260205260405f209060ff801983541691151516179055565b346100f65760403660031901126100f6576108a4610a31565b335f52600260205260ff60405f205416156101d55760018060a01b03165f52600660205260405f206108d96024358254610a47565b9055005b346100f65760203660031901126100f657600435805f52600360205260405f20805460ff8116156101c2576001600160401b038160a81c16431115610a1e5760081c6001600160a01b03165f818152600660205260409020546103e8808202908215838304909114171561077e57612710900492610959610ac1565b91846109af575b5092606092916109917fc96db3eb766a30eb42f49d3a520b579fc4f5b6e1a157c1e6dbb5d23655aed0e49587610b1f565b604080519384526001600160a01b03919091166020840152820152a2005b9390929181850394851161077e576109916060947fc96db3eb766a30eb42f49d3a520b579fc4f5b6e1a157c1e6dbb5d23655aed0e496855f52600660205260405f205560018060a01b0383165f52600660205260405f20610a11858254610a47565b9055929550509192610960565b82638bc1d3ab60e01b5f5260045260245ffd5b600435906001600160a01b03821682036100f657565b9190820180921161077e57565b9190811015610a645760051b0190565b634e487b7160e01b5f52603260045260245ffd5b356001600160a01b03811681036100f65790565b8054821015610a64575f5260205f2001905f90565b906001600160401b03809116911601906001600160401b03821161077e57565b60018060a01b03600154168033149081610af7575b50610adf573390565b60143610610af35736601319013560601c90565b3390565b905015155f610ad6565b8115610b0b570690565b634e487b7160e01b5f52601260045260245ffd5b5f9081526004602090815260408083208054600584528285208654600881901c6001600160a01b031687529452919093205490915f1982019082821161077e575f60e89190911c810b12610c2e575091610b7f610b8592610bad94610b01565b90610a8c565b90548354610100600160a81b03191660039290921b1c60081b610100600160a81b0316178255565b6001815460f01c019061ffff821161077e5780546001600160f01b031660f09290921b6001600160f01b031916919091178155610c2c90610c046001600160401b036001830154166001600160401b034316610aa1565b815467ffffffffffffffff60a81b191660a89190911b67ffffffffffffffff60a81b16179055565b565b610c3a91508290610a47565b5f1981019290831161077e57610b7f610b8592610bad94610b0156fea2646970667358221220bc87ee25cc6cc02b8582b8e1ab2cba775b484939715af7aa1a45ae5adc847f8864736f6c634300081b0033000000000000000000000000f39fd6e51aad88f6f4ce6ab8827279cfffb92266",
        "nonce": "0x2",
        "chainId": "0x7a69"
      },
      "additionalContracts": [],
      "isFixedGasLimit": false
    },
    {
      "hash": "0xb3876e67b103c6a3bdab79e420b804418c9124a989d688f6d81f46d7ada83f24",
      "transactionType": "CREATE",
      "contractName": "CounterGameSystem",
      "contractAddress": "0xcf7ed3acca5a467e9e704c703e8d87f634fb0fc9",
      "function": null,
      "arguments": ["0x9fE46736679d2D9a65F0992F2272dE9f3c7fa6e0"],
      "transaction": {
        "from": "0xf39fd6e51aad88f6f4ce6ab8827279cfffb92266",
        "to": null,
        "value": "0x0",
        "input": "0x60a034606c57601f6106ab38819003918201601f19168301916001600160401b03831184841017607057808492602094604052833981010312606c57516001600160a01b0381168103606c5760805260405161062690816100858239608051818181607b01526101270152f35b5f80fd5b634e487b7160e01b5f52604160045260245ffdfe6080806040526004361015610012575f80fd5b5f3560e01c90816355ed6e7b14610069575063924ba50614610032575f80fd5b346100655760403660031901126100655760206100536024356004356100fc565b6040516001600160a01b039091168152f35b5f80fd5b34610065575f366003190112610065577f00000000000000000000000000000000000000000000000000000000000000006001600160a01b03168152602090f35b6040810190811067ffffffffffffffff8211176100c657604052565b634e487b7160e01b5f52604160045260245ffd5b90601f8019910116810190811067ffffffffffffffff8211176100c657604052565b5f9190601436106103a95736601319013560601c5b60405163ddc2a25160e01b8152600481018390527f00000000000000000000000000000000000000000000000000000000000000006001600160a01b031693602082602481885afa918215610328575f92610365575b506001600160a01b03838116921682900361035657610186843361048b565b8181511015610347578051600181018091116103335780825283602083015260405160208101918252846040820152604081526101c46060826100da565b6101cc6103af565b6101d5886105b5565b92333b15610065575f9260209161020b60405196879563e06f874160e01b87526004870152608060248701526084860190610458565b916003198584030160448601525180918184528484015e84838284010152601f8019910116018382808584030192600319840160648701520152018183335af1801561032857610313575b5082857fd28d5bbc013bfd0b2247837323abd27c33fe4a7c8c2136b73e52d6e8a4e66c6f60208451604051908152a35110156102e9575050813b156102e55782916024839260405194859384926338eb6eeb60e11b845260048401525af180156102da579082916102c657505090565b816102d0916100da565b6102d75790565b80fd5b6040513d84823e3d90fd5b8280fd5b925092807f2908efbe7d7a75447e2621588314d1d34c2583820d66d20cfbb8272bae44cc4e91a390565b6103209197505f906100da565b5f955f610256565b6040513d5f823e3d90fd5b634e487b7160e01b5f52601160045260245ffd5b637de2757960e11b5f5260045ffd5b630131cc4b60e31b5f5260045ffd5b9091506020813d6020116103a1575b81610381602093836100da565b8101031261006557516001600160a01b038116810361006557905f610167565b3d9150610374565b33610111565b60408051613a3160f11b60208083019182525f60228401526621b7bab73a32b960c91b60308401528252916103e490826100da565b51905190602081106103f4575090565b5f199060200360031b1b1690565b81601f820112156100655780519067ffffffffffffffff82116100c65760405192610437601f8401601f1916602001856100da565b8284526020838301011161006557815f9260208093018386015e8301015290565b90602080835192838152019201905f5b8181106104755750505090565b8251845260209384019390920191600101610468565b91905f6104e39160405161049e816100aa565b828152826020820152946104b96104b36103af565b926105b5565b91604051809581948293636624edbf60e11b84526004840152604060248401526044830190610458565b03916001600160a01b03165afa908115610328575f91610554575b50805115610539576040818051810103126100655760208101516040909101516001600160a01b038116908190036100655760208401528252565b509050604051610548816100aa565b5f81525f602082015290565b90503d805f833e61056581836100da565b81019060408183031261006557805167ffffffffffffffff8111610065578261058f918301610402565b91602082015167ffffffffffffffff8111610065576105ae9201610402565b505f6104fe565b90604051916105c56040846100da565b600183526020808401903682378351156105dc5752565b634e487b7160e01b5f52603260045260245ffdfea26469706673582212204e5553e7aa6bb187a482e9d7531200218b7d796a10d51faaa9a63508ad6727bc64736f6c634300081b00330000000000000000000000009fe46736679d2d9a65f0992f2272de9f3c7fa6e0",
        "nonce": "0x3",
        "chainId": "0x7a69"
      },
      "additionalContracts": [],
      "isFixedGasLimit": false
    },
    {
      "hash": "0x1604c79cc0c65374dbde814e4f2f5a142184849315666fd0fa2e7d6828345a98",
      "transactionType": "CALL",
      "contractName": "World",
      "contractAddress": "0x5fbdb2315678afecb367f032d93f642f64180aa3",
      "function": "registerTable(bytes32,bytes32,bytes32,string[])",
      "arguments": [
        "0x74620000000000000000000000000000436f756e746572000000000000000000",
        "0x0000000000000000000000000000000000000000000000000000000000000001",
        "0x0000000000000000000000000000000000000000000000000000000000000002",
        "[value, lastMover]"
      ],
      "transaction": {
        "from": "0xf39fd6e51aad88f6f4ce6ab8827279cfffb92266",
        "to": "0x5fbdb2315678afecb367f032d93f642f64180aa3",
        "value": "0x0",
        "input": "0x34be086f74620000000000000000000000000000436f756e746572000000000000000000000000000000000000000000000000000000000000000000000000000000000100000000000000000000000000000000000000000000000000000000000000020000000000000000000000000000000000000000000000000000000000000080000000000000000000000000000000000000000000000000000000000000000200000000000000000000000000000000000000000000000000000000000000400000000000000000000000000000000000000000000000000000000000000080000000000000000000000000000000000000000000000000000000000000000576616c756500000000000000000000000000000000000000000000000000000000000000000000000000000000000000000000000000000000000000000000096c6173744d6f7665720000000000000000000000000000000000000000000000",
        "nonce": "0x4",
        "chainId": "0x7a69"
      },
      "additionalContracts": [],
      "isFixedGasLimit": false
    },
    {
      "hash": "0x623be373000ddb9cac3ba02c55e6480fa8ffa09248e8e81259c11303f82825a3",
      "transactionType": "CALL",
      "contractName": "World",
      "contractAddress": "0x5fbdb2315678afecb367f032d93f642f64180aa3",
      "function": "registerSystem(bytes32,address,bool)",
      "arguments": [
        "0x436f756e74657247616d65000000000000000000000000000000000000000000",
        "0xCf7Ed3AccA5a467e9e704C703E8D87F634fB0Fc9",
        "false"
      ],
      "transaction": {
        "from": "0xf39fd6e51aad88f6f4ce6ab8827279cfffb92266",
        "to": "0x5fbdb2315678afecb367f032d93f642f64180aa3",
        "value": "0x0",
        "input": "0x3350b6a9436f756e74657247616d65000000000000000000000000000000000000000000000000000000000000000000cf7ed3acca5a467e9e704c703e8d87f634fb0fc90000000000000000000000000000000000000000000000000000000000000000",
        "nonce": "0x5",
        "chainId": "0x7a69"
      },
      "additionalContracts": [],
      "isFixedGasLimit": false
    },
    {
      "hash": "0x4843fb3ed54dd17ac5ea68cc416f622e1e49de40dd9b9a6a7a376f6674b8c184",
      "transactionType": "CALL",
      "contractName": "World",
      "contractAddress": "0x5fbdb2315678afecb367f032d93f642f64180aa3",
      "function": "grantWriteAccess(bytes32,address)",
      "arguments": [
        "0x74620000000000000000000000000000436f756e746572000000000000000000",
        "0xCf7Ed3AccA5a467e9e704C703E8D87F634fB0Fc9"
      ],
      "transaction": {
        "from": "0xf39fd6e51aad88f6f4ce6ab8827279cfffb92266",
        "to": "0x5fbdb2315678afecb367f032d93f642f64180aa3",
        "value": "0x0",
        "input": "0xe06c193974620000000000000000000000000000436f756e746572000000000000000000000000000000000000000000cf7ed3acca5a467e9e704c703e8d87f634fb0fc9",
        "nonce": "0x6",
        "chainId": "0x7a69"
      },
      "additionalContracts": [],
      "isFixedGasLimit": false
    },
    {
      "hash": "0x7dbee35fe264565a332e07dc0c58514bfb30123bc2eb34c2c5155ddc7538ca67",
      "transactionType": "CALL",
      "contractName": "World",
      "contractAddress": "0x5fbdb2315678afecb367f032d93f642f64180aa3",
      "function": "setTrustedForwarder(address)",
      "arguments": ["0xe7f1725E7734CE288F8367e1Bb143E90bb3F0512"],
      "transaction": {
        "from": "0xf39fd6e51aad88f6f4ce6ab8827279cfffb92266",
        "to": "0x5fbdb2315678afecb367f032d93f642f64180aa3",
        "value": "0x0",
        "input": "0xda742228000000000000000000000000e7f1725e7734ce288f8367e1bb143e90bb3f0512",
        "nonce": "0x7",
        "chainId": "0x7a69"
      },
      "additionalContracts": [],
      "isFixedGasLimit": false
    },
    {
      "hash": "0xcee51cf416f2d62faba009ec3f5307eed7171b4e9f995c36a1ef53e4574f4055",
      "transactionType": "CALL",
      "contractName": "TurnManager",
      "contractAddress": "0x9fe46736679d2d9a65f0992f2272de9f3c7fa6e0",
      "function": "authorize(address,bool)",
      "arguments": ["0xCf7Ed3AccA5a467e9e704C703E8D87F634fB0Fc9", "true"],
      "transaction": {
        "from": "0xf39fd6e51aad88f6f4ce6ab8827279cfffb92266",
        "to": "0x9fe46736679d2d9a65f0992f2272de9f3c7fa6e0",
        "value": "0x0",
        "input": "0x2d1fb389000000000000000000000000cf7ed3acca5a467e9e704c703e8d87f634fb0fc90000000000000000000000000000000000000000000000000000000000000001",
        "nonce": "0x8",
        "chainId": "0x7a69"
      },
      "additionalContracts": [],
      "isFixedGasLimit": false
    },
    {
      "hash": "0x58515510ef0f53395f69bd82bdf1e759850a550e1426c8058ec8ceaabaf2e01b",
      "transactionType": "CALL",
      "contractName": "TurnManager",
      "contractAddress": "0x9fe46736679d2d9a65f0992f2272de9f3c7fa6e0",
      "function": "authorize(address,bool)",
      "arguments": ["0xf39Fd6e51aad88F6F4ce6aB8827279cffFb92266", "true"],
      "transaction": {
        "from": "0xf39fd6e51aad88f6f4ce6ab8827279cfffb92266",
        "to": "0x9fe46736679d2d9a65f0992f2272de9f3c7fa6e0",
        "value": "0x0",
        "input": "0x2d1fb389000000000000000000000000f39fd6e51aad88f6f4ce6ab8827279cfffb922660000000000000000000000000000000000000000000000000000000000000001",
        "nonce": "0x9",
        "chainId": "0x7a69"
      },
      "additionalContracts": [],
      "isFixedGasLimit": false
    },
    {
      "hash": "0x5607001641cdeb82d011a97042f44a102e22ed125e715f9f3b202ac712ab6c71",
      "transactionType": "CALL",
      "contractName": "TurnManager",
      "contractAddress": "0x9fe46736679d2d9a65f0992f2272de9f3c7fa6e0",
      "function": "setTrustedRouter(address)",
      "arguments": ["0x5FbDB2315678afecb367f032d93F642f64180aa3"],
      "transaction": {
        "from": "0xf39fd6e51aad88f6f4ce6ab8827279cfffb92266",
        "to": "0x9fe46736679d2d9a65f0992f2272de9f3c7fa6e0",
        "value": "0x0",
        "input": "0x4e0f5cc80000000000000000000000005fbdb2315678afecb367f032d93f642f64180aa3",
        "nonce": "0xa",
        "chainId": "0x7a69"
      },
      "additionalContracts": [],
      "isFixedGasLimit": false
    },
    {
      "hash": "0x8dc4d12291e15731daf5fd265c36bdb307a5d7c64f31cfc07a8631bab0b91d69",
      "transactionType": "CALL",
      "contractName": "TurnManager",
      "contractAddress": "0x9fe46736679d2d9a65f0992f2272de9f3c7fa6e0",
      "function": "startTurns(uint256,address[],uint64)",
      "arguments": [
        "1",
        "[0x70997970C51812dc3A010C7d01b50e0d17dc79C8, 0x3C44CdDdB6a900fa2b585dd299e03d12FA4293BC]",
        "5000"
      ],
      "transaction": {
        "from": "0xf39fd6e51aad88f6f4ce6ab8827279cfffb92266",
        "to": "0x9fe46736679d2d9a65f0992f2272de9f3c7fa6e0",
        "value": "0x0",
        "input": "0x592139fa000000000000000000000000000000000000000000000000000000000000000100000000000000000000000000000000000000000000000000000000000000600000000000000000000000000000000000000000000000000000000000001388000000000000000000000000000000000000000000000000000000000000000200000000000000000000000070997970c51812dc3a010c7d01b50e0d17dc79c80000000000000000000000003c44cdddb6a900fa2b585dd299e03d12fa4293bc",
        "nonce": "0xb",
        "chainId": "0x7a69"
      },
      "additionalContracts": [],
      "isFixedGasLimit": false
    },
    {
      "hash": "0x34cc917ad83fc4b91421b7ec469e2696a9cdc07c2939563da990c9d049eadcf9",
      "transactionType": "CREATE",
      "contractName": "TurnBoundEnforcer",
      "contractAddress": "0xa51c1fc2f0d1a1b8494ed1fe312d7c3a78ed91c0",
      "function": null,
      "arguments": null,
      "transaction": {
        "from": "0xf39fd6e51aad88f6f4ce6ab8827279cfffb92266",
        "to": null,
        "value": "0x0",
        "input": "0x60808060405234601557610250908161001a8239f35b5f80fdfe6080806040526004361015610012575f80fd5b5f3560e01c908163a145832a14610046575063d3eddcc514610032575f80fd5b346100425761004036610174565b005b5f80fd5b3461004257604061005636610174565b509896945050505050838092500103126100425780356001600160a01b03811691908290036100425760248460209384829463ddc2a25160e01b8452013560048301525afa91821561013b575f926100cd575b506001600160a01b039081169116036100be57005b631cc191eb60e31b5f5260045ffd5b90915060203d602011610134575b601f8101601f1916820167ffffffffffffffff8111838210176101205760209183916040528101031261004257516001600160a01b03811681036100425790826100a9565b634e487b7160e01b5f52604160045260245ffd5b503d6100db565b6040513d5f823e3d90fd5b9181601f840112156100425782359167ffffffffffffffff8311610042576020838186019501011161004257565b9060e06003198301126100425760043567ffffffffffffffff811161004257826101a091600401610146565b9290929160243567ffffffffffffffff811161004257826101c391600401610146565b92909291604435916064359067ffffffffffffffff8211610042576101ea91600401610146565b90916084359060a4356001600160a01b0381168103610042579060c4356001600160a01b0381168103610042579056fea264697066735822122016ae22fe438169d95374e332b6e1141fb0c156e3332386ff3b9daccf221668fb64736f6c634300081b0033",
        "nonce": "0xc",
        "chainId": "0x7a69"
      },
      "additionalContracts": [],
      "isFixedGasLimit": false
    },
    {
      "hash": "0x5091c7a5db2be463d58cf92cd8e7de0c34937499737254e10cd5411ac3b2215f",
      "transactionType": "CREATE",
      "contractName": "SystemAllowlistEnforcer",
      "contractAddress": "0x0dcd1bf9a1b36ce34237eeafef220932846bcd82",
      "function": null,
      "arguments": null,
      "transaction": {
        "from": "0xf39fd6e51aad88f6f4ce6ab8827279cfffb92266",
        "to": null,
        "value": "0x0",
        "input": "0x608080604052346015576102d0908161001a8239f35b5f80fdfe6080806040526004361015610012575f80fd5b5f3560e01c908163a145832a14610046575063d3eddcc514610032575f80fd5b3461004257610040366101c1565b005b5f80fd5b3461004257610054366101c1565b505050935095949391505082016040838203126100425782356001600160a01b03811693908490036100425760208101359067ffffffffffffffff8211610042570181601f820112156100425780359067ffffffffffffffff821161017f578160051b91601f19603f840116870187811067ffffffffffffffff82111761017f57604052865260208087019282010192831161004257602001905b82821061016f57505050806014116100425780603411610042576033190190833560601c0361016057602481106101605780600411610042576318a30a1f60e31b60348401356001600160e01b031916016101605760241161004257603861015992013590610267565b1561016057005b63e2b8d77d60e01b5f5260045ffd5b81358152602091820191016100ef565b634e487b7160e01b5f52604160045260245ffd5b9181601f840112156100425782359167ffffffffffffffff8311610042576020838186019501011161004257565b9060e06003198301126100425760043567ffffffffffffffff811161004257826101ed91600401610193565b9290929160243567ffffffffffffffff8111610042578261021091600401610193565b92909291604435916064359067ffffffffffffffff82116100425761023791600401610193565b90916084359060a4356001600160a01b0381168103610042579060c4356001600160a01b03811681036100425790565b905f5b8251811015610293578160208260051b850101511461028b5760010161026a565b505050600190565b5050505f9056fea2646970667358221220b4b33538e6d8340cfeaa8a16ab3525b7db3418f7d2e05a9129019fc9322a1cba64736f6c634300081b0033",
        "nonce": "0xd",
        "chainId": "0x7a69"
      },
      "additionalContracts": [],
      "isFixedGasLimit": false
    },
    {
      "hash": "0x2ea780bbee08f075155d91c270355461e7e8327e33c45f3fdc59e69d0c8867b6",
      "transactionType": "CREATE",
      "contractName": "TimestampEnforcer",
      "contractAddress": "0x9a676e781a523b5d0c0e43731313a708cb607508",
      "function": null,
      "arguments": null,
      "transaction": {
        "from": "0xf39fd6e51aad88f6f4ce6ab8827279cfffb92266",
        "to": null,
        "value": "0x0",
        "input": "0x6080806040523460155761018e908161001a8239f35b5f80fdfe60806040526004361015610011575f80fd5b5f3560e01c8063a145832a146100435763d3eddcc51461002f575f80fd5b3461003f5761003d366100b2565b005b5f80fd5b3461003f576020610053366100b2565b5050505050505050908092918101031261003f576103e8903504421161007557005b6330d3ba0760e01b5f5260045ffd5b9181601f8401121561003f5782359167ffffffffffffffff831161003f576020838186019501011161003f57565b9060e060031983011261003f5760043567ffffffffffffffff811161003f57826100de91600401610084565b9290929160243567ffffffffffffffff811161003f578261010191600401610084565b92909291604435916064359067ffffffffffffffff821161003f5761012891600401610084565b90916084359060a4356001600160a01b038116810361003f579060c4356001600160a01b038116810361003f579056fea2646970667358221220f92531161199a58699106b5da82424d1bcd08e18fab77af22667516cd4dcb40564736f6c634300081b0033",
        "nonce": "0xe",
        "chainId": "0x7a69"
      },
      "additionalContracts": [],
      "isFixedGasLimit": false
    },
    {
      "hash": "0x8f091781ac1a85747c2aa3ddf3c32f15baa36ef2e9e7392a411ac73dcc3dc1f0",
      "transactionType": "CREATE",
      "contractName": "LimitedCallsEnforcer",
      "contractAddress": "0x0b306bf915c4d645ff596e518faf3f9669b97016",
      "function": null,
      "arguments": null,
      "transaction": {
        "from": "0xf39fd6e51aad88f6f4ce6ab8827279cfffb92266",
        "to": null,
        "value": "0x0",
        "input": "0x608080604052346015576101f8908161001a8239f35b5f80fdfe60806040526004361015610011575f80fd5b5f3560e01c8063a145832a14610077578063d3eddcc5146100675763d88a792c1461003a575f80fd5b34610063576020366003190112610063576004355f525f602052602060405f2054604051908152f35b5f80fd5b34610063576100753661011c565b005b346100635760206100873661011c565b505096979593505050508480925001031261006357805f525f60205260405f205491358210156100df57600182018092116100cb575f525f60205260405f20555f80f35b634e487b7160e01b5f52601160045260245ffd5b6330def6b560e01b5f5260045ffd5b9181601f840112156100635782359167ffffffffffffffff8311610063576020838186019501011161006357565b9060e06003198301126100635760043567ffffffffffffffff81116100635782610148916004016100ee565b9290929160243567ffffffffffffffff8111610063578261016b916004016100ee565b92909291604435916064359067ffffffffffffffff821161006357610192916004016100ee565b90916084359060a4356001600160a01b0381168103610063579060c4356001600160a01b0381168103610063579056fea264697066735822122017243028d913241fa1b3d7baa45017ff6cf25ab2ce45496d8b847b1ea1f6458464736f6c634300081b0033",
        "nonce": "0xf",
        "chainId": "0x7a69"
      },
      "additionalContracts": [],
      "isFixedGasLimit": false
    },
    {
      "hash": "0x355f32d087704b95136d0c0dfe23cb9d16dec340f63b80b1c5a209d98fed273a",
      "transactionType": "CREATE",
      "contractName": "PerActionCapEnforcer",
      "contractAddress": "0x959922be3caee4b8cd9a407cc3ac1c251c2007b1",
      "function": null,
      "arguments": null,
      "transaction": {
        "from": "0xf39fd6e51aad88f6f4ce6ab8827279cfffb92266",
        "to": null,
        "value": "0x0",
        "input": "0x6080806040523460155761022d908161001a8239f35b5f80fdfe60806040526004361015610011575f80fd5b5f3560e01c8063a145832a146100435763d3eddcc51461002f575f80fd5b3461003f5761003d36610151565b005b5f80fd5b3461003f57604061005336610151565b505050949150948096935080925001031261003f5782356001600160a01b038116919082900361003f578060141161003f578060341161003f576033190190823560601c036100eb57600481106100eb578060041161003f5760348201356001600160e01b03191663a9059cbb60e01b81036100fa5750604481106100eb5760441161003f5760586020910135915b0135106100eb57005b63068562c960e11b5f5260045ffd5b6323b872dd60e01b036100eb57606481106100eb5760641161003f5760786020910135916100e2565b9181601f8401121561003f5782359167ffffffffffffffff831161003f576020838186019501011161003f57565b9060e060031983011261003f5760043567ffffffffffffffff811161003f578261017d91600401610123565b9290929160243567ffffffffffffffff811161003f57826101a091600401610123565b92909291604435916064359067ffffffffffffffff821161003f576101c791600401610123565b90916084359060a4356001600160a01b038116810361003f579060c4356001600160a01b038116810361003f579056fea26469706673582212204d8706c288e8f234adffb909dd883728f24422392a88c77dde1b6c6a5c66d36d64736f6c634300081b0033",
        "nonce": "0x10",
        "chainId": "0x7a69"
      },
      "additionalContracts": [],
      "isFixedGasLimit": false
    }
  ],
  "receipts": [
    {
      "type": "0x2",
      "status": "0x1",
      "cumulativeGasUsed": "0xf8719",
      "logs": [
        {
          "address": "0x5fbdb2315678afecb367f032d93f642f64180aa3",
          "topics": ["0x2ff4f36f7bcd5d4c260c49696c9d2b7c01d486e2d5ef32b48da03461a743dfe8"],
          "data": "0x6e657875732e776f726c642e7631000000000000000000000000000000000000",
          "blockHash": "0xec0553d4dcf05877d15ff6e0eb84c45b3ccb403af0bc4ac51ee860063d22cccd",
          "blockNumber": "0x1",
          "blockTimestamp": "0x6a2daba1",
          "transactionHash": "0x75ff7fe54621601989d9d2486b4b98b807f73e1df8952a9eeb5e7c6fe9ea64e2",
          "transactionIndex": "0x0",
          "logIndex": "0x0",
          "removed": false
        }
      ],
      "logsBloom": "0x00000000000000000000000000000000001000000000000000000000000000000000000000000000000001000000000000000000000000000000000000000000000000000000000000000000000000000000000000000000000000000000000000000040000000000000000000000008000000000000000000000000000000000000000000000000000000000000000000000000000000000000000200000000000000000000000000000000000000000000000000000000000000000000000000000040000000000000000000000000000000000000000000000000000000000000000000000000000000000000000000000000000000000000000000000000",
      "transactionHash": "0x75ff7fe54621601989d9d2486b4b98b807f73e1df8952a9eeb5e7c6fe9ea64e2",
      "transactionIndex": "0x0",
      "blockHash": "0xec0553d4dcf05877d15ff6e0eb84c45b3ccb403af0bc4ac51ee860063d22cccd",
      "blockNumber": "0x1",
      "gasUsed": "0xf8719",
      "effectiveGasPrice": "0x3b9aca01",
      "blobGasPrice": "0x1",
      "from": "0xf39fd6e51aad88f6f4ce6ab8827279cfffb92266",
      "to": null,
      "contractAddress": "0x5fbdb2315678afecb367f032d93f642f64180aa3"
    },
    {
      "type": "0x2",
      "status": "0x1",
      "cumulativeGasUsed": "0xc21db",
      "logs": [],
      "logsBloom": "0x00000000000000000000000000000000000000000000000000000000000000000000000000000000000000000000000000000000000000000000000000000000000000000000000000000000000000000000000000000000000000000000000000000000000000000000000000000000000000000000000000000000000000000000000000000000000000000000000000000000000000000000000000000000000000000000000000000000000000000000000000000000000000000000000000000000000000000000000000000000000000000000000000000000000000000000000000000000000000000000000000000000000000000000000000000000",
      "transactionHash": "0x061a239fb679ea0a418f79af237a9f32ebdf91f197c2e1e1b17c64e7d1873ca9",
      "transactionIndex": "0x0",
      "blockHash": "0x82c204a3d7c1cda776a34f2d4b3d54adeea1d5e8e401458c954cff39426d77f0",
      "blockNumber": "0x2",
      "gasUsed": "0xc21db",
      "effectiveGasPrice": "0x34a8d692",
      "blobGasPrice": "0x1",
      "from": "0xf39fd6e51aad88f6f4ce6ab8827279cfffb92266",
      "to": null,
      "contractAddress": "0xe7f1725e7734ce288f8367e1bb143e90bb3f0512"
    },
    {
      "type": "0x2",
      "status": "0x1",
      "cumulativeGasUsed": "0xc1ec5",
      "logs": [],
      "logsBloom": "0x00000000000000000000000000000000000000000000000000000000000000000000000000000000000000000000000000000000000000000000000000000000000000000000000000000000000000000000000000000000000000000000000000000000000000000000000000000000000000000000000000000000000000000000000000000000000000000000000000000000000000000000000000000000000000000000000000000000000000000000000000000000000000000000000000000000000000000000000000000000000000000000000000000000000000000000000000000000000000000000000000000000000000000000000000000000",
      "transactionHash": "0xe0491126e3c88f0b4300d4e6015826e5c6dc74d628d766c75b1a60904dbc5c17",
      "transactionIndex": "0x0",
      "blockHash": "0x5e4c339fbe4051af4f25de3a95de35f8dca4160c757a07c1916d5d3a6de76325",
      "blockNumber": "0x3",
      "gasUsed": "0xc1ec5",
      "effectiveGasPrice": "0x2e6d0e1a",
      "blobGasPrice": "0x1",
      "from": "0xf39fd6e51aad88f6f4ce6ab8827279cfffb92266",
      "to": null,
      "contractAddress": "0x9fe46736679d2d9a65f0992f2272de9f3c7fa6e0"
    },
    {
      "type": "0x2",
      "status": "0x1",
      "cumulativeGasUsed": "0x606e7",
      "logs": [],
      "logsBloom": "0x00000000000000000000000000000000000000000000000000000000000000000000000000000000000000000000000000000000000000000000000000000000000000000000000000000000000000000000000000000000000000000000000000000000000000000000000000000000000000000000000000000000000000000000000000000000000000000000000000000000000000000000000000000000000000000000000000000000000000000000000000000000000000000000000000000000000000000000000000000000000000000000000000000000000000000000000000000000000000000000000000000000000000000000000000000000",
      "transactionHash": "0xb3876e67b103c6a3bdab79e420b804418c9124a989d688f6d81f46d7ada83f24",
      "transactionIndex": "0x0",
      "blockHash": "0xfc0386196d3747d9700bfcb66a7f0ea7849f935daac877f5c10fa65f63253f2a",
      "blockNumber": "0x4",
      "gasUsed": "0x606e7",
      "effectiveGasPrice": "0x28ee17e0",
      "blobGasPrice": "0x1",
      "from": "0xf39fd6e51aad88f6f4ce6ab8827279cfffb92266",
      "to": null,
      "contractAddress": "0xcf7ed3acca5a467e9e704c703e8d87f634fb0fc9"
    },
    {
      "type": "0x2",
      "status": "0x1",
      "cumulativeGasUsed": "0x17a76",
      "logs": [
        {
          "address": "0x5fbdb2315678afecb367f032d93f642f64180aa3",
          "topics": [
            "0x27b93ae2f1d204f7d28eaeab23952d8f33aedaa7b17dfbbe85ac96286df3be15",
            "0x74620000000000000000000000000000436f756e746572000000000000000000"
          ],
          "data": "0x000000000000000000000000000000000000000000000000000000000000000100000000000000000000000000000000000000000000000000000000000000020000000000000000000000000000000000000000000000000000000000000060000000000000000000000000000000000000000000000000000000000000000200000000000000000000000000000000000000000000000000000000000000400000000000000000000000000000000000000000000000000000000000000080000000000000000000000000000000000000000000000000000000000000000576616c756500000000000000000000000000000000000000000000000000000000000000000000000000000000000000000000000000000000000000000000096c6173744d6f7665720000000000000000000000000000000000000000000000",
          "blockHash": "0x4ad0df759a60392be3f8b74f86602056e06b89110dde3b1686aca160ae484e55",
          "blockNumber": "0x5",
          "blockTimestamp": "0x6a2daba1",
          "transactionHash": "0x1604c79cc0c65374dbde814e4f2f5a142184849315666fd0fa2e7d6828345a98",
          "transactionIndex": "0x0",
          "logIndex": "0x0",
          "removed": false
        }
      ],
      "logsBloom": "0x00000000000000000000000000000000000000000000000000000000000000000000000000000000000000000004000000000000000000000000000001000000000000000000000000000000000000000000000000000000000000000000000000000040000000000000001000000000000000000000000000000000000000000000000000000000000000000000000000000000000000000000000200000000000000000000000000000000000000000000000000000000000000000000000000000040000000000000000000000000000000000000000000000000002000000000000000000000000000000000000000000000000000200000000100000000",
      "transactionHash": "0x1604c79cc0c65374dbde814e4f2f5a142184849315666fd0fa2e7d6828345a98",
      "transactionIndex": "0x0",
      "blockHash": "0x4ad0df759a60392be3f8b74f86602056e06b89110dde3b1686aca160ae484e55",
      "blockNumber": "0x5",
      "gasUsed": "0x17a76",
      "effectiveGasPrice": "0x23f2d20e",
      "blobGasPrice": "0x1",
      "from": "0xf39fd6e51aad88f6f4ce6ab8827279cfffb92266",
      "to": "0x5fbdb2315678afecb367f032d93f642f64180aa3",
      "contractAddress": null
    },
    {
      "type": "0x2",
      "status": "0x1",
      "cumulativeGasUsed": "0xc5b7",
      "logs": [
        {
          "address": "0x5fbdb2315678afecb367f032d93f642f64180aa3",
          "topics": [
            "0x7c9f81c9a3f04de893a3dcdfd6cd67d32142e525052ee9b3c16f0ba1ca23b2e8",
            "0x436f756e74657247616d65000000000000000000000000000000000000000000",
            "0x000000000000000000000000cf7ed3acca5a467e9e704c703e8d87f634fb0fc9"
          ],
          "data": "0x0000000000000000000000000000000000000000000000000000000000000000",
          "blockHash": "0x5a740abc35dbfd8a9af1d0e8d995b50ebda5d4c03e274182d0738e01a479a3df",
          "blockNumber": "0x6",
          "blockTimestamp": "0x6a2daba1",
          "transactionHash": "0x623be373000ddb9cac3ba02c55e6480fa8ffa09248e8e81259c11303f82825a3",
          "transactionIndex": "0x0",
          "logIndex": "0x0",
          "removed": false
        }
      ],
      "logsBloom": "0x00000000000000000000000000000000000000000000000000000000000000000000000000000080000000000000000000000000000000000000000000000000000000000000000000000000040000000000000000000000000000000000000000000040000000000000000001000000000000000000000000000000000000000000000000000000000000000000000000000000000000000000000200000000100000001000000000000000000000000000000000000000000000000000000000000040000000000000000000000000000000000000000000000000800000010000000000000100008000000000000000000000000000000000000000000000",
      "transactionHash": "0x623be373000ddb9cac3ba02c55e6480fa8ffa09248e8e81259c11303f82825a3",
      "transactionIndex": "0x0",
      "blockHash": "0x5a740abc35dbfd8a9af1d0e8d995b50ebda5d4c03e274182d0738e01a479a3df",
      "blockNumber": "0x6",
      "gasUsed": "0xc5b7",
      "effectiveGasPrice": "0x1f7be5ef",
      "blobGasPrice": "0x1",
      "from": "0xf39fd6e51aad88f6f4ce6ab8827279cfffb92266",
      "to": "0x5fbdb2315678afecb367f032d93f642f64180aa3",
      "contractAddress": null
    },
    {
      "type": "0x2",
      "status": "0x1",
      "cumulativeGasUsed": "0xbe98",
      "logs": [],
      "logsBloom": "0x00000000000000000000000000000000000000000000000000000000000000000000000000000000000000000000000000000000000000000000000000000000000000000000000000000000000000000000000000000000000000000000000000000000000000000000000000000000000000000000000000000000000000000000000000000000000000000000000000000000000000000000000000000000000000000000000000000000000000000000000000000000000000000000000000000000000000000000000000000000000000000000000000000000000000000000000000000000000000000000000000000000000000000000000000000000",
      "transactionHash": "0x4843fb3ed54dd17ac5ea68cc416f622e1e49de40dd9b9a6a7a376f6674b8c184",
      "transactionIndex": "0x0",
      "blockHash": "0x9836a2cd99abc013c75085247c3321dbd56026c5ada83dab2f0ee18a476a8fd1",
      "blockNumber": "0x7",
      "gasUsed": "0xbe98",
      "effectiveGasPrice": "0x1b8fcf7e",
      "blobGasPrice": "0x1",
      "from": "0xf39fd6e51aad88f6f4ce6ab8827279cfffb92266",
      "to": "0x5fbdb2315678afecb367f032d93f642f64180aa3",
      "contractAddress": null
    },
    {
      "type": "0x2",
      "status": "0x1",
      "cumulativeGasUsed": "0xb499",
      "logs": [],
      "logsBloom": "0x00000000000000000000000000000000000000000000000000000000000000000000000000000000000000000000000000000000000000000000000000000000000000000000000000000000000000000000000000000000000000000000000000000000000000000000000000000000000000000000000000000000000000000000000000000000000000000000000000000000000000000000000000000000000000000000000000000000000000000000000000000000000000000000000000000000000000000000000000000000000000000000000000000000000000000000000000000000000000000000000000000000000000000000000000000000",
      "transactionHash": "0x7dbee35fe264565a332e07dc0c58514bfb30123bc2eb34c2c5155ddc7538ca67",
      "transactionIndex": "0x0",
      "blockHash": "0x77506d01097542c92900c93bd962d6326c0c7e98db3f3ef7da89989a791a4213",
      "blockNumber": "0x8",
      "gasUsed": "0xb499",
      "effectiveGasPrice": "0x1820b3ff",
      "blobGasPrice": "0x1",
      "from": "0xf39fd6e51aad88f6f4ce6ab8827279cfffb92266",
      "to": "0x5fbdb2315678afecb367f032d93f642f64180aa3",
      "contractAddress": null
    },
    {
      "type": "0x2",
      "status": "0x1",
      "cumulativeGasUsed": "0xb485",
      "logs": [],
      "logsBloom": "0x00000000000000000000000000000000000000000000000000000000000000000000000000000000000000000000000000000000000000000000000000000000000000000000000000000000000000000000000000000000000000000000000000000000000000000000000000000000000000000000000000000000000000000000000000000000000000000000000000000000000000000000000000000000000000000000000000000000000000000000000000000000000000000000000000000000000000000000000000000000000000000000000000000000000000000000000000000000000000000000000000000000000000000000000000000000",
      "transactionHash": "0xcee51cf416f2d62faba009ec3f5307eed7171b4e9f995c36a1ef53e4574f4055",
      "transactionIndex": "0x0",
      "blockHash": "0x581737ab71158f7ad0832b310dad453977847f8b113db88a98d533937735669f",
      "blockNumber": "0x9",
      "gasUsed": "0xb485",
      "effectiveGasPrice": "0x151efeb6",
      "blobGasPrice": "0x1",
      "from": "0xf39fd6e51aad88f6f4ce6ab8827279cfffb92266",
      "to": "0x9fe46736679d2d9a65f0992f2272de9f3c7fa6e0",
      "contractAddress": null
    },
    {
      "type": "0x2",
      "status": "0x1",
      "cumulativeGasUsed": "0x66c9",
      "logs": [],
      "logsBloom": "0x00000000000000000000000000000000000000000000000000000000000000000000000000000000000000000000000000000000000000000000000000000000000000000000000000000000000000000000000000000000000000000000000000000000000000000000000000000000000000000000000000000000000000000000000000000000000000000000000000000000000000000000000000000000000000000000000000000000000000000000000000000000000000000000000000000000000000000000000000000000000000000000000000000000000000000000000000000000000000000000000000000000000000000000000000000000",
      "transactionHash": "0x58515510ef0f53395f69bd82bdf1e759850a550e1426c8058ec8ceaabaf2e01b",
      "transactionIndex": "0x0",
      "blockHash": "0x98cdc3e89e1a363579c9d54a37a51a97c620d0d00972cb31dfdcda2308616984",
      "blockNumber": "0xa",
      "gasUsed": "0x66c9",
      "effectiveGasPrice": "0x127d33f0",
      "blobGasPrice": "0x1",
      "from": "0xf39fd6e51aad88f6f4ce6ab8827279cfffb92266",
      "to": "0x9fe46736679d2d9a65f0992f2272de9f3c7fa6e0",
      "contractAddress": null
    },
    {
      "type": "0x2",
      "status": "0x1",
      "cumulativeGasUsed": "0xb3b0",
      "logs": [],
      "logsBloom": "0x00000000000000000000000000000000000000000000000000000000000000000000000000000000000000000000000000000000000000000000000000000000000000000000000000000000000000000000000000000000000000000000000000000000000000000000000000000000000000000000000000000000000000000000000000000000000000000000000000000000000000000000000000000000000000000000000000000000000000000000000000000000000000000000000000000000000000000000000000000000000000000000000000000000000000000000000000000000000000000000000000000000000000000000000000000000",
      "transactionHash": "0x5607001641cdeb82d011a97042f44a102e22ed125e715f9f3b202ac712ab6c71",
      "transactionIndex": "0x0",
      "blockHash": "0x6da62e2372ac96949c47e2bc303cb889cd13bb225d1d0bc0639ad28d2a5af9fd",
      "blockNumber": "0xb",
      "gasUsed": "0xb3b0",
      "effectiveGasPrice": "0x102e9725",
      "blobGasPrice": "0x1",
      "from": "0xf39fd6e51aad88f6f4ce6ab8827279cfffb92266",
      "to": "0x9fe46736679d2d9a65f0992f2272de9f3c7fa6e0",
      "contractAddress": null
    },
    {
      "type": "0x2",
      "status": "0x1",
      "cumulativeGasUsed": "0x2d97e",
      "logs": [
        {
          "address": "0x9fe46736679d2d9a65f0992f2272de9f3c7fa6e0",
          "topics": [
            "0xa4663596238e958f20b25cc69bc3648d070a6628c207d1a233185cbd3c280ef1",
            "0x0000000000000000000000000000000000000000000000000000000000000001"
          ],
          "data": "0x00000000000000000000000000000000000000000000000000000000000000400000000000000000000000000000000000000000000000000000000000001394000000000000000000000000000000000000000000000000000000000000000200000000000000000000000070997970c51812dc3a010c7d01b50e0d17dc79c80000000000000000000000003c44cdddb6a900fa2b585dd299e03d12fa4293bc",
          "blockHash": "0xca22437ed8b7f6e43b1f36398f957d3bc9e47a8b00b9c1438631dbec9b23dee4",
          "blockNumber": "0xc",
          "blockTimestamp": "0x6a2daba1",
          "transactionHash": "0x8dc4d12291e15731daf5fd265c36bdb307a5d7c64f31cfc07a8631bab0b91d69",
          "transactionIndex": "0x0",
          "logIndex": "0x0",
          "removed": false
        }
      ],
      "logsBloom": "0x00000000000000000000000000000000000000000000000000000000000000000000000000000000000000000000000000000000000040200000000000040000000000000004000000000000000000000000000000040000000000000000000000000000000400000000000000000000000000000000000000000000000000000000000000000000000000000000000000000000000000000000000000000000000000000000000000000000000000000000000000000000000000000000000000000000000000000000000000000000000000000000000000400000000040000000000000000000000000000000000000000000000000400000000000000000",
      "transactionHash": "0x8dc4d12291e15731daf5fd265c36bdb307a5d7c64f31cfc07a8631bab0b91d69",
      "transactionIndex": "0x0",
      "blockHash": "0xca22437ed8b7f6e43b1f36398f957d3bc9e47a8b00b9c1438631dbec9b23dee4",
      "blockNumber": "0xc",
      "gasUsed": "0x2d97e",
      "effectiveGasPrice": "0xe2a5ac8",
      "blobGasPrice": "0x1",
      "from": "0xf39fd6e51aad88f6f4ce6ab8827279cfffb92266",
      "to": "0x9fe46736679d2d9a65f0992f2272de9f3c7fa6e0",
      "contractAddress": null
    },
    {
      "type": "0x2",
      "status": "0x1",
      "cumulativeGasUsed": "0x2c3a0",
      "logs": [],
      "logsBloom": "0x00000000000000000000000000000000000000000000000000000000000000000000000000000000000000000000000000000000000000000000000000000000000000000000000000000000000000000000000000000000000000000000000000000000000000000000000000000000000000000000000000000000000000000000000000000000000000000000000000000000000000000000000000000000000000000000000000000000000000000000000000000000000000000000000000000000000000000000000000000000000000000000000000000000000000000000000000000000000000000000000000000000000000000000000000000000",
      "transactionHash": "0x34cc917ad83fc4b91421b7ec469e2696a9cdc07c2939563da990c9d049eadcf9",
      "transactionIndex": "0x0",
      "blockHash": "0x634a646eae86ed6f3e1f917a8f4d834629e09cdddbb50fd8bfdca0b83b693d85",
      "blockNumber": "0xd",
      "gasUsed": "0x2c3a0",
      "effectiveGasPrice": "0xc6ab42d",
      "blobGasPrice": "0x1",
      "from": "0xf39fd6e51aad88f6f4ce6ab8827279cfffb92266",
      "to": null,
      "contractAddress": "0xa51c1fc2f0d1a1b8494ed1fe312d7c3a78ed91c0"
    },
    {
      "type": "0x2",
      "status": "0x1",
      "cumulativeGasUsed": "0x32fa8",
      "logs": [],
      "logsBloom": "0x00000000000000000000000000000000000000000000000000000000000000000000000000000000000000000000000000000000000000000000000000000000000000000000000000000000000000000000000000000000000000000000000000000000000000000000000000000000000000000000000000000000000000000000000000000000000000000000000000000000000000000000000000000000000000000000000000000000000000000000000000000000000000000000000000000000000000000000000000000000000000000000000000000000000000000000000000000000000000000000000000000000000000000000000000000000",
      "transactionHash": "0x5091c7a5db2be463d58cf92cd8e7de0c34937499737254e10cd5411ac3b2215f",
      "transactionIndex": "0x0",
      "blockHash": "0xb7c28b9b23faf924465205b522815430bfd11dd71f026e4feff9248b6621fcdd",
      "blockNumber": "0xe",
      "gasUsed": "0x32fa8",
      "effectiveGasPrice": "0xae22a17",
      "blobGasPrice": "0x1",
      "from": "0xf39fd6e51aad88f6f4ce6ab8827279cfffb92266",
      "to": null,
      "contractAddress": "0x0dcd1bf9a1b36ce34237eeafef220932846bcd82"
    },
    {
      "type": "0x2",
      "status": "0x1",
      "cumulativeGasUsed": "0x21fbf",
      "logs": [],
      "logsBloom": "0x00000000000000000000000000000000000000000000000000000000000000000000000000000000000000000000000000000000000000000000000000000000000000000000000000000000000000000000000000000000000000000000000000000000000000000000000000000000000000000000000000000000000000000000000000000000000000000000000000000000000000000000000000000000000000000000000000000000000000000000000000000000000000000000000000000000000000000000000000000000000000000000000000000000000000000000000000000000000000000000000000000000000000000000000000000000",
      "transactionHash": "0x2ea780bbee08f075155d91c270355461e7e8327e33c45f3fdc59e69d0c8867b6",
      "transactionIndex": "0x0",
      "blockHash": "0xadebec21271b85cbf4e7b1729e5dec07d291bfc805e3c5252ab64218431841ce",
      "blockNumber": "0xf",
      "gasUsed": "0x21fbf",
      "effectiveGasPrice": "0x98abdf3",
      "blobGasPrice": "0x1",
      "from": "0xf39fd6e51aad88f6f4ce6ab8827279cfffb92266",
      "to": null,
      "contractAddress": "0x9a676e781a523b5d0c0e43731313a708cb607508"
    },
    {
      "type": "0x2",
      "status": "0x1",
      "cumulativeGasUsed": "0x27947",
      "logs": [],
      "logsBloom": "0x00000000000000000000000000000000000000000000000000000000000000000000000000000000000000000000000000000000000000000000000000000000000000000000000000000000000000000000000000000000000000000000000000000000000000000000000000000000000000000000000000000000000000000000000000000000000000000000000000000000000000000000000000000000000000000000000000000000000000000000000000000000000000000000000000000000000000000000000000000000000000000000000000000000000000000000000000000000000000000000000000000000000000000000000000000000",
      "transactionHash": "0x8f091781ac1a85747c2aa3ddf3c32f15baa36ef2e9e7392a411ac73dcc3dc1f0",
      "transactionIndex": "0x0",
      "blockHash": "0xe055ab70fc288a5f1da8c135ff04dca590040af5718a6baff9068972777c6447",
      "blockNumber": "0x10",
      "gasUsed": "0x27947",
      "effectiveGasPrice": "0x85c3b99",
      "blobGasPrice": "0x1",
      "from": "0xf39fd6e51aad88f6f4ce6ab8827279cfffb92266",
      "to": null,
      "contractAddress": "0x0b306bf915c4d645ff596e518faf3f9669b97016"
    },
    {
      "type": "0x2",
      "status": "0x1",
      "cumulativeGasUsed": "0x2a5bb",
      "logs": [],
      "logsBloom": "0x00000000000000000000000000000000000000000000000000000000000000000000000000000000000000000000000000000000000000000000000000000000000000000000000000000000000000000000000000000000000000000000000000000000000000000000000000000000000000000000000000000000000000000000000000000000000000000000000000000000000000000000000000000000000000000000000000000000000000000000000000000000000000000000000000000000000000000000000000000000000000000000000000000000000000000000000000000000000000000000000000000000000000000000000000000000",
      "transactionHash": "0x355f32d087704b95136d0c0dfe23cb9d16dec340f63b80b1c5a209d98fed273a",
      "transactionIndex": "0x0",
      "blockHash": "0xfb7040b1747e53eaa81a916e1076eae85dc40e95bea4041636be07e6ac210ce3",
      "blockNumber": "0x11",
      "gasUsed": "0x2a5bb",
      "effectiveGasPrice": "0x753985c",
      "blobGasPrice": "0x1",
      "from": "0xf39fd6e51aad88f6f4ce6ab8827279cfffb92266",
      "to": null,
      "contractAddress": "0x959922be3caee4b8cd9a407cc3ac1c251c2007b1"
    }
  ],
  "libraries": [],
  "pending": [],
  "returns": {},
  "timestamp": 1781377953486,
  "chain": 31337,
  "commit": "0874e1a"
}
