{
  "transactions": [
    {
      "hash": "0x3c6efb08433ef86d6ceb350bfa1c408613b537c31c3bc2449ba5ebefc62d0636",
      "transactionType": "CREATE",
      "contractName": "World",
      "contractAddress": "0x5fbdb2315678afecb367f032d93f642f64180aa3",
      "function": null,
      "arguments": null,
      "transaction": {
        "from": "0xf39fd6e51aad88f6f4ce6ab8827279cfffb92266",
        "to": null,
        "value": "0x0",
        "input": "0x6080806040523460de5760017f9b779b17422d0df92223018b32b4d1fa46e071723d6817e2486d003becc55f0055331560cb57600180546001600160a01b03199081169091555f805433928116831782557f2ff4f36f7bcd5d4c260c49696c9d2b7c01d486e2d5ef32b48da03461a743dfe893602093909290916001600160a01b0316907f8be0079c531659141344cd1fd0a4f28419497f9722a3daafe3b4186f6b6457e09080a36d6e657875732e776f726c642e763160901b8152a160405161126590816100e38239f35b631e4fbdf760e01b5f525f60045260245ffd5b5f80fdfe60806040526004361015610011575f80fd5b5f3560e01c806301b9b47c146101545780631a6aae401461014f57806323e8492c1461014a57806334be086f146101455780633ae7af0814610140578063505a181d1461013b57806364260f6914610136578063715018a61461013157806379ba50971461012c5780637da0a8771461012757806388eea6f1146101225780638da5cb5b1461011d5780638e50f019146101185780638f1ac17514610113578063cc49db7e1461010e578063da74222814610109578063e06c193914610104578063e06f8741146100ff578063e30c3978146100fa5763f2fde38b146100f5575f80fd5b610bd1565b610ba9565b610b28565b610a80565b6109cf565b61093a565b6108c6565b610888565b610861565b6107e4565b6107bc565b610737565b6106d4565b6106a5565b610570565b6103f0565b610298565b610236565b6101b0565b34610180575f366003190112610180576040516d6e657875732e776f726c642e763160901b8152602090f35b5f80fd5b602435906001600160a01b038216820361018057565b600435906001600160a01b038216820361018057565b34610180576040366003190112610180576004356101cc610184565b6101d4611198565b6001600160a01b0316908115610227575f81815260036020526040812080546001600160a01b031916841790557fabe1e2e80b5aa04850ff2ee6b99521af71175d49133ecbf7c9e790f6c92c980a9080a3005b6319c0958960e01b5f5260045ffd5b34610180576020366003190112610180576004355f526003602052602060018060a01b0360405f205416604051908152f35b9181601f84011215610180578235916001600160401b038311610180576020808501948460051b01011161018057565b34610180576080366003190112610180576004356024356044356064356001600160401b038111610180576102d1903690600401610268565b92906102db611198565b845f52600260205260ff60405f205416610378577f27b93ae2f1d204f7d28eaeab23952d8f33aedaa7b17dfbbe85ac96286df3be15936103739161036760405161032481610c57565b60018152856020820152866040820152885f52600260205260405f209060406002918051151560ff80198654169116178455602081015160018501550151910155565b60405194859485610cb8565b0390a2005b84631779e62d60e01b5f5260045260245ffd5b9181601f84011215610180578235916001600160401b038311610180576020838186019501011161018057565b805180835260209291819084018484015e5f828201840152601f01601f1916010190565b9060206103ed9281815201906103b8565b90565b34610180576040366003190112610180576004356024356001600160401b0381116101805761042390369060040161038b565b60027f9b779b17422d0df92223018b32b4d1fa46e071723d6817e2486d003becc55f00939293541461052e5760027f9b779b17422d0df92223018b32b4d1fa46e071723d6817e2486d003becc55f00555f828152600360205260409020546001600160a01b031691821561051c575f80848682866104c56104a26111ab565b916104b7604051938492602084019788610d57565b03601f198101835282610c77565b51925af16104d1610d7a565b9015610514576105109061050460017f9b779b17422d0df92223018b32b4d1fa46e071723d6817e2486d003becc55f0055565b604051918291826103dc565b0390f35b602081519101fd5b63c6c0143760e01b5f5260045260245ffd5b633ee5aeb560e01b5f5260045ffd5b9060406003198301126101805760043591602435906001600160401b0382116101805761056c91600401610268565b9091565b346101805761057e3661053d565b906105a261059e610597855f52600260205260405f2090565b5460ff1690565b1590565b610691576105d361059e6105976105c1865f52600860205260405f2090565b335f9081526020919091526040902090565b61067957908161066a61066061060a847f0e1f72f429eb97e64878619984a91e687ae91610348b9ff4216782cc96e49d07966111f1565b610635610630826106238a5f52600460205260405f2090565b905f5260205260405f2090565b610e06565b61064e610630826106238a5f52600560205260405f2090565b610623875f52600660205260405f2090565b805460ff19169055565b61037360405192839283610e8a565b6324a2ac1960e01b5f5260048390523360245260445ffd5b632fa7919d60e01b5f52600483905260245ffd5b34610180576020366003190112610180576004355f526002602052602060ff60405f2054166040519015158152f35b34610180575f366003190112610180576106ec611198565b600180546001600160a01b03199081169091555f80549182168155906001600160a01b03167f8be0079c531659141344cd1fd0a4f28419497f9722a3daafe3b4186f6b6457e08280a3005b34610180575f36600319011261018057600154336001600160a01b03909116036107a957600180546001600160a01b03199081169091555f805433928116831782556001600160a01b0316907f8be0079c531659141344cd1fd0a4f28419497f9722a3daafe3b4186f6b6457e09080a3005b63118cdaa760e01b5f523360045260245ffd5b34610180575f366003190112610180576007546040516001600160a01b039091168152602090f35b3461018057604036600319011261018057600435610800610184565b610808611198565b5f8281526008602090815260408083206001600160a01b03851684529091529020805460ff191690556001600160a01b0316907fb8e0d7351489acd9da4456b5acdd3672b9d3f8d48155f59b3763284be3c60f1b5f80a3005b34610180575f366003190112610180575f546040516001600160a01b039091168152602090f35b34610180576108ad6108993661053d565b9092915f52600660205260405f20926111f1565b5f52602052602060ff60405f2054166040519015158152f35b3461018057604036600319011261018057602060ff6109096004356108e9610184565b905f526008845260405f209060018060a01b03165f5260205260405f2090565b54166040519015158152f35b909161092c6103ed936040845260408401906103b8565b9160208184039101526103b8565b34610180576109483661053d565b90825f52600260205260ff60405f205416156109bc576109a06109716109ac936109a6936111f1565b845f52600460205260405f20815f5260205260405f20945f52600560205260405f20905f5260205260405f2090565b92610e9b565b91610e9b565b9061051060405192839283610915565b82632fa7919d60e01b5f5260045260245ffd5b34610180576020366003190112610180576109e861019a565b6109f0611198565b600754906001600160a01b038216610a43576001600160a01b03166001600160a01b03199190911681176007557f5c8f05824c40a2cedd1ec7245f574909327c72a46448be0e4c12bcb4f5bf42c05f80a2005b60405162461bcd60e51b8152602060048201526015602482015274199bdc9dd85c99195c88185b1c9958591e481cd95d605a1b6044820152606490fd5b3461018057604036600319011261018057600435610a9c610184565b610aa4611198565b815f52600260205260ff60405f20541615610b15575f8281526008602090815260408083206001600160a01b03851684529091529020805460ff191660011790556001600160a01b0316907f87675c9926489679e8472a7ecfddd7f514ac1c6a0134118dcab3db14f581f11a5f80a3005b50632fa7919d60e01b5f5260045260245ffd5b34610180576080366003190112610180576004356024356001600160401b03811161018057610b5b903690600401610268565b916044356001600160401b03811161018057610b7b90369060040161038b565b90606435946001600160401b03861161018057610b9f610ba796369060040161038b565b95909461107e565b005b34610180575f366003190112610180576001546040516001600160a01b039091168152602090f35b3461018057602036600319011261018057610bea61019a565b610bf2611198565b60018060a01b0316806bffffffffffffffffffffffff60a01b600154161760015560018060a01b035f54167f38d16b8cac22d99fc7c124b9cd0de2d3fa1faef420bfe791d8c362d765e227005f80a3005b634e487b7160e01b5f52604160045260245ffd5b606081019081106001600160401b03821117610c7257604052565b610c43565b90601f801991011681019081106001600160401b03821117610c7257604052565b908060209392818452848401375f828201840152601f01601f1916010190565b93919082916060860191865260208601526060604086015252608083019060808160051b85010193835f91601e1982360301905b848410610cfd575050505050505090565b90919293949596607f1982820301875287358381121561018057840190602082359201916001600160401b03811161018057803603831361018057610d486020928392600195610c98565b99019701959401929190610cec565b826014949392823701906bffffffffffffffffffffffff199060601b1681520190565b3d15610db3573d906001600160401b038211610c725760405191610da8601f8201601f191660200184610c77565b82523d5f602084013e565b606090565b90600182811c92168015610de6575b6020831014610dd257565b634e487b7160e01b5f52602260045260245ffd5b91607f1691610dc7565b818110610dfb575050565b5f8155600101610df0565b610e108154610db8565b9081610e1a575050565b81601f5f9311600114610e2c5750555b565b81835260208320610e4891601f0160051c810190600101610df0565b808252602082209081548360011b9084198560031b1c191617905555565b81835290916001600160fb1b0383116101805760209260051b809284830137010190565b9160206103ed938181520191610e66565b9060405191825f825492610eae84610db8565b8084529360018116908115610f175750600114610ed3575b50610e2a92500383610c77565b90505f9291925260205f20905f915b818310610efb575050906020610e2a928201015f610ec6565b6020919350806001915483858901015201910190918492610ee2565b905060209250610e2a94915060ff191682840152151560051b8201015f610ec6565b9190601f8111610f4857505050565b610e2a925f5260205f20906020601f840160051c83019310610f72575b601f0160051c0190610df0565b9091508190610f65565b9092916001600160401b038111610c7257610fa181610f9b8454610db8565b84610f39565b5f601f8211600114610fdf578190610fd09394955f92610fd4575b50508160011b915f199060031b1c19161790565b9055565b013590505f80610fbc565b601f19821694610ff2845f5260205f2090565b915f5b87811061102c575083600195969710611013575b505050811b019055565b01355f19600384901b60f8161c191690555f8080611009565b90926020600181928686013581550194019101610ff5565b949290936110626103ed979561107094606089526060890191610e66565b918683036020880152610c98565b926040818503910152610c98565b959294919493909360ff61109a885f52600260205260405f2090565b541615611185576110c160ff6110bb6105c18a5f52600860205260405f2090565b54161590565b61116d579183916111689361115c61114f61062361113d8a998761112a8f7f4152a3ff4b6805e40a4f8c241bcc539b19cfde7c8e2ab2c23b79b83ad875d7879f9e8f61110c916111f1565b958161112f8c8c61112a8b61062381985f52600460205260405f2090565b610f7c565b5f52600560205260405f2090565b6106238c5f52600660205260405f2090565b805460ff19166001179055565b60405196879687611044565b0390a2565b6324a2ac1960e01b5f5260048790523360245260445ffd5b86632fa7919d60e01b5f5260045260245ffd5b5f546001600160a01b031633036107a957565b60018060a01b036007541680331490816111e7575b50806111dc575b156111d85736601319013560601c90565b3390565b5060143610156111c7565b905015155f6111c0565b604051602081019290916001600160fb1b03821161018057826020916112299360051b8091873781010301601f198101835282610c77565b5190209056fea2646970667358221220e469ed61a16c7a5728e3afeaa455d37e04861020c4d01a774f16439c5a94298864736f6c634300081b0033",
        "nonce": "0x0",
        "chainId": "0x7a69"
      },
      "additionalContracts": [],
      "isFixedGasLimit": false
    },
    {
      "hash": "0xfb4686dba4e25803459d96a986ad55add51e56c1e720438902d752a727954b01",
      "transactionType": "CREATE",
      "contractName": "NexusDelegationManager",
      "contractAddress": "0xe7f1725e7734ce288f8367e1bb143e90bb3f0512",
      "function": null,
      "arguments": null,
      "transaction": {
        "from": "0xf39fd6e51aad88f6f4ce6ab8827279cfffb92266",
        "to": null,
        "value": "0x0",
        "input": "0x6080806040523460395760017f9b779b17422d0df92223018b32b4d1fa46e071723d6817e2486d003becc55f0055610f52908161003e8239f35b5f80fdfe60806040526004361015610011575f80fd5b5f3560e01c806320a99259146100845780633ab351411461007f578063c66f57751461007a578063cef6d20914610075578063e7a324dc14610070578063f698da251461006b5763f6a0d60e14610066575f80fd5b6106a5565b61068b565b610651565b610177565b61010d565b6100e4565b346100ad5760206100a56100a03661009b366100b1565b6108ab565b610a45565b604051908152f35b5f80fd5b60206003198201126100ad57600435906001600160401b0382116100ad5760e09082900360031901126100ad5760040190565b346100ad5760206100a56100fe6100a03661009b366100b1565b610bce565b5f9103126100ad57565b346100ad575f3660031901126100ad5760206040517f0ac12fd0d048a93db567c251b7987a4a005aa4fb208af047aa3e7ef45fbde44a8152f35b9181601f840112156100ad578235916001600160401b0383116100ad576020808501948460051b0101116100ad57565b346100ad5760603660031901126100ad576004356001600160401b0381116100ad576101a7903690600401610147565b906024356001600160401b0381116100ad576101c7903690600401610147565b926044356001600160401b0381116100ad576101e7903690600401610147565b92909160027f9b779b17422d0df92223018b32b4d1fa46e071723d6817e2486d003becc55f0054146106425760027f9b779b17422d0df92223018b32b4d1fa46e071723d6817e2486d003becc55f0055858114801590610638575b610629575f5b81811061027a5761027860017f9b779b17422d0df92223018b32b4d1fa46e071723d6817e2486d003becc55f0055565b005b610285818388610957565b9088831015610624578260051b850135906102af6102a4858a8a610957565b929094810190610c01565b9060408201518061061357506102c482610a45565b926102ce84610bce565b6020840180519094916102f9916102f591906001600160a01b03169060c085015191610da0565b1590565b6106045780516001600160a01b031680151581816105f9575b506105da575060a081018051156105cb57610334865f525f60205260405f2090565b54905111156105b757606090610351865f525f60205260405f2090565b61035b8154610c29565b90550194855151915f5b83811061051957506103778483610e21565b9091809a939a61050a5788516040515f94859460208301936103b79284926103a9926001600160a01b03169187610d03565b03601f198101835282610702565b51918c5af16103c4610d26565b90156104ec57505f5b8481106104375750509351600197969594506001600160a01b039350831691506103f49050565b6040516001600160a01b039490941684523393911691907fe9722854338cd73cea002385d9c62274a72c2b221ec88de41046ffbcb808041190602090a401610248565b610442818351610c4b565b5180519091906104689061045c906001600160a01b031681565b6001600160a01b031690565b602083015160409093015189516001600160a01b03169391803b156100ad57865f89936104b38f968e9984986040519b8c998a98899763d3eddcc560e01b8952339660048a01610c83565b03925af19182156104e7576001926104cd575b50016103cd565b806104db5f6104e193610702565b80610103565b5f6104c6565b610cf8565b8051156104fb57602081519101fd5b632b3f6d1160e21b5f5260045ffd5b63ce3f0ecf60e01b5f5260045ffd5b610524818951610c4b565b51805190919061053e9061045c906001600160a01b031681565b602083015160409093015188516001600160a01b03169391803b156100ad57855f889361058982968f998e9a6040519b8c998a9889976350a2c19560e11b8952339660048a01610c83565b03925af19182156104e7576001926105a3575b5001610365565b806104db5f6105b193610702565b5f61059c565b639963a38560e01b5f52600485905260245ffd5b630119741f60e71b5f5260045ffd5b6377eecd4b60e01b5f526001600160a01b03166004523360245260445ffd5b90503314155f610312565b63dc176d7560e01b5f5260045ffd5b6259164d60e21b5f5260045260245ffd5b610943565b6305f8ded760e21b5f5260045ffd5b5083861415610242565b633ee5aeb560e01b5f5260045ffd5b346100ad575f3660031901126100ad5760206040517f39441c1b080a193e9695c122526cd6d53a221f04a4a0989b105a37477b4f9d138152f35b346100ad575f3660031901126100ad5760206100a5610998565b346100ad5760203660031901126100ad576004355f525f602052602060405f2054604051908152f35b634e487b7160e01b5f52604160045260245ffd5b606081019081106001600160401b038211176106fd57604052565b6106ce565b90601f801991011681019081106001600160401b038211176106fd57604052565b6040519061073260e083610702565b565b35906001600160a01b03821682036100ad57565b6001600160401b0381116106fd5760051b60200190565b6001600160401b0381116106fd57601f01601f191660200190565b81601f820112156100ad578035906107918261075f565b9261079f6040519485610702565b828452602083830101116100ad57815f926020809301838601378301015290565b9080601f830112156100ad578135916107d883610748565b926107e66040519485610702565b80845260208085019160051b830101918383116100ad5760208101915b83831061081257505050505090565b82356001600160401b0381116100ad578201906060828703601f1901126100ad5760405190610840826106e2565b61084c60208401610734565b825260408301356001600160401b0381116100ad578760206108709286010161077a565b60208301526060830135916001600160401b0383116100ad5761089b8860208096958196010161077a565b6040820152815201920191610803565b91909160e0818403126100ad576108c0610723565b926108ca82610734565b84526108d860208301610734565b60208501526040820135604085015260608201356001600160401b0381116100ad57816109069184016107c0565b60608501526080820135608085015260a082013560a085015260c08201356001600160401b0381116100ad5761093c920161077a565b60c0830152565b634e487b7160e01b5f52603260045260245ffd5b91908110156106245760051b81013590601e19813603018212156100ad5701908135916001600160401b0383116100ad5760200182360381136100ad579190565b60406015602082516109aa8482610702565b82815201742732bc3ab99023b0b6b2902232b632b3b0ba34b7b760591b815220610a3f6001602084516109dd8682610702565b828152603160f81b91019081522083517f8b73c3c69bb8fe3d512ecc4cf759cc79239f7b179b0ffacaa9a75d522b39400f60208083019182526040830195909552948101909301524660808301523060a080840191909152825260c082610702565b51902090565b805160208201516040830151606084015180519095909390926001600160a01b03918216929116610a7585610748565b94610a836040519687610702565b808652610a92601f1991610748565b013660208701375f5b8751811015610b325780610ab16001928a610c4b565b51828060a01b03815116906040602082015160208151910120910151602081519101206040519160208301937f0ac12fd0d048a93db567c251b7987a4a005aa4fb208af047aa3e7ef45fbde44a855260408401526060830152608082015260808152610b1e60a082610702565b519020610b2b8289610c4b565b5201610a9b565b509194610a3f9396506103a99194604051610b55816103a9602082018095610d55565b5190209060a060808201519101519160405196879560208701998a9260c094919796959260e08501987f39441c1b080a193e9695c122526cd6d53a221f04a4a0989b105a37477b4f9d13865260018060a01b0316602086015260018060a01b031660408501526060840152608083015260a08201520152565b610bd6610998565b9060405190602082019261190160f01b84526022830152604282015260428152610a3f606282610702565b906020828203126100ad5781356001600160401b0381116100ad57610c2692016108ab565b90565b9060018201809211610c3757565b634e487b7160e01b5f52601160045260245ffd5b80518210156106245760209160051b010190565b805180835260209291819084018484015e5f828201840152601f01601f1916010190565b96939460c096999895610cb360209594610ca6849560e08d5260e08d0190610c5f565b908b8203888d0152610c5f565b9360408a015288840360608a0152818452848401375f838284010152601f8019910116010195608085015260018060a01b031660a084015260018060a01b0316910152565b6040513d5f823e3d90fd5b826014949392823701906bffffffffffffffffffffffff199060601b1681520190565b3d15610d50573d90610d378261075f565b91610d456040519384610702565b82523d5f602084013e565b606090565b80516020909101905f5b818110610d6c5750505090565b8251845260209384019390920191600101610d5f565b60041115610d8c57565b634e487b7160e01b5f52602160045260245ffd5b9190823b610ddb5790610db291610e60565b50610dbc81610d82565b159182610dc857505090565b6001600160a01b03918216911614919050565b916020926064835f94519060405193630b135d3f60e11b855260048501526040602485015286820190604485015e01915afa630b135d3f60e11b5f5114601f3d11161690565b9060348110610e5157806014116100ad57813560601c92816034116100ad57601483013592603401916033190190565b6304bc946d60e21b5f5260045ffd5b8151919060418303610e9057610e899250602082015190606060408401519301515f1a90610e9a565b9192909190565b50505f9160029190565b91907f7fffffffffffffffffffffffffffffff5d576e7357a4501ddfe92f46681b20a08411610f11579160209360809260ff5f9560405194855216868401526040830152606082015282805260015afa156104e7575f516001600160a01b03811615610f0757905f905f90565b505f906001905f90565b5050505f916003919056fea26469706673582212206c8d81c8a1f0f4aba96a2d0dc6d41f6a84c2967ea1c189b2976604da5a31a8eb64736f6c634300081b0033",
        "nonce": "0x1",
        "chainId": "0x7a69"
      },
      "additionalContracts": [],
      "isFixedGasLimit": false
    },
    {
      "hash": "0x951c0b9bb980aefa6b8dcade2c30698b02f543ec491c951dc4fad4f38632d3b6",
      "transactionType": "CREATE",
      "contractName": "TurnManager",
      "contractAddress": "0x9fe46736679d2d9a65f0992f2272de9f3c7fa6e0",
      "function": null,
      "arguments": [
        "0xf39Fd6e51aad88F6F4ce6aB8827279cffFb92266"
      ],
      "transaction": {
        "from": "0xf39fd6e51aad88f6f4ce6ab8827279cfffb92266",
        "to": null,
        "value": "0x0",
        "input": "0x608034608657601f610c4f38819003918201601f19168301916001600160401b03831184841017608a57808492602094604052833981010312608657516001600160a01b03811690819003608657600180546001600160a01b031916821781555f9182526002602052604091829020805460ff1916909117905551610bb0908161009f8239f35b5f80fd5b634e487b7160e01b5f52604160045260245ffdfe60806040526004361015610011575f80fd5b5f3560e01c806308148f7a146108865780632d1fb389146107ff5780634e0f5cc81461078a578063592139fa1461040857806371d6ddd6146103585780637fafd198146102785780639acda3bb14610251578063b55991c0146101f6578063b9181611146101b9578063bdc0b893146100fe578063ddc2a251146100c95763f851a4401461009d575f80fd5b346100c5575f3660031901126100c5576001546040516001600160a01b039091168152602090f35b5f80fd5b346100c55760203660031901126100c5576004355f526003602052602060018060a01b0360405f205460081c16604051908152f35b346100c55760403660031901126100c557600435602435805f0b908181036100c557335f52600260205260ff60405f205416156101aa57825f52600360205260405f209160ff835416156101975761018e6020927f8585ca6c14a7521ff67de5b6d318798eea1e29d834a7a0c90a6d9e644fc0cb48949081549060e81b60ff60e81b169060ff60e81b1916179055565b604051908152a2005b83635ef804d360e11b5f5260045260245ffd5b638744ddab60e01b5f5260045ffd5b346100c55760203660031901126100c5576001600160a01b036101da610941565b165f526002602052602060ff60405f2054166040519015158152f35b346100c55760203660031901126100c5576004355f526003602052608060405f20546040519060018060a01b038160081c1682526001600160401b038160a81c1660208301528060e81c5f0b604083015260f01c6060820152f35b346100c5575f3660031901126100c5575f546040516001600160a01b039091168152602090f35b346100c55760203660031901126100c5576004355f52600460205260405f2060405190816020825491828152019081925f5260205f20905f5b81811061033957505050829003601f01601f191682016001600160401b038111838210176103255760408181526020808352845190830181905291928392918301915f5b818110610303575050500390f35b82516001600160a01b03168452859450602093840193909201916001016102f5565b634e487b7160e01b5f52604160045260245ffd5b82546001600160a01b03168452602090930192600192830192016102b1565b346100c55760203660031901126100c557600435335f52600260205260ff60405f205416156101aa57805f52600360205260405f2060ff815416156103f5576060816103c57f60e5eb7454f554532b1c1395d15c4ccfc8a63ac174b76ad8fe87a78e8e813e4c9385610a42565b546001600160401b036040519160018060a01b038160081c1683528060f01c602084015260a81c166040820152a2005b50635ef804d360e11b5f5260045260245ffd5b346100c55760603660031901126100c5576004356024356001600160401b0381116100c557366023820112156100c5578060040135906001600160401b0382116100c5576024810190602436918460051b0101116100c5576044356001600160401b038116908181036100c557335f52600260205260ff60405f205416156101aa57831561077b57845f52600360205260ff60405f20541661076857845f52600460205260405f208054905f81558161074a575b50505f5b84811061069257506104db906001600160401b0343166109a4565b906104e58361097b565b60405160c08101908082106001600160401b038311176103255761060761ffff896105e76001600160401b03966001966040528686526020860190878060a01b031681526105ca8880604089019c169b8c81526105a260608a01948b865260808b01975f895260a08c019e8f525f52600360205261057660405f209b5115158c9060ff801983541691151516179055565b518a54610100600160a81b03191660a08d901b8d90039190911660081b610100600160a81b0316178a55565b51885467ffffffffffffffff60a81b1916911660a81b67ffffffffffffffff60a81b16178755565b51855460e89190911b60ff60e81b1660ff60e81b19909116178555565b5183546001600160f01b0316911660f01b6001600160f01b031916178255565b019151166001600160401b031982541617905560405192806040850160408652526060840192905f905b80821061066857867fa4663596238e958f20b25cc69bc3648d070a6628c207d1a233185cbd3c280ef18780888860208301520390a2005b90919384359060018060a01b0382168092036100c557602081600193829352019501920190610631565b855f52600460205260405f206106b16106ac838888610957565b61097b565b90805468010000000000000000811015610325576106d49160018201815561098f565b81546001600160a01b0393841660039290921b91821b9390911b1916919091179055600181019081811161073657600191875f52600560205260405f2061071f6106ac848a8a610957565b848060a01b03165f5260205260405f2055016104c0565b634e487b7160e01b5f52601160045260245ffd5b5f5260205f20908101905b818110156104bc575f8155600101610755565b846355dd109360e01b5f5260045260245ffd5b630ceba8cf60e01b5f5260045ffd5b346100c55760203660031901126100c5576107a3610941565b6001546001600160a01b031633036107f0575f54906001600160a01b0382166107e1576001600160a01b03166001600160a01b031991909116175f55005b63eff465d760e01b5f5260045ffd5b632ca0794560e01b5f5260045ffd5b346100c55760403660031901126100c557610818610941565b60243590811515908183036100c5576001546001600160a01b031633036107f0577ff8b32f4ee3245ed08b1112f5d0f235cd6703b644bbbc9d3d5885adabd99447bd9161018e60209260018060a01b031694855f526002845260405f209060ff801983541691151516179055565b346100c55760203660031901126100c557600435805f52600360205260405f2080549060ff82161561092e576001600160401b038260a81c1643111561091b577f51647d6db4db87608227623c4a03f901d89237aad859c019d7afdc5bacd658d9916040916108fd6108f66109c4565b9186610a42565b825160089290921c6001600160a01b039081168352166020820152a2005b82638bc1d3ab60e01b5f5260045260245ffd5b82635ef804d360e11b5f5260045260245ffd5b600435906001600160a01b03821682036100c557565b91908110156109675760051b0190565b634e487b7160e01b5f52603260045260245ffd5b356001600160a01b03811681036100c55790565b8054821015610967575f5260205f2001905f90565b906001600160401b03809116911601906001600160401b03821161073657565b5f546001600160a01b0316338114908180610a1b575b6109e45750503390565b81610a11575b5080610a06575b15610a025736601319013560601c90565b3390565b5060143610156109f1565b905015155f6109ea565b508015156109da565b8115610a2e570690565b634e487b7160e01b5f52601260045260245ffd5b5f9081526004602090815260408083208054600584528285208654600881901c6001600160a01b031687529452919093205490915f19820190828211610736575f60e89190911c810b12610b51575091610aa2610aa892610ad094610a24565b9061098f565b90548354610100600160a81b03191660039290921b1c60081b610100600160a81b0316178255565b6001815460f01c019061ffff82116107365780546001600160f01b031660f09290921b6001600160f01b031916919091178155610b4f90610b276001600160401b036001830154166001600160401b0343166109a4565b815467ffffffffffffffff60a81b191660a89190911b67ffffffffffffffff60a81b16179055565b565b9082015f190192908310610736575f19830192831161073657610aa2610aa892610ad094610a2456fea2646970667358221220a615ddb3dbac36e66e04c7f25d3a169ab9f9504d2eb35ad3a91283a9a63a69b864736f6c634300081b0033000000000000000000000000f39fd6e51aad88f6f4ce6ab8827279cfffb92266",
        "nonce": "0x2",
        "chainId": "0x7a69"
      },
      "additionalContracts": [],
      "isFixedGasLimit": false
    },
    {
      "hash": "0x02455f5ff89516b6ff888a6c207a058de8bde594bdcea07d6b75e4c324e515f7",
      "transactionType": "CREATE",
      "contractName": "CounterGameSystem",
      "contractAddress": "0xcf7ed3acca5a467e9e704c703e8d87f634fb0fc9",
      "function": null,
      "arguments": [
        "0x9fE46736679d2D9a65F0992F2272dE9f3c7fa6e0"
      ],
      "transaction": {
        "from": "0xf39fd6e51aad88f6f4ce6ab8827279cfffb92266",
        "to": null,
        "value": "0x0",
        "input": "0x60a034607f57601f61080638819003918201601f19168301916001600160401b03831184841017608357808492602094604052833981010312607f57516001600160a01b0381168103607f57608052600180546001600160a01b0319163317905560405161076e90816100988239608051818181610121015261025a0152f35b5f80fd5b634e487b7160e01b5f52604160045260245ffdfe60806040526004361015610011575f80fd5b5f3560e01c80634e0f5cc81461015057806355ed6e7b1461010c578063924ba506146100a35780639acda3bb1461007c5763f851a44014610050575f80fd5b34610078575f366003190112610078576001546040516001600160a01b039091168152602090f35b5f80fd5b34610078575f366003190112610078575f546040516001600160a01b039091168152602090f35b34610078576040366003190112610078575f546001600160a01b0316806101075750335b6001600160a01b031633036100f85760206100e6602435600435610217565b6040516001600160a01b039091168152f35b637f0cf12160e01b5f5260045ffd5b6100c7565b34610078575f366003190112610078576040517f00000000000000000000000000000000000000000000000000000000000000006001600160a01b03168152602090f35b34610078576020366003190112610078576004356001600160a01b03811690819003610078576001546001600160a01b031633036101b6575f546001600160a01b0381166101a7576001600160a01b031916175f55005b63eff465d760e01b5f5260045ffd5b63224c20bb60e01b5f5260045ffd5b6040810190811067ffffffffffffffff8211176101e157604052565b634e487b7160e01b5f52604160045260245ffd5b90601f8019910116810190811067ffffffffffffffff8211176101e157604052565b905f9160018060a01b035f541680331490816104ed575b50806104e2575b156104dc5736601319013560601c5b60405163ddc2a25160e01b8152600481018390527f00000000000000000000000000000000000000000000000000000000000000006001600160a01b031693602082602481885afa91821561045b575f92610498575b506001600160a01b038381169216829003610489576102b984336105d3565b818151101561047a578051600181018091116104665780825283602083015260405160208101918252846040820152604081526102f76060826101f5565b6102ff6104f7565b610308886106fd565b92333b15610078575f9260209161033e60405196879563e06f874160e01b875260048701526080602487015260848601906105a0565b916003198584030160448601525180918184528484015e84838284010152601f8019910116018382808584030192600319840160648701520152018183335af1801561045b57610446575b5082857fd28d5bbc013bfd0b2247837323abd27c33fe4a7c8c2136b73e52d6e8a4e66c6f60208451604051908152a351101561041c575050813b156104185782916024839260405194859384926338eb6eeb60e11b845260048401525af1801561040d579082916103f957505090565b81610403916101f5565b61040a5790565b80fd5b6040513d84823e3d90fd5b8280fd5b925092807f2908efbe7d7a75447e2621588314d1d34c2583820d66d20cfbb8272bae44cc4e91a390565b6104539197505f906101f5565b5f955f610389565b6040513d5f823e3d90fd5b634e487b7160e01b5f52601160045260245ffd5b637de2757960e11b5f5260045ffd5b630131cc4b60e31b5f5260045ffd5b9091506020813d6020116104d4575b816104b4602093836101f5565b8101031261007857516001600160a01b038116810361007857905f61029a565b3d91506104a7565b33610244565b506014361015610235565b905015155f61022e565b60408051613a3160f11b60208083019182525f60228401526621b7bab73a32b960c91b603084015282529161052c90826101f5565b519051906020811061053c575090565b5f199060200360031b1b1690565b81601f820112156100785780519067ffffffffffffffff82116101e1576040519261057f601f8401601f1916602001856101f5565b8284526020838301011161007857815f9260208093018386015e8301015290565b90602080835192838152019201905f5b8181106105bd5750505090565b82518452602093840193909201916001016105b0565b91905f61062b916040516105e6816101c5565b828152826020820152946106016105fb6104f7565b926106fd565b91604051809581948293636624edbf60e11b845260048401526040602484015260448301906105a0565b03916001600160a01b03165afa90811561045b575f9161069c575b50805115610681576040818051810103126100785760208101516040909101516001600160a01b038116908190036100785760208401528252565b509050604051610690816101c5565b5f81525f602082015290565b90503d805f833e6106ad81836101f5565b81019060408183031261007857805167ffffffffffffffff811161007857826106d791830161054a565b91602082015167ffffffffffffffff8111610078576106f6920161054a565b505f610646565b906040519161070d6040846101f5565b600183526020808401903682378351156107245752565b634e487b7160e01b5f52603260045260245ffdfea2646970667358221220c6d462a5f2776093c5b14481063f185c96f825d8e8192eb0bd9fd3f41290b8aa64736f6c634300081b00330000000000000000000000009fe46736679d2d9a65f0992f2272de9f3c7fa6e0",
        "nonce": "0x3",
        "chainId": "0x7a69"
      },
      "additionalContracts": [],
      "isFixedGasLimit": false
    },
    {
      "hash": "0xe0164cce8c6a93f1d6c04d3544fd62c2baf5db9402d53fd4aa25ace974d2ce99",
      "transactionType": "CALL",
      "contractName": "World",
      "contractAddress": "0x5fbdb2315678afecb367f032d93f642f64180aa3",
      "function": "registerTable(bytes32,bytes32,bytes32,string[])",
      "arguments": [
        "0x74620000000000000000000000000000436f756e746572000000000000000000",
        "0x0000000000000000000000000000000000000000000000000000000000000001",
        "0x0000000000000000000000000000000000000000000000000000000000000002",
        "[value, lastMover]"
      ],
      "transaction": {
        "from": "0xf39fd6e51aad88f6f4ce6ab8827279cfffb92266",
        "to": "0x5fbdb2315678afecb367f032d93f642f64180aa3",
        "value": "0x0",
        "input": "0x34be086f74620000000000000000000000000000436f756e746572000000000000000000000000000000000000000000000000000000000000000000000000000000000100000000000000000000000000000000000000000000000000000000000000020000000000000000000000000000000000000000000000000000000000000080000000000000000000000000000000000000000000000000000000000000000200000000000000000000000000000000000000000000000000000000000000400000000000000000000000000000000000000000000000000000000000000080000000000000000000000000000000000000000000000000000000000000000576616c756500000000000000000000000000000000000000000000000000000000000000000000000000000000000000000000000000000000000000000000096c6173744d6f7665720000000000000000000000000000000000000000000000",
        "nonce": "0x4",
        "chainId": "0x7a69"
      },
      "additionalContracts": [],
      "isFixedGasLimit": false
    },
    {
      "hash": "0xc9b3a31b36b78c45f15004f60c7bfbea3bfadb22cd53b469e0d17cbe6dafcee4",
      "transactionType": "CALL",
      "contractName": "World",
      "contractAddress": "0x5fbdb2315678afecb367f032d93f642f64180aa3",
      "function": "registerSystem(bytes32,address)",
      "arguments": [
        "0x436f756e74657247616d65000000000000000000000000000000000000000000",
        "0xCf7Ed3AccA5a467e9e704C703E8D87F634fB0Fc9"
      ],
      "transaction": {
        "from": "0xf39fd6e51aad88f6f4ce6ab8827279cfffb92266",
        "to": "0x5fbdb2315678afecb367f032d93f642f64180aa3",
        "value": "0x0",
        "input": "0x1a6aae40436f756e74657247616d65000000000000000000000000000000000000000000000000000000000000000000cf7ed3acca5a467e9e704c703e8d87f634fb0fc9",
        "nonce": "0x5",
        "chainId": "0x7a69"
      },
      "additionalContracts": [],
      "isFixedGasLimit": false
    },
    {
      "hash": "0xc9139ef353883a72f15b713f94fa03eedb96bd23ea3632e9548a315931827890",
      "transactionType": "CALL",
      "contractName": "World",
      "contractAddress": "0x5fbdb2315678afecb367f032d93f642f64180aa3",
      "function": "grantWriteAccess(bytes32,address)",
      "arguments": [
        "0x74620000000000000000000000000000436f756e746572000000000000000000",
        "0xCf7Ed3AccA5a467e9e704C703E8D87F634fB0Fc9"
      ],
      "transaction": {
        "from": "0xf39fd6e51aad88f6f4ce6ab8827279cfffb92266",
        "to": "0x5fbdb2315678afecb367f032d93f642f64180aa3",
        "value": "0x0",
        "input": "0xe06c193974620000000000000000000000000000436f756e746572000000000000000000000000000000000000000000cf7ed3acca5a467e9e704c703e8d87f634fb0fc9",
        "nonce": "0x6",
        "chainId": "0x7a69"
      },
      "additionalContracts": [],
      "isFixedGasLimit": false
    },
    {
      "hash": "0x5b19dfc92ecc671fda3d4104478ae49ce83b8e1eac549d6710ae9e624ab727f7",
      "transactionType": "CALL",
      "contractName": "World",
      "contractAddress": "0x5fbdb2315678afecb367f032d93f642f64180aa3",
      "function": "setTrustedForwarder(address)",
      "arguments": [
        "0xe7f1725E7734CE288F8367e1Bb143E90bb3F0512"
      ],
      "transaction": {
        "from": "0xf39fd6e51aad88f6f4ce6ab8827279cfffb92266",
        "to": "0x5fbdb2315678afecb367f032d93f642f64180aa3",
        "value": "0x0",
        "input": "0xda742228000000000000000000000000e7f1725e7734ce288f8367e1bb143e90bb3f0512",
        "nonce": "0x7",
        "chainId": "0x7a69"
      },
      "additionalContracts": [],
      "isFixedGasLimit": false
    },
    {
      "hash": "0x16efa5cc83a4f569f5a1c21d8c1fb42dd4f2096c8ab5b2c75d1374001f1ed2af",
      "transactionType": "CALL",
      "contractName": "CounterGameSystem",
      "contractAddress": "0xcf7ed3acca5a467e9e704c703e8d87f634fb0fc9",
      "function": "setTrustedRouter(address)",
      "arguments": [
        "0x5FbDB2315678afecb367f032d93F642f64180aa3"
      ],
      "transaction": {
        "from": "0xf39fd6e51aad88f6f4ce6ab8827279cfffb92266",
        "to": "0xcf7ed3acca5a467e9e704c703e8d87f634fb0fc9",
        "value": "0x0",
        "input": "0x4e0f5cc80000000000000000000000005fbdb2315678afecb367f032d93f642f64180aa3",
        "nonce": "0x8",
        "chainId": "0x7a69"
      },
      "additionalContracts": [],
      "isFixedGasLimit": false
    },
    {
      "hash": "0xa7d73fb36466311e9ec7652c084517b435e72864e17bd13e50bf27bac6e65414",
      "transactionType": "CALL",
      "contractName": "TurnManager",
      "contractAddress": "0x9fe46736679d2d9a65f0992f2272de9f3c7fa6e0",
      "function": "authorize(address,bool)",
      "arguments": [
        "0xCf7Ed3AccA5a467e9e704C703E8D87F634fB0Fc9",
        "true"
      ],
      "transaction": {
        "from": "0xf39fd6e51aad88f6f4ce6ab8827279cfffb92266",
        "to": "0x9fe46736679d2d9a65f0992f2272de9f3c7fa6e0",
        "value": "0x0",
        "input": "0x2d1fb389000000000000000000000000cf7ed3acca5a467e9e704c703e8d87f634fb0fc90000000000000000000000000000000000000000000000000000000000000001",
        "nonce": "0x9",
        "chainId": "0x7a69"
      },
      "additionalContracts": [],
      "isFixedGasLimit": false
    },
    {
      "hash": "0x7bb435d226c99aa4bf554c7b90f6f316bbc17a3a1ea74ec511488895731728e0",
      "transactionType": "CALL",
      "contractName": "TurnManager",
      "contractAddress": "0x9fe46736679d2d9a65f0992f2272de9f3c7fa6e0",
      "function": "authorize(address,bool)",
      "arguments": [
        "0xf39Fd6e51aad88F6F4ce6aB8827279cffFb92266",
        "true"
      ],
      "transaction": {
        "from": "0xf39fd6e51aad88f6f4ce6ab8827279cfffb92266",
        "to": "0x9fe46736679d2d9a65f0992f2272de9f3c7fa6e0",
        "value": "0x0",
        "input": "0x2d1fb389000000000000000000000000f39fd6e51aad88f6f4ce6ab8827279cfffb922660000000000000000000000000000000000000000000000000000000000000001",
        "nonce": "0xa",
        "chainId": "0x7a69"
      },
      "additionalContracts": [],
      "isFixedGasLimit": false
    },
    {
      "hash": "0xd88dbda0ac76067fa75c3333f63f6591396b25b0472a12bcca180d73919df0ae",
      "transactionType": "CALL",
      "contractName": "TurnManager",
      "contractAddress": "0x9fe46736679d2d9a65f0992f2272de9f3c7fa6e0",
      "function": "setTrustedRouter(address)",
      "arguments": [
        "0x5FbDB2315678afecb367f032d93F642f64180aa3"
      ],
      "transaction": {
        "from": "0xf39fd6e51aad88f6f4ce6ab8827279cfffb92266",
        "to": "0x9fe46736679d2d9a65f0992f2272de9f3c7fa6e0",
        "value": "0x0",
        "input": "0x4e0f5cc80000000000000000000000005fbdb2315678afecb367f032d93f642f64180aa3",
        "nonce": "0xb",
        "chainId": "0x7a69"
      },
      "additionalContracts": [],
      "isFixedGasLimit": false
    },
    {
      "hash": "0xd9e35040bb0d7d55c91c8a6671950f57933cb7e679d2ed3f8be2d11f9a2a8047",
      "transactionType": "CALL",
      "contractName": "TurnManager",
      "contractAddress": "0x9fe46736679d2d9a65f0992f2272de9f3c7fa6e0",
      "function": "startTurns(uint256,address[],uint64)",
      "arguments": [
        "1",
        "[0x70997970C51812dc3A010C7d01b50e0d17dc79C8, 0x3C44CdDdB6a900fa2b585dd299e03d12FA4293BC]",
        "5000"
      ],
      "transaction": {
        "from": "0xf39fd6e51aad88f6f4ce6ab8827279cfffb92266",
        "to": "0x9fe46736679d2d9a65f0992f2272de9f3c7fa6e0",
        "value": "0x0",
        "input": "0x592139fa000000000000000000000000000000000000000000000000000000000000000100000000000000000000000000000000000000000000000000000000000000600000000000000000000000000000000000000000000000000000000000001388000000000000000000000000000000000000000000000000000000000000000200000000000000000000000070997970c51812dc3a010c7d01b50e0d17dc79c80000000000000000000000003c44cdddb6a900fa2b585dd299e03d12fa4293bc",
        "nonce": "0xc",
        "chainId": "0x7a69"
      },
      "additionalContracts": [],
      "isFixedGasLimit": false
    },
    {
      "hash": "0x339d71e4b3b6761939f6af8cbc6eb52a29653f22e8e8111b81381ad521283b7a",
      "transactionType": "CREATE",
      "contractName": "TurnBoundEnforcer",
      "contractAddress": "0x0dcd1bf9a1b36ce34237eeafef220932846bcd82",
      "function": null,
      "arguments": null,
      "transaction": {
        "from": "0xf39fd6e51aad88f6f4ce6ab8827279cfffb92266",
        "to": null,
        "value": "0x0",
        "input": "0x60808060405234601557610250908161001a8239f35b5f80fdfe6080806040526004361015610012575f80fd5b5f3560e01c908163a145832a14610046575063d3eddcc514610032575f80fd5b346100425761004036610174565b005b5f80fd5b3461004257604061005636610174565b509896945050505050838092500103126100425780356001600160a01b03811691908290036100425760248460209384829463ddc2a25160e01b8452013560048301525afa91821561013b575f926100cd575b506001600160a01b039081169116036100be57005b631cc191eb60e31b5f5260045ffd5b90915060203d602011610134575b601f8101601f1916820167ffffffffffffffff8111838210176101205760209183916040528101031261004257516001600160a01b03811681036100425790826100a9565b634e487b7160e01b5f52604160045260245ffd5b503d6100db565b6040513d5f823e3d90fd5b9181601f840112156100425782359167ffffffffffffffff8311610042576020838186019501011161004257565b9060e06003198301126100425760043567ffffffffffffffff811161004257826101a091600401610146565b9290929160243567ffffffffffffffff811161004257826101c391600401610146565b92909291604435916064359067ffffffffffffffff8211610042576101ea91600401610146565b90916084359060a4356001600160a01b0381168103610042579060c4356001600160a01b0381168103610042579056fea2646970667358221220d26197cd4ff67229a97984ff482cf83b95354379a41237d494b0cd8ae04552a564736f6c634300081b0033",
        "nonce": "0xd",
        "chainId": "0x7a69"
      },
      "additionalContracts": [],
      "isFixedGasLimit": false
    },
    {
      "hash": "0x88cde8a3a3c7b874daaf1e8e7cfb3a8dda3c3c1b7c251cb40728481984279038",
      "transactionType": "CREATE",
      "contractName": "SystemAllowlistEnforcer",
      "contractAddress": "0x9a676e781a523b5d0c0e43731313a708cb607508",
      "function": null,
      "arguments": null,
      "transaction": {
        "from": "0xf39fd6e51aad88f6f4ce6ab8827279cfffb92266",
        "to": null,
        "value": "0x0",
        "input": "0x608080604052346015576102e7908161001a8239f35b5f80fdfe6080806040526004361015610012575f80fd5b5f3560e01c908163a145832a14610046575063d3eddcc514610032575f80fd5b3461004257610040366101d8565b005b5f80fd5b3461004257610054366101d8565b505050935095949391505082016040838203126100425782356001600160a01b03811693908490036100425760208101359067ffffffffffffffff8211610042570181601f820112156100425780359067ffffffffffffffff8211610196578160051b91601f19603f840116870187811067ffffffffffffffff82111761019657604052865260208087019282010192831161004257602001905b828210610186575050506034811061017757806014116100425780603411610042576033190190833560601c0361016857602481106101685780600411610042576318a30a1f60e31b60348401356001600160e01b03191601610168576024116100425760386101619201359061027e565b1561016857005b63e2b8d77d60e01b5f5260045ffd5b6304bc946d60e21b5f5260045ffd5b81358152602091820191016100ef565b634e487b7160e01b5f52604160045260245ffd5b9181601f840112156100425782359167ffffffffffffffff8311610042576020838186019501011161004257565b9060e06003198301126100425760043567ffffffffffffffff81116100425782610204916004016101aa565b9290929160243567ffffffffffffffff81116100425782610227916004016101aa565b92909291604435916064359067ffffffffffffffff82116100425761024e916004016101aa565b90916084359060a4356001600160a01b0381168103610042579060c4356001600160a01b03811681036100425790565b905f5b82518110156102aa578160208260051b85010151146102a257600101610281565b505050600190565b5050505f9056fea2646970667358221220554b1fa4d3141dc67806c711f853ce76ec86da842037c77615b277ad6ca2d56364736f6c634300081b0033",
        "nonce": "0xe",
        "chainId": "0x7a69"
      },
      "additionalContracts": [],
      "isFixedGasLimit": false
    },
    {
      "hash": "0x0308269d299ba080d7790e5f7e7b0281e37efedb2a33c2bcb7caaf1bf19c0a09",
      "transactionType": "CREATE",
      "contractName": "TimestampEnforcer",
      "contractAddress": "0x0b306bf915c4d645ff596e518faf3f9669b97016",
      "function": null,
      "arguments": null,
      "transaction": {
        "from": "0xf39fd6e51aad88f6f4ce6ab8827279cfffb92266",
        "to": null,
        "value": "0x0",
        "input": "0x6080806040523460155761018e908161001a8239f35b5f80fdfe60806040526004361015610011575f80fd5b5f3560e01c8063a145832a146100435763d3eddcc51461002f575f80fd5b3461003f5761003d366100b2565b005b5f80fd5b3461003f576020610053366100b2565b5050505050505050908092918101031261003f576103e8903504421161007557005b6330d3ba0760e01b5f5260045ffd5b9181601f8401121561003f5782359167ffffffffffffffff831161003f576020838186019501011161003f57565b9060e060031983011261003f5760043567ffffffffffffffff811161003f57826100de91600401610084565b9290929160243567ffffffffffffffff811161003f578261010191600401610084565b92909291604435916064359067ffffffffffffffff821161003f5761012891600401610084565b90916084359060a4356001600160a01b038116810361003f579060c4356001600160a01b038116810361003f579056fea2646970667358221220a723ac204eb7709181bb7c73eafd147eaa0d644b1bd0c49eac0b3490053963cd64736f6c634300081b0033",
        "nonce": "0xf",
        "chainId": "0x7a69"
      },
      "additionalContracts": [],
      "isFixedGasLimit": false
    },
    {
      "hash": "0x14ab6d465d098adc83c31501818ebb6f469dfa8645bf81da7e50a4abb63003ea",
      "transactionType": "CREATE",
      "contractName": "LimitedCallsEnforcer",
      "contractAddress": "0x959922be3caee4b8cd9a407cc3ac1c251c2007b1",
      "function": null,
      "arguments": null,
      "transaction": {
        "from": "0xf39fd6e51aad88f6f4ce6ab8827279cfffb92266",
        "to": null,
        "value": "0x0",
        "input": "0x608080604052346015576101f8908161001a8239f35b5f80fdfe60806040526004361015610011575f80fd5b5f3560e01c8063a145832a14610077578063d3eddcc5146100675763d88a792c1461003a575f80fd5b34610063576020366003190112610063576004355f525f602052602060405f2054604051908152f35b5f80fd5b34610063576100753661011c565b005b346100635760206100873661011c565b505096979593505050508480925001031261006357805f525f60205260405f205491358210156100df57600182018092116100cb575f525f60205260405f20555f80f35b634e487b7160e01b5f52601160045260245ffd5b6330def6b560e01b5f5260045ffd5b9181601f840112156100635782359167ffffffffffffffff8311610063576020838186019501011161006357565b9060e06003198301126100635760043567ffffffffffffffff81116100635782610148916004016100ee565b9290929160243567ffffffffffffffff8111610063578261016b916004016100ee565b92909291604435916064359067ffffffffffffffff821161006357610192916004016100ee565b90916084359060a4356001600160a01b0381168103610063579060c4356001600160a01b0381168103610063579056fea2646970667358221220ba7f8dd7ee5aa195b84f583441f5ad7b105e11d4c8693d8102721d1a119c185a64736f6c634300081b0033",
        "nonce": "0x10",
        "chainId": "0x7a69"
      },
      "additionalContracts": [],
      "isFixedGasLimit": false
    },
    {
      "hash": "0x45fdc6a30b0e2e2b4bd0d8a4699b3557df0035128b6da76d56431e56748c094c",
      "transactionType": "CREATE",
      "contractName": "PerActionCapEnforcer",
      "contractAddress": "0x9a9f2ccfde556a7e9ff0848998aa4a0cfd8863ae",
      "function": null,
      "arguments": null,
      "transaction": {
        "from": "0xf39fd6e51aad88f6f4ce6ab8827279cfffb92266",
        "to": null,
        "value": "0x0",
        "input": "0x6080806040523460155761025c908161001a8239f35b5f80fdfe60806040526004361015610011575f80fd5b5f3560e01c8063a145832a146100435763d3eddcc51461002f575f80fd5b3461003f5761003d36610180565b005b5f80fd5b3461003f57604061005336610180565b505050949150948096935080925001031261003f5782356001600160a01b0381169081900361003f5760348210610143578160141161003f578160341161003f57601483013591603319019161013457823560601c036100fc57600481106100fc578060041161003f5760348201356001600160e01b03191663a9059cbb60e01b810361010b5750604481106100fc5760441161003f5760586020910135915b0135106100fc57005b63068562c960e11b5f5260045ffd5b6323b872dd60e01b036100fc57606481106100fc5760641161003f5760786020910135916100f3565b63ce3f0ecf60e01b5f5260045ffd5b6304bc946d60e21b5f5260045ffd5b9181601f8401121561003f5782359167ffffffffffffffff831161003f576020838186019501011161003f57565b9060e060031983011261003f5760043567ffffffffffffffff811161003f57826101ac91600401610152565b9290929160243567ffffffffffffffff811161003f57826101cf91600401610152565b92909291604435916064359067ffffffffffffffff821161003f576101f691600401610152565b90916084359060a4356001600160a01b038116810361003f579060c4356001600160a01b038116810361003f579056fea2646970667358221220449c3b8aefc5eb86f130519fd58f68d8e43f7c1efc41185d7f2b006190f0c44f64736f6c634300081b0033",
        "nonce": "0x11",
        "chainId": "0x7a69"
      },
      "additionalContracts": [],
      "isFixedGasLimit": false
    },
    {
      "hash": "0xe2bdca0157a17a061d91020137058403163c1c123a7039906f7df4c13d1c91d6",
      "transactionType": "CREATE",
      "contractName": "ERC20TransferAmountEnforcer",
      "contractAddress": "0x68b1d87f95878fe05b998f19b66f4baba5de1aed",
      "function": null,
      "arguments": null,
      "transaction": {
        "from": "0xf39fd6e51aad88f6f4ce6ab8827279cfffb92266",
        "to": null,
        "value": "0x0",
        "input": "0x608080604052346015576102c3908161001a8239f35b5f80fdfe60806040526004361015610011575f80fd5b5f3560e01c8063a145832a14610077578063d3eddcc5146100675763d8acc5481461003a575f80fd5b34610063576020366003190112610063576004355f525f602052602060405f2054604051908152f35b5f80fd5b3461006357610075366101e7565b005b34610063576040610087366101e7565b505096979350935093868092500103126100635783356001600160a01b0381169081900361006357603482106101aa5781601411610063578160341161006357601483013591603319019161019b57823560601c03610152576004811061015257806004116100635760348201356001600160e01b03191663a9059cbb60e01b8103610175575060448110610152576044116100635760580135915b815f525f60205260405f205492830180931161016157602001358211610152575f525f60205260405f20555f80f35b6376e0dfc160e11b5f5260045ffd5b634e487b7160e01b5f52601160045260245ffd5b6323b872dd60e01b03610152576064811061015257606411610063576078013591610123565b63ce3f0ecf60e01b5f5260045ffd5b6304bc946d60e21b5f5260045ffd5b9181601f840112156100635782359167ffffffffffffffff8311610063576020838186019501011161006357565b9060e06003198301126100635760043567ffffffffffffffff81116100635782610213916004016101b9565b9290929160243567ffffffffffffffff81116100635782610236916004016101b9565b92909291604435916064359067ffffffffffffffff82116100635761025d916004016101b9565b90916084359060a4356001600160a01b0381168103610063579060c4356001600160a01b0381168103610063579056fea26469706673582212203776da8f425609a7b1d23b9ddbb77cba5a980de72eff92aa023f356a93ba1d6164736f6c634300081b0033",
        "nonce": "0x12",
        "chainId": "0x7a69"
      },
      "additionalContracts": [],
      "isFixedGasLimit": false
    },
    {
      "hash": "0x4bf9aa359283bf4bed9c70f717fdfe625988e8cc65062fa324d48385adb6e656",
      "transactionType": "CREATE",
      "contractName": "AllowedRecipientsEnforcer",
      "contractAddress": "0x3aa5ebb10dc797cac828524e59a333d0a371443c",
      "function": null,
      "arguments": null,
      "transaction": {
        "from": "0xf39fd6e51aad88f6f4ce6ab8827279cfffb92266",
        "to": null,
        "value": "0x0",
        "input": "0x60808060405234601557610351908161001a8239f35b5f80fdfe60806040526004361015610011575f80fd5b5f3560e01c8063a145832a146100435763d3eddcc51461002f575f80fd5b3461003f5761003d36610091565b005b5f80fd5b3461003f5761003d61005436610091565b50505095925093925050610137565b9181601f8401121561003f5782359167ffffffffffffffff831161003f576020838186019501011161003f57565b9060e060031983011261003f5760043567ffffffffffffffff811161003f57826100bd91600401610063565b9290929160243567ffffffffffffffff811161003f57826100e091600401610063565b92909291604435916064359067ffffffffffffffff821161003f5761010791600401610063565b90916084359060a4356001600160a01b038116810361003f579060c4356001600160a01b038116810361003f5790565b929083019260408185031261003f5780356001600160a01b038116919082900361003f5760208101359067ffffffffffffffff821161003f570184601f8201121561003f5780359467ffffffffffffffff8611610307578560051b9160405196601f19603f850116880188811067ffffffffffffffff82111761030757604052875260208088019382010191821161003f57602001915b8183106102e757505050603482106102d8578160141161003f578160341161003f5760148301359160331901916102c957823560601c0361028c576004811061028c578060041161003f5760348201356001600160e01b03191663a9059cbb60e01b810361029b57506044811061028c5760241161003f57603801356001600160a01b03165b8151915f5b8381101561028c57600581901b8201602001516001600160a01b0384811691161461028657600101610259565b50505050565b63133307bb60e21b5f5260045ffd5b6323b872dd60e01b0361028c576064811061028c5760441161003f57605801356001600160a01b0316610254565b63ce3f0ecf60e01b5f5260045ffd5b6304bc946d60e21b5f5260045ffd5b82356001600160a01b038116810361003f578152602092830192016101ce565b634e487b7160e01b5f52604160045260245ffdfea26469706673582212207d53eb58eadb384fa17fadfe09bea4fee3df78cb04f71ea51dd0fa82378038e064736f6c634300081b0033",
        "nonce": "0x13",
        "chainId": "0x7a69"
      },
      "additionalContracts": [],
      "isFixedGasLimit": false
    },
    {
      "hash": "0x46e82f963edb711eeb6a7f6c64eef44838733c464bb7750ce1c1bde2bce65cfe",
      "transactionType": "CREATE",
      "contractName": "TestUSDC",
      "contractAddress": "0xc6e7df5e7b4f2a278906862b61205850344d4e7d",
      "function": null,
      "arguments": null,
      "transaction": {
        "from": "0xf39fd6e51aad88f6f4ce6ab8827279cfffb92266",
        "to": null,
        "value": "0x0",
        "input": "0x60806040523461031357604080519081016001600160401b03811182821017610226576040908152600982526854657374205553444360b81b602083015280519081016001600160401b038111828210176102265760405260048152635553444360e01b602082015281516001600160401b03811161022657600354600181811c91168015610309575b602082101461020857601f81116102a6575b50602092601f821160011461024557928192935f9261023a575b50508160011b915f199060031b1c1916176003555b80516001600160401b03811161022657600454600181811c9116801561021c575b602082101461020857601f81116101a5575b50602091601f8211600114610145579181925f9261013a575b50508160011b915f199060031b1c1916176004555b6040516106a190816103188239f35b015190505f80610116565b601f1982169260045f52805f20915f5b85811061018d57508360019510610175575b505050811b0160045561012b565b01515f1960f88460031b161c191690555f8080610167565b91926020600181928685015181550194019201610155565b60045f527f8a35acfbc15ff81a39ae7d344fd709f28e8600b4aa8c65c6b64bfe7fe36bd19b601f830160051c810191602084106101fe575b601f0160051c01905b8181106101f357506100fd565b5f81556001016101e6565b90915081906101dd565b634e487b7160e01b5f52602260045260245ffd5b90607f16906100eb565b634e487b7160e01b5f52604160045260245ffd5b015190505f806100b5565b601f1982169360035f52805f20915f5b86811061028e5750836001959610610276575b505050811b016003556100ca565b01515f1960f88460031b161c191690555f8080610268565b91926020600181928685015181550194019201610255565b60035f527fc2575a0e9e593c00f959f8c92f12db2869c3395a3b0502d05e2516446f71f85b601f830160051c810191602084106102ff575b601f0160051c01905b8181106102f4575061009b565b5f81556001016102e7565b90915081906102de565b90607f1690610089565b5f80fdfe6080806040526004361015610012575f80fd5b5f3560e01c90816306fdde031461049c57508063095ea7b31461041a57806318160ddd146103fd57806323b872dd1461031e578063313ce5671461030357806340c10f191461026157806370a082311461022a57806395d89b411461010f578063a9059cbb146100de5763dd62ed3e1461008a575f80fd5b346100da5760403660031901126100da576100a3610595565b6100ab6105ab565b6001600160a01b039182165f908152600160209081526040808320949093168252928352819020549051908152f35b5f80fd5b346100da5760403660031901126100da576101046100fa610595565b60243590336105c1565b602060405160018152f35b346100da575f3660031901126100da576040515f6004548060011c90600181168015610220575b60208310811461020c578285529081156101f0575060011461019b575b50819003601f01601f191681019067ffffffffffffffff821181831017610187576101838291826040528261056b565b0390f35b634e487b7160e01b5f52604160045260245ffd5b905060045f527f8a35acfbc15ff81a39ae7d344fd709f28e8600b4aa8c65c6b64bfe7fe36bd19b5f905b8282106101da57506020915082010182610153565b60018160209254838588010152019101906101c5565b90506020925060ff191682840152151560051b82010182610153565b634e487b7160e01b5f52602260045260245ffd5b91607f1691610136565b346100da5760203660031901126100da576001600160a01b0361024b610595565b165f525f602052602060405f2054604051908152f35b346100da5760403660031901126100da5761027a610595565b6001600160a01b031660243581156102f057600254908082018092116102dc5760207fddf252ad1be2c89b69c2b068fc378daa952ba7f163c4a11628f55a4df523b3ef915f9360025584845283825260408420818154019055604051908152a3005b634e487b7160e01b5f52601160045260245ffd5b63ec442f0560e01b5f525f60045260245ffd5b346100da575f3660031901126100da57602060405160068152f35b346100da5760603660031901126100da57610337610595565b61033f6105ab565b6001600160a01b0382165f818152600160209081526040808320338452909152902054909260443592915f19811061037d575b5061010493506105c1565b8381106103e25784156103cf5733156103bc57610104945f52600160205260405f2060018060a01b0333165f526020528360405f209103905584610372565b634a1406b160e11b5f525f60045260245ffd5b63e602df0560e01b5f525f60045260245ffd5b8390637dc7a0d960e11b5f523360045260245260445260645ffd5b346100da575f3660031901126100da576020600254604051908152f35b346100da5760403660031901126100da57610433610595565b6024359033156103cf576001600160a01b03169081156103bc57335f52600160205260405f20825f526020528060405f20556040519081527f8c5be1e5ebec7d5bd14f71427d1e84f3dd0314c0f7b2291e5b200ac8c7c3b92560203392a3602060405160018152f35b346100da575f3660031901126100da575f6003548060011c90600181168015610561575b60208310811461020c578285529081156101f0575060011461050c5750819003601f01601f191681019067ffffffffffffffff821181831017610187576101838291826040528261056b565b905060035f527fc2575a0e9e593c00f959f8c92f12db2869c3395a3b0502d05e2516446f71f85b5f905b82821061054b57506020915082010182610153565b6001816020925483858801015201910190610536565b91607f16916104c0565b602060409281835280519182918282860152018484015e5f828201840152601f01601f1916010190565b600435906001600160a01b03821682036100da57565b602435906001600160a01b03821682036100da57565b6001600160a01b0316908115610658576001600160a01b03169182156102f057815f525f60205260405f205481811061063f57817fddf252ad1be2c89b69c2b068fc378daa952ba7f163c4a11628f55a4df523b3ef92602092855f525f84520360405f2055845f525f825260405f20818154019055604051908152a3565b8263391434e360e21b5f5260045260245260445260645ffd5b634b637e8f60e11b5f525f60045260245ffdfea2646970667358221220d6e47cc6b43f6f2ed943249737d308196c020ccf759f38a5003a5561e7f6831c64736f6c634300081b0033",
        "nonce": "0x14",
        "chainId": "0x7a69"
      },
      "additionalContracts": [],
      "isFixedGasLimit": false
    },
    {
      "hash": "0x5af4ffbbf83638c479ce72cf698704af058581a22c46afca273fc0f6e3233be2",
      "transactionType": "CREATE",
      "contractName": "Pot",
      "contractAddress": "0x59b670e9fa9d0a427751af201d676719a970857b",
      "function": null,
      "arguments": [
        "0xc6e7DF5E7b4f2A278906862b61205850344D4e7d",
        "0xf39Fd6e51aad88F6F4ce6aB8827279cffFb92266",
        "0xf39Fd6e51aad88F6F4ce6aB8827279cffFb92266",
        "0"
      ],
      "transaction": {
        "from": "0xf39fd6e51aad88f6f4ce6ab8827279cfffb92266",
        "to": null,
        "value": "0x0",
        "input": "0x6101003461012757601f6108cf38819003918201601f19168301916001600160401b0383118484101761012b57808492608094604052833981010312610127578051906001600160a01b03821682036101275761005e6020820161013f565b606061006c6040840161013f565b9201519261ffff8416808503610127576127109060017f9b779b17422d0df92223018b32b4d1fa46e071723d6817e2486d003becc55f0055116101185760805260a05260c05260e05260405161077b908161015482396080518181816091015281816101050152818161044f015261049f015260a05181818161031d0152818161053101526105b4015260c051818181610258015261047e015260e05181818161039f015261057a0152f35b63442ed3b160e01b5f5260045ffd5b5f80fd5b634e487b7160e01b5f52604160045260245ffd5b51906001600160a01b03821682036101275756fe60806040526004361015610011575f80fd5b5f3560e01c806301958e161461059e57806321c9c44a1461056057806389c1521e1461051c578063962d193814610304578063a2383106146102cd578063c3c3df4f14610287578063d13ac21c14610243578063e2bbb158146100c45763fc0c546a1461007c575f80fd5b346100c0575f3660031901126100c0576040517f00000000000000000000000000000000000000000000000000000000000000006001600160a01b03168152602090f35b5f80fd5b346100c05760403660031901126100c0576024356004356100e3610695565b805f525f60205260405f20805460ff8116156102305760081c60ff1661021d577f00000000000000000000000000000000000000000000000000000000000000006040516323b872dd60e01b5f5233600452306024528460445260205f60648180865af19060015f51148216156101fc575b6040525f606052156101dc5750600101610170838254610688565b9055805f52600160205260405f2060018060a01b0333165f5260205260405f2061019b838254610688565b90556040519182527f84d9a926797cdc1036fb9ffa7983de7d739fdf7cb5c5e5c6ca38d67b30ef791160203393a360015f5160206107265f395f51905f5255005b635274afe760e01b5f9081526001600160a01b0391909116600452602490fd5b90600181151661021457823b15153d15161690610155565b503d5f823e3d90fd5b506369755d2d60e01b5f5260045260245ffd5b82636a1d9c2360e01b5f5260045260245ffd5b346100c0575f3660031901126100c0576040517f00000000000000000000000000000000000000000000000000000000000000006001600160a01b03168152602090f35b346100c05760203660031901126100c0576004355f525f602052606060405f206001815491015460ff604051928181161515845260081c16151560208301526040820152f35b346100c0576102db36610662565b905f52600160205260405f209060018060a01b03165f52602052602060405f2054604051908152f35b346100c05761031236610662565b9061031b610695565b7f00000000000000000000000000000000000000000000000000000000000000006001600160a01b0316330361050d57805f525f60205260405f209182549060ff8216156102305760ff8260081c166104fa57825f52600160205260405f2060018060a01b0382165f5260205260405f2054156104dc57600184019081549461ffff7f0000000000000000000000000000000000000000000000000000000000000000168087029087820414871517156104c857612710900490818703968088116104c8575f60409584936101007ffc48e6813640737c52c5002f74e1449348d3b8bb4789b85dedcf8298328f83299961ffff19161790555581610478575b03610448575b825195865260208601526001600160a01b031693a360015f5160206107265f395f51905f5255005b61047386837f00000000000000000000000000000000000000000000000000000000000000006106cd565b610420565b6104c3827f00000000000000000000000000000000000000000000000000000000000000007f00000000000000000000000000000000000000000000000000000000000000006106cd565b61041a565b634e487b7160e01b5f52601160045260245ffd5b8263a6465ad960e01b5f5260045260018060a01b031660245260445ffd5b826369755d2d60e01b5f5260045260245ffd5b63869a1abb60e01b5f5260045ffd5b346100c0575f3660031901126100c0576040517f00000000000000000000000000000000000000000000000000000000000000006001600160a01b03168152602090f35b346100c0575f3660031901126100c057602060405161ffff7f0000000000000000000000000000000000000000000000000000000000000000168152f35b346100c05760203660031901126100c0576004357f00000000000000000000000000000000000000000000000000000000000000006001600160a01b0316330361050d57805f525f60205260ff60405f205416801561064a575b61063857805f525f60205260405f20600160ff198254161790557f5228a6eed1a56d039ff842870c6ab181a6da4225004b1cbdfd326dd7294cacfe5f80a2005b630a67919160e11b5f5260045260245ffd5b50805f525f60205260ff60405f205460081c166105f8565b60409060031901126100c057600435906024356001600160a01b03811681036100c05790565b919082018092116104c857565b60025f5160206107265f395f51905f5254146106be5760025f5160206107265f395f51905f5255565b633ee5aeb560e01b5f5260045ffd5b916040519163a9059cbb60e01b5f5260018060a01b031660045260245260205f60448180865af19060015f511482161561070d575b604052156101dc5750565b90600181151661021457823b15153d1516169061070256fe9b779b17422d0df92223018b32b4d1fa46e071723d6817e2486d003becc55f00a264697066735822122086ff83e348dfbb2b82ca07537ff93a55c5cbb947454b07b56fde93123b350b7c64736f6c634300081b0033000000000000000000000000c6e7df5e7b4f2a278906862b61205850344d4e7d000000000000000000000000f39fd6e51aad88f6f4ce6ab8827279cfffb92266000000000000000000000000f39fd6e51aad88f6f4ce6ab8827279cfffb922660000000000000000000000000000000000000000000000000000000000000000",
        "nonce": "0x15",
        "chainId": "0x7a69"
      },
      "additionalContracts": [],
      "isFixedGasLimit": false
    },
    {
      "hash": "0x11c857e318e5266dfad0037962afe706eb84289f1772098fba5f2dbb00f5c166",
      "transactionType": "CALL",
      "contractName": "TestUSDC",
      "contractAddress": "0xc6e7df5e7b4f2a278906862b61205850344d4e7d",
      "function": "mint(address,uint256)",
      "arguments": [
        "0xf39Fd6e51aad88F6F4ce6aB8827279cffFb92266",
        "1000000000"
      ],
      "transaction": {
        "from": "0xf39fd6e51aad88f6f4ce6ab8827279cfffb92266",
        "to": "0xc6e7df5e7b4f2a278906862b61205850344d4e7d",
        "value": "0x0",
        "input": "0x40c10f19000000000000000000000000f39fd6e51aad88f6f4ce6ab8827279cfffb92266000000000000000000000000000000000000000000000000000000003b9aca00",
        "nonce": "0x16",
        "chainId": "0x7a69"
      },
      "additionalContracts": [],
      "isFixedGasLimit": false
    },
    {
      "hash": "0x097b49e3720225196224330c7bfbd9b2276bd6c4d3a7df888ff86fd5f0213607",
      "transactionType": "CREATE",
      "contractName": "RandomnessCoordinator",
      "contractAddress": "0x322813fd9a801c5507c9de605d63cea4f2ce6c44",
      "function": null,
      "arguments": null,
      "transaction": {
        "from": "0xf39fd6e51aad88f6f4ce6ab8827279cfffb92266",
        "to": null,
        "value": "0x0",
        "input": "0x608080604052346019576001805561069a908161001e8239f35b5f80fdfe6080806040526004361015610012575f80fd5b5f3560e01c908163181b1fe8146105e3575080634036778f1461045357806349ce8997146103f35780635b0a789b146103625780636a84a98514610345578063b0caa742146102245763c8820a1614610069575f80fd5b346102205760603660031901126102205760043560243560ff81168091036102205760443560ff811680910361022057811591828015610218575b610209576100b18261064c565b936100bf604051958661061c565b8285526100cb8361064c565b93806020870195601f19013687376101bc57825f190619915f5b858110610133578688604051918291602083019060208452518091526040830191905f5b818110610117575050500390f35b825160ff16845285945060209384019390920191600101610109565b60405160208101908382528260408201526040815261015360608261061c565b5190205f5b858210156101d05750836101bc5785900690600182018092116101a85788518110156101945760ff6001921660208260051b8b010152016100e5565b634e487b7160e01b5f52603260045260245ffd5b634e487b7160e01b5f52601160045260245ffd5b634e487b7160e01b5f52601260045260245ffd5b6101da915061063e565b60405160208101908482528360408201528260608201526060815261020060808261061c565b51902090610158565b633c02373360e21b5f5260045ffd5b5081156100a4565b5f80fd5b34610220576020366003190112610220576004356001546102448161063e565b60015567ffffffffffffffff43169160405192608084019380851067ffffffffffffffff8611176103315760209460405233815284810183815267ffffffffffffffff6002604084019385855260608101935f8552885f525f8a5260405f209160018060a01b039051166bffffffffffffffffffffffff60a01b8354161782555160018201550192511667ffffffffffffffff1983541617825551151560ff60401b82549160401b169060ff60401b191617905560405191825283820152817f19148ed9f7c7e50a85fd5271b12ef4372fb3c27ace4a7ac8de87f32709d0f72d60403393a3604051908152f35b634e487b7160e01b5f52604160045260245ffd5b34610220575f366003190112610220576020600154604051908152f35b34610220575f36600319011261022057335f526002602052602060405f2080549061038c8261063e565b9055604051828101904482524260408201523360601b6060820152826074820152607481526103bc60948261061c565b519020906040518281527fd8cc16a65d72177b2867ad1a15bb6b21d0e93220fdd47e8e67c3690de5f6502f843392a3604051908152f35b34610220576020366003190112610220576004355f525f602052608060405f2060ff60018060a01b03825416916002600182015491015490604051938452602084015267ffffffffffffffff8116604084015260401c1615156060820152f35b34610220576040366003190112610220576004355f81815260208190526040902080549091906001600160a01b038116906024359082156105d0573383036105b957600285019081549567ffffffffffffffff871690814311156105a65760ff8860401c166105935760016040516020810190878252602081526104d860408261061c565b51902091015403610580574091821561056d576801000000000000000060209760ff60401b19161790556040519186830193845260408301526bffffffffffffffffffffffff199060601b1660608201526054815261053860748261061c565b519020917ff87397f8ccf18c41bfee81144299ad64e11085c5a27b280fde98beeefd3e71bd84604051858152a3604051908152f35b8563196aecc160e01b5f5260045260245ffd5b85635af7396b60e01b5f5260045260245ffd5b8663c3f90a6b60e01b5f5260045260245ffd5b86631cbf788b60e21b5f5260045260245ffd5b83631a75e40360e31b5f526004523360245260445ffd5b83630347736d60e51b5f5260045260245ffd5b34610220576020366003190112610220576004356001600160a01b0381169190829003610220576020915f526002825260405f20548152f35b90601f8019910116810190811067ffffffffffffffff82111761033157604052565b5f1981146101a85760010190565b67ffffffffffffffff81116103315760051b6020019056fea2646970667358221220e54454c0db4d102aa3e8daab4c617a47b234b7765dcbb9997eca652ac468b16864736f6c634300081b0033",
        "nonce": "0x17",
        "chainId": "0x7a69"
      },
      "additionalContracts": [],
      "isFixedGasLimit": false
    }
  ],
  "receipts": [
    {
      "type": "0x2",
      "status": "0x1",
      "cumulativeGasUsed": "0x1125f9",
      "logs": [
        {
          "address": "0x5fbdb2315678afecb367f032d93f642f64180aa3",
          "topics": [
            "0x8be0079c531659141344cd1fd0a4f28419497f9722a3daafe3b4186f6b6457e0",
            "0x0000000000000000000000000000000000000000000000000000000000000000",
            "0x000000000000000000000000f39fd6e51aad88f6f4ce6ab8827279cfffb92266"
          ],
          "data": "0x",
          "blockHash": "0x51611e57c77fb03d7ce7c5773d761f3729abb466a00baf932ecaa69e97ab02d6",
          "blockNumber": "0x1",
          "blockTimestamp": "0x6a2f93ec",
          "transactionHash": "0x3c6efb08433ef86d6ceb350bfa1c408613b537c31c3bc2449ba5ebefc62d0636",
          "transactionIndex": "0x0",
          "logIndex": "0x0",
          "removed": false
        },
        {
          "address": "0x5fbdb2315678afecb367f032d93f642f64180aa3",
          "topics": [
            "0x2ff4f36f7bcd5d4c260c49696c9d2b7c01d486e2d5ef32b48da03461a743dfe8"
          ],
          "data": "0x6e657875732e776f726c642e7631000000000000000000000000000000000000",
          "blockHash": "0x51611e57c77fb03d7ce7c5773d761f3729abb466a00baf932ecaa69e97ab02d6",
          "blockNumber": "0x1",
          "blockTimestamp": "0x6a2f93ec",
          "transactionHash": "0x3c6efb08433ef86d6ceb350bfa1c408613b537c31c3bc2449ba5ebefc62d0636",
          "transactionIndex": "0x0",
          "logIndex": "0x1",
          "removed": false
        }
      ],
      "logsBloom": "0x00000000000000000000000000000000001000000000000000800000000000000000000000000000000001000000000000000000000000000000000000000000000000000000000000000000000000000001000000000000000000000000000000000040020000000000000100000808000000000000000000000000000000400000000000000000000000000000000000000000000000000000000200000000000000000000000000000000000000000000000000000000000000000000000000000040000000200000000000000000000000002000000000000000000020000000000000000000000000000000000000000000000000000000000000000000",
      "transactionHash": "0x3c6efb08433ef86d6ceb350bfa1c408613b537c31c3bc2449ba5ebefc62d0636",
      "transactionIndex": "0x0",
      "blockHash": "0x51611e57c77fb03d7ce7c5773d761f3729abb466a00baf932ecaa69e97ab02d6",
      "blockNumber": "0x1",
      "gasUsed": "0x1125f9",
      "effectiveGasPrice": "0x3b9aca01",
      "blobGasPrice": "0x1",
      "from": "0xf39fd6e51aad88f6f4ce6ab8827279cfffb92266",
      "to": null,
      "contractAddress": "0x5fbdb2315678afecb367f032d93f642f64180aa3"
    },
    {
      "type": "0x2",
      "status": "0x1",
      "cumulativeGasUsed": "0xe170a",
      "logs": [],
      "logsBloom": "0x00000000000000000000000000000000000000000000000000000000000000000000000000000000000000000000000000000000000000000000000000000000000000000000000000000000000000000000000000000000000000000000000000000000000000000000000000000000000000000000000000000000000000000000000000000000000000000000000000000000000000000000000000000000000000000000000000000000000000000000000000000000000000000000000000000000000000000000000000000000000000000000000000000000000000000000000000000000000000000000000000000000000000000000000000000000",
      "transactionHash": "0xfb4686dba4e25803459d96a986ad55add51e56c1e720438902d752a727954b01",
      "transactionIndex": "0x0",
      "blockHash": "0xc158183de73e081b64b4d1efd8b9b708739e500d6eec9231eef046cfcee11b97",
      "blockNumber": "0x2",
      "gasUsed": "0xe170a",
      "effectiveGasPrice": "0x34b657dc",
      "blobGasPrice": "0x1",
      "from": "0xf39fd6e51aad88f6f4ce6ab8827279cfffb92266",
      "to": null,
      "contractAddress": "0xe7f1725e7734ce288f8367e1bb143e90bb3f0512"
    },
    {
      "type": "0x2",
      "status": "0x1",
      "cumulativeGasUsed": "0xb6565",
      "logs": [],
      "logsBloom": "0x00000000000000000000000000000000000000000000000000000000000000000000000000000000000000000000000000000000000000000000000000000000000000000000000000000000000000000000000000000000000000000000000000000000000000000000000000000000000000000000000000000000000000000000000000000000000000000000000000000000000000000000000000000000000000000000000000000000000000000000000000000000000000000000000000000000000000000000000000000000000000000000000000000000000000000000000000000000000000000000000000000000000000000000000000000000",
      "transactionHash": "0x951c0b9bb980aefa6b8dcade2c30698b02f543ec491c951dc4fad4f38632d3b6",
      "transactionIndex": "0x0",
      "blockHash": "0xfb7b5644acd1b839fbecfd5b341f741e62ba3d564da75617fe8a996262e6f566",
      "blockNumber": "0x3",
      "gasUsed": "0xb6565",
      "effectiveGasPrice": "0x2e8763b7",
      "blobGasPrice": "0x1",
      "from": "0xf39fd6e51aad88f6f4ce6ab8827279cfffb92266",
      "to": null,
      "contractAddress": "0x9fe46736679d2d9a65f0992f2272de9f3c7fa6e0"
    },
    {
      "type": "0x2",
      "status": "0x1",
      "cumulativeGasUsed": "0x773d2",
      "logs": [],
      "logsBloom": "0x00000000000000000000000000000000000000000000000000000000000000000000000000000000000000000000000000000000000000000000000000000000000000000000000000000000000000000000000000000000000000000000000000000000000000000000000000000000000000000000000000000000000000000000000000000000000000000000000000000000000000000000000000000000000000000000000000000000000000000000000000000000000000000000000000000000000000000000000000000000000000000000000000000000000000000000000000000000000000000000000000000000000000000000000000000000",
      "transactionHash": "0x02455f5ff89516b6ff888a6c207a058de8bde594bdcea07d6b75e4c324e515f7",
      "transactionIndex": "0x0",
      "blockHash": "0x611f5634fbe3a6e18f2ff0f6d65b70f86c177a5fd8745df8465da12ec09a3af9",
      "blockNumber": "0x4",
      "gasUsed": "0x773d2",
      "effectiveGasPrice": "0x29009982",
      "blobGasPrice": "0x1",
      "from": "0xf39fd6e51aad88f6f4ce6ab8827279cfffb92266",
      "to": null,
      "contractAddress": "0xcf7ed3acca5a467e9e704c703e8d87f634fb0fc9"
    },
    {
      "type": "0x2",
      "status": "0x1",
      "cumulativeGasUsed": "0x17a65",
      "logs": [
        {
          "address": "0x5fbdb2315678afecb367f032d93f642f64180aa3",
          "topics": [
            "0x27b93ae2f1d204f7d28eaeab23952d8f33aedaa7b17dfbbe85ac96286df3be15",
            "0x74620000000000000000000000000000436f756e746572000000000000000000"
          ],
          "data": "0x000000000000000000000000000000000000000000000000000000000000000100000000000000000000000000000000000000000000000000000000000000020000000000000000000000000000000000000000000000000000000000000060000000000000000000000000000000000000000000000000000000000000000200000000000000000000000000000000000000000000000000000000000000400000000000000000000000000000000000000000000000000000000000000080000000000000000000000000000000000000000000000000000000000000000576616c756500000000000000000000000000000000000000000000000000000000000000000000000000000000000000000000000000000000000000000000096c6173744d6f7665720000000000000000000000000000000000000000000000",
          "blockHash": "0x1065c84f5ac839865ef48119c79926fc9ef5845b5b5d768ab6f3514909822145",
          "blockNumber": "0x5",
          "blockTimestamp": "0x6a2f93ec",
          "transactionHash": "0xe0164cce8c6a93f1d6c04d3544fd62c2baf5db9402d53fd4aa25ace974d2ce99",
          "transactionIndex": "0x0",
          "logIndex": "0x0",
          "removed": false
        }
      ],
      "logsBloom": "0x00000000000000000000000000000000000000000000000000000000000000000000000000000000000000000004000000000000000000000000000001000000000000000000000000000000000000000000000000000000000000000000000000000040000000000000001000000000000000000000000000000000000000000000000000000000000000000000000000000000000000000000000200000000000000000000000000000000000000000000000000000000000000000000000000000040000000000000000000000000000000000000000000000000002000000000000000000000000000000000000000000000000000200000000100000000",
      "transactionHash": "0xe0164cce8c6a93f1d6c04d3544fd62c2baf5db9402d53fd4aa25ace974d2ce99",
      "transactionIndex": "0x0",
      "blockHash": "0x1065c84f5ac839865ef48119c79926fc9ef5845b5b5d768ab6f3514909822145",
      "blockNumber": "0x5",
      "gasUsed": "0x17a65",
      "effectiveGasPrice": "0x240b3efc",
      "blobGasPrice": "0x1",
      "from": "0xf39fd6e51aad88f6f4ce6ab8827279cfffb92266",
      "to": "0x5fbdb2315678afecb367f032d93f642f64180aa3",
      "contractAddress": null
    },
    {
      "type": "0x2",
      "status": "0x1",
      "cumulativeGasUsed": "0xbadf",
      "logs": [
        {
          "address": "0x5fbdb2315678afecb367f032d93f642f64180aa3",
          "topics": [
            "0xabe1e2e80b5aa04850ff2ee6b99521af71175d49133ecbf7c9e790f6c92c980a",
            "0x436f756e74657247616d65000000000000000000000000000000000000000000",
            "0x000000000000000000000000cf7ed3acca5a467e9e704c703e8d87f634fb0fc9"
          ],
          "data": "0x",
          "blockHash": "0x2f72179b7a8d7221620e7c4c8b970f2c728795b44727895baf5c90b0bd6fc896",
          "blockNumber": "0x6",
          "blockTimestamp": "0x6a2f93ec",
          "transactionHash": "0xc9b3a31b36b78c45f15004f60c7bfbea3bfadb22cd53b469e0d17cbe6dafcee4",
          "transactionIndex": "0x0",
          "logIndex": "0x0",
          "removed": false
        }
      ],
      "logsBloom": "0x00000000000000000000000000000000000000000000000000000000000000000000000000000080000000000000000000000000000000000000000000000000000000000000000000000000040000000000000000000000000000000000000000000040000000000000010000000000000000000000000800000000000000000000000000000000000000000000000000000000000000000000000200000000000000001000000000000000000000000000000000000000000000000000000000000040000000000000000000000000000000000000000000000000000000010000000000000100008000000000200000000000000000000000000000000000",
      "transactionHash": "0xc9b3a31b36b78c45f15004f60c7bfbea3bfadb22cd53b469e0d17cbe6dafcee4",
      "transactionIndex": "0x0",
      "blockHash": "0x2f72179b7a8d7221620e7c4c8b970f2c728795b44727895baf5c90b0bd6fc896",
      "blockNumber": "0x6",
      "gasUsed": "0xbadf",
      "effectiveGasPrice": "0x1f9149f6",
      "blobGasPrice": "0x1",
      "from": "0xf39fd6e51aad88f6f4ce6ab8827279cfffb92266",
      "to": "0x5fbdb2315678afecb367f032d93f642f64180aa3",
      "contractAddress": null
    },
    {
      "type": "0x2",
      "status": "0x1",
      "cumulativeGasUsed": "0xc4d5",
      "logs": [
        {
          "address": "0x5fbdb2315678afecb367f032d93f642f64180aa3",
          "topics": [
            "0x87675c9926489679e8472a7ecfddd7f514ac1c6a0134118dcab3db14f581f11a",
            "0x74620000000000000000000000000000436f756e746572000000000000000000",
            "0x000000000000000000000000cf7ed3acca5a467e9e704c703e8d87f634fb0fc9"
          ],
          "data": "0x",
          "blockHash": "0x1d218de2720591e01de8560086da189aad749733371f688936228db548cee438",
          "blockNumber": "0x7",
          "blockTimestamp": "0x6a2f93ec",
          "transactionHash": "0xc9139ef353883a72f15b713f94fa03eedb96bd23ea3632e9548a315931827890",
          "transactionIndex": "0x0",
          "logIndex": "0x0",
          "removed": false
        }
      ],
      "logsBloom": "0x00000000000000000000000000000000000000000000000000000000000000000000000000000080000000000004000000000000000000000000000000000000000000000000000000000000000000000000000000000000000000000000000000000040000000000000000000000000000000000000000000000000000000000000000000000000000000000000000000000000000004000000000200000000000000001000000000000000000000000000000000000000000000000000000000000040000000000000000000001000000000000000000000000000002000000000000000000000008000000002000000000000000000000000000100000000",
      "transactionHash": "0xc9139ef353883a72f15b713f94fa03eedb96bd23ea3632e9548a315931827890",
      "transactionIndex": "0x0",
      "blockHash": "0x1d218de2720591e01de8560086da189aad749733371f688936228db548cee438",
      "blockNumber": "0x7",
      "gasUsed": "0xc4d5",
      "effectiveGasPrice": "0x1ba25977",
      "blobGasPrice": "0x1",
      "from": "0xf39fd6e51aad88f6f4ce6ab8827279cfffb92266",
      "to": "0x5fbdb2315678afecb367f032d93f642f64180aa3",
      "contractAddress": null
    },
    {
      "type": "0x2",
      "status": "0x1",
      "cumulativeGasUsed": "0xb965",
      "logs": [
        {
          "address": "0x5fbdb2315678afecb367f032d93f642f64180aa3",
          "topics": [
            "0x5c8f05824c40a2cedd1ec7245f574909327c72a46448be0e4c12bcb4f5bf42c0",
            "0x000000000000000000000000e7f1725e7734ce288f8367e1bb143e90bb3f0512"
          ],
          "data": "0x",
          "blockHash": "0xbf3e3d54a1bc404d7372f0ae9dc59e88cf378994d2da0a9811c600355f2f2941",
          "blockNumber": "0x8",
          "blockTimestamp": "0x6a2f93ec",
          "transactionHash": "0x5b19dfc92ecc671fda3d4104478ae49ce83b8e1eac549d6710ae9e624ab727f7",
          "transactionIndex": "0x0",
          "logIndex": "0x0",
          "removed": false
        }
      ],
      "logsBloom": "0x00000000000000000400000000000000000000000000000000000000000000000000000000000000000000000000000000000000000000000000000000000000000000000000000000000000000000000000000000000000000000000000000000000040000000000000000000000000000000000000000000000004000000000000000000000000020000000000004000000000000000000000000200000000000000000000000000000002000000000000000000000000000000000200000000000040000000000000000000000000000000000000000000000000000000000000000000000000000000000000000000000000000000000000000000000000",
      "transactionHash": "0x5b19dfc92ecc671fda3d4104478ae49ce83b8e1eac549d6710ae9e624ab727f7",
      "transactionIndex": "0x0",
      "blockHash": "0xbf3e3d54a1bc404d7372f0ae9dc59e88cf378994d2da0a9811c600355f2f2941",
      "blockNumber": "0x8",
      "gasUsed": "0xb965",
      "effectiveGasPrice": "0x183106c1",
      "blobGasPrice": "0x1",
      "from": "0xf39fd6e51aad88f6f4ce6ab8827279cfffb92266",
      "to": "0x5fbdb2315678afecb367f032d93f642f64180aa3",
      "contractAddress": null
    },
    {
      "type": "0x2",
      "status": "0x1",
      "cumulativeGasUsed": "0xb353",
      "logs": [],
      "logsBloom": "0x00000000000000000000000000000000000000000000000000000000000000000000000000000000000000000000000000000000000000000000000000000000000000000000000000000000000000000000000000000000000000000000000000000000000000000000000000000000000000000000000000000000000000000000000000000000000000000000000000000000000000000000000000000000000000000000000000000000000000000000000000000000000000000000000000000000000000000000000000000000000000000000000000000000000000000000000000000000000000000000000000000000000000000000000000000000",
      "transactionHash": "0x16efa5cc83a4f569f5a1c21d8c1fb42dd4f2096c8ab5b2c75d1374001f1ed2af",
      "transactionIndex": "0x0",
      "blockHash": "0x0274b5544dba8b41652c70247c55f91da1fa8190c66fb6951441042f97443e8b",
      "blockNumber": "0x9",
      "gasUsed": "0xb353",
      "effectiveGasPrice": "0x152d58f5",
      "blobGasPrice": "0x1",
      "from": "0xf39fd6e51aad88f6f4ce6ab8827279cfffb92266",
      "to": "0xcf7ed3acca5a467e9e704c703e8d87f634fb0fc9",
      "contractAddress": null
    },
    {
      "type": "0x2",
      "status": "0x1",
      "cumulativeGasUsed": "0xba02",
      "logs": [
        {
          "address": "0x9fe46736679d2d9a65f0992f2272de9f3c7fa6e0",
          "topics": [
            "0xf8b32f4ee3245ed08b1112f5d0f235cd6703b644bbbc9d3d5885adabd99447bd",
            "0x000000000000000000000000cf7ed3acca5a467e9e704c703e8d87f634fb0fc9"
          ],
          "data": "0x0000000000000000000000000000000000000000000000000000000000000001",
          "blockHash": "0x58a35b498cee2c2a10c8f38ca65660ebe186c93c637c2da73b2fe888fc092fff",
          "blockNumber": "0xa",
          "blockTimestamp": "0x6a2f93ec",
          "transactionHash": "0xa7d73fb36466311e9ec7652c084517b435e72864e17bd13e50bf27bac6e65414",
          "transactionIndex": "0x0",
          "logIndex": "0x0",
          "removed": false
        }
      ],
      "logsBloom": "0x00000000000000000000000000000000000000000000000000000000000000000000000000000080000000000000000000000000000040200000000000000000000000000000000000000000000000000000000000000000000000000000000000000000000000000000000000000000000000000000080000000000000000000000000000000000000000000000000000020000080000000000000000000000000000001000000000000000000000000000000000000000000000000000000000000000000000000000000000000000000000000000000000000000000000000000000000000000008000000000000000000000000000400000000000000000",
      "transactionHash": "0xa7d73fb36466311e9ec7652c084517b435e72864e17bd13e50bf27bac6e65414",
      "transactionIndex": "0x0",
      "blockHash": "0x58a35b498cee2c2a10c8f38ca65660ebe186c93c637c2da73b2fe888fc092fff",
      "blockNumber": "0xa",
      "gasUsed": "0xba02",
      "effectiveGasPrice": "0x1289c0c7",
      "blobGasPrice": "0x1",
      "from": "0xf39fd6e51aad88f6f4ce6ab8827279cfffb92266",
      "to": "0x9fe46736679d2d9a65f0992f2272de9f3c7fa6e0",
      "contractAddress": null
    },
    {
      "type": "0x2",
      "status": "0x1",
      "cumulativeGasUsed": "0x6c46",
      "logs": [
        {
          "address": "0x9fe46736679d2d9a65f0992f2272de9f3c7fa6e0",
          "topics": [
            "0xf8b32f4ee3245ed08b1112f5d0f235cd6703b644bbbc9d3d5885adabd99447bd",
            "0x000000000000000000000000f39fd6e51aad88f6f4ce6ab8827279cfffb92266"
          ],
          "data": "0x0000000000000000000000000000000000000000000000000000000000000001",
          "blockHash": "0x544811fee7405edb7c15ee443b7f2ce2b6960c9c3c1a9565c5ede0b1051b0715",
          "blockNumber": "0xb",
          "blockTimestamp": "0x6a2f93ec",
          "transactionHash": "0x7bb435d226c99aa4bf554c7b90f6f316bbc17a3a1ea74ec511488895731728e0",
          "transactionIndex": "0x0",
          "logIndex": "0x0",
          "removed": false
        }
      ],
      "logsBloom": "0x00000000000000000000000000000000000000000000000000000000000000000000000000000000000000000000000000000000000040200000000000000000000000000000000000000000000000000000000000000000000000000000000000000000000000000000000100000000000000000000080000000000000000000000000000000000000000000000000000020000080000000000000000000000000000000000000000000000000000000000000000000000000000000000000000000000000000200000000000000000000000002000000000000000000000000000000000000000000000000000000000000000000000400000000000000000",
      "transactionHash": "0x7bb435d226c99aa4bf554c7b90f6f316bbc17a3a1ea74ec511488895731728e0",
      "transactionIndex": "0x0",
      "blockHash": "0x544811fee7405edb7c15ee443b7f2ce2b6960c9c3c1a9565c5ede0b1051b0715",
      "blockNumber": "0xb",
      "gasUsed": "0x6c46",
      "effectiveGasPrice": "0x103a6ac8",
      "blobGasPrice": "0x1",
      "from": "0xf39fd6e51aad88f6f4ce6ab8827279cfffb92266",
      "to": "0x9fe46736679d2d9a65f0992f2272de9f3c7fa6e0",
      "contractAddress": null
    },
    {
      "type": "0x2",
      "status": "0x1",
      "cumulativeGasUsed": "0xb3b2",
      "logs": [],
      "logsBloom": "0x00000000000000000000000000000000000000000000000000000000000000000000000000000000000000000000000000000000000000000000000000000000000000000000000000000000000000000000000000000000000000000000000000000000000000000000000000000000000000000000000000000000000000000000000000000000000000000000000000000000000000000000000000000000000000000000000000000000000000000000000000000000000000000000000000000000000000000000000000000000000000000000000000000000000000000000000000000000000000000000000000000000000000000000000000000000",
      "transactionHash": "0xd88dbda0ac76067fa75c3333f63f6591396b25b0472a12bcca180d73919df0ae",
      "transactionIndex": "0x0",
      "blockHash": "0x306fbfc75a7107dce0e3b08006a44e67fe3845281b293a70a5e71f54837883ec",
      "blockNumber": "0xc",
      "gasUsed": "0xb3b2",
      "effectiveGasPrice": "0xe341318",
      "blobGasPrice": "0x1",
      "from": "0xf39fd6e51aad88f6f4ce6ab8827279cfffb92266",
      "to": "0x9fe46736679d2d9a65f0992f2272de9f3c7fa6e0",
      "contractAddress": null
    },
    {
      "type": "0x2",
      "status": "0x1",
      "cumulativeGasUsed": "0x2d968",
      "logs": [
        {
          "address": "0x9fe46736679d2d9a65f0992f2272de9f3c7fa6e0",
          "topics": [
            "0xa4663596238e958f20b25cc69bc3648d070a6628c207d1a233185cbd3c280ef1",
            "0x0000000000000000000000000000000000000000000000000000000000000001"
          ],
          "data": "0x00000000000000000000000000000000000000000000000000000000000000400000000000000000000000000000000000000000000000000000000000001395000000000000000000000000000000000000000000000000000000000000000200000000000000000000000070997970c51812dc3a010c7d01b50e0d17dc79c80000000000000000000000003c44cdddb6a900fa2b585dd299e03d12fa4293bc",
          "blockHash": "0x9f23cffff950a711a763163915ec1b8056bb903951e5d720e8f879deff5b271b",
          "blockNumber": "0xd",
          "blockTimestamp": "0x6a2f93ec",
          "transactionHash": "0xd9e35040bb0d7d55c91c8a6671950f57933cb7e679d2ed3f8be2d11f9a2a8047",
          "transactionIndex": "0x0",
          "logIndex": "0x0",
          "removed": false
        }
      ],
      "logsBloom": "0x00000000000000000000000000000000000000000000000000000000000000000000000000000000000000000000000000000000000040200000000000040000000000000004000000000000000000000000000000040000000000000000000000000000000400000000000000000000000000000000000000000000000000000000000000000000000000000000000000000000000000000000000000000000000000000000000000000000000000000000000000000000000000000000000000000000000000000000000000000000000000000000000000400000000040000000000000000000000000000000000000000000000000400000000000000000",
      "transactionHash": "0xd9e35040bb0d7d55c91c8a6671950f57933cb7e679d2ed3f8be2d11f9a2a8047",
      "transactionIndex": "0x0",
      "blockHash": "0x9f23cffff950a711a763163915ec1b8056bb903951e5d720e8f879deff5b271b",
      "blockNumber": "0xd",
      "gasUsed": "0x2d968",
      "effectiveGasPrice": "0xc6ef58c",
      "blobGasPrice": "0x1",
      "from": "0xf39fd6e51aad88f6f4ce6ab8827279cfffb92266",
      "to": "0x9fe46736679d2d9a65f0992f2272de9f3c7fa6e0",
      "contractAddress": null
    },
    {
      "type": "0x2",
      "status": "0x1",
      "cumulativeGasUsed": "0x2c3a0",
      "logs": [],
      "logsBloom": "0x00000000000000000000000000000000000000000000000000000000000000000000000000000000000000000000000000000000000000000000000000000000000000000000000000000000000000000000000000000000000000000000000000000000000000000000000000000000000000000000000000000000000000000000000000000000000000000000000000000000000000000000000000000000000000000000000000000000000000000000000000000000000000000000000000000000000000000000000000000000000000000000000000000000000000000000000000000000000000000000000000000000000000000000000000000000",
      "transactionHash": "0x339d71e4b3b6761939f6af8cbc6eb52a29653f22e8e8111b81381ad521283b7a",
      "transactionIndex": "0x0",
      "blockHash": "0x1399fc833fd37dda88190ba066edcd7bcda89277c5cffeabeb6ab3a652c86713",
      "blockNumber": "0xe",
      "gasUsed": "0x2c3a0",
      "effectiveGasPrice": "0xae60acc",
      "blobGasPrice": "0x1",
      "from": "0xf39fd6e51aad88f6f4ce6ab8827279cfffb92266",
      "to": null,
      "contractAddress": "0x0dcd1bf9a1b36ce34237eeafef220932846bcd82"
    },
    {
      "type": "0x2",
      "status": "0x1",
      "cumulativeGasUsed": "0x34318",
      "logs": [],
      "logsBloom": "0x00000000000000000000000000000000000000000000000000000000000000000000000000000000000000000000000000000000000000000000000000000000000000000000000000000000000000000000000000000000000000000000000000000000000000000000000000000000000000000000000000000000000000000000000000000000000000000000000000000000000000000000000000000000000000000000000000000000000000000000000000000000000000000000000000000000000000000000000000000000000000000000000000000000000000000000000000000000000000000000000000000000000000000000000000000000",
      "transactionHash": "0x88cde8a3a3c7b874daaf1e8e7cfb3a8dda3c3c1b7c251cb40728481984279038",
      "transactionIndex": "0x0",
      "blockHash": "0x2d0332260ac8e45383dc584baecc8945490ac68226f27b3957a4e210501223b2",
      "blockNumber": "0xf",
      "gasUsed": "0x34318",
      "effectiveGasPrice": "0x98d7faf",
      "blobGasPrice": "0x1",
      "from": "0xf39fd6e51aad88f6f4ce6ab8827279cfffb92266",
      "to": null,
      "contractAddress": "0x9a676e781a523b5d0c0e43731313a708cb607508"
    },
    {
      "type": "0x2",
      "status": "0x1",
      "cumulativeGasUsed": "0x21fbf",
      "logs": [],
      "logsBloom": "0x00000000000000000000000000000000000000000000000000000000000000000000000000000000000000000000000000000000000000000000000000000000000000000000000000000000000000000000000000000000000000000000000000000000000000000000000000000000000000000000000000000000000000000000000000000000000000000000000000000000000000000000000000000000000000000000000000000000000000000000000000000000000000000000000000000000000000000000000000000000000000000000000000000000000000000000000000000000000000000000000000000000000000000000000000000000",
      "transactionHash": "0x0308269d299ba080d7790e5f7e7b0281e37efedb2a33c2bcb7caaf1bf19c0a09",
      "transactionIndex": "0x0",
      "blockHash": "0x5451509cf7716670b923a222ad6d9c9cbd2678a01a27634eca9e196628a39220",
      "blockNumber": "0x10",
      "gasUsed": "0x21fbf",
      "effectiveGasPrice": "0x8602b0d",
      "blobGasPrice": "0x1",
      "from": "0xf39fd6e51aad88f6f4ce6ab8827279cfffb92266",
      "to": null,
      "contractAddress": "0x0b306bf915c4d645ff596e518faf3f9669b97016"
    },
    {
      "type": "0x2",
      "status": "0x1",
      "cumulativeGasUsed": "0x27947",
      "logs": [],
      "logsBloom": "0x00000000000000000000000000000000000000000000000000000000000000000000000000000000000000000000000000000000000000000000000000000000000000000000000000000000000000000000000000000000000000000000000000000000000000000000000000000000000000000000000000000000000000000000000000000000000000000000000000000000000000000000000000000000000000000000000000000000000000000000000000000000000000000000000000000000000000000000000000000000000000000000000000000000000000000000000000000000000000000000000000000000000000000000000000000000",
      "transactionHash": "0x14ab6d465d098adc83c31501818ebb6f469dfa8645bf81da7e50a4abb63003ea",
      "transactionIndex": "0x0",
      "blockHash": "0xd5d32cbf275b865b5e9bfd7c51a795cc19684d6ce6a6d412c81e2be040783585",
      "blockNumber": "0x11",
      "gasUsed": "0x27947",
      "effectiveGasPrice": "0x756a266",
      "blobGasPrice": "0x1",
      "from": "0xf39fd6e51aad88f6f4ce6ab8827279cfffb92266",
      "to": null,
      "contractAddress": "0x959922be3caee4b8cd9a407cc3ac1c251c2007b1"
    },
    {
      "type": "0x2",
      "status": "0x1",
      "cumulativeGasUsed": "0x2cd6c",
      "logs": [],
      "logsBloom": "0x00000000000000000000000000000000000000000000000000000000000000000000000000000000000000000000000000000000000000000000000000000000000000000000000000000000000000000000000000000000000000000000000000000000000000000000000000000000000000000000000000000000000000000000000000000000000000000000000000000000000000000000000000000000000000000000000000000000000000000000000000000000000000000000000000000000000000000000000000000000000000000000000000000000000000000000000000000000000000000000000000000000000000000000000000000000",
      "transactionHash": "0x45fdc6a30b0e2e2b4bd0d8a4699b3557df0035128b6da76d56431e56748c094c",
      "transactionIndex": "0x0",
      "blockHash": "0xbc52b0857d9e234a15819b8ed37b16bd4611546e50c04bc4ed084f47a3deaee9",
      "blockNumber": "0x12",
      "gasUsed": "0x2cd6c",
      "effectiveGasPrice": "0x66e57d6",
      "blobGasPrice": "0x1",
      "from": "0xf39fd6e51aad88f6f4ce6ab8827279cfffb92266",
      "to": null,
      "contractAddress": "0x9a9f2ccfde556a7e9ff0848998aa4a0cfd8863ae"
    },
    {
      "type": "0x2",
      "status": "0x1",
      "cumulativeGasUsed": "0x324ba",
      "logs": [],
      "logsBloom": "0x00000000000000000000000000000000000000000000000000000000000000000000000000000000000000000000000000000000000000000000000000000000000000000000000000000000000000000000000000000000000000000000000000000000000000000000000000000000000000000000000000000000000000000000000000000000000000000000000000000000000000000000000000000000000000000000000000000000000000000000000000000000000000000000000000000000000000000000000000000000000000000000000000000000000000000000000000000000000000000000000000000000000000000000000000000000",
      "transactionHash": "0xe2bdca0157a17a061d91020137058403163c1c123a7039906f7df4c13d1c91d6",
      "transactionIndex": "0x0",
      "blockHash": "0x7e32377ffef112df4bb009b67ad8c1162ecd273d6a99eb2157f489707fee14b1",
      "blockNumber": "0x13",
      "gasUsed": "0x324ba",
      "effectiveGasPrice": "0x5a311e9",
      "blobGasPrice": "0x1",
      "from": "0xf39fd6e51aad88f6f4ce6ab8827279cfffb92266",
      "to": null,
      "contractAddress": "0x68b1d87f95878fe05b998f19b66f4baba5de1aed"
    },
    {
      "type": "0x2",
      "status": "0x1",
      "cumulativeGasUsed": "0x39c40",
      "logs": [],
      "logsBloom": "0x00000000000000000000000000000000000000000000000000000000000000000000000000000000000000000000000000000000000000000000000000000000000000000000000000000000000000000000000000000000000000000000000000000000000000000000000000000000000000000000000000000000000000000000000000000000000000000000000000000000000000000000000000000000000000000000000000000000000000000000000000000000000000000000000000000000000000000000000000000000000000000000000000000000000000000000000000000000000000000000000000000000000000000000000000000000",
      "transactionHash": "0x4bf9aa359283bf4bed9c70f717fdfe625988e8cc65062fa324d48385adb6e656",
      "transactionIndex": "0x0",
      "blockHash": "0xf6435bca1800404d7c175269028d6efddcb54b919cbd51fefdad28df518fd2a2",
      "blockNumber": "0x14",
      "gasUsed": "0x39c40",
      "effectiveGasPrice": "0x4f129e3",
      "blobGasPrice": "0x1",
      "from": "0xf39fd6e51aad88f6f4ce6ab8827279cfffb92266",
      "to": null,
      "contractAddress": "0x3aa5ebb10dc797cac828524e59a333d0a371443c"
    },
    {
      "type": "0x2",
      "status": "0x1",
      "cumulativeGasUsed": "0x74853",
      "logs": [],
      "logsBloom": "0x00000000000000000000000000000000000000000000000000000000000000000000000000000000000000000000000000000000000000000000000000000000000000000000000000000000000000000000000000000000000000000000000000000000000000000000000000000000000000000000000000000000000000000000000000000000000000000000000000000000000000000000000000000000000000000000000000000000000000000000000000000000000000000000000000000000000000000000000000000000000000000000000000000000000000000000000000000000000000000000000000000000000000000000000000000000",
      "transactionHash": "0x46e82f963edb711eeb6a7f6c64eef44838733c464bb7750ce1c1bde2bce65cfe",
      "transactionIndex": "0x0",
      "blockHash": "0x66991053348ecfcc4b4276c87b8dcc04839b6cee5ce8888e8b3863f8bac2f974",
      "blockNumber": "0x15",
      "gasUsed": "0x74853",
      "effectiveGasPrice": "0x4558343",
      "blobGasPrice": "0x1",
      "from": "0xf39fd6e51aad88f6f4ce6ab8827279cfffb92266",
      "to": null,
      "contractAddress": "0xc6e7df5e7b4f2a278906862b61205850344d4e7d"
    },
    {
      "type": "0x2",
      "status": "0x1",
      "cumulativeGasUsed": "0x781ca",
      "logs": [],
      "logsBloom": "0x00000000000000000000000000000000000000000000000000000000000000000000000000000000000000000000000000000000000000000000000000000000000000000000000000000000000000000000000000000000000000000000000000000000000000000000000000000000000000000000000000000000000000000000000000000000000000000000000000000000000000000000000000000000000000000000000000000000000000000000000000000000000000000000000000000000000000000000000000000000000000000000000000000000000000000000000000000000000000000000000000000000000000000000000000000000",
      "transactionHash": "0x5af4ffbbf83638c479ce72cf698704af058581a22c46afca273fc0f6e3233be2",
      "transactionIndex": "0x0",
      "blockHash": "0x6e5da899eb9f2a0b1552963aedb1b4dfebecd51f5792cd802aecc0483b84db1d",
      "blockNumber": "0x16",
      "gasUsed": "0x781ca",
      "effectiveGasPrice": "0x3cf3c87",
      "blobGasPrice": "0x1",
      "from": "0xf39fd6e51aad88f6f4ce6ab8827279cfffb92266",
      "to": null,
      "contractAddress": "0x59b670e9fa9d0a427751af201d676719a970857b"
    },
    {
      "type": "0x2",
      "status": "0x1",
      "cumulativeGasUsed": "0x109dd",
      "logs": [
        {
          "address": "0xc6e7df5e7b4f2a278906862b61205850344d4e7d",
          "topics": [
            "0xddf252ad1be2c89b69c2b068fc378daa952ba7f163c4a11628f55a4df523b3ef",
            "0x0000000000000000000000000000000000000000000000000000000000000000",
            "0x000000000000000000000000f39fd6e51aad88f6f4ce6ab8827279cfffb92266"
          ],
          "data": "0x000000000000000000000000000000000000000000000000000000003b9aca00",
          "blockHash": "0x46ee4ce640367d012c8dd5198ddcb4ccaa84240f55143aa3971740c37c8d6707",
          "blockNumber": "0x17",
          "blockTimestamp": "0x6a2f93ec",
          "transactionHash": "0x11c857e318e5266dfad0037962afe706eb84289f1772098fba5f2dbb00f5c166",
          "transactionIndex": "0x0",
          "logIndex": "0x0",
          "removed": false
        }
      ],
      "logsBloom": "0x00000000000000000000000000000000000000000000000000000000000000000000000000000000000000800000000000000000000000000000000000000000000000000000000000000008000000000000000000000000000000000000000000000000020000000000000100000800000000000000000000000010000000000000000000000000000000000000000000000000000000000000000000000000000000000000000000000000000000000000000000000000000000000000000000000002000000200000000000100000000000002000000000000000000020000000000000000000000000800000000000000000000000000000000000000000",
      "transactionHash": "0x11c857e318e5266dfad0037962afe706eb84289f1772098fba5f2dbb00f5c166",
      "transactionIndex": "0x0",
      "blockHash": "0x46ee4ce640367d012c8dd5198ddcb4ccaa84240f55143aa3971740c37c8d6707",
      "blockNumber": "0x17",
      "gasUsed": "0x109dd",
      "effectiveGasPrice": "0x3595487",
      "blobGasPrice": "0x1",
      "from": "0xf39fd6e51aad88f6f4ce6ab8827279cfffb92266",
      "to": "0xc6e7df5e7b4f2a278906862b61205850344d4e7d",
      "contractAddress": null
    },
    {
      "type": "0x2",
      "status": "0x1",
      "cumulativeGasUsed": "0x6ba37",
      "logs": [],
      "logsBloom": "0x00000000000000000000000000000000000000000000000000000000000000000000000000000000000000000000000000000000000000000000000000000000000000000000000000000000000000000000000000000000000000000000000000000000000000000000000000000000000000000000000000000000000000000000000000000000000000000000000000000000000000000000000000000000000000000000000000000000000000000000000000000000000000000000000000000000000000000000000000000000000000000000000000000000000000000000000000000000000000000000000000000000000000000000000000000000",
      "transactionHash": "0x097b49e3720225196224330c7bfbd9b2276bd6c4d3a7df888ff86fd5f0213607",
      "transactionIndex": "0x0",
      "blockHash": "0xe7197bf3e695d9d002b6f76e7ff8f948b984f24d08a348337f7a86270393dc34",
      "blockNumber": "0x18",
      "gasUsed": "0x6ba37",
      "effectiveGasPrice": "0x2eea672",
      "blobGasPrice": "0x1",
      "from": "0xf39fd6e51aad88f6f4ce6ab8827279cfffb92266",
      "to": null,
      "contractAddress": "0x322813fd9a801c5507c9de605d63cea4f2ce6c44"
    }
  ],
  "libraries": [],
  "pending": [],
  "returns": {},
  "timestamp": 1781502956246,
  "chain": 31337,
  "commit": "a3e297f"
}