{
  "transactions": [
    {
      "hash": "0xfb42571e391a039aaf9b7591f2d65cf96a4a5be1b5ccc307ad6390a0c84ed20e",
      "transactionType": "CREATE",
      "contractName": "World",
      "contractAddress": "0xf00bbabf53cafc5b7d8282f7e152121dc4140a17",
      "function": null,
      "arguments": null,
      "transaction": {
        "from": "0xa3327d90d087cdddfb99e598e50b5bdee7fc55bd",
        "to": null,
        "gas": "0x229ac0",
        "value": "0x0",
        "input": "0x6080806040523460de5760017f9b779b17422d0df92223018b32b4d1fa46e071723d6817e2486d003becc55f0055331560cb57600180546001600160a01b03199081169091555f805433928116831782557f2ff4f36f7bcd5d4c260c49696c9d2b7c01d486e2d5ef32b48da03461a743dfe893602093909290916001600160a01b0316907f8be0079c531659141344cd1fd0a4f28419497f9722a3daafe3b4186f6b6457e09080a36d6e657875732e776f726c642e763160901b8152a160405161126590816100e38239f35b631e4fbdf760e01b5f525f60045260245ffd5b5f80fdfe60806040526004361015610011575f80fd5b5f3560e01c806301b9b47c146101545780631a6aae401461014f57806323e8492c1461014a57806334be086f146101455780633ae7af0814610140578063505a181d1461013b57806364260f6914610136578063715018a61461013157806379ba50971461012c5780637da0a8771461012757806388eea6f1146101225780638da5cb5b1461011d5780638e50f019146101185780638f1ac17514610113578063cc49db7e1461010e578063da74222814610109578063e06c193914610104578063e06f8741146100ff578063e30c3978146100fa5763f2fde38b146100f5575f80fd5b610bd1565b610ba9565b610b28565b610a80565b6109cf565b61093a565b6108c6565b610888565b610861565b6107e4565b6107bc565b610737565b6106d4565b6106a5565b610570565b6103f0565b610298565b610236565b6101b0565b34610180575f366003190112610180576040516d6e657875732e776f726c642e763160901b8152602090f35b5f80fd5b602435906001600160a01b038216820361018057565b600435906001600160a01b038216820361018057565b34610180576040366003190112610180576004356101cc610184565b6101d4611198565b6001600160a01b0316908115610227575f81815260036020526040812080546001600160a01b031916841790557fabe1e2e80b5aa04850ff2ee6b99521af71175d49133ecbf7c9e790f6c92c980a9080a3005b6319c0958960e01b5f5260045ffd5b34610180576020366003190112610180576004355f526003602052602060018060a01b0360405f205416604051908152f35b9181601f84011215610180578235916001600160401b038311610180576020808501948460051b01011161018057565b34610180576080366003190112610180576004356024356044356064356001600160401b038111610180576102d1903690600401610268565b92906102db611198565b845f52600260205260ff60405f205416610378577f27b93ae2f1d204f7d28eaeab23952d8f33aedaa7b17dfbbe85ac96286df3be15936103739161036760405161032481610c57565b60018152856020820152866040820152885f52600260205260405f209060406002918051151560ff80198654169116178455602081015160018501550151910155565b60405194859485610cb8565b0390a2005b84631779e62d60e01b5f5260045260245ffd5b9181601f84011215610180578235916001600160401b038311610180576020838186019501011161018057565b805180835260209291819084018484015e5f828201840152601f01601f1916010190565b9060206103ed9281815201906103b8565b90565b34610180576040366003190112610180576004356024356001600160401b0381116101805761042390369060040161038b565b60027f9b779b17422d0df92223018b32b4d1fa46e071723d6817e2486d003becc55f00939293541461052e5760027f9b779b17422d0df92223018b32b4d1fa46e071723d6817e2486d003becc55f00555f828152600360205260409020546001600160a01b031691821561051c575f80848682866104c56104a26111ab565b916104b7604051938492602084019788610d57565b03601f198101835282610c77565b51925af16104d1610d7a565b9015610514576105109061050460017f9b779b17422d0df92223018b32b4d1fa46e071723d6817e2486d003becc55f0055565b604051918291826103dc565b0390f35b602081519101fd5b63c6c0143760e01b5f5260045260245ffd5b633ee5aeb560e01b5f5260045ffd5b9060406003198301126101805760043591602435906001600160401b0382116101805761056c91600401610268565b9091565b346101805761057e3661053d565b906105a261059e610597855f52600260205260405f2090565b5460ff1690565b1590565b610691576105d361059e6105976105c1865f52600860205260405f2090565b335f9081526020919091526040902090565b61067957908161066a61066061060a847f0e1f72f429eb97e64878619984a91e687ae91610348b9ff4216782cc96e49d07966111f1565b610635610630826106238a5f52600460205260405f2090565b905f5260205260405f2090565b610e06565b61064e610630826106238a5f52600560205260405f2090565b610623875f52600660205260405f2090565b805460ff19169055565b61037360405192839283610e8a565b6324a2ac1960e01b5f5260048390523360245260445ffd5b632fa7919d60e01b5f52600483905260245ffd5b34610180576020366003190112610180576004355f526002602052602060ff60405f2054166040519015158152f35b34610180575f366003190112610180576106ec611198565b600180546001600160a01b03199081169091555f80549182168155906001600160a01b03167f8be0079c531659141344cd1fd0a4f28419497f9722a3daafe3b4186f6b6457e08280a3005b34610180575f36600319011261018057600154336001600160a01b03909116036107a957600180546001600160a01b03199081169091555f805433928116831782556001600160a01b0316907f8be0079c531659141344cd1fd0a4f28419497f9722a3daafe3b4186f6b6457e09080a3005b63118cdaa760e01b5f523360045260245ffd5b34610180575f366003190112610180576007546040516001600160a01b039091168152602090f35b3461018057604036600319011261018057600435610800610184565b610808611198565b5f8281526008602090815260408083206001600160a01b03851684529091529020805460ff191690556001600160a01b0316907fb8e0d7351489acd9da4456b5acdd3672b9d3f8d48155f59b3763284be3c60f1b5f80a3005b34610180575f366003190112610180575f546040516001600160a01b039091168152602090f35b34610180576108ad6108993661053d565b9092915f52600660205260405f20926111f1565b5f52602052602060ff60405f2054166040519015158152f35b3461018057604036600319011261018057602060ff6109096004356108e9610184565b905f526008845260405f209060018060a01b03165f5260205260405f2090565b54166040519015158152f35b909161092c6103ed936040845260408401906103b8565b9160208184039101526103b8565b34610180576109483661053d565b90825f52600260205260ff60405f205416156109bc576109a06109716109ac936109a6936111f1565b845f52600460205260405f20815f5260205260405f20945f52600560205260405f20905f5260205260405f2090565b92610e9b565b91610e9b565b9061051060405192839283610915565b82632fa7919d60e01b5f5260045260245ffd5b34610180576020366003190112610180576109e861019a565b6109f0611198565b600754906001600160a01b038216610a43576001600160a01b03166001600160a01b03199190911681176007557f5c8f05824c40a2cedd1ec7245f574909327c72a46448be0e4c12bcb4f5bf42c05f80a2005b60405162461bcd60e51b8152602060048201526015602482015274199bdc9dd85c99195c88185b1c9958591e481cd95d605a1b6044820152606490fd5b3461018057604036600319011261018057600435610a9c610184565b610aa4611198565b815f52600260205260ff60405f20541615610b15575f8281526008602090815260408083206001600160a01b03851684529091529020805460ff191660011790556001600160a01b0316907f87675c9926489679e8472a7ecfddd7f514ac1c6a0134118dcab3db14f581f11a5f80a3005b50632fa7919d60e01b5f5260045260245ffd5b34610180576080366003190112610180576004356024356001600160401b03811161018057610b5b903690600401610268565b916044356001600160401b03811161018057610b7b90369060040161038b565b90606435946001600160401b03861161018057610b9f610ba796369060040161038b565b95909461107e565b005b34610180575f366003190112610180576001546040516001600160a01b039091168152602090f35b3461018057602036600319011261018057610bea61019a565b610bf2611198565b60018060a01b0316806bffffffffffffffffffffffff60a01b600154161760015560018060a01b035f54167f38d16b8cac22d99fc7c124b9cd0de2d3fa1faef420bfe791d8c362d765e227005f80a3005b634e487b7160e01b5f52604160045260245ffd5b606081019081106001600160401b03821117610c7257604052565b610c43565b90601f801991011681019081106001600160401b03821117610c7257604052565b908060209392818452848401375f828201840152601f01601f1916010190565b93919082916060860191865260208601526060604086015252608083019060808160051b85010193835f91601e1982360301905b848410610cfd575050505050505090565b90919293949596607f1982820301875287358381121561018057840190602082359201916001600160401b03811161018057803603831361018057610d486020928392600195610c98565b99019701959401929190610cec565b826014949392823701906bffffffffffffffffffffffff199060601b1681520190565b3d15610db3573d906001600160401b038211610c725760405191610da8601f8201601f191660200184610c77565b82523d5f602084013e565b606090565b90600182811c92168015610de6575b6020831014610dd257565b634e487b7160e01b5f52602260045260245ffd5b91607f1691610dc7565b818110610dfb575050565b5f8155600101610df0565b610e108154610db8565b9081610e1a575050565b81601f5f9311600114610e2c5750555b565b81835260208320610e4891601f0160051c810190600101610df0565b808252602082209081548360011b9084198560031b1c191617905555565b81835290916001600160fb1b0383116101805760209260051b809284830137010190565b9160206103ed938181520191610e66565b9060405191825f825492610eae84610db8565b8084529360018116908115610f175750600114610ed3575b50610e2a92500383610c77565b90505f9291925260205f20905f915b818310610efb575050906020610e2a928201015f610ec6565b6020919350806001915483858901015201910190918492610ee2565b905060209250610e2a94915060ff191682840152151560051b8201015f610ec6565b9190601f8111610f4857505050565b610e2a925f5260205f20906020601f840160051c83019310610f72575b601f0160051c0190610df0565b9091508190610f65565b9092916001600160401b038111610c7257610fa181610f9b8454610db8565b84610f39565b5f601f8211600114610fdf578190610fd09394955f92610fd4575b50508160011b915f199060031b1c19161790565b9055565b013590505f80610fbc565b601f19821694610ff2845f5260205f2090565b915f5b87811061102c575083600195969710611013575b505050811b019055565b01355f19600384901b60f8161c191690555f8080611009565b90926020600181928686013581550194019101610ff5565b949290936110626103ed979561107094606089526060890191610e66565b918683036020880152610c98565b926040818503910152610c98565b959294919493909360ff61109a885f52600260205260405f2090565b541615611185576110c160ff6110bb6105c18a5f52600860205260405f2090565b54161590565b61116d579183916111689361115c61114f61062361113d8a998761112a8f7f4152a3ff4b6805e40a4f8c241bcc539b19cfde7c8e2ab2c23b79b83ad875d7879f9e8f61110c916111f1565b958161112f8c8c61112a8b61062381985f52600460205260405f2090565b610f7c565b5f52600560205260405f2090565b6106238c5f52600660205260405f2090565b805460ff19166001179055565b60405196879687611044565b0390a2565b6324a2ac1960e01b5f5260048790523360245260445ffd5b86632fa7919d60e01b5f5260045260245ffd5b5f546001600160a01b031633036107a957565b60018060a01b036007541680331490816111e7575b50806111dc575b156111d85736601319013560601c90565b3390565b5060143610156111c7565b905015155f6111c0565b604051602081019290916001600160fb1b03821161018057826020916112299360051b8091873781010301601f198101835282610c77565b5190209056fea26469706673582212207f8afcb0dc18b75bda9250afe9ee4f304455396b4e8314e48e39f0f803656c2664736f6c634300081b0033",
        "nonce": "0x57",
        "chainId": "0x138b"
      },
      "additionalContracts": [],
      "isFixedGasLimit": false
    },
    {
      "hash": "0x3b4ce2a86c4b731133de8298590ade7b243bdf4ad00084f08caf040436734e9f",
      "transactionType": "CREATE",
      "contractName": "NexusDelegationManager",
      "contractAddress": "0x074e3eab397ab173b352a41112e43cc553e1e160",
      "function": null,
      "arguments": null,
      "transaction": {
        "from": "0xa3327d90d087cdddfb99e598e50b5bdee7fc55bd",
        "to": null,
        "gas": "0x1c7074",
        "value": "0x0",
        "input": "0x6080806040523460395760017f9b779b17422d0df92223018b32b4d1fa46e071723d6817e2486d003becc55f0055610f52908161003e8239f35b5f80fdfe60806040526004361015610011575f80fd5b5f3560e01c806320a99259146100845780633ab351411461007f578063c66f57751461007a578063cef6d20914610075578063e7a324dc14610070578063f698da251461006b5763f6a0d60e14610066575f80fd5b6106a5565b61068b565b610651565b610177565b61010d565b6100e4565b346100ad5760206100a56100a03661009b366100b1565b6108ab565b610a45565b604051908152f35b5f80fd5b60206003198201126100ad57600435906001600160401b0382116100ad5760e09082900360031901126100ad5760040190565b346100ad5760206100a56100fe6100a03661009b366100b1565b610bce565b5f9103126100ad57565b346100ad575f3660031901126100ad5760206040517f0ac12fd0d048a93db567c251b7987a4a005aa4fb208af047aa3e7ef45fbde44a8152f35b9181601f840112156100ad578235916001600160401b0383116100ad576020808501948460051b0101116100ad57565b346100ad5760603660031901126100ad576004356001600160401b0381116100ad576101a7903690600401610147565b906024356001600160401b0381116100ad576101c7903690600401610147565b926044356001600160401b0381116100ad576101e7903690600401610147565b92909160027f9b779b17422d0df92223018b32b4d1fa46e071723d6817e2486d003becc55f0054146106425760027f9b779b17422d0df92223018b32b4d1fa46e071723d6817e2486d003becc55f0055858114801590610638575b610629575f5b81811061027a5761027860017f9b779b17422d0df92223018b32b4d1fa46e071723d6817e2486d003becc55f0055565b005b610285818388610957565b9088831015610624578260051b850135906102af6102a4858a8a610957565b929094810190610c01565b9060408201518061061357506102c482610a45565b926102ce84610bce565b6020840180519094916102f9916102f591906001600160a01b03169060c085015191610da0565b1590565b6106045780516001600160a01b031680151581816105f9575b506105da575060a081018051156105cb57610334865f525f60205260405f2090565b54905111156105b757606090610351865f525f60205260405f2090565b61035b8154610c29565b90550194855151915f5b83811061051957506103778483610e21565b9091809a939a61050a5788516040515f94859460208301936103b79284926103a9926001600160a01b03169187610d03565b03601f198101835282610702565b51918c5af16103c4610d26565b90156104ec57505f5b8481106104375750509351600197969594506001600160a01b039350831691506103f49050565b6040516001600160a01b039490941684523393911691907fe9722854338cd73cea002385d9c62274a72c2b221ec88de41046ffbcb808041190602090a401610248565b610442818351610c4b565b5180519091906104689061045c906001600160a01b031681565b6001600160a01b031690565b602083015160409093015189516001600160a01b03169391803b156100ad57865f89936104b38f968e9984986040519b8c998a98899763d3eddcc560e01b8952339660048a01610c83565b03925af19182156104e7576001926104cd575b50016103cd565b806104db5f6104e193610702565b80610103565b5f6104c6565b610cf8565b8051156104fb57602081519101fd5b632b3f6d1160e21b5f5260045ffd5b63ce3f0ecf60e01b5f5260045ffd5b610524818951610c4b565b51805190919061053e9061045c906001600160a01b031681565b602083015160409093015188516001600160a01b03169391803b156100ad57855f889361058982968f998e9a6040519b8c998a9889976350a2c19560e11b8952339660048a01610c83565b03925af19182156104e7576001926105a3575b5001610365565b806104db5f6105b193610702565b5f61059c565b639963a38560e01b5f52600485905260245ffd5b630119741f60e71b5f5260045ffd5b6377eecd4b60e01b5f526001600160a01b03166004523360245260445ffd5b90503314155f610312565b63dc176d7560e01b5f5260045ffd5b6259164d60e21b5f5260045260245ffd5b610943565b6305f8ded760e21b5f5260045ffd5b5083861415610242565b633ee5aeb560e01b5f5260045ffd5b346100ad575f3660031901126100ad5760206040517f39441c1b080a193e9695c122526cd6d53a221f04a4a0989b105a37477b4f9d138152f35b346100ad575f3660031901126100ad5760206100a5610998565b346100ad5760203660031901126100ad576004355f525f602052602060405f2054604051908152f35b634e487b7160e01b5f52604160045260245ffd5b606081019081106001600160401b038211176106fd57604052565b6106ce565b90601f801991011681019081106001600160401b038211176106fd57604052565b6040519061073260e083610702565b565b35906001600160a01b03821682036100ad57565b6001600160401b0381116106fd5760051b60200190565b6001600160401b0381116106fd57601f01601f191660200190565b81601f820112156100ad578035906107918261075f565b9261079f6040519485610702565b828452602083830101116100ad57815f926020809301838601378301015290565b9080601f830112156100ad578135916107d883610748565b926107e66040519485610702565b80845260208085019160051b830101918383116100ad5760208101915b83831061081257505050505090565b82356001600160401b0381116100ad578201906060828703601f1901126100ad5760405190610840826106e2565b61084c60208401610734565b825260408301356001600160401b0381116100ad578760206108709286010161077a565b60208301526060830135916001600160401b0383116100ad5761089b8860208096958196010161077a565b6040820152815201920191610803565b91909160e0818403126100ad576108c0610723565b926108ca82610734565b84526108d860208301610734565b60208501526040820135604085015260608201356001600160401b0381116100ad57816109069184016107c0565b60608501526080820135608085015260a082013560a085015260c08201356001600160401b0381116100ad5761093c920161077a565b60c0830152565b634e487b7160e01b5f52603260045260245ffd5b91908110156106245760051b81013590601e19813603018212156100ad5701908135916001600160401b0383116100ad5760200182360381136100ad579190565b60406015602082516109aa8482610702565b82815201742732bc3ab99023b0b6b2902232b632b3b0ba34b7b760591b815220610a3f6001602084516109dd8682610702565b828152603160f81b91019081522083517f8b73c3c69bb8fe3d512ecc4cf759cc79239f7b179b0ffacaa9a75d522b39400f60208083019182526040830195909552948101909301524660808301523060a080840191909152825260c082610702565b51902090565b805160208201516040830151606084015180519095909390926001600160a01b03918216929116610a7585610748565b94610a836040519687610702565b808652610a92601f1991610748565b013660208701375f5b8751811015610b325780610ab16001928a610c4b565b51828060a01b03815116906040602082015160208151910120910151602081519101206040519160208301937f0ac12fd0d048a93db567c251b7987a4a005aa4fb208af047aa3e7ef45fbde44a855260408401526060830152608082015260808152610b1e60a082610702565b519020610b2b8289610c4b565b5201610a9b565b509194610a3f9396506103a99194604051610b55816103a9602082018095610d55565b5190209060a060808201519101519160405196879560208701998a9260c094919796959260e08501987f39441c1b080a193e9695c122526cd6d53a221f04a4a0989b105a37477b4f9d13865260018060a01b0316602086015260018060a01b031660408501526060840152608083015260a08201520152565b610bd6610998565b9060405190602082019261190160f01b84526022830152604282015260428152610a3f606282610702565b906020828203126100ad5781356001600160401b0381116100ad57610c2692016108ab565b90565b9060018201809211610c3757565b634e487b7160e01b5f52601160045260245ffd5b80518210156106245760209160051b010190565b805180835260209291819084018484015e5f828201840152601f01601f1916010190565b96939460c096999895610cb360209594610ca6849560e08d5260e08d0190610c5f565b908b8203888d0152610c5f565b9360408a015288840360608a0152818452848401375f838284010152601f8019910116010195608085015260018060a01b031660a084015260018060a01b0316910152565b6040513d5f823e3d90fd5b826014949392823701906bffffffffffffffffffffffff199060601b1681520190565b3d15610d50573d90610d378261075f565b91610d456040519384610702565b82523d5f602084013e565b606090565b80516020909101905f5b818110610d6c5750505090565b8251845260209384019390920191600101610d5f565b60041115610d8c57565b634e487b7160e01b5f52602160045260245ffd5b9190823b610ddb5790610db291610e60565b50610dbc81610d82565b159182610dc857505090565b6001600160a01b03918216911614919050565b916020926064835f94519060405193630b135d3f60e11b855260048501526040602485015286820190604485015e01915afa630b135d3f60e11b5f5114601f3d11161690565b9060348110610e5157806014116100ad57813560601c92816034116100ad57601483013592603401916033190190565b6304bc946d60e21b5f5260045ffd5b8151919060418303610e9057610e899250602082015190606060408401519301515f1a90610e9a565b9192909190565b50505f9160029190565b91907f7fffffffffffffffffffffffffffffff5d576e7357a4501ddfe92f46681b20a08411610f11579160209360809260ff5f9560405194855216868401526040830152606082015282805260015afa156104e7575f516001600160a01b03811615610f0757905f905f90565b505f906001905f90565b5050505f916003919056fea264697066735822122013ece42ecb0221325271cd09666392336f473bfd3c3e3a1102456ec3a563be8064736f6c634300081b0033",
        "nonce": "0x58",
        "chainId": "0x138b"
      },
      "additionalContracts": [],
      "isFixedGasLimit": false
    },
    {
      "hash": "0xc4281b7faabdcf9fa743a19151c248000367923ba1d049318c0740b26237b827",
      "transactionType": "CREATE",
      "contractName": "TurnManager",
      "contractAddress": "0xde30eec3d9dce76e3404b2f2c9f615bab6857639",
      "function": null,
      "arguments": [
        "0xA3327d90d087cdddfB99E598E50B5Bdee7fC55bD"
      ],
      "transaction": {
        "from": "0xa3327d90d087cdddfb99e598e50b5bdee7fc55bd",
        "to": null,
        "gas": "0x170238",
        "value": "0x0",
        "input": "0x608034608657601f610c4f38819003918201601f19168301916001600160401b03831184841017608a57808492602094604052833981010312608657516001600160a01b03811690819003608657600180546001600160a01b031916821781555f9182526002602052604091829020805460ff1916909117905551610bb0908161009f8239f35b5f80fd5b634e487b7160e01b5f52604160045260245ffdfe60806040526004361015610011575f80fd5b5f3560e01c806308148f7a146108865780632d1fb389146107ff5780634e0f5cc81461078a578063592139fa1461040857806371d6ddd6146103585780637fafd198146102785780639acda3bb14610251578063b55991c0146101f6578063b9181611146101b9578063bdc0b893146100fe578063ddc2a251146100c95763f851a4401461009d575f80fd5b346100c5575f3660031901126100c5576001546040516001600160a01b039091168152602090f35b5f80fd5b346100c55760203660031901126100c5576004355f526003602052602060018060a01b0360405f205460081c16604051908152f35b346100c55760403660031901126100c557600435602435805f0b908181036100c557335f52600260205260ff60405f205416156101aa57825f52600360205260405f209160ff835416156101975761018e6020927f8585ca6c14a7521ff67de5b6d318798eea1e29d834a7a0c90a6d9e644fc0cb48949081549060e81b60ff60e81b169060ff60e81b1916179055565b604051908152a2005b83635ef804d360e11b5f5260045260245ffd5b638744ddab60e01b5f5260045ffd5b346100c55760203660031901126100c5576001600160a01b036101da610941565b165f526002602052602060ff60405f2054166040519015158152f35b346100c55760203660031901126100c5576004355f526003602052608060405f20546040519060018060a01b038160081c1682526001600160401b038160a81c1660208301528060e81c5f0b604083015260f01c6060820152f35b346100c5575f3660031901126100c5575f546040516001600160a01b039091168152602090f35b346100c55760203660031901126100c5576004355f52600460205260405f2060405190816020825491828152019081925f5260205f20905f5b81811061033957505050829003601f01601f191682016001600160401b038111838210176103255760408181526020808352845190830181905291928392918301915f5b818110610303575050500390f35b82516001600160a01b03168452859450602093840193909201916001016102f5565b634e487b7160e01b5f52604160045260245ffd5b82546001600160a01b03168452602090930192600192830192016102b1565b346100c55760203660031901126100c557600435335f52600260205260ff60405f205416156101aa57805f52600360205260405f2060ff815416156103f5576060816103c57f60e5eb7454f554532b1c1395d15c4ccfc8a63ac174b76ad8fe87a78e8e813e4c9385610a42565b546001600160401b036040519160018060a01b038160081c1683528060f01c602084015260a81c166040820152a2005b50635ef804d360e11b5f5260045260245ffd5b346100c55760603660031901126100c5576004356024356001600160401b0381116100c557366023820112156100c5578060040135906001600160401b0382116100c5576024810190602436918460051b0101116100c5576044356001600160401b038116908181036100c557335f52600260205260ff60405f205416156101aa57831561077b57845f52600360205260ff60405f20541661076857845f52600460205260405f208054905f81558161074a575b50505f5b84811061069257506104db906001600160401b0343166109a4565b906104e58361097b565b60405160c08101908082106001600160401b038311176103255761060761ffff896105e76001600160401b03966001966040528686526020860190878060a01b031681526105ca8880604089019c169b8c81526105a260608a01948b865260808b01975f895260a08c019e8f525f52600360205261057660405f209b5115158c9060ff801983541691151516179055565b518a54610100600160a81b03191660a08d901b8d90039190911660081b610100600160a81b0316178a55565b51885467ffffffffffffffff60a81b1916911660a81b67ffffffffffffffff60a81b16178755565b51855460e89190911b60ff60e81b1660ff60e81b19909116178555565b5183546001600160f01b0316911660f01b6001600160f01b031916178255565b019151166001600160401b031982541617905560405192806040850160408652526060840192905f905b80821061066857867fa4663596238e958f20b25cc69bc3648d070a6628c207d1a233185cbd3c280ef18780888860208301520390a2005b90919384359060018060a01b0382168092036100c557602081600193829352019501920190610631565b855f52600460205260405f206106b16106ac838888610957565b61097b565b90805468010000000000000000811015610325576106d49160018201815561098f565b81546001600160a01b0393841660039290921b91821b9390911b1916919091179055600181019081811161073657600191875f52600560205260405f2061071f6106ac848a8a610957565b848060a01b03165f5260205260405f2055016104c0565b634e487b7160e01b5f52601160045260245ffd5b5f5260205f20908101905b818110156104bc575f8155600101610755565b846355dd109360e01b5f5260045260245ffd5b630ceba8cf60e01b5f5260045ffd5b346100c55760203660031901126100c5576107a3610941565b6001546001600160a01b031633036107f0575f54906001600160a01b0382166107e1576001600160a01b03166001600160a01b031991909116175f55005b63eff465d760e01b5f5260045ffd5b632ca0794560e01b5f5260045ffd5b346100c55760403660031901126100c557610818610941565b60243590811515908183036100c5576001546001600160a01b031633036107f0577ff8b32f4ee3245ed08b1112f5d0f235cd6703b644bbbc9d3d5885adabd99447bd9161018e60209260018060a01b031694855f526002845260405f209060ff801983541691151516179055565b346100c55760203660031901126100c557600435805f52600360205260405f2080549060ff82161561092e576001600160401b038260a81c1643111561091b577f51647d6db4db87608227623c4a03f901d89237aad859c019d7afdc5bacd658d9916040916108fd6108f66109c4565b9186610a42565b825160089290921c6001600160a01b039081168352166020820152a2005b82638bc1d3ab60e01b5f5260045260245ffd5b82635ef804d360e11b5f5260045260245ffd5b600435906001600160a01b03821682036100c557565b91908110156109675760051b0190565b634e487b7160e01b5f52603260045260245ffd5b356001600160a01b03811681036100c55790565b8054821015610967575f5260205f2001905f90565b906001600160401b03809116911601906001600160401b03821161073657565b5f546001600160a01b0316338114908180610a1b575b6109e45750503390565b81610a11575b5080610a06575b15610a025736601319013560601c90565b3390565b5060143610156109f1565b905015155f6109ea565b508015156109da565b8115610a2e570690565b634e487b7160e01b5f52601260045260245ffd5b5f9081526004602090815260408083208054600584528285208654600881901c6001600160a01b031687529452919093205490915f19820190828211610736575f60e89190911c810b12610b51575091610aa2610aa892610ad094610a24565b9061098f565b90548354610100600160a81b03191660039290921b1c60081b610100600160a81b0316178255565b6001815460f01c019061ffff82116107365780546001600160f01b031660f09290921b6001600160f01b031916919091178155610b4f90610b276001600160401b036001830154166001600160401b0343166109a4565b815467ffffffffffffffff60a81b191660a89190911b67ffffffffffffffff60a81b16179055565b565b9082015f190192908310610736575f19830192831161073657610aa2610aa892610ad094610a2456fea2646970667358221220f03e0b065f1f4f9742ba7e0876bad76735d57ef19079f0f5f3c20428b325a0de64736f6c634300081b0033000000000000000000000000a3327d90d087cdddfb99e598e50b5bdee7fc55bd",
        "nonce": "0x59",
        "chainId": "0x138b"
      },
      "additionalContracts": [],
      "isFixedGasLimit": false
    },
    {
      "hash": "0xd7f9c3241e37c8f2ff62d7d996e2c2afcb50aed6d09b3fec96e21dab0eadc8fb",
      "transactionType": "CREATE",
      "contractName": "RandomnessCoordinator",
      "contractAddress": "0x17bd7bf5c4a40aeb66fd8d7969c191ed32eac39b",
      "function": null,
      "arguments": null,
      "transaction": {
        "from": "0xa3327d90d087cdddfb99e598e50b5bdee7fc55bd",
        "to": null,
        "gas": "0xd98e2",
        "value": "0x0",
        "input": "0x608080604052346019576001805561069a908161001e8239f35b5f80fdfe6080806040526004361015610012575f80fd5b5f3560e01c908163181b1fe8146105e3575080634036778f1461045357806349ce8997146103f35780635b0a789b146103625780636a84a98514610345578063b0caa742146102245763c8820a1614610069575f80fd5b346102205760603660031901126102205760043560243560ff81168091036102205760443560ff811680910361022057811591828015610218575b610209576100b18261064c565b936100bf604051958661061c565b8285526100cb8361064c565b93806020870195601f19013687376101bc57825f190619915f5b858110610133578688604051918291602083019060208452518091526040830191905f5b818110610117575050500390f35b825160ff16845285945060209384019390920191600101610109565b60405160208101908382528260408201526040815261015360608261061c565b5190205f5b858210156101d05750836101bc5785900690600182018092116101a85788518110156101945760ff6001921660208260051b8b010152016100e5565b634e487b7160e01b5f52603260045260245ffd5b634e487b7160e01b5f52601160045260245ffd5b634e487b7160e01b5f52601260045260245ffd5b6101da915061063e565b60405160208101908482528360408201528260608201526060815261020060808261061c565b51902090610158565b633c02373360e21b5f5260045ffd5b5081156100a4565b5f80fd5b34610220576020366003190112610220576004356001546102448161063e565b60015567ffffffffffffffff43169160405192608084019380851067ffffffffffffffff8611176103315760209460405233815284810183815267ffffffffffffffff6002604084019385855260608101935f8552885f525f8a5260405f209160018060a01b039051166bffffffffffffffffffffffff60a01b8354161782555160018201550192511667ffffffffffffffff1983541617825551151560ff60401b82549160401b169060ff60401b191617905560405191825283820152817f19148ed9f7c7e50a85fd5271b12ef4372fb3c27ace4a7ac8de87f32709d0f72d60403393a3604051908152f35b634e487b7160e01b5f52604160045260245ffd5b34610220575f366003190112610220576020600154604051908152f35b34610220575f36600319011261022057335f526002602052602060405f2080549061038c8261063e565b9055604051828101904482524260408201523360601b6060820152826074820152607481526103bc60948261061c565b519020906040518281527fd8cc16a65d72177b2867ad1a15bb6b21d0e93220fdd47e8e67c3690de5f6502f843392a3604051908152f35b34610220576020366003190112610220576004355f525f602052608060405f2060ff60018060a01b03825416916002600182015491015490604051938452602084015267ffffffffffffffff8116604084015260401c1615156060820152f35b34610220576040366003190112610220576004355f81815260208190526040902080549091906001600160a01b038116906024359082156105d0573383036105b957600285019081549567ffffffffffffffff871690814311156105a65760ff8860401c166105935760016040516020810190878252602081526104d860408261061c565b51902091015403610580574091821561056d576801000000000000000060209760ff60401b19161790556040519186830193845260408301526bffffffffffffffffffffffff199060601b1660608201526054815261053860748261061c565b519020917ff87397f8ccf18c41bfee81144299ad64e11085c5a27b280fde98beeefd3e71bd84604051858152a3604051908152f35b8563196aecc160e01b5f5260045260245ffd5b85635af7396b60e01b5f5260045260245ffd5b8663c3f90a6b60e01b5f5260045260245ffd5b86631cbf788b60e21b5f5260045260245ffd5b83631a75e40360e31b5f526004523360245260445ffd5b83630347736d60e51b5f5260045260245ffd5b34610220576020366003190112610220576004356001600160a01b0381169190829003610220576020915f526002825260405f20548152f35b90601f8019910116810190811067ffffffffffffffff82111761033157604052565b5f1981146101a85760010190565b67ffffffffffffffff81116103315760051b6020019056fea2646970667358221220b33c81df97dbee5833e9e48ec808068401919fcc3b5e372fd160cb8b82d7a4e464736f6c634300081b0033",
        "nonce": "0x5a",
        "chainId": "0x138b"
      },
      "additionalContracts": [],
      "isFixedGasLimit": false
    },
    {
      "hash": "0xe87eac4a0bcdcbcfd97d321bf2e2b2bf9b8e0d304314cfa29ff03c7b21a738e4",
      "transactionType": "CREATE",
      "contractName": "UnoGameSystem",
      "contractAddress": "0x5858e4f3b02247049be9e674fa4e39873aac8cbb",
      "function": null,
      "arguments": [
        "0xDe30Eec3D9dCe76e3404B2f2c9F615BAb6857639"
      ],
      "transaction": {
        "from": "0xa3327d90d087cdddfb99e598e50b5bdee7fc55bd",
        "to": null,
        "gas": "0x19ea40",
        "value": "0x0",
        "input": "0x60a03461008a57601f610e7238819003918201601f19168301916001600160401b0383118484101761008e5780849260209460405283398101031261008a57516001600160a01b038116810361008a57608052600180546001600160a01b03191633179055604051610dcf90816100a38239608051818181610398015281816104b9015261074d0152f35b5f80fd5b634e487b7160e01b5f52604160045260245ffdfe6080806040526004361015610012575f80fd5b5f905f3560e01c90816343e1c25114610442575080634e0f5cc8146103c757806355ed6e7b14610382578063616ef0d11461033a578063762fb8d3146102a55780638cb5d700146102725780639acda3bb1461024b578063dc672fea1461012d578063f14be32d146100b75763f851a4401461008c575f80fd5b346100b457806003193601126100b4576001546040516001600160a01b039091168152602090f35b80fd5b50346100b45760603660031901126100b4576100d1610686565b6100d9610666565b6001549091906001600160a01b0316330361011e5760043583526002602052604083209060018060a01b03165f5260205260ff60405f20911660ff1982541617905580f35b6307d94f7360e41b8352600483fd5b50346100b45760803660031901126100b45760043561014a610656565b610152610666565b61015a610676565b6001549092906001600160a01b0316330361023c5760ff1691600183108015610232575b6102205783855260036020526040852080546001600160a01b03191690557f69c3827781f01390e273374c688f6d6d74e17e8815d094cff263d3790e878ae692606092909161020c6001600160a01b036101d6610982565b16928760ff80604051936101e98561069c565b8885521694856020850152876040850152169485888401528a6080840152610c5c565b60405192835260208301526040820152a280f35b60016203241f60e31b03198552600485fd5b506004831161017e565b6307d94f7360e41b8552600485fd5b50346100b457806003193601126100b457546040516001600160a01b039091168152602090f35b50346100b45760203660031901126100b457602090600435815260038252604060018060a01b0391205416604051908152f35b50346100b45760c03660031901126100b4576102bf610656565b6102c7610666565b6102cf610676565b906084359260ff841684036103365760a4359460ff861686036100b4576001600160a01b036102fc610982565b163303610327576020610315878787878760043561070d565b6040516001600160a01b039091168152f35b637f0cf12160e01b8152600490fd5b8480fd5b50346100b45760403660031901126100b4576040610356610686565b9160043581526002602052209060018060a01b03165f52602052602060ff60405f205416604051908152f35b50346100b457806003193601126100b4576040517f00000000000000000000000000000000000000000000000000000000000000006001600160a01b03168152602090f35b50346100b45760203660031901126100b4576004356001600160a01b0381169081900361043e576001546001600160a01b0316330361042f5781546001600160a01b038116610420576001600160a01b03191617815580f35b63eff465d760e01b8352600483fd5b6307d94f7360e41b8252600482fd5b5080fd5b9050346105e55760603660031901126105e557600435610460610656565b610468610666565b926001600160a01b03610479610982565b1633036106475761048861099a565b5f848152600360205260409020549094906001600160a01b03166106385763ddc2a25160e01b8252600482018490527f00000000000000000000000000000000000000000000000000000000000000006001600160a01b031694602083602481895afa9283156105da575f93610607575b506001600160a01b0390811692168290036105f85760ff1690600182116105e957837f1bbd46da6f6f42667e3e688ceb83d21a78ca21b772f77f94ebd001783c8d027d6020600195835f526002825260405f20855f52825260405f2060ff821660ff1982541617905561058760ff6105718633610ac5565b9216918260608201528660808201528533610c5c565b604051908152a314610597578280f35b813b156105e5575f916024839260405194859384926338eb6eeb60e11b845260048401525af180156105da576105cc57808280f35b6105d891505f906106cc565b005b6040513d5f823e3d90fd5b5f80fd5b63022d34c560e21b5f5260045ffd5b635219bc9b60e11b5f5260045ffd5b61062a91935060203d602011610631575b61062281836106cc565b8101906106ee565b915f6104f9565b503d610618565b636602498960e11b5f5260045ffd5b637f0cf12160e01b5f5260045ffd5b6024359060ff821682036105e557565b6044359060ff821682036105e557565b6064359060ff821682036105e557565b602435906001600160a01b03821682036105e557565b60a0810190811067ffffffffffffffff8211176106b857604052565b634e487b7160e01b5f52604160045260245ffd5b90601f8019910116810190811067ffffffffffffffff8211176106b857604052565b908160209103126105e557516001600160a01b03811681036105e55790565b9291949361071961099a565b5f858152600360205260409020549093906001600160a01b03166106385760405163ddc2a25160e01b8152600481018690527f00000000000000000000000000000000000000000000000000000000000000006001600160a01b03169790936020856024818c5afa9485156105da575f95610961575b506001600160a01b0386811695168590036105f85760ff1690600482116109395760ff1691600e83116109525760ff1696600188108015610948575b6109395760ff169660018810801561092f575b6105e957608087927ff6e1dc6c5072cb66d9033ffcfd7836870d299991e207bce07f095e924dce8fae928795855f52600260205260405f20875f5260205260405f2060ff891660ff1982541617905561086060ff61083c8833610ac5565b99858b528360208c01528460408c0152169889606082015288868201528733610c5c565b60405192835260208301526040820152856060820152a3156108e15750505f5b8260ff82161061089257505050505f90565b833b156105e5576040516338eb6eeb60e11b815260048101839052905f8260248183895af19081156105da5760ff926001926108d1575b500116610880565b5f6108db916106cc565b5f6108c9565b92509250805f52600360205260405f20826bffffffffffffffffffffffff60a01b8254161790557f8c7f7301b9fbf231a1ae7ee823c6d13193ca12e8be3dc110f2c916f24e298a735f80a390565b50600288116107de565b631ffcdbe160e31b5f5260045ffd5b50600488116107cb565b63a064bc1760e01b5f5260045ffd5b61097b91955060203d6020116106315761062281836106cc565b935f61078f565b5f546001600160a01b03168061099757503390565b90565b60018060a01b035f541680331490816109d5575b50806109ca575b156109c65736601319013560601c90565b3390565b5060143610156109b5565b905015155f6109ae565b60408051613a3160f11b60208083019182525f602284015262556e6f60e81b6030840152825291610a1090826106cc565b5190519060208110610a20575090565b5f199060200360031b1b1690565b81601f820112156105e55780519067ffffffffffffffff82116106b85760405192610a63601f8401601f1916602001856106cc565b828452602083830101116105e557815f9260208093018386015e8301015290565b90602080835192838152019201905f5b818110610aa15750505090565b8251845260209384019390920191600101610a94565b519060ff821682036105e557565b91905f610b2f91604051610ad88161069c565b82815282602082015282604082015282606082015282608082015294610b05610aff6109df565b92610d5e565b91604051809581948293636624edbf60e11b84526004840152604060248401526044830190610a84565b03916001600160a01b03165afa9081156105da575f91610bfb575b50805115610bce5760a0818051810103126105e557610b6b60208201610ab7565b610b7760408301610ab7565b91610b8460608201610ab7565b9260a0610b9360808401610ab7565b9201516001600160a01b03811692908390036105e55760ff9485809492819360808b0152166060890152166040870152166020850152168252565b509050604051610bdd8161069c565b5f81525f60208201525f60408201525f60608201525f608082015290565b90503d805f833e610c0c81836106cc565b8101906040818303126105e557805167ffffffffffffffff81116105e55782610c36918301610a2e565b91602082015167ffffffffffffffff81116105e557610c559201610a2e565b505f610b4a565b9082519160ff6020850151169360ff6040820151169060ff60608201511690608060018060a01b0391015116916040519660ff602089019716875260408801526060870152608086015260a085015260a08452610cba60c0856106cc565b6001600160a01b0316610cce610aff6109df565b91813b156105e5575f6020610d07968296604051988997889663e06f874160e01b88526004880152608060248801526084870190610a84565b916003198684030160448701525180918184528484015e83838284010152601f801991011601828280868403019260031984016064880152015201925af180156105da57610d525750565b5f610d5c916106cc565b565b9060405191610d6e6040846106cc565b60018352602080840190368237835115610d855752565b634e487b7160e01b5f52603260045260245ffdfea2646970667358221220164035660ed3d74ce4de8b5961b6d400e572aab47e351fcb73e0adfe213a334264736f6c634300081b0033000000000000000000000000de30eec3d9dce76e3404b2f2c9f615bab6857639",
        "nonce": "0x5b",
        "chainId": "0x138b"
      },
      "additionalContracts": [],
      "isFixedGasLimit": false
    },
    {
      "hash": "0x0e4b8a0897acbf6e25d596b3e036f24275061c4a5e7d42b5267d9364ffae0c3d",
      "transactionType": "CALL",
      "contractName": "World",
      "contractAddress": "0xf00bbabf53cafc5b7d8282f7e152121dc4140a17",
      "function": "registerTable(bytes32,bytes32,bytes32,string[])",
      "arguments": [
        "0x74620000000000000000000000000000556e6f00000000000000000000000000",
        "0x0000000000000000000000000000000000000000000000000000000000000001",
        "0x0000000000000000000000000000000000000000000000000000000000000005",
        "[topColor, topNumber, activeColor, handCount, lastMover]"
      ],
      "transaction": {
        "from": "0xa3327d90d087cdddfb99e598e50b5bdee7fc55bd",
        "to": "0xf00bbabf53cafc5b7d8282f7e152121dc4140a17",
        "gas": "0xe9fa",
        "value": "0x0",
        "input": "0x34be086f74620000000000000000000000000000556e6f00000000000000000000000000000000000000000000000000000000000000000000000000000000000000000100000000000000000000000000000000000000000000000000000000000000050000000000000000000000000000000000000000000000000000000000000080000000000000000000000000000000000000000000000000000000000000000500000000000000000000000000000000000000000000000000000000000000a000000000000000000000000000000000000000000000000000000000000000e00000000000000000000000000000000000000000000000000000000000000120000000000000000000000000000000000000000000000000000000000000016000000000000000000000000000000000000000000000000000000000000001a00000000000000000000000000000000000000000000000000000000000000008746f70436f6c6f720000000000000000000000000000000000000000000000000000000000000000000000000000000000000000000000000000000000000009746f704e756d6265720000000000000000000000000000000000000000000000000000000000000000000000000000000000000000000000000000000000000b616374697665436f6c6f72000000000000000000000000000000000000000000000000000000000000000000000000000000000000000000000000000000000968616e64436f756e74000000000000000000000000000000000000000000000000000000000000000000000000000000000000000000000000000000000000096c6173744d6f7665720000000000000000000000000000000000000000000000",
        "nonce": "0x5c",
        "chainId": "0x138b"
      },
      "additionalContracts": [],
      "isFixedGasLimit": false
    },
    {
      "hash": "0xb147a091625db6f1d1fbc4b69f5c71fd3c53e64284d3d94c6d77ae4328ac5abb",
      "transactionType": "CALL",
      "contractName": "World",
      "contractAddress": "0xf00bbabf53cafc5b7d8282f7e152121dc4140a17",
      "function": "registerSystem(bytes32,address)",
      "arguments": [
        "0x556e6f47616d6500000000000000000000000000000000000000000000000000",
        "0x5858e4f3b02247049Be9E674FA4e39873AAC8Cbb"
      ],
      "transaction": {
        "from": "0xa3327d90d087cdddfb99e598e50b5bdee7fc55bd",
        "to": "0xf00bbabf53cafc5b7d8282f7e152121dc4140a17",
        "gas": "0xb344",
        "value": "0x0",
        "input": "0x1a6aae40556e6f47616d65000000000000000000000000000000000000000000000000000000000000000000000000005858e4f3b02247049be9e674fa4e39873aac8cbb",
        "nonce": "0x5d",
        "chainId": "0x138b"
      },
      "additionalContracts": [],
      "isFixedGasLimit": false
    },
    {
      "hash": "0x8e4a3442023fec8cb3efb1275391653c48d30896351321ab22f94803354e5bba",
      "transactionType": "CALL",
      "contractName": "World",
      "contractAddress": "0xf00bbabf53cafc5b7d8282f7e152121dc4140a17",
      "function": "grantWriteAccess(bytes32,address)",
      "arguments": [
        "0x74620000000000000000000000000000556e6f00000000000000000000000000",
        "0x5858e4f3b02247049Be9E674FA4e39873AAC8Cbb"
      ],
      "transaction": {
        "from": "0xa3327d90d087cdddfb99e598e50b5bdee7fc55bd",
        "to": "0xf00bbabf53cafc5b7d8282f7e152121dc4140a17",
        "gas": "0xb2ca",
        "value": "0x0",
        "input": "0xe06c193974620000000000000000000000000000556e6f000000000000000000000000000000000000000000000000005858e4f3b02247049be9e674fa4e39873aac8cbb",
        "nonce": "0x5e",
        "chainId": "0x138b"
      },
      "additionalContracts": [],
      "isFixedGasLimit": false
    },
    {
      "hash": "0xf69d7138fbabb1034a054906256ddfcadaa6d419b2026efccae722d3973a5472",
      "transactionType": "CALL",
      "contractName": "World",
      "contractAddress": "0xf00bbabf53cafc5b7d8282f7e152121dc4140a17",
      "function": "setTrustedForwarder(address)",
      "arguments": [
        "0x074E3EAB397aB173b352a41112e43cc553E1E160"
      ],
      "transaction": {
        "from": "0xa3327d90d087cdddfb99e598e50b5bdee7fc55bd",
        "to": "0xf00bbabf53cafc5b7d8282f7e152121dc4140a17",
        "gas": "0xaf1c",
        "value": "0x0",
        "input": "0xda742228000000000000000000000000074e3eab397ab173b352a41112e43cc553e1e160",
        "nonce": "0x5f",
        "chainId": "0x138b"
      },
      "additionalContracts": [],
      "isFixedGasLimit": false
    },
    {
      "hash": "0xbb80f0c322db4bd2b048c3a76a3990007a9b58d0e20e1320f071364ee5ca37e6",
      "transactionType": "CALL",
      "contractName": "UnoGameSystem",
      "contractAddress": "0x5858e4f3b02247049be9e674fa4e39873aac8cbb",
      "function": "setTrustedRouter(address)",
      "arguments": [
        "0xF00BbAbF53cAfC5B7D8282f7e152121dC4140A17"
      ],
      "transaction": {
        "from": "0xa3327d90d087cdddfb99e598e50b5bdee7fc55bd",
        "to": "0x5858e4f3b02247049be9e674fa4e39873aac8cbb",
        "gas": "0xaf1c",
        "value": "0x0",
        "input": "0x4e0f5cc8000000000000000000000000f00bbabf53cafc5b7d8282f7e152121dc4140a17",
        "nonce": "0x60",
        "chainId": "0x138b"
      },
      "additionalContracts": [],
      "isFixedGasLimit": false
    },
    {
      "hash": "0xe6d20155e5036ac28a62735e988c0a9b7be8e781b9dbba1c17ee01275103e38e",
      "transactionType": "CALL",
      "contractName": "TurnManager",
      "contractAddress": "0xde30eec3d9dce76e3404b2f2c9f615bab6857639",
      "function": "authorize(address,bool)",
      "arguments": [
        "0x5858e4f3b02247049Be9E674FA4e39873AAC8Cbb",
        "true"
      ],
      "transaction": {
        "from": "0xa3327d90d087cdddfb99e598e50b5bdee7fc55bd",
        "to": "0xde30eec3d9dce76e3404b2f2c9f615bab6857639",
        "gas": "0xb1da",
        "value": "0x0",
        "input": "0x2d1fb3890000000000000000000000005858e4f3b02247049be9e674fa4e39873aac8cbb0000000000000000000000000000000000000000000000000000000000000001",
        "nonce": "0x61",
        "chainId": "0x138b"
      },
      "additionalContracts": [],
      "isFixedGasLimit": false
    },
    {
      "hash": "0x434497dbd1e55dd3c7815293c325d864eb97dc5f91272325807a96c881ca8fc1",
      "transactionType": "CALL",
      "contractName": "TurnManager",
      "contractAddress": "0xde30eec3d9dce76e3404b2f2c9f615bab6857639",
      "function": "authorize(address,bool)",
      "arguments": [
        "0xA3327d90d087cdddfB99E598E50B5Bdee7fC55bD",
        "true"
      ],
      "transaction": {
        "from": "0xa3327d90d087cdddfb99e598e50b5bdee7fc55bd",
        "to": "0xde30eec3d9dce76e3404b2f2c9f615bab6857639",
        "gas": "0xb1da",
        "value": "0x0",
        "input": "0x2d1fb389000000000000000000000000a3327d90d087cdddfb99e598e50b5bdee7fc55bd0000000000000000000000000000000000000000000000000000000000000001",
        "nonce": "0x62",
        "chainId": "0x138b"
      },
      "additionalContracts": [],
      "isFixedGasLimit": false
    },
    {
      "hash": "0xac5bf2650a23394de550ae282bad3f4d7a038bd6bff6e077d2b50e466949c05a",
      "transactionType": "CALL",
      "contractName": "TurnManager",
      "contractAddress": "0xde30eec3d9dce76e3404b2f2c9f615bab6857639",
      "function": "setTrustedRouter(address)",
      "arguments": [
        "0xF00BbAbF53cAfC5B7D8282f7e152121dC4140A17"
      ],
      "transaction": {
        "from": "0xa3327d90d087cdddfb99e598e50b5bdee7fc55bd",
        "to": "0xde30eec3d9dce76e3404b2f2c9f615bab6857639",
        "gas": "0xaf1c",
        "value": "0x0",
        "input": "0x4e0f5cc8000000000000000000000000f00bbabf53cafc5b7d8282f7e152121dc4140a17",
        "nonce": "0x63",
        "chainId": "0x138b"
      },
      "additionalContracts": [],
      "isFixedGasLimit": false
    },
    {
      "hash": "0x952c035c1c15206bbb4d5f79ad3e0608d55e23c01671d5f279a36f721c8f328e",
      "transactionType": "CALL",
      "contractName": "TurnManager",
      "contractAddress": "0xde30eec3d9dce76e3404b2f2c9f615bab6857639",
      "function": "startTurns(uint256,address[],uint64)",
      "arguments": [
        "1",
        "[0x70997970C51812dc3A010C7d01b50e0d17dc79C8]",
        "100000"
      ],
      "transaction": {
        "from": "0xa3327d90d087cdddfb99e598e50b5bdee7fc55bd",
        "to": "0xde30eec3d9dce76e3404b2f2c9f615bab6857639",
        "gas": "0xba8a",
        "value": "0x0",
        "input": "0x592139fa0000000000000000000000000000000000000000000000000000000000000001000000000000000000000000000000000000000000000000000000000000006000000000000000000000000000000000000000000000000000000000000186a0000000000000000000000000000000000000000000000000000000000000000100000000000000000000000070997970c51812dc3a010c7d01b50e0d17dc79c8",
        "nonce": "0x64",
        "chainId": "0x138b"
      },
      "additionalContracts": [],
      "isFixedGasLimit": false
    },
    {
      "hash": "0x285259e037c69f3a28922592aa76d940769cbd7a788b7385cbd33301b8a46d49",
      "transactionType": "CALL",
      "contractName": "UnoGameSystem",
      "contractAddress": "0x5858e4f3b02247049be9e674fa4e39873aac8cbb",
      "function": "startRoom(uint256,uint8,uint8,uint8)",
      "arguments": [
        "1",
        "1",
        "5",
        "7"
      ],
      "transaction": {
        "from": "0xa3327d90d087cdddfb99e598e50b5bdee7fc55bd",
        "to": "0x5858e4f3b02247049be9e674fa4e39873aac8cbb",
        "gas": "0xb2de",
        "value": "0x0",
        "input": "0xdc672fea0000000000000000000000000000000000000000000000000000000000000001000000000000000000000000000000000000000000000000000000000000000100000000000000000000000000000000000000000000000000000000000000050000000000000000000000000000000000000000000000000000000000000007",
        "nonce": "0x65",
        "chainId": "0x138b"
      },
      "additionalContracts": [],
      "isFixedGasLimit": false
    },
    {
      "hash": "0x8b45e2ae7f550b472976bba7710f9275a3fb822f78abab942accca5cad184e8b",
      "transactionType": "CREATE",
      "contractName": "TurnBoundEnforcer",
      "contractAddress": "0x069754f0711eafe1366824ffe4dfebc6d7883770",
      "function": null,
      "arguments": null,
      "transaction": {
        "from": "0xa3327d90d087cdddfb99e598e50b5bdee7fc55bd",
        "to": null,
        "gas": "0x59b9a",
        "value": "0x0",
        "input": "0x60808060405234601557610250908161001a8239f35b5f80fdfe6080806040526004361015610012575f80fd5b5f3560e01c908163a145832a14610046575063d3eddcc514610032575f80fd5b346100425761004036610174565b005b5f80fd5b3461004257604061005636610174565b509896945050505050838092500103126100425780356001600160a01b03811691908290036100425760248460209384829463ddc2a25160e01b8452013560048301525afa91821561013b575f926100cd575b506001600160a01b039081169116036100be57005b631cc191eb60e31b5f5260045ffd5b90915060203d602011610134575b601f8101601f1916820167ffffffffffffffff8111838210176101205760209183916040528101031261004257516001600160a01b03811681036100425790826100a9565b634e487b7160e01b5f52604160045260245ffd5b503d6100db565b6040513d5f823e3d90fd5b9181601f840112156100425782359167ffffffffffffffff8311610042576020838186019501011161004257565b9060e06003198301126100425760043567ffffffffffffffff811161004257826101a091600401610146565b9290929160243567ffffffffffffffff811161004257826101c391600401610146565b92909291604435916064359067ffffffffffffffff8211610042576101ea91600401610146565b90916084359060a4356001600160a01b0381168103610042579060c4356001600160a01b0381168103610042579056fea26469706673582212200fcdba30f8568c1f0ce9fe197169ca2c081d5ba5a66b2a50cbc31bc474fc440f64736f6c634300081b0033",
        "nonce": "0x66",
        "chainId": "0x138b"
      },
      "additionalContracts": [],
      "isFixedGasLimit": false
    },
    {
      "hash": "0xb16028e76e14bd085a3d48902be87a5d72351dfd63a664ff1e26060b0e29394d",
      "transactionType": "CREATE",
      "contractName": "SystemAllowlistEnforcer",
      "contractAddress": "0x981f77d8c201b38d3686856c4e2945fdf9c21120",
      "function": null,
      "arguments": null,
      "transaction": {
        "from": "0xa3327d90d087cdddfb99e598e50b5bdee7fc55bd",
        "to": null,
        "gas": "0x69c90",
        "value": "0x0",
        "input": "0x608080604052346015576102e7908161001a8239f35b5f80fdfe6080806040526004361015610012575f80fd5b5f3560e01c908163a145832a14610046575063d3eddcc514610032575f80fd5b3461004257610040366101d8565b005b5f80fd5b3461004257610054366101d8565b505050935095949391505082016040838203126100425782356001600160a01b03811693908490036100425760208101359067ffffffffffffffff8211610042570181601f820112156100425780359067ffffffffffffffff8211610196578160051b91601f19603f840116870187811067ffffffffffffffff82111761019657604052865260208087019282010192831161004257602001905b828210610186575050506034811061017757806014116100425780603411610042576033190190833560601c0361016857602481106101685780600411610042576318a30a1f60e31b60348401356001600160e01b03191601610168576024116100425760386101619201359061027e565b1561016857005b63e2b8d77d60e01b5f5260045ffd5b6304bc946d60e21b5f5260045ffd5b81358152602091820191016100ef565b634e487b7160e01b5f52604160045260245ffd5b9181601f840112156100425782359167ffffffffffffffff8311610042576020838186019501011161004257565b9060e06003198301126100425760043567ffffffffffffffff81116100425782610204916004016101aa565b9290929160243567ffffffffffffffff81116100425782610227916004016101aa565b92909291604435916064359067ffffffffffffffff82116100425761024e916004016101aa565b90916084359060a4356001600160a01b0381168103610042579060c4356001600160a01b03811681036100425790565b905f5b82518110156102aa578160208260051b85010151146102a257600101610281565b505050600190565b5050505f9056fea2646970667358221220efc58d6567d8e8cda8e6c3699c6a855bdac51780323fa8ae0df78f759f8f3c9164736f6c634300081b0033",
        "nonce": "0x67",
        "chainId": "0x138b"
      },
      "additionalContracts": [],
      "isFixedGasLimit": false
    },
    {
      "hash": "0x237958013aff92961f79f2d45ce2c02b6d7d7145eec99d9a3314a13bbc48b913",
      "transactionType": "CREATE",
      "contractName": "TimestampEnforcer",
      "contractAddress": "0x9a549c2a3c1bf8eac6858491ff627fbfd0a8c173",
      "function": null,
      "arguments": null,
      "transaction": {
        "from": "0xa3327d90d087cdddfb99e598e50b5bdee7fc55bd",
        "to": null,
        "gas": "0x4485c",
        "value": "0x0",
        "input": "0x6080806040523460155761018e908161001a8239f35b5f80fdfe60806040526004361015610011575f80fd5b5f3560e01c8063a145832a146100435763d3eddcc51461002f575f80fd5b3461003f5761003d366100b2565b005b5f80fd5b3461003f576020610053366100b2565b5050505050505050908092918101031261003f576103e8903504421161007557005b6330d3ba0760e01b5f5260045ffd5b9181601f8401121561003f5782359167ffffffffffffffff831161003f576020838186019501011161003f57565b9060e060031983011261003f5760043567ffffffffffffffff811161003f57826100de91600401610084565b9290929160243567ffffffffffffffff811161003f578261010191600401610084565b92909291604435916064359067ffffffffffffffff821161003f5761012891600401610084565b90916084359060a4356001600160a01b038116810361003f579060c4356001600160a01b038116810361003f579056fea264697066735822122009ae9ea39841b8f247b0fbbc331a6e75361d0279fa23bd827fac02445feb146864736f6c634300081b0033",
        "nonce": "0x68",
        "chainId": "0x138b"
      },
      "additionalContracts": [],
      "isFixedGasLimit": false
    },
    {
      "hash": "0xcf2b96f1fb2b35b2524754c6f8195b84e357ee0cd6bd6e36c8fae02014a0b10a",
      "transactionType": "CREATE",
      "contractName": "LimitedCallsEnforcer",
      "contractAddress": "0xbd3f401eb89651b294016531ddd563e6d263d018",
      "function": null,
      "arguments": null,
      "transaction": {
        "from": "0xa3327d90d087cdddfb99e598e50b5bdee7fc55bd",
        "to": null,
        "gas": "0x505ba",
        "value": "0x0",
        "input": "0x608080604052346015576101f8908161001a8239f35b5f80fdfe60806040526004361015610011575f80fd5b5f3560e01c8063a145832a14610077578063d3eddcc5146100675763d88a792c1461003a575f80fd5b34610063576020366003190112610063576004355f525f602052602060405f2054604051908152f35b5f80fd5b34610063576100753661011c565b005b346100635760206100873661011c565b505096979593505050508480925001031261006357805f525f60205260405f205491358210156100df57600182018092116100cb575f525f60205260405f20555f80f35b634e487b7160e01b5f52601160045260245ffd5b6330def6b560e01b5f5260045ffd5b9181601f840112156100635782359167ffffffffffffffff8311610063576020838186019501011161006357565b9060e06003198301126100635760043567ffffffffffffffff81116100635782610148916004016100ee565b9290929160243567ffffffffffffffff8111610063578261016b916004016100ee565b92909291604435916064359067ffffffffffffffff821161006357610192916004016100ee565b90916084359060a4356001600160a01b0381168103610063579060c4356001600160a01b0381168103610063579056fea264697066735822122023bdb9ea9cd8f16ad84fb5594317d8991a073b85b5316e7323f026c3fb978d3d64736f6c634300081b0033",
        "nonce": "0x69",
        "chainId": "0x138b"
      },
      "additionalContracts": [],
      "isFixedGasLimit": false
    },
    {
      "hash": "0x7a2f6cc566c66225ab2bf07429539895102408dca1816f8180ea58161420e199",
      "transactionType": "CREATE",
      "contractName": "PerActionCapEnforcer",
      "contractAddress": "0xd3179921cfabd4f6060213f994ce8ccfdb804118",
      "function": null,
      "arguments": null,
      "transaction": {
        "from": "0xa3327d90d087cdddfb99e598e50b5bdee7fc55bd",
        "to": null,
        "gas": "0x5af72",
        "value": "0x0",
        "input": "0x6080806040523460155761025c908161001a8239f35b5f80fdfe60806040526004361015610011575f80fd5b5f3560e01c8063a145832a146100435763d3eddcc51461002f575f80fd5b3461003f5761003d36610180565b005b5f80fd5b3461003f57604061005336610180565b505050949150948096935080925001031261003f5782356001600160a01b0381169081900361003f5760348210610143578160141161003f578160341161003f57601483013591603319019161013457823560601c036100fc57600481106100fc578060041161003f5760348201356001600160e01b03191663a9059cbb60e01b810361010b5750604481106100fc5760441161003f5760586020910135915b0135106100fc57005b63068562c960e11b5f5260045ffd5b6323b872dd60e01b036100fc57606481106100fc5760641161003f5760786020910135916100f3565b63ce3f0ecf60e01b5f5260045ffd5b6304bc946d60e21b5f5260045ffd5b9181601f8401121561003f5782359167ffffffffffffffff831161003f576020838186019501011161003f57565b9060e060031983011261003f5760043567ffffffffffffffff811161003f57826101ac91600401610152565b9290929160243567ffffffffffffffff811161003f57826101cf91600401610152565b92909291604435916064359067ffffffffffffffff821161003f576101f691600401610152565b90916084359060a4356001600160a01b038116810361003f579060c4356001600160a01b038116810361003f579056fea2646970667358221220feb0d8515ff2081ef929966627ac6c978fd55a92f40aa9166d0dbc19f237364464736f6c634300081b0033",
        "nonce": "0x6a",
        "chainId": "0x138b"
      },
      "additionalContracts": [],
      "isFixedGasLimit": false
    },
    {
      "hash": "0x1ce47c90e1859955def07f8139a3a2c19195cee092fea01d3134be8b56a9df49",
      "transactionType": "CREATE",
      "contractName": "ERC20TransferAmountEnforcer",
      "contractAddress": "0x45b2baed94107fba50ee4832bc8820470d535e53",
      "function": null,
      "arguments": null,
      "transaction": {
        "from": "0xa3327d90d087cdddfb99e598e50b5bdee7fc55bd",
        "to": null,
        "gas": "0x65f40",
        "value": "0x0",
        "input": "0x608080604052346015576102c3908161001a8239f35b5f80fdfe60806040526004361015610011575f80fd5b5f3560e01c8063a145832a14610077578063d3eddcc5146100675763d8acc5481461003a575f80fd5b34610063576020366003190112610063576004355f525f602052602060405f2054604051908152f35b5f80fd5b3461006357610075366101e7565b005b34610063576040610087366101e7565b505096979350935093868092500103126100635783356001600160a01b0381169081900361006357603482106101aa5781601411610063578160341161006357601483013591603319019161019b57823560601c03610152576004811061015257806004116100635760348201356001600160e01b03191663a9059cbb60e01b8103610175575060448110610152576044116100635760580135915b815f525f60205260405f205492830180931161016157602001358211610152575f525f60205260405f20555f80f35b6376e0dfc160e11b5f5260045ffd5b634e487b7160e01b5f52601160045260245ffd5b6323b872dd60e01b03610152576064811061015257606411610063576078013591610123565b63ce3f0ecf60e01b5f5260045ffd5b6304bc946d60e21b5f5260045ffd5b9181601f840112156100635782359167ffffffffffffffff8311610063576020838186019501011161006357565b9060e06003198301126100635760043567ffffffffffffffff81116100635782610213916004016101b9565b9290929160243567ffffffffffffffff81116100635782610236916004016101b9565b92909291604435916064359067ffffffffffffffff82116100635761025d916004016101b9565b90916084359060a4356001600160a01b0381168103610063579060c4356001600160a01b0381168103610063579056fea2646970667358221220f39790b3789cb74363ead57009f687ca7f7e52b20f941b2f6ca8640eebe3a90064736f6c634300081b0033",
        "nonce": "0x6b",
        "chainId": "0x138b"
      },
      "additionalContracts": [],
      "isFixedGasLimit": false
    },
    {
      "hash": "0xa1572ae5fc37ffcc7522c069e6dcf8016de520000f4591e768f8619b6ecaa8a0",
      "transactionType": "CREATE",
      "contractName": "AllowedRecipientsEnforcer",
      "contractAddress": "0x4d212b7a37e0b09e734928528f58551e5b75c8cd",
      "function": null,
      "arguments": null,
      "transaction": {
        "from": "0xa3327d90d087cdddfb99e598e50b5bdee7fc55bd",
        "to": null,
        "gas": "0x7504a",
        "value": "0x0",
        "input": "0x60808060405234601557610351908161001a8239f35b5f80fdfe60806040526004361015610011575f80fd5b5f3560e01c8063a145832a146100435763d3eddcc51461002f575f80fd5b3461003f5761003d36610091565b005b5f80fd5b3461003f5761003d61005436610091565b50505095925093925050610137565b9181601f8401121561003f5782359167ffffffffffffffff831161003f576020838186019501011161003f57565b9060e060031983011261003f5760043567ffffffffffffffff811161003f57826100bd91600401610063565b9290929160243567ffffffffffffffff811161003f57826100e091600401610063565b92909291604435916064359067ffffffffffffffff821161003f5761010791600401610063565b90916084359060a4356001600160a01b038116810361003f579060c4356001600160a01b038116810361003f5790565b929083019260408185031261003f5780356001600160a01b038116919082900361003f5760208101359067ffffffffffffffff821161003f570184601f8201121561003f5780359467ffffffffffffffff8611610307578560051b9160405196601f19603f850116880188811067ffffffffffffffff82111761030757604052875260208088019382010191821161003f57602001915b8183106102e757505050603482106102d8578160141161003f578160341161003f5760148301359160331901916102c957823560601c0361028c576004811061028c578060041161003f5760348201356001600160e01b03191663a9059cbb60e01b810361029b57506044811061028c5760241161003f57603801356001600160a01b03165b8151915f5b8381101561028c57600581901b8201602001516001600160a01b0384811691161461028657600101610259565b50505050565b63133307bb60e21b5f5260045ffd5b6323b872dd60e01b0361028c576064811061028c5760441161003f57605801356001600160a01b0316610254565b63ce3f0ecf60e01b5f5260045ffd5b6304bc946d60e21b5f5260045ffd5b82356001600160a01b038116810361003f578152602092830192016101ce565b634e487b7160e01b5f52604160045260245ffdfea264697066735822122016ed21093718aecd2a23625153752225318531026396964eb40af52f309a03da64736f6c634300081b0033",
        "nonce": "0x6c",
        "chainId": "0x138b"
      },
      "additionalContracts": [],
      "isFixedGasLimit": false
    },
    {
      "hash": "0x3f9c8d8f980b06ff96bb4a21563f8436f9d1428e0360197b9f78fc8dae5cfb5b",
      "transactionType": "CREATE",
      "contractName": "UnoPot",
      "contractAddress": "0x6ac14897e3e943e24a24b076e0a8b21f9d8fe544",
      "function": null,
      "arguments": [
        "0x189BdF9e9e4FfE4AC0e8eD0479b158843Bcd0cde",
        "0xA3327d90d087cdddfB99E598E50B5Bdee7fC55bD",
        "0xA3327d90d087cdddfB99E598E50B5Bdee7fC55bD",
        "0"
      ],
      "transaction": {
        "from": "0xa3327d90d087cdddfb99e598e50b5bdee7fc55bd",
        "to": null,
        "gas": "0x10f6b4",
        "value": "0x0",
        "input": "0x6101003461012e57601f6109e438819003918201601f19168301916001600160401b038311848410176101325780849260809460405283398101031261012e578051906001600160a01b038216820361012e5761005e60208201610146565b606061006c60408401610146565b9201519261ffff841680850361012e576127109060017f9b779b17422d0df92223018b32b4d1fa46e071723d6817e2486d003becc55f00551161011f5760805260a05260c05260e052604051610889908161015b82396080518181816101ba0152818161022a0152818161058f01526105df015260a05181818160aa0152818161045d0152818161064f01526106d2015260c05181818161037d01526105be015260e0518181816104df01526106980152f35b63442ed3b160e01b5f5260045ffd5b5f80fd5b634e487b7160e01b5f52604160045260245ffd5b51906001600160a01b038216820361012e5756fe60806040526004361015610011575f80fd5b5f3560e01c806301958e16146106bc57806321c9c44a1461067e57806389c1521e1461063a578063962d193814610436578063a2383106146103f2578063c3c3df4f146103ac578063d13ac21c14610368578063e2bbb158146101e9578063fc0c546a146101a55763fcc0776e14610087575f80fd5b346101a15760603660031901126101a1576004356100a3610780565b60443591907f00000000000000000000000000000000000000000000000000000000000000006001600160a01b0316330361019257815f525f60205260405f20805460ff81161561017f5760081c60ff1661016c577f84d9a926797cdc1036fb9ffa7983de7d739fdf7cb5c5e5c6ca38d67b30ef79119160016020920161012b868254610796565b90555f8481526001835260408082206001600160a01b0384168352845290208054610157908790610796565b90556040519485526001600160a01b031693a3005b826369755d2d60e01b5f5260045260245ffd5b83636a1d9c2360e01b5f5260045260245ffd5b63869a1abb60e01b5f5260045ffd5b5f80fd5b346101a1575f3660031901126101a1576040517f00000000000000000000000000000000000000000000000000000000000000006001600160a01b03168152602090f35b346101a15760403660031901126101a1576024356004356102086107a3565b805f525f60205260405f20805460ff8116156103555760081c60ff16610342577f00000000000000000000000000000000000000000000000000000000000000006040516323b872dd60e01b5f5233600452306024528460445260205f60648180865af19060015f5114821615610321575b6040525f606052156103015750600101610295838254610796565b9055805f52600160205260405f2060018060a01b0333165f5260205260405f206102c0838254610796565b90556040519182527f84d9a926797cdc1036fb9ffa7983de7d739fdf7cb5c5e5c6ca38d67b30ef791160203393a360015f5160206108345f395f51905f5255005b635274afe760e01b5f9081526001600160a01b0391909116600452602490fd5b90600181151661033957823b15153d1516169061027a565b503d5f823e3d90fd5b506369755d2d60e01b5f5260045260245ffd5b82636a1d9c2360e01b5f5260045260245ffd5b346101a1575f3660031901126101a1576040517f00000000000000000000000000000000000000000000000000000000000000006001600160a01b03168152602090f35b346101a15760203660031901126101a1576004355f525f602052606060405f206001815491015460ff604051928181161515845260081c16151560208301526040820152f35b346101a15760403660031901126101a15761040b610780565b6004355f52600160205260405f209060018060a01b03165f52602052602060405f2054604051908152f35b346101a15760403660031901126101a157600435610452610780565b9061045b6107a3565b7f00000000000000000000000000000000000000000000000000000000000000006001600160a01b0316330361019257805f525f60205260405f209182549060ff8216156103555760ff8260081c1661016c57825f52600160205260405f2060018060a01b0382165f5260205260405f20541561061c57600184019081549461ffff7f0000000000000000000000000000000000000000000000000000000000000000168087029087820414871517156106085761271090049081870396808811610608575f60409584936101007ffc48e6813640737c52c5002f74e1449348d3b8bb4789b85dedcf8298328f83299961ffff191617905555816105b8575b03610588575b825195865260208601526001600160a01b031693a360015f5160206108345f395f51905f5255005b6105b386837f00000000000000000000000000000000000000000000000000000000000000006107db565b610560565b610603827f00000000000000000000000000000000000000000000000000000000000000007f00000000000000000000000000000000000000000000000000000000000000006107db565b61055a565b634e487b7160e01b5f52601160045260245ffd5b8263a6465ad960e01b5f5260045260018060a01b031660245260445ffd5b346101a1575f3660031901126101a1576040517f00000000000000000000000000000000000000000000000000000000000000006001600160a01b03168152602090f35b346101a1575f3660031901126101a157602060405161ffff7f0000000000000000000000000000000000000000000000000000000000000000168152f35b346101a15760203660031901126101a1576004357f00000000000000000000000000000000000000000000000000000000000000006001600160a01b0316330361019257805f525f60205260ff60405f2054168015610768575b61075657805f525f60205260405f20600160ff198254161790557f5228a6eed1a56d039ff842870c6ab181a6da4225004b1cbdfd326dd7294cacfe5f80a2005b630a67919160e11b5f5260045260245ffd5b50805f525f60205260ff60405f205460081c16610716565b602435906001600160a01b03821682036101a157565b9190820180921161060857565b60025f5160206108345f395f51905f5254146107cc5760025f5160206108345f395f51905f5255565b633ee5aeb560e01b5f5260045ffd5b916040519163a9059cbb60e01b5f5260018060a01b031660045260245260205f60448180865af19060015f511482161561081b575b604052156103015750565b90600181151661033957823b15153d1516169061081056fe9b779b17422d0df92223018b32b4d1fa46e071723d6817e2486d003becc55f00a26469706673582212201755087ef0903ccd0b28c42ce944dc1d4197b027fa5ecb546bfeff9e6a5ced4f64736f6c634300081b0033000000000000000000000000189bdf9e9e4ffe4ac0e8ed0479b158843bcd0cde000000000000000000000000a3327d90d087cdddfb99e598e50b5bdee7fc55bd000000000000000000000000a3327d90d087cdddfb99e598e50b5bdee7fc55bd0000000000000000000000000000000000000000000000000000000000000000",
        "nonce": "0x6d",
        "chainId": "0x138b"
      },
      "additionalContracts": [],
      "isFixedGasLimit": false
    }
  ],
  "receipts": [
    {
      "type": "0x0",
      "status": "0x1",
      "cumulativeGasUsed": "0x120670",
      "logs": [
        {
          "address": "0xf00bbabf53cafc5b7d8282f7e152121dc4140a17",
          "topics": [
            "0x8be0079c531659141344cd1fd0a4f28419497f9722a3daafe3b4186f6b6457e0",
            "0x0000000000000000000000000000000000000000000000000000000000000000",
            "0x000000000000000000000000a3327d90d087cdddfb99e598e50b5bdee7fc55bd"
          ],
          "data": "0x",
          "blockHash": "0xb7e6d852c028c36e0a5fd74a3c317a9a9b2562c1a3a7186c4cd1e89fc530de4b",
          "blockNumber": "0x2621b36",
          "blockTimestamp": "0x6a2fb94d",
          "transactionHash": "0xfb42571e391a039aaf9b7591f2d65cf96a4a5be1b5ccc307ad6390a0c84ed20e",
          "transactionIndex": "0x1",
          "logIndex": "0x0",
          "removed": false
        },
        {
          "address": "0xf00bbabf53cafc5b7d8282f7e152121dc4140a17",
          "topics": [
            "0x2ff4f36f7bcd5d4c260c49696c9d2b7c01d486e2d5ef32b48da03461a743dfe8"
          ],
          "data": "0x6e657875732e776f726c642e7631000000000000000000000000000000000000",
          "blockHash": "0xb7e6d852c028c36e0a5fd74a3c317a9a9b2562c1a3a7186c4cd1e89fc530de4b",
          "blockNumber": "0x2621b36",
          "blockTimestamp": "0x6a2fb94d",
          "transactionHash": "0xfb42571e391a039aaf9b7591f2d65cf96a4a5be1b5ccc307ad6390a0c84ed20e",
          "transactionIndex": "0x1",
          "logIndex": "0x1",
          "removed": false
        }
      ],
      "logsBloom": "0x00000000000000000000000000000000001000000000000000800000000000000000000000000000000001000000000000000000002000000000000000000000000000000000000000000000000000000001000000000000000000000000000000800000020000000000000000000808000000000000000000000000000000400000000000000000000000000000000000000000000000400000000000000000000000000000000000000000000000000000000000000000000000000000000000000001000000000000000000000000000000000000000000000000000020004000000000000000000000000000000000000010000000000000000000000000",
      "transactionHash": "0xfb42571e391a039aaf9b7591f2d65cf96a4a5be1b5ccc307ad6390a0c84ed20e",
      "transactionIndex": "0x1",
      "blockHash": "0xb7e6d852c028c36e0a5fd74a3c317a9a9b2562c1a3a7186c4cd1e89fc530de4b",
      "blockNumber": "0x2621b36",
      "gasUsed": "0x1125f9",
      "effectiveGasPrice": "0xba43cfaa0",
      "blobGasUsed": "0x124ad0",
      "from": "0xa3327d90d087cdddfb99e598e50b5bdee7fc55bd",
      "to": null,
      "contractAddress": "0xf00bbabf53cafc5b7d8282f7e152121dc4140a17"
    },
    {
      "type": "0x0",
      "status": "0x1",
      "cumulativeGasUsed": "0x117fae",
      "logs": [],
      "logsBloom": "0x00000000000000000000000000000000000000000000000000000000000000000000000000000000000000000000000000000000000000000000000000000000000000000000000000000000000000000000000000000000000000000000000000000000000000000000000000000000000000000000000000000000000000000000000000000000000000000000000000000000000000000000000000000000000000000000000000000000000000000000000000000000000000000000000000000000000000000000000000000000000000000000000000000000000000000000000000000000000000000000000000000000000000000000000000000000",
      "transactionHash": "0x3b4ce2a86c4b731133de8298590ade7b243bdf4ad00084f08caf040436734e9f",
      "transactionIndex": "0x3",
      "blockHash": "0xff66e7da0575e1b28b6d6dc8c0d7adcb0c70def2c4a252e377f73cb72e537643",
      "blockNumber": "0x2621b3c",
      "gasUsed": "0xe170a",
      "effectiveGasPrice": "0xba43cfaa0",
      "blobGasUsed": "0xf8250",
      "from": "0xa3327d90d087cdddfb99e598e50b5bdee7fc55bd",
      "to": null,
      "contractAddress": "0x074e3eab397ab173b352a41112e43cc553e1e160"
    },
    {
      "type": "0x0",
      "status": "0x1",
      "cumulativeGasUsed": "0xd077a",
      "logs": [],
      "logsBloom": "0x00000000000000000000000000000000000000000000000000000000000000000000000000000000000000000000000000000000000000000000000000000000000000000000000000000000000000000000000000000000000000000000000000000000000000000000000000000000000000000000000000000000000000000000000000000000000000000000000000000000000000000000000000000000000000000000000000000000000000000000000000000000000000000000000000000000000000000000000000000000000000000000000000000000000000000000000000000000000000000000000000000000000000000000000000000000",
      "transactionHash": "0xc4281b7faabdcf9fa743a19151c248000367923ba1d049318c0740b26237b827",
      "transactionIndex": "0x2",
      "blockHash": "0x228858ec911f9a3123a7dea68ac593e32ac806dc3c079ccb0e16a73c563c5a05",
      "blockNumber": "0x2621b3f",
      "gasUsed": "0xb6565",
      "effectiveGasPrice": "0xba43cfaa0",
      "blobGasUsed": "0xc2560",
      "from": "0xa3327d90d087cdddfb99e598e50b5bdee7fc55bd",
      "to": null,
      "contractAddress": "0xde30eec3d9dce76e3404b2f2c9f615bab6857639"
    },
    {
      "type": "0x0",
      "status": "0x1",
      "cumulativeGasUsed": "0x76f06",
      "logs": [],
      "logsBloom": "0x00000000000000000000000000000000000000000000000000000000000000000000000000000000000000000000000000000000000000000000000000000000000000000000000000000000000000000000000000000000000000000000000000000000000000000000000000000000000000000000000000000000000000000000000000000000000000000000000000000000000000000000000000000000000000000000000000000000000000000000000000000000000000000000000000000000000000000000000000000000000000000000000000000000000000000000000000000000000000000000000000000000000000000000000000000000",
      "transactionHash": "0xd7f9c3241e37c8f2ff62d7d996e2c2afcb50aed6d09b3fec96e21dab0eadc8fb",
      "transactionIndex": "0x1",
      "blockHash": "0xcce09ab3ee8a183084fe16c3f65c252833cdc4477a06b876a531d5787ffd41fb",
      "blockNumber": "0x2621b47",
      "gasUsed": "0x6ba37",
      "effectiveGasPrice": "0xba43cfaa0",
      "blobGasUsed": "0x71610",
      "from": "0xa3327d90d087cdddfb99e598e50b5bdee7fc55bd",
      "to": null,
      "contractAddress": "0x17bd7bf5c4a40aeb66fd8d7969c191ed32eac39b"
    },
    {
      "type": "0x0",
      "status": "0x1",
      "cumulativeGasUsed": "0x10029b",
      "logs": [],
      "logsBloom": "0x00000000000000000000000000000000000000000000000000000000000000000000000000000000000000000000000000000000000000000000000000000000000000000000000000000000000000000000000000000000000000000000000000000000000000000000000000000000000000000000000000000000000000000000000000000000000000000000000000000000000000000000000000000000000000000000000000000000000000000000000000000000000000000000000000000000000000000000000000000000000000000000000000000000000000000000000000000000000000000000000000000000000000000000000000000000",
      "transactionHash": "0xe87eac4a0bcdcbcfd97d321bf2e2b2bf9b8e0d304314cfa29ff03c7b21a738e4",
      "transactionIndex": "0x3",
      "blockHash": "0xcd852c37778be983e20e6ea3b402e1b4964b1a5efbbf6b93cab5af2ea0086138",
      "blockNumber": "0x2621b49",
      "gasUsed": "0xcd67b",
      "effectiveGasPrice": "0xba43cfaa0",
      "blobGasUsed": "0xe8d00",
      "from": "0xa3327d90d087cdddfb99e598e50b5bdee7fc55bd",
      "to": null,
      "contractAddress": "0x5858e4f3b02247049be9e674fa4e39873aac8cbb"
    },
    {
      "type": "0x0",
      "status": "0x1",
      "cumulativeGasUsed": "0x2ab9c",
      "logs": [
        {
          "address": "0xf00bbabf53cafc5b7d8282f7e152121dc4140a17",
          "topics": [
            "0x27b93ae2f1d204f7d28eaeab23952d8f33aedaa7b17dfbbe85ac96286df3be15",
            "0x74620000000000000000000000000000556e6f00000000000000000000000000"
          ],
          "data": "0x000000000000000000000000000000000000000000000000000000000000000100000000000000000000000000000000000000000000000000000000000000050000000000000000000000000000000000000000000000000000000000000060000000000000000000000000000000000000000000000000000000000000000500000000000000000000000000000000000000000000000000000000000000a000000000000000000000000000000000000000000000000000000000000000e00000000000000000000000000000000000000000000000000000000000000120000000000000000000000000000000000000000000000000000000000000016000000000000000000000000000000000000000000000000000000000000001a00000000000000000000000000000000000000000000000000000000000000008746f70436f6c6f720000000000000000000000000000000000000000000000000000000000000000000000000000000000000000000000000000000000000009746f704e756d6265720000000000000000000000000000000000000000000000000000000000000000000000000000000000000000000000000000000000000b616374697665436f6c6f72000000000000000000000000000000000000000000000000000000000000000000000000000000000000000000000000000000000968616e64436f756e74000000000000000000000000000000000000000000000000000000000000000000000000000000000000000000000000000000000000096c6173744d6f7665720000000000000000000000000000000000000000000000",
          "blockHash": "0x72fb021969c592a9dd76d4a74fd5c1a6c16dff05ee83389331c782ddc6b140d7",
          "blockNumber": "0x2621b4c",
          "blockTimestamp": "0x6a2fb979",
          "transactionHash": "0x0e4b8a0897acbf6e25d596b3e036f24275061c4a5e7d42b5267d9364ffae0c3d",
          "transactionIndex": "0x2",
          "logIndex": "0x1",
          "removed": false
        }
      ],
      "logsBloom": "0x00000000000000000000000000000000000000000000000000000000000000000000000000000000000000000000000000000000002000000000000001000000000000000000000000000000000000000000000000000000000000000000000000000000000000000000001000000000000000000000000000000000000000000000000000000000004000000000000000000000000000000000000000000000000000000000000000000000000000000000000000000000000000000000000000000001000004000000000000000000000000000000000000000000000000004000000100000000000000000000000000000000000000200000000000000000",
      "transactionHash": "0x0e4b8a0897acbf6e25d596b3e036f24275061c4a5e7d42b5267d9364ffae0c3d",
      "transactionIndex": "0x2",
      "blockHash": "0x72fb021969c592a9dd76d4a74fd5c1a6c16dff05ee83389331c782ddc6b140d7",
      "blockNumber": "0x2621b4c",
      "gasUsed": "0x18de3",
      "effectiveGasPrice": "0xba43cfaa0",
      "blobGasUsed": "0xfb90",
      "from": "0xa3327d90d087cdddfb99e598e50b5bdee7fc55bd",
      "to": "0xf00bbabf53cafc5b7d8282f7e152121dc4140a17",
      "contractAddress": null
    },
    {
      "type": "0x0",
      "status": "0x1",
      "cumulativeGasUsed": "0x8263f",
      "logs": [
        {
          "address": "0xf00bbabf53cafc5b7d8282f7e152121dc4140a17",
          "topics": [
            "0xabe1e2e80b5aa04850ff2ee6b99521af71175d49133ecbf7c9e790f6c92c980a",
            "0x556e6f47616d6500000000000000000000000000000000000000000000000000",
            "0x0000000000000000000000005858e4f3b02247049be9e674fa4e39873aac8cbb"
          ],
          "data": "0x",
          "blockHash": "0x647a6d54136ae778067b172ff58fb5b4f764045995b86652668eb4832fe8bfdb",
          "blockNumber": "0x2621b4e",
          "blockTimestamp": "0x6a2fb97d",
          "transactionHash": "0xb147a091625db6f1d1fbc4b69f5c71fd3c53e64284d3d94c6d77ae4328ac5abb",
          "transactionIndex": "0x4",
          "logIndex": "0xc",
          "removed": false
        }
      ],
      "logsBloom": "0x00000000000000000000000000000000000000010000000000000000000000000100000000000000000000000000000000000000002000000000000000000000000000020100000000000000000000000000000000000000000000000000000002000000000000000000010000000000000000000000000800000000000000000000000000000000000000000000000000000000000000000000000000000000000000000000000000000000000000000000000000000000000000000000000000000001000000000000000000000000000000004000000000000000000000004000000000000000000000000000200000000000000000000000000000000000",
      "transactionHash": "0xb147a091625db6f1d1fbc4b69f5c71fd3c53e64284d3d94c6d77ae4328ac5abb",
      "transactionIndex": "0x4",
      "blockHash": "0x647a6d54136ae778067b172ff58fb5b4f764045995b86652668eb4832fe8bfdb",
      "blockNumber": "0x2621b4e",
      "gasUsed": "0xbaaf",
      "effectiveGasPrice": "0xba43cfaa0",
      "blobGasUsed": "0x9c40",
      "from": "0xa3327d90d087cdddfb99e598e50b5bdee7fc55bd",
      "to": "0xf00bbabf53cafc5b7d8282f7e152121dc4140a17",
      "contractAddress": null
    },
    {
      "type": "0x0",
      "status": "0x1",
      "cumulativeGasUsed": "0x17974",
      "logs": [
        {
          "address": "0xf00bbabf53cafc5b7d8282f7e152121dc4140a17",
          "topics": [
            "0x87675c9926489679e8472a7ecfddd7f514ac1c6a0134118dcab3db14f581f11a",
            "0x74620000000000000000000000000000556e6f00000000000000000000000000",
            "0x0000000000000000000000005858e4f3b02247049be9e674fa4e39873aac8cbb"
          ],
          "data": "0x",
          "blockHash": "0xa1ec0376442c12fb8897fb309378c03c69cf34a5cd6cdb1aa63c7b4c3f44392c",
          "blockNumber": "0x2621b51",
          "blockTimestamp": "0x6a2fb983",
          "transactionHash": "0x8e4a3442023fec8cb3efb1275391653c48d30896351321ab22f94803354e5bba",
          "transactionIndex": "0x1",
          "logIndex": "0x0",
          "removed": false
        }
      ],
      "logsBloom": "0x00000000000000000000000000000000000000000000000000000000000000000100000000000000000000000000000000000000002000000000000000000000000000020000000000000000000000000000000000000000000000000000000000000000000000000000000000000000000000000000000000000000000000000000000000000000004000000000000000000000000004000000000000000000000000000000000000000000000000000000000000000000000000000000000000000001000004000000000000001000000000004000000000000000000000004000000100000000000000000002000000000000000000000000000000000000",
      "transactionHash": "0x8e4a3442023fec8cb3efb1275391653c48d30896351321ab22f94803354e5bba",
      "transactionIndex": "0x1",
      "blockHash": "0xa1ec0376442c12fb8897fb309378c03c69cf34a5cd6cdb1aa63c7b4c3f44392c",
      "blockNumber": "0x2621b51",
      "gasUsed": "0xc4a5",
      "effectiveGasPrice": "0xba43cfaa0",
      "blobGasUsed": "0x9c40",
      "from": "0xa3327d90d087cdddfb99e598e50b5bdee7fc55bd",
      "to": "0xf00bbabf53cafc5b7d8282f7e152121dc4140a17",
      "contractAddress": null
    },
    {
      "type": "0x0",
      "status": "0x1",
      "cumulativeGasUsed": "0x16e34",
      "logs": [
        {
          "address": "0xf00bbabf53cafc5b7d8282f7e152121dc4140a17",
          "topics": [
            "0x5c8f05824c40a2cedd1ec7245f574909327c72a46448be0e4c12bcb4f5bf42c0",
            "0x000000000000000000000000074e3eab397ab173b352a41112e43cc553e1e160"
          ],
          "data": "0x",
          "blockHash": "0xad9fa907c4fd90c861217d34c806f3bf470c8f475034f7b73caf11d632c03912",
          "blockNumber": "0x2621b53",
          "blockTimestamp": "0x6a2fb987",
          "transactionHash": "0xf69d7138fbabb1034a054906256ddfcadaa6d419b2026efccae722d3973a5472",
          "transactionIndex": "0x1",
          "logIndex": "0x0",
          "removed": false
        }
      ],
      "logsBloom": "0x00000000000000000000000000000000000000000000000000000000000000000000000000000000000000000000000000000000002000000000000000000000000000000000000000000000000000000000000000000000000000000000000000000800000000000000000000000000000000000000000000000000000000000000000000000000020000000000004000000000000000000000000000000000000000000000000000000000000000000000000000000000000000000200000100000001000000000000000000000000000000000000000000000000000000004008000000000000000000000000000000000000000000000000000000000000",
      "transactionHash": "0xf69d7138fbabb1034a054906256ddfcadaa6d419b2026efccae722d3973a5472",
      "transactionIndex": "0x1",
      "blockHash": "0xad9fa907c4fd90c861217d34c806f3bf470c8f475034f7b73caf11d632c03912",
      "blockNumber": "0x2621b53",
      "gasUsed": "0xb965",
      "effectiveGasPrice": "0xba43cfaa0",
      "blobGasUsed": "0x9c40",
      "from": "0xa3327d90d087cdddfb99e598e50b5bdee7fc55bd",
      "to": "0xf00bbabf53cafc5b7d8282f7e152121dc4140a17",
      "contractAddress": null
    },
    {
      "type": "0x0",
      "status": "0x1",
      "cumulativeGasUsed": "0x1684c",
      "logs": [],
      "logsBloom": "0x00000000000000000000000000000000000000000000000000000000000000000000000000000000000000000000000000000000000000000000000000000000000000000000000000000000000000000000000000000000000000000000000000000000000000000000000000000000000000000000000000000000000000000000000000000000000000000000000000000000000000000000000000000000000000000000000000000000000000000000000000000000000000000000000000000000000000000000000000000000000000000000000000000000000000000000000000000000000000000000000000000000000000000000000000000000",
      "transactionHash": "0xbb80f0c322db4bd2b048c3a76a3990007a9b58d0e20e1320f071364ee5ca37e6",
      "transactionIndex": "0x1",
      "blockHash": "0x8eed05521cb2ba48ae758b81a3b6705f1703c67255fc08b0ca8a8bbcb628b1fa",
      "blockNumber": "0x2621b56",
      "gasUsed": "0xb37d",
      "effectiveGasPrice": "0xba43cfaa0",
      "blobGasUsed": "0x9c40",
      "from": "0xa3327d90d087cdddfb99e598e50b5bdee7fc55bd",
      "to": "0x5858e4f3b02247049be9e674fa4e39873aac8cbb",
      "contractAddress": null
    },
    {
      "type": "0x0",
      "status": "0x1",
      "cumulativeGasUsed": "0x2d024",
      "logs": [
        {
          "address": "0xde30eec3d9dce76e3404b2f2c9f615bab6857639",
          "topics": [
            "0xf8b32f4ee3245ed08b1112f5d0f235cd6703b644bbbc9d3d5885adabd99447bd",
            "0x0000000000000000000000005858e4f3b02247049be9e674fa4e39873aac8cbb"
          ],
          "data": "0x0000000000000000000000000000000000000000000000000000000000000001",
          "blockHash": "0x4bcc7e7b5d5b1b1aadc283386699147c67bd8fbdac5e5a958975a7e5fb22b51f",
          "blockNumber": "0x2621b59",
          "blockTimestamp": "0x6a2fb993",
          "transactionHash": "0xe6d20155e5036ac28a62735e988c0a9b7be8e781b9dbba1c17ee01275103e38e",
          "transactionIndex": "0x2",
          "logIndex": "0x9",
          "removed": false
        }
      ],
      "logsBloom": "0x00000000000000000000000000000000000000000000000000000000000000000100000000000000000000000000000000000000000000000000000000000000000000020000000000000000000000000000000000000000000000000000000000000000000000000000000000000000000000000000080000000000000000000000000000800000000000000000000000020000080000000000000000000000000000000000000000000000000000000000000000000000000000000000000020000000040000000000000000000000000000004000000000000000000000000000000000000000000000000000000000000000000000000000000000000000",
      "transactionHash": "0xe6d20155e5036ac28a62735e988c0a9b7be8e781b9dbba1c17ee01275103e38e",
      "transactionIndex": "0x2",
      "blockHash": "0x4bcc7e7b5d5b1b1aadc283386699147c67bd8fbdac5e5a958975a7e5fb22b51f",
      "blockNumber": "0x2621b59",
      "gasUsed": "0xba02",
      "effectiveGasPrice": "0xba43cfaa0",
      "blobGasUsed": "0x9c40",
      "from": "0xa3327d90d087cdddfb99e598e50b5bdee7fc55bd",
      "to": "0xde30eec3d9dce76e3404b2f2c9f615bab6857639",
      "contractAddress": null
    },
    {
      "type": "0x0",
      "status": "0x1",
      "cumulativeGasUsed": "0x2b781",
      "logs": [
        {
          "address": "0xde30eec3d9dce76e3404b2f2c9f615bab6857639",
          "topics": [
            "0xf8b32f4ee3245ed08b1112f5d0f235cd6703b644bbbc9d3d5885adabd99447bd",
            "0x000000000000000000000000a3327d90d087cdddfb99e598e50b5bdee7fc55bd"
          ],
          "data": "0x0000000000000000000000000000000000000000000000000000000000000001",
          "blockHash": "0x1dafe0087bb8d5d5669b50d9b541bf842c819dadc77daf1cc2dc2e95823aabca",
          "blockNumber": "0x2621b5b",
          "blockTimestamp": "0x6a2fb997",
          "transactionHash": "0x434497dbd1e55dd3c7815293c325d864eb97dc5f91272325807a96c881ca8fc1",
          "transactionIndex": "0x3",
          "logIndex": "0x2",
          "removed": false
        }
      ],
      "logsBloom": "0x00000000000000000000000000000000000000000000000000000000000000000000000000000000000000000000000000000000000000000000000000000000000000000000000000000000000000000000000000000000000000000000000000800000000000000000000000000000000000000000080000000000000000000000000000800000000000000000000000020000080000400000000000000000000000000000000000000000000000000000000000000000000000000000000020000000040000000000000000000000000000000000000000000000000000000000000000000000000000000000000000000010000000000000000000000000",
      "transactionHash": "0x434497dbd1e55dd3c7815293c325d864eb97dc5f91272325807a96c881ca8fc1",
      "transactionIndex": "0x3",
      "blockHash": "0x1dafe0087bb8d5d5669b50d9b541bf842c819dadc77daf1cc2dc2e95823aabca",
      "blockNumber": "0x2621b5b",
      "gasUsed": "0x6c46",
      "effectiveGasPrice": "0xba43cfaa0",
      "blobGasUsed": "0x9c40",
      "from": "0xa3327d90d087cdddfb99e598e50b5bdee7fc55bd",
      "to": "0xde30eec3d9dce76e3404b2f2c9f615bab6857639",
      "contractAddress": null
    },
    {
      "type": "0x0",
      "status": "0x1",
      "cumulativeGasUsed": "0x16881",
      "logs": [],
      "logsBloom": "0x00000000000000000000000000000000000000000000000000000000000000000000000000000000000000000000000000000000000000000000000000000000000000000000000000000000000000000000000000000000000000000000000000000000000000000000000000000000000000000000000000000000000000000000000000000000000000000000000000000000000000000000000000000000000000000000000000000000000000000000000000000000000000000000000000000000000000000000000000000000000000000000000000000000000000000000000000000000000000000000000000000000000000000000000000000000",
      "transactionHash": "0xac5bf2650a23394de550ae282bad3f4d7a038bd6bff6e077d2b50e466949c05a",
      "transactionIndex": "0x1",
      "blockHash": "0x366fa534a3c20568faf50cdd700db59f9c64ba1e4acfaf3caccbd0718f0f40f3",
      "blockNumber": "0x2621b5e",
      "gasUsed": "0xb3b2",
      "effectiveGasPrice": "0xba43cfaa0",
      "blobGasUsed": "0x9c40",
      "from": "0xa3327d90d087cdddfb99e598e50b5bdee7fc55bd",
      "to": "0xde30eec3d9dce76e3404b2f2c9f615bab6857639",
      "contractAddress": null
    },
    {
      "type": "0x0",
      "status": "0x1",
      "cumulativeGasUsed": "0x2da5d",
      "logs": [
        {
          "address": "0xde30eec3d9dce76e3404b2f2c9f615bab6857639",
          "topics": [
            "0xa4663596238e958f20b25cc69bc3648d070a6628c207d1a233185cbd3c280ef1",
            "0x0000000000000000000000000000000000000000000000000000000000000001"
          ],
          "data": "0x0000000000000000000000000000000000000000000000000000000000000040000000000000000000000000000000000000000000000000000000000263a201000000000000000000000000000000000000000000000000000000000000000100000000000000000000000070997970c51812dc3a010c7d01b50e0d17dc79c8",
          "blockHash": "0x060dcd7e887fca8a704dd136c4aba887d71f5ba4af7a44670d9bfb9c260e7447",
          "blockNumber": "0x2621b61",
          "blockTimestamp": "0x6a2fb9a3",
          "transactionHash": "0x952c035c1c15206bbb4d5f79ad3e0608d55e23c01671d5f279a36f721c8f328e",
          "transactionIndex": "0x1",
          "logIndex": "0x0",
          "removed": false
        }
      ],
      "logsBloom": "0x00000000000000000000000000000000000000000000000000000000000000000000000000000000000000000000000000000000000000000000000000040000000000000004000000000000000000000000000000040000000000000000000000000000000400000000000000000000000000000000000000000000000000000000000000800000000000000000000000000000000000000000000000000000000000000000000000000000000000000000000000000000000000000000000020000000040000000000000000000000000000000000000000400000000040000000000000000000000000000000000000000000000000000000000000000000",
      "transactionHash": "0x952c035c1c15206bbb4d5f79ad3e0608d55e23c01671d5f279a36f721c8f328e",
      "transactionIndex": "0x1",
      "blockHash": "0x060dcd7e887fca8a704dd136c4aba887d71f5ba4af7a44670d9bfb9c260e7447",
      "blockNumber": "0x2621b61",
      "gasUsed": "0x2258e",
      "effectiveGasPrice": "0xba43cfaa0",
      "blobGasUsed": "0x9c40",
      "from": "0xa3327d90d087cdddfb99e598e50b5bdee7fc55bd",
      "to": "0xde30eec3d9dce76e3404b2f2c9f615bab6857639",
      "contractAddress": null
    },
    {
      "type": "0x0",
      "status": "0x1",
      "cumulativeGasUsed": "0x4e739",
      "logs": [
        {
          "address": "0xf00bbabf53cafc5b7d8282f7e152121dc4140a17",
          "topics": [
            "0x4152a3ff4b6805e40a4f8c241bcc539b19cfde7c8e2ab2c23b79b83ad875d787",
            "0x74620000000000000000000000000000556e6f00000000000000000000000000"
          ],
          "data": "0x000000000000000000000000000000000000000000000000000000000000006000000000000000000000000000000000000000000000000000000000000000a000000000000000000000000000000000000000000000000000000000000001600000000000000000000000000000000000000000000000000000000000000001000000000000000000000000000000000000000000000000000000000000000100000000000000000000000000000000000000000000000000000000000000a0000000000000000000000000000000000000000000000000000000000000000100000000000000000000000000000000000000000000000000000000000000050000000000000000000000000000000000000000000000000000000000000001000000000000000000000000000000000000000000000000000000000000000700000000000000000000000000000000000000000000000000000000000000000000000000000000000000000000000000000000000000000000000000000000",
          "blockHash": "0x038632b93e21ba081f4dd862e3d482d05c99e3b00384c692cacf4e063faaaed4",
          "blockNumber": "0x2621b63",
          "blockTimestamp": "0x6a2fb9a7",
          "transactionHash": "0x285259e037c69f3a28922592aa76d940769cbd7a788b7385cbd33301b8a46d49",
          "transactionIndex": "0x2",
          "logIndex": "0x9",
          "removed": false
        },
        {
          "address": "0x5858e4f3b02247049be9e674fa4e39873aac8cbb",
          "topics": [
            "0x69c3827781f01390e273374c688f6d6d74e17e8815d094cff263d3790e878ae6",
            "0x0000000000000000000000000000000000000000000000000000000000000001"
          ],
          "data": "0x000000000000000000000000000000000000000000000000000000000000000100000000000000000000000000000000000000000000000000000000000000050000000000000000000000000000000000000000000000000000000000000007",
          "blockHash": "0x038632b93e21ba081f4dd862e3d482d05c99e3b00384c692cacf4e063faaaed4",
          "blockNumber": "0x2621b63",
          "blockTimestamp": "0x6a2fb9a7",
          "transactionHash": "0x285259e037c69f3a28922592aa76d940769cbd7a788b7385cbd33301b8a46d49",
          "transactionIndex": "0x2",
          "logIndex": "0xa",
          "removed": false
        }
      ],
      "logsBloom": "0x00000000000000000000000000000000000000000000000000000000000000000000080000000000000000000000000000000000002000000000000000040000000000000000000000000000000000000000000000040000000000000000000000000000000000020000000000000000000000000000000000000000000000000000000200000000004000000000000000000000000000004000000000000000000000000000000080200000000000000000000000000000000000000000000000000001800004000000000000000000000000000000000000000000400040004000000100000000000000000000000000000000020000000000000000000000",
      "transactionHash": "0x285259e037c69f3a28922592aa76d940769cbd7a788b7385cbd33301b8a46d49",
      "transactionIndex": "0x2",
      "blockHash": "0x038632b93e21ba081f4dd862e3d482d05c99e3b00384c692cacf4e063faaaed4",
      "blockNumber": "0x2621b63",
      "gasUsed": "0x2d0ff",
      "effectiveGasPrice": "0xba43cfaa0",
      "blobGasUsed": "0x9c40",
      "from": "0xa3327d90d087cdddfb99e598e50b5bdee7fc55bd",
      "to": "0x5858e4f3b02247049be9e674fa4e39873aac8cbb",
      "contractAddress": null
    },
    {
      "type": "0x0",
      "status": "0x1",
      "cumulativeGasUsed": "0x3786f",
      "logs": [],
      "logsBloom": "0x00000000000000000000000000000000000000000000000000000000000000000000000000000000000000000000000000000000000000000000000000000000000000000000000000000000000000000000000000000000000000000000000000000000000000000000000000000000000000000000000000000000000000000000000000000000000000000000000000000000000000000000000000000000000000000000000000000000000000000000000000000000000000000000000000000000000000000000000000000000000000000000000000000000000000000000000000000000000000000000000000000000000000000000000000000000",
      "transactionHash": "0x8b45e2ae7f550b472976bba7710f9275a3fb822f78abab942accca5cad184e8b",
      "transactionIndex": "0x1",
      "blockHash": "0x33e169802c319035ff17845c5e2cadd19cd5b64aa712ed71fd70905c0791c688",
      "blockNumber": "0x2621b65",
      "gasUsed": "0x2c3a0",
      "effectiveGasPrice": "0xba43cfaa0",
      "blobGasUsed": "0x2cec0",
      "from": "0xa3327d90d087cdddfb99e598e50b5bdee7fc55bd",
      "to": null,
      "contractAddress": "0x069754f0711eafe1366824ffe4dfebc6d7883770"
    },
    {
      "type": "0x0",
      "status": "0x1",
      "cumulativeGasUsed": "0x3f7e7",
      "logs": [],
      "logsBloom": "0x00000000000000000000000000000000000000000000000000000000000000000000000000000000000000000000000000000000000000000000000000000000000000000000000000000000000000000000000000000000000000000000000000000000000000000000000000000000000000000000000000000000000000000000000000000000000000000000000000000000000000000000000000000000000000000000000000000000000000000000000000000000000000000000000000000000000000000000000000000000000000000000000000000000000000000000000000000000000000000000000000000000000000000000000000000000",
      "transactionHash": "0xb16028e76e14bd085a3d48902be87a5d72351dfd63a664ff1e26060b0e29394d",
      "transactionIndex": "0x1",
      "blockHash": "0x76d63a2ca31b2be6145a98715fbe8a9359ba7b57f04e90af5c9fa33c83e8e35d",
      "blockNumber": "0x2621b68",
      "gasUsed": "0x34318",
      "effectiveGasPrice": "0xba43cfaa0",
      "blobGasUsed": "0x35520",
      "from": "0xa3327d90d087cdddfb99e598e50b5bdee7fc55bd",
      "to": null,
      "contractAddress": "0x981f77d8c201b38d3686856c4e2945fdf9c21120"
    },
    {
      "type": "0x0",
      "status": "0x1",
      "cumulativeGasUsed": "0x33d62",
      "logs": [],
      "logsBloom": "0x00000000000000000000000000000000000000000000000000000000000000000000000000000000000000000000000000000000000000000000000000000000000000000000000000000000000000000000000000000000000000000000000000000000000000000000000000000000000000000000000000000000000000000000000000000000000000000000000000000000000000000000000000000000000000000000000000000000000000000000000000000000000000000000000000000000000000000000000000000000000000000000000000000000000000000000000000000000000000000000000000000000000000000000000000000000",
      "transactionHash": "0x237958013aff92961f79f2d45ce2c02b6d7d7145eec99d9a3314a13bbc48b913",
      "transactionIndex": "0x2",
      "blockHash": "0xefd198fbbc7867ededebda465446088521b77bc8480a81e3f862ae3aafda0b1c",
      "blockNumber": "0x2621b6a",
      "gasUsed": "0x21fbf",
      "effectiveGasPrice": "0xba43cfaa0",
      "blobGasUsed": "0x1f400",
      "from": "0xa3327d90d087cdddfb99e598e50b5bdee7fc55bd",
      "to": null,
      "contractAddress": "0x9a549c2a3c1bf8eac6858491ff627fbfd0a8c173"
    },
    {
      "type": "0x0",
      "status": "0x1",
      "cumulativeGasUsed": "0x32e16",
      "logs": [],
      "logsBloom": "0x00000000000000000000000000000000000000000000000000000000000000000000000000000000000000000000000000000000000000000000000000000000000000000000000000000000000000000000000000000000000000000000000000000000000000000000000000000000000000000000000000000000000000000000000000000000000000000000000000000000000000000000000000000000000000000000000000000000000000000000000000000000000000000000000000000000000000000000000000000000000000000000000000000000000000000000000000000000000000000000000000000000000000000000000000000000",
      "transactionHash": "0xcf2b96f1fb2b35b2524754c6f8195b84e357ee0cd6bd6e36c8fae02014a0b10a",
      "transactionIndex": "0x1",
      "blockHash": "0x997071f446bd455b0b781bf6f6e97ddb60d7b8665d2dcbf3a01b43ee9207f020",
      "blockNumber": "0x2621b6d",
      "gasUsed": "0x27947",
      "effectiveGasPrice": "0xba43cfaa0",
      "blobGasUsed": "0x25fd0",
      "from": "0xa3327d90d087cdddfb99e598e50b5bdee7fc55bd",
      "to": null,
      "contractAddress": "0xbd3f401eb89651b294016531ddd563e6d263d018"
    },
    {
      "type": "0x0",
      "status": "0x1",
      "cumulativeGasUsed": "0x38247",
      "logs": [],
      "logsBloom": "0x00000000000000000000000000000000000000000000000000000000000000000000000000000000000000000000000000000000000000000000000000000000000000000000000000000000000000000000000000000000000000000000000000000000000000000000000000000000000000000000000000000000000000000000000000000000000000000000000000000000000000000000000000000000000000000000000000000000000000000000000000000000000000000000000000000000000000000000000000000000000000000000000000000000000000000000000000000000000000000000000000000000000000000000000000000000",
      "transactionHash": "0x7a2f6cc566c66225ab2bf07429539895102408dca1816f8180ea58161420e199",
      "transactionIndex": "0x1",
      "blockHash": "0xff722c5b953a9751cdf3db4ea033fb44f9bbda90bb480637e140c780c89b11dc",
      "blockNumber": "0x2621b6f",
      "gasUsed": "0x2cd78",
      "effectiveGasPrice": "0xba43cfaa0",
      "blobGasUsed": "0x2bf20",
      "from": "0xa3327d90d087cdddfb99e598e50b5bdee7fc55bd",
      "to": null,
      "contractAddress": "0xd3179921cfabd4f6060213f994ce8ccfdb804118"
    },
    {
      "type": "0x0",
      "status": "0x1",
      "cumulativeGasUsed": "0x40531",
      "logs": [],
      "logsBloom": "0x00000000000000000000000000000000000000000000000000000000000000000000000000000000000000000000000000000000000000000000000000000000000000000000000000000000000000000000000000000000000000000000000000000000000000000000000000000000000000000000000000000000000000000000000000000000000000000000000000000000000000000000000000000000000000000000000000000000000000000000000000000000000000000000000000000000000000000000000000000000000000000000000000000000000000000000000000000000000000000000000000000000000000000000000000000000",
      "transactionHash": "0x1ce47c90e1859955def07f8139a3a2c19195cee092fea01d3134be8b56a9df49",
      "transactionIndex": "0x1",
      "blockHash": "0x1ab450a936c6440ab9745522a54b5242dd806bf17bb2704b46df58b6216b35b6",
      "blockNumber": "0x2621b72",
      "gasUsed": "0x324ae",
      "effectiveGasPrice": "0xba43cfaa0",
      "blobGasUsed": "0x332c0",
      "from": "0xa3327d90d087cdddfb99e598e50b5bdee7fc55bd",
      "to": null,
      "contractAddress": "0x45b2baed94107fba50ee4832bc8820470d535e53"
    },
    {
      "type": "0x0",
      "status": "0x1",
      "cumulativeGasUsed": "0x4510f",
      "logs": [],
      "logsBloom": "0x00000000000000000000000000000000000000000000000000000000000000000000000000000000000000000000000000000000000000000000000000000000000000000000000000000000000000000000000000000000000000000000000000000000000000000000000000000000000000000000000000000000000000000000000000000000000000000000000000000000000000000000000000000000000000000000000000000000000000000000000000000000000000000000000000000000000000000000000000000000000000000000000000000000000000000000000000000000000000000000000000000000000000000000000000000000",
      "transactionHash": "0xa1572ae5fc37ffcc7522c069e6dcf8016de520000f4591e768f8619b6ecaa8a0",
      "transactionIndex": "0x1",
      "blockHash": "0xb199dc0c09851f4ebb6d6ea98d6a278a5e3316df58ef49d1f141f2891f05ad83",
      "blockNumber": "0x2621b75",
      "gasUsed": "0x39c40",
      "effectiveGasPrice": "0xba43cfaa0",
      "blobGasUsed": "0x3afc0",
      "from": "0xa3327d90d087cdddfb99e598e50b5bdee7fc55bd",
      "to": null,
      "contractAddress": "0x4d212b7a37e0b09e734928528f58551e5b75c8cd"
    },
    {
      "type": "0x0",
      "status": "0x1",
      "cumulativeGasUsed": "0xac82e",
      "logs": [],
      "logsBloom": "0x00000000000000000000000000000000000000000000000000000000000000000000000000000000000000000000000000000000000000000000000000000000000000000000000000000000000000000000000000000000000000000000000000000000000000000000000000000000000000000000000000000000000000000000000000000000000000000000000000000000000000000000000000000000000000000000000000000000000000000000000000000000000000000000000000000000000000000000000000000000000000000000000000000000000000000000000000000000000000000000000000000000000000000000000000000000",
      "transactionHash": "0x3f9c8d8f980b06ff96bb4a21563f8436f9d1428e0360197b9f78fc8dae5cfb5b",
      "transactionIndex": "0x3",
      "blockHash": "0xca659a8fca69a2555656a285cd5678f7d81f1e275d502ddb1309f0fe7c96fbe8",
      "blockNumber": "0x2621b78",
      "gasUsed": "0x865bb",
      "effectiveGasPrice": "0xba43cfaa0",
      "blobGasUsed": "0x85ca0",
      "from": "0xa3327d90d087cdddfb99e598e50b5bdee7fc55bd",
      "to": null,
      "contractAddress": "0x6ac14897e3e943e24a24b076e0a8b21f9d8fe544"
    }
  ],
  "libraries": [],
  "pending": [],
  "returns": {},
  "timestamp": 1781512658118,
  "chain": 5003,
  "commit": "98a0236"
}